{
	"contracts/CurrencyReceiver.sol": {
		"CurrencyReceiver": {
			"abi": [
				{
					"inputs": [],
					"stateMutability": "nonpayable",
					"type": "constructor"
				},
				{
					"anonymous": false,
					"inputs": [
						{
							"indexed": true,
							"internalType": "address",
							"name": "previousOwner",
							"type": "address"
						},
						{
							"indexed": true,
							"internalType": "address",
							"name": "newOwner",
							"type": "address"
						}
					],
					"name": "OwnershipTransferred",
					"type": "event"
				},
				{
					"anonymous": false,
					"inputs": [
						{
							"indexed": true,
							"internalType": "address",
							"name": "currency",
							"type": "address"
						},
						{
							"indexed": true,
							"internalType": "address",
							"name": "from",
							"type": "address"
						},
						{
							"indexed": false,
							"internalType": "uint256",
							"name": "amount",
							"type": "uint256"
						},
						{
							"indexed": false,
							"internalType": "string",
							"name": "orderId",
							"type": "string"
						}
					],
					"name": "Pay",
					"type": "event"
				},
				{
					"anonymous": false,
					"inputs": [
						{
							"indexed": true,
							"internalType": "address[]",
							"name": "currency",
							"type": "address[]"
						},
						{
							"indexed": false,
							"internalType": "uint256[]",
							"name": "amount",
							"type": "uint256[]"
						},
						{
							"indexed": true,
							"internalType": "address[]",
							"name": "to",
							"type": "address[]"
						},
						{
							"indexed": false,
							"internalType": "string[]",
							"name": "orderIds",
							"type": "string[]"
						}
					],
					"name": "Refund",
					"type": "event"
				},
				{
					"anonymous": false,
					"inputs": [
						{
							"indexed": true,
							"internalType": "address[]",
							"name": "currency",
							"type": "address[]"
						},
						{
							"indexed": false,
							"internalType": "uint256[]",
							"name": "amount",
							"type": "uint256[]"
						},
						{
							"indexed": true,
							"internalType": "address",
							"name": "to",
							"type": "address"
						},
						{
							"indexed": false,
							"internalType": "string",
							"name": "billId",
							"type": "string"
						}
					],
					"name": "Withdraw",
					"type": "event"
				},
				{
					"inputs": [
						{
							"internalType": "address",
							"name": "currency",
							"type": "address"
						}
					],
					"name": "balanceOf",
					"outputs": [
						{
							"internalType": "uint256",
							"name": "",
							"type": "uint256"
						}
					],
					"stateMutability": "view",
					"type": "function"
				},
				{
					"inputs": [],
					"name": "owner",
					"outputs": [
						{
							"internalType": "address",
							"name": "",
							"type": "address"
						}
					],
					"stateMutability": "view",
					"type": "function"
				},
				{
					"inputs": [
						{
							"internalType": "address",
							"name": "currency",
							"type": "address"
						},
						{
							"internalType": "uint256",
							"name": "amount",
							"type": "uint256"
						},
						{
							"internalType": "string",
							"name": "orderId",
							"type": "string"
						}
					],
					"name": "pay",
					"outputs": [],
					"stateMutability": "nonpayable",
					"type": "function"
				},
				{
					"inputs": [
						{
							"internalType": "address[]",
							"name": "currency",
							"type": "address[]"
						},
						{
							"internalType": "uint256[]",
							"name": "amount",
							"type": "uint256[]"
						},
						{
							"internalType": "address[]",
							"name": "to",
							"type": "address[]"
						},
						{
							"internalType": "string[]",
							"name": "orderId",
							"type": "string[]"
						}
					],
					"name": "refund",
					"outputs": [],
					"stateMutability": "nonpayable",
					"type": "function"
				},
				{
					"inputs": [],
					"name": "renounceOwnership",
					"outputs": [],
					"stateMutability": "nonpayable",
					"type": "function"
				},
				{
					"inputs": [
						{
							"internalType": "address",
							"name": "newOwner",
							"type": "address"
						}
					],
					"name": "transferOwnership",
					"outputs": [],
					"stateMutability": "nonpayable",
					"type": "function"
				},
				{
					"inputs": [
						{
							"internalType": "address[]",
							"name": "currency",
							"type": "address[]"
						},
						{
							"internalType": "uint256[]",
							"name": "amount",
							"type": "uint256[]"
						},
						{
							"internalType": "string",
							"name": "billId",
							"type": "string"
						}
					],
					"name": "withdraw",
					"outputs": [],
					"stateMutability": "nonpayable",
					"type": "function"
				}
			],
			"devdoc": {
				"kind": "dev",
				"methods": {
					"owner()": {
						"details": "Returns the address of the current owner."
					},
					"renounceOwnership()": {
						"details": "Leaves the contract without owner. It will not be possible to call `onlyOwner` functions anymore. Can only be called by the current owner. NOTE: Renouncing ownership will leave the contract without an owner, thereby removing any functionality that is only available to the owner."
					},
					"transferOwnership(address)": {
						"details": "Transfers ownership of the contract to a new account (`newOwner`). Can only be called by the current owner."
					}
				},
				"version": 1
			},
			"evm": {
				"assembly": "    /* \"contracts/CurrencyReceiver.sol\":254:2196  contract CurrencyReceiver is ICurrencyReceiver, Ownable {... */\n  mstore(0x40, 0x80)\n    /* \"contracts/CurrencyReceiver.sol\":350:372  constructor () {... */\n  callvalue\n  dup1\n  iszero\n  tag_1\n  jumpi\n  0x00\n  dup1\n  revert\ntag_1:\n  pop\n    /* \"@openzeppelin/contracts/access/Ownable.sol\":936:968  _transferOwnership(_msgSender()) */\n  tag_5\n    /* \"@openzeppelin/contracts/access/Ownable.sol\":955:967  _msgSender() */\n  tag_6\n    /* \"@openzeppelin/contracts/access/Ownable.sol\":955:965  _msgSender */\n  shl(0x20, tag_7)\n    /* \"@openzeppelin/contracts/access/Ownable.sol\":955:967  _msgSender() */\n  0x20\n  shr\n  jump\t// in\ntag_6:\n    /* \"@openzeppelin/contracts/access/Ownable.sol\":936:954  _transferOwnership */\n  shl(0x20, tag_8)\n    /* \"@openzeppelin/contracts/access/Ownable.sol\":936:968  _transferOwnership(_msgSender()) */\n  0x20\n  shr\n  jump\t// in\ntag_5:\n    /* \"contracts/CurrencyReceiver.sol\":254:2196  contract CurrencyReceiver is ICurrencyReceiver, Ownable {... */\n  jump(tag_10)\n    /* \"@openzeppelin/contracts/utils/Context.sol\":640:736  function _msgSender() internal view virtual returns (address) {... */\ntag_7:\n    /* \"@openzeppelin/contracts/utils/Context.sol\":693:700  address */\n  0x00\n    /* \"@openzeppelin/contracts/utils/Context.sol\":719:729  msg.sender */\n  caller\n    /* \"@openzeppelin/contracts/utils/Context.sol\":712:729  return msg.sender */\n  swap1\n  pop\n    /* \"@openzeppelin/contracts/utils/Context.sol\":640:736  function _msgSender() internal view virtual returns (address) {... */\n  swap1\n  jump\t// out\n    /* \"@openzeppelin/contracts/access/Ownable.sol\":2433:2620  function _transferOwnership(address newOwner) internal virtual {... */\ntag_8:\n    /* \"@openzeppelin/contracts/access/Ownable.sol\":2506:2522  address oldOwner */\n  0x00\n    /* \"@openzeppelin/contracts/access/Ownable.sol\":2525:2531  _owner */\n  dup1\n  0x00\n  swap1\n  sload\n  swap1\n  0x0100\n  exp\n  swap1\n  div\n  0xffffffffffffffffffffffffffffffffffffffff\n  and\n    /* \"@openzeppelin/contracts/access/Ownable.sol\":2506:2531  address oldOwner = _owner */\n  swap1\n  pop\n    /* \"@openzeppelin/contracts/access/Ownable.sol\":2550:2558  newOwner */\n  dup2\n    /* \"@openzeppelin/contracts/access/Ownable.sol\":2541:2547  _owner */\n  0x00\n  dup1\n    /* \"@openzeppelin/contracts/access/Ownable.sol\":2541:2558  _owner = newOwner */\n  0x0100\n  exp\n  dup2\n  sload\n  dup2\n  0xffffffffffffffffffffffffffffffffffffffff\n  mul\n  not\n  and\n  swap1\n  dup4\n  0xffffffffffffffffffffffffffffffffffffffff\n  and\n  mul\n  or\n  swap1\n  sstore\n  pop\n    /* \"@openzeppelin/contracts/access/Ownable.sol\":2604:2612  newOwner */\n  dup2\n    /* \"@openzeppelin/contracts/access/Ownable.sol\":2573:2613  OwnershipTransferred(oldOwner, newOwner) */\n  0xffffffffffffffffffffffffffffffffffffffff\n  and\n    /* \"@openzeppelin/contracts/access/Ownable.sol\":2594:2602  oldOwner */\n  dup2\n    /* \"@openzeppelin/contracts/access/Ownable.sol\":2573:2613  OwnershipTransferred(oldOwner, newOwner) */\n  0xffffffffffffffffffffffffffffffffffffffff\n  and\n  0x8be0079c531659141344cd1fd0a4f28419497f9722a3daafe3b4186f6b6457e0\n  mload(0x40)\n  mload(0x40)\n  dup1\n  swap2\n  sub\n  swap1\n  log3\n    /* \"@openzeppelin/contracts/access/Ownable.sol\":2496:2620  {... */\n  pop\n    /* \"@openzeppelin/contracts/access/Ownable.sol\":2433:2620  function _transferOwnership(address newOwner) internal virtual {... */\n  pop\n  jump\t// out\n    /* \"contracts/CurrencyReceiver.sol\":254:2196  contract CurrencyReceiver is ICurrencyReceiver, Ownable {... */\ntag_10:\n  dataSize(sub_0)\n  dup1\n  dataOffset(sub_0)\n  0x00\n  codecopy\n  0x00\n  return\nstop\n\nsub_0: assembly {\n        /* \"contracts/CurrencyReceiver.sol\":254:2196  contract CurrencyReceiver is ICurrencyReceiver, Ownable {... */\n      mstore(0x40, 0x80)\n      callvalue\n      dup1\n      iszero\n      tag_1\n      jumpi\n      0x00\n      dup1\n      revert\n    tag_1:\n      pop\n      jumpi(tag_2, lt(calldatasize, 0x04))\n      shr(0xe0, calldataload(0x00))\n      dup1\n      0x70a08231\n      gt\n      tag_10\n      jumpi\n      dup1\n      0x70a08231\n      eq\n      tag_6\n      jumpi\n      dup1\n      0x715018a6\n      eq\n      tag_7\n      jumpi\n      dup1\n      0x8da5cb5b\n      eq\n      tag_8\n      jumpi\n      dup1\n      0xf2fde38b\n      eq\n      tag_9\n      jumpi\n      jump(tag_2)\n    tag_10:\n      dup1\n      0x17e78b6c\n      eq\n      tag_3\n      jumpi\n      dup1\n      0x4a4bdb30\n      eq\n      tag_4\n      jumpi\n      dup1\n      0x56edb469\n      eq\n      tag_5\n      jumpi\n    tag_2:\n      0x00\n      dup1\n      revert\n        /* \"contracts/CurrencyReceiver.sol\":742:1297  function withdraw(... */\n    tag_3:\n      tag_11\n      0x04\n      dup1\n      calldatasize\n      sub\n      dup2\n      add\n      swap1\n      tag_12\n      swap2\n      swap1\n      tag_13\n      jump\t// in\n    tag_12:\n      tag_14\n      jump\t// in\n    tag_11:\n      stop\n        /* \"contracts/CurrencyReceiver.sol\":378:736  function pay(... */\n    tag_4:\n      tag_15\n      0x04\n      dup1\n      calldatasize\n      sub\n      dup2\n      add\n      swap1\n      tag_16\n      swap2\n      swap1\n      tag_17\n      jump\t// in\n    tag_16:\n      tag_18\n      jump\t// in\n    tag_15:\n      stop\n        /* \"contracts/CurrencyReceiver.sol\":1303:1974  function refund(... */\n    tag_5:\n      tag_19\n      0x04\n      dup1\n      calldatasize\n      sub\n      dup2\n      add\n      swap1\n      tag_20\n      swap2\n      swap1\n      tag_21\n      jump\t// in\n    tag_20:\n      tag_22\n      jump\t// in\n    tag_19:\n      stop\n        /* \"contracts/CurrencyReceiver.sol\":1980:2194  function balanceOf(... */\n    tag_6:\n      tag_23\n      0x04\n      dup1\n      calldatasize\n      sub\n      dup2\n      add\n      swap1\n      tag_24\n      swap2\n      swap1\n      tag_25\n      jump\t// in\n    tag_24:\n      tag_26\n      jump\t// in\n    tag_23:\n      mload(0x40)\n      tag_27\n      swap2\n      swap1\n      tag_28\n      jump\t// in\n    tag_27:\n      mload(0x40)\n      dup1\n      swap2\n      sub\n      swap1\n      return\n        /* \"@openzeppelin/contracts/access/Ownable.sol\":1831:1932  function renounceOwnership() public virtual onlyOwner {... */\n    tag_7:\n      tag_29\n      tag_30\n      jump\t// in\n    tag_29:\n      stop\n        /* \"@openzeppelin/contracts/access/Ownable.sol\":1201:1286  function owner() public view virtual returns (address) {... */\n    tag_8:\n      tag_31\n      tag_32\n      jump\t// in\n    tag_31:\n      mload(0x40)\n      tag_33\n      swap2\n      swap1\n      tag_34\n      jump\t// in\n    tag_33:\n      mload(0x40)\n      dup1\n      swap2\n      sub\n      swap1\n      return\n        /* \"@openzeppelin/contracts/access/Ownable.sol\":2081:2279  function transferOwnership(address newOwner) public virtual onlyOwner {... */\n    tag_9:\n      tag_35\n      0x04\n      dup1\n      calldatasize\n      sub\n      dup2\n      add\n      swap1\n      tag_36\n      swap2\n      swap1\n      tag_25\n      jump\t// in\n    tag_36:\n      tag_37\n      jump\t// in\n    tag_35:\n      stop\n        /* \"contracts/CurrencyReceiver.sol\":742:1297  function withdraw(... */\n    tag_14:\n        /* \"@openzeppelin/contracts/access/Ownable.sol\":1094:1107  _checkOwner() */\n      tag_39\n        /* \"@openzeppelin/contracts/access/Ownable.sol\":1094:1105  _checkOwner */\n      tag_40\n        /* \"@openzeppelin/contracts/access/Ownable.sol\":1094:1107  _checkOwner() */\n      jump\t// in\n    tag_39:\n        /* \"contracts/CurrencyReceiver.sol\":934:935  0 */\n      0x00\n        /* \"contracts/CurrencyReceiver.sol\":916:924  currency */\n      dup7\n      dup7\n        /* \"contracts/CurrencyReceiver.sol\":916:931  currency.length */\n      swap1\n      pop\n        /* \"contracts/CurrencyReceiver.sol\":916:935  currency.length > 0 */\n      gt\n        /* \"contracts/CurrencyReceiver.sol\":908:952  require(currency.length > 0,\"currency fail\") */\n      tag_42\n      jumpi\n      mload(0x40)\n      0x08c379a000000000000000000000000000000000000000000000000000000000\n      dup2\n      mstore\n      0x04\n      add\n      tag_43\n      swap1\n      tag_44\n      jump\t// in\n    tag_43:\n      mload(0x40)\n      dup1\n      swap2\n      sub\n      swap1\n      revert\n    tag_42:\n        /* \"contracts/CurrencyReceiver.sol\":989:995  amount */\n      dup4\n      dup4\n        /* \"contracts/CurrencyReceiver.sol\":989:1002  amount.length */\n      swap1\n      pop\n        /* \"contracts/CurrencyReceiver.sol\":970:978  currency */\n      dup7\n      dup7\n        /* \"contracts/CurrencyReceiver.sol\":970:985  currency.length */\n      swap1\n      pop\n        /* \"contracts/CurrencyReceiver.sol\":970:1002  currency.length == amount.length */\n      eq\n        /* \"contracts/CurrencyReceiver.sol\":962:1029  require(currency.length == amount.length,\"currency or amount fail\") */\n      tag_45\n      jumpi\n      mload(0x40)\n      0x08c379a000000000000000000000000000000000000000000000000000000000\n      dup2\n      mstore\n      0x04\n      add\n      tag_46\n      swap1\n      tag_47\n      jump\t// in\n    tag_46:\n      mload(0x40)\n      dup1\n      swap2\n      sub\n      swap1\n      revert\n    tag_45:\n        /* \"contracts/CurrencyReceiver.sol\":1040:1050  address to */\n      0x00\n        /* \"contracts/CurrencyReceiver.sol\":1053:1060  owner() */\n      tag_48\n        /* \"contracts/CurrencyReceiver.sol\":1053:1058  owner */\n      tag_32\n        /* \"contracts/CurrencyReceiver.sol\":1053:1060  owner() */\n      jump\t// in\n    tag_48:\n        /* \"contracts/CurrencyReceiver.sol\":1040:1060  address to = owner() */\n      swap1\n      pop\n        /* \"contracts/CurrencyReceiver.sol\":1075:1084  uint256 i */\n      0x00\n        /* \"contracts/CurrencyReceiver.sol\":1071:1232  for(uint256 i=0;i<currency.length;i++) {... */\n    tag_49:\n        /* \"contracts/CurrencyReceiver.sol\":1089:1097  currency */\n      dup8\n      dup8\n        /* \"contracts/CurrencyReceiver.sol\":1089:1104  currency.length */\n      swap1\n      pop\n        /* \"contracts/CurrencyReceiver.sol\":1087:1088  i */\n      dup2\n        /* \"contracts/CurrencyReceiver.sol\":1087:1104  i<currency.length */\n      lt\n        /* \"contracts/CurrencyReceiver.sol\":1071:1232  for(uint256 i=0;i<currency.length;i++) {... */\n      iszero\n      tag_50\n      jumpi\n        /* \"contracts/CurrencyReceiver.sol\":1144:1145  0 */\n      0x00\n        /* \"contracts/CurrencyReceiver.sol\":1132:1138  amount */\n      dup7\n      dup7\n        /* \"contracts/CurrencyReceiver.sol\":1139:1140  i */\n      dup4\n        /* \"contracts/CurrencyReceiver.sol\":1132:1141  amount[i] */\n      dup2\n      dup2\n      lt\n      tag_52\n      jumpi\n      tag_53\n      tag_54\n      jump\t// in\n    tag_53:\n    tag_52:\n      swap1\n      pop\n      0x20\n      mul\n      add\n      calldataload\n        /* \"contracts/CurrencyReceiver.sol\":1132:1145  amount[i] > 0 */\n      gt\n        /* \"contracts/CurrencyReceiver.sol\":1124:1161  require(amount[i] > 0, \"amount fail\") */\n      tag_55\n      jumpi\n      mload(0x40)\n      0x08c379a000000000000000000000000000000000000000000000000000000000\n      dup2\n      mstore\n      0x04\n      add\n      tag_56\n      swap1\n      tag_57\n      jump\t// in\n    tag_56:\n      mload(0x40)\n      dup1\n      swap2\n      sub\n      swap1\n      revert\n    tag_55:\n        /* \"contracts/CurrencyReceiver.sol\":1175:1221  IERC20(currency[i]).safeTransfer(to,amount[i]) */\n      tag_58\n        /* \"contracts/CurrencyReceiver.sol\":1208:1210  to */\n      dup3\n        /* \"contracts/CurrencyReceiver.sol\":1211:1217  amount */\n      dup8\n      dup8\n        /* \"contracts/CurrencyReceiver.sol\":1218:1219  i */\n      dup5\n        /* \"contracts/CurrencyReceiver.sol\":1211:1220  amount[i] */\n      dup2\n      dup2\n      lt\n      tag_59\n      jumpi\n      tag_60\n      tag_54\n      jump\t// in\n    tag_60:\n    tag_59:\n      swap1\n      pop\n      0x20\n      mul\n      add\n      calldataload\n        /* \"contracts/CurrencyReceiver.sol\":1182:1190  currency */\n      dup11\n      dup11\n        /* \"contracts/CurrencyReceiver.sol\":1191:1192  i */\n      dup6\n        /* \"contracts/CurrencyReceiver.sol\":1182:1193  currency[i] */\n      dup2\n      dup2\n      lt\n      tag_61\n      jumpi\n      tag_62\n      tag_54\n      jump\t// in\n    tag_62:\n    tag_61:\n      swap1\n      pop\n      0x20\n      mul\n      add\n      0x20\n      dup2\n      add\n      swap1\n      tag_63\n      swap2\n      swap1\n      tag_25\n      jump\t// in\n    tag_63:\n        /* \"contracts/CurrencyReceiver.sol\":1175:1207  IERC20(currency[i]).safeTransfer */\n      0xffffffffffffffffffffffffffffffffffffffff\n      and\n      tag_64\n      swap1\n        /* \"contracts/CurrencyReceiver.sol\":1175:1221  IERC20(currency[i]).safeTransfer(to,amount[i]) */\n      swap3\n      swap2\n      swap1\n      0xffffffff\n      and\n      jump\t// in\n    tag_58:\n        /* \"contracts/CurrencyReceiver.sol\":1105:1108  i++ */\n      dup1\n      dup1\n      tag_65\n      swap1\n      tag_66\n      jump\t// in\n    tag_65:\n      swap2\n      pop\n      pop\n        /* \"contracts/CurrencyReceiver.sol\":1071:1232  for(uint256 i=0;i<currency.length;i++) {... */\n      jump(tag_49)\n    tag_50:\n      pop\n        /* \"contracts/CurrencyReceiver.sol\":1280:1282  to */\n      dup1\n        /* \"contracts/CurrencyReceiver.sol\":1255:1290  Withdraw(currency,amount,to,billId) */\n      0xffffffffffffffffffffffffffffffffffffffff\n      and\n        /* \"contracts/CurrencyReceiver.sol\":1264:1272  currency */\n      dup8\n      dup8\n        /* \"contracts/CurrencyReceiver.sol\":1255:1290  Withdraw(currency,amount,to,billId) */\n      mload(0x40)\n      tag_67\n      swap3\n      swap2\n      swap1\n      tag_68\n      jump\t// in\n    tag_67:\n      mload(0x40)\n      dup1\n      swap2\n      sub\n      swap1\n      keccak256\n      0x246131af8b217ee0901b4b5a97b3dc7ebf85c4565198d26948c19055597fc002\n        /* \"contracts/CurrencyReceiver.sol\":1273:1279  amount */\n      dup8\n      dup8\n        /* \"contracts/CurrencyReceiver.sol\":1283:1289  billId */\n      dup8\n      dup8\n        /* \"contracts/CurrencyReceiver.sol\":1255:1290  Withdraw(currency,amount,to,billId) */\n      mload(0x40)\n      tag_69\n      swap5\n      swap4\n      swap3\n      swap2\n      swap1\n      tag_70\n      jump\t// in\n    tag_69:\n      mload(0x40)\n      dup1\n      swap2\n      sub\n      swap1\n      log3\n        /* \"contracts/CurrencyReceiver.sol\":898:1297  {... */\n      pop\n        /* \"contracts/CurrencyReceiver.sol\":742:1297  function withdraw(... */\n      pop\n      pop\n      pop\n      pop\n      pop\n      pop\n      jump\t// out\n        /* \"contracts/CurrencyReceiver.sol\":378:736  function pay(... */\n    tag_18:\n        /* \"contracts/CurrencyReceiver.sol\":536:537  0 */\n      0x00\n        /* \"contracts/CurrencyReceiver.sol\":516:538  currency != address(0) */\n      0xffffffffffffffffffffffffffffffffffffffff\n      and\n        /* \"contracts/CurrencyReceiver.sol\":516:524  currency */\n      dup5\n        /* \"contracts/CurrencyReceiver.sol\":516:538  currency != address(0) */\n      0xffffffffffffffffffffffffffffffffffffffff\n      and\n      sub\n        /* \"contracts/CurrencyReceiver.sol\":508:555  require(currency != address(0),\"currency fail\") */\n      tag_72\n      jumpi\n      mload(0x40)\n      0x08c379a000000000000000000000000000000000000000000000000000000000\n      dup2\n      mstore\n      0x04\n      add\n      tag_73\n      swap1\n      tag_44\n      jump\t// in\n    tag_73:\n      mload(0x40)\n      dup1\n      swap2\n      sub\n      swap1\n      revert\n    tag_72:\n        /* \"contracts/CurrencyReceiver.sol\":582:583  0 */\n      0x00\n        /* \"contracts/CurrencyReceiver.sol\":573:579  amount */\n      dup4\n        /* \"contracts/CurrencyReceiver.sol\":573:583  amount > 0 */\n      gt\n        /* \"contracts/CurrencyReceiver.sol\":565:599  require(amount > 0 ,\"amount fail\") */\n      tag_74\n      jumpi\n      mload(0x40)\n      0x08c379a000000000000000000000000000000000000000000000000000000000\n      dup2\n      mstore\n      0x04\n      add\n      tag_75\n      swap1\n      tag_57\n      jump\t// in\n    tag_75:\n      mload(0x40)\n      dup1\n      swap2\n      sub\n      swap1\n      revert\n    tag_74:\n        /* \"contracts/CurrencyReceiver.sol\":609:675  IERC20(currency).safeTransferFrom(msg.sender,address(this),amount) */\n      tag_76\n        /* \"contracts/CurrencyReceiver.sol\":643:653  msg.sender */\n      caller\n        /* \"contracts/CurrencyReceiver.sol\":662:666  this */\n      address\n        /* \"contracts/CurrencyReceiver.sol\":668:674  amount */\n      dup6\n        /* \"contracts/CurrencyReceiver.sol\":616:624  currency */\n      dup8\n        /* \"contracts/CurrencyReceiver.sol\":609:642  IERC20(currency).safeTransferFrom */\n      0xffffffffffffffffffffffffffffffffffffffff\n      and\n      tag_77\n      swap1\n        /* \"contracts/CurrencyReceiver.sol\":609:675  IERC20(currency).safeTransferFrom(msg.sender,address(this),amount) */\n      swap4\n      swap3\n      swap2\n      swap1\n      0xffffffff\n      and\n      jump\t// in\n    tag_76:\n        /* \"contracts/CurrencyReceiver.sol\":703:713  msg.sender */\n      caller\n        /* \"contracts/CurrencyReceiver.sol\":690:729  Pay(currency,msg.sender,amount,orderId) */\n      0xffffffffffffffffffffffffffffffffffffffff\n      and\n        /* \"contracts/CurrencyReceiver.sol\":694:702  currency */\n      dup5\n        /* \"contracts/CurrencyReceiver.sol\":690:729  Pay(currency,msg.sender,amount,orderId) */\n      0xffffffffffffffffffffffffffffffffffffffff\n      and\n      0x5d2ae1cdca5222ec8fffbc4b088f5b5144ad5f4eaf2fc8afc49cd35857671082\n        /* \"contracts/CurrencyReceiver.sol\":714:720  amount */\n      dup6\n        /* \"contracts/CurrencyReceiver.sol\":721:728  orderId */\n      dup6\n      dup6\n        /* \"contracts/CurrencyReceiver.sol\":690:729  Pay(currency,msg.sender,amount,orderId) */\n      mload(0x40)\n      tag_78\n      swap4\n      swap3\n      swap2\n      swap1\n      tag_79\n      jump\t// in\n    tag_78:\n      mload(0x40)\n      dup1\n      swap2\n      sub\n      swap1\n      log3\n        /* \"contracts/CurrencyReceiver.sol\":378:736  function pay(... */\n      pop\n      pop\n      pop\n      pop\n      jump\t// out\n        /* \"contracts/CurrencyReceiver.sol\":1303:1974  function refund(... */\n    tag_22:\n        /* \"@openzeppelin/contracts/access/Ownable.sol\":1094:1107  _checkOwner() */\n      tag_81\n        /* \"@openzeppelin/contracts/access/Ownable.sol\":1094:1105  _checkOwner */\n      tag_40\n        /* \"@openzeppelin/contracts/access/Ownable.sol\":1094:1107  _checkOwner() */\n      jump\t// in\n    tag_81:\n        /* \"contracts/CurrencyReceiver.sol\":1528:1529  0 */\n      0x00\n        /* \"contracts/CurrencyReceiver.sol\":1510:1518  currency */\n      dup9\n      dup9\n        /* \"contracts/CurrencyReceiver.sol\":1510:1525  currency.length */\n      swap1\n      pop\n        /* \"contracts/CurrencyReceiver.sol\":1510:1529  currency.length > 0 */\n      gt\n        /* \"contracts/CurrencyReceiver.sol\":1502:1546  require(currency.length > 0,\"currency fail\") */\n      tag_83\n      jumpi\n      mload(0x40)\n      0x08c379a000000000000000000000000000000000000000000000000000000000\n      dup2\n      mstore\n      0x04\n      add\n      tag_84\n      swap1\n      tag_44\n      jump\t// in\n    tag_84:\n      mload(0x40)\n      dup1\n      swap2\n      sub\n      swap1\n      revert\n    tag_83:\n        /* \"contracts/CurrencyReceiver.sol\":1583:1589  amount */\n      dup6\n      dup6\n        /* \"contracts/CurrencyReceiver.sol\":1583:1596  amount.length */\n      swap1\n      pop\n        /* \"contracts/CurrencyReceiver.sol\":1564:1572  currency */\n      dup9\n      dup9\n        /* \"contracts/CurrencyReceiver.sol\":1564:1579  currency.length */\n      swap1\n      pop\n        /* \"contracts/CurrencyReceiver.sol\":1564:1596  currency.length == amount.length */\n      eq\n        /* \"contracts/CurrencyReceiver.sol\":1556:1611  require(currency.length == amount.length,\"amount fail\") */\n      tag_85\n      jumpi\n      mload(0x40)\n      0x08c379a000000000000000000000000000000000000000000000000000000000\n      dup2\n      mstore\n      0x04\n      add\n      tag_86\n      swap1\n      tag_57\n      jump\t// in\n    tag_86:\n      mload(0x40)\n      dup1\n      swap2\n      sub\n      swap1\n      revert\n    tag_85:\n        /* \"contracts/CurrencyReceiver.sol\":1648:1650  to */\n      dup4\n      dup4\n        /* \"contracts/CurrencyReceiver.sol\":1648:1657  to.length */\n      swap1\n      pop\n        /* \"contracts/CurrencyReceiver.sol\":1629:1637  currency */\n      dup9\n      dup9\n        /* \"contracts/CurrencyReceiver.sol\":1629:1644  currency.length */\n      swap1\n      pop\n        /* \"contracts/CurrencyReceiver.sol\":1629:1657  currency.length == to.length */\n      eq\n        /* \"contracts/CurrencyReceiver.sol\":1621:1668  require(currency.length == to.length,\"to fail\") */\n      tag_87\n      jumpi\n      mload(0x40)\n      0x08c379a000000000000000000000000000000000000000000000000000000000\n      dup2\n      mstore\n      0x04\n      add\n      tag_88\n      swap1\n      tag_89\n      jump\t// in\n    tag_88:\n      mload(0x40)\n      dup1\n      swap2\n      sub\n      swap1\n      revert\n    tag_87:\n        /* \"contracts/CurrencyReceiver.sol\":1705:1712  orderId */\n      dup2\n      dup2\n        /* \"contracts/CurrencyReceiver.sol\":1705:1719  orderId.length */\n      swap1\n      pop\n        /* \"contracts/CurrencyReceiver.sol\":1686:1694  currency */\n      dup9\n      dup9\n        /* \"contracts/CurrencyReceiver.sol\":1686:1701  currency.length */\n      swap1\n      pop\n        /* \"contracts/CurrencyReceiver.sol\":1686:1719  currency.length == orderId.length */\n      eq\n        /* \"contracts/CurrencyReceiver.sol\":1678:1735  require(currency.length == orderId.length,\"orderId fail\") */\n      tag_90\n      jumpi\n      mload(0x40)\n      0x08c379a000000000000000000000000000000000000000000000000000000000\n      dup2\n      mstore\n      0x04\n      add\n      tag_91\n      swap1\n      tag_92\n      jump\t// in\n    tag_91:\n      mload(0x40)\n      dup1\n      swap2\n      sub\n      swap1\n      revert\n    tag_90:\n        /* \"contracts/CurrencyReceiver.sol\":1750:1759  uint256 i */\n      0x00\n        /* \"contracts/CurrencyReceiver.sol\":1746:1910  for(uint256 i=0;i<currency.length;i++) {... */\n    tag_93:\n        /* \"contracts/CurrencyReceiver.sol\":1764:1772  currency */\n      dup9\n      dup9\n        /* \"contracts/CurrencyReceiver.sol\":1764:1779  currency.length */\n      swap1\n      pop\n        /* \"contracts/CurrencyReceiver.sol\":1762:1763  i */\n      dup2\n        /* \"contracts/CurrencyReceiver.sol\":1762:1779  i<currency.length */\n      lt\n        /* \"contracts/CurrencyReceiver.sol\":1746:1910  for(uint256 i=0;i<currency.length;i++) {... */\n      iszero\n      tag_94\n      jumpi\n        /* \"contracts/CurrencyReceiver.sol\":1819:1820  0 */\n      0x00\n        /* \"contracts/CurrencyReceiver.sol\":1807:1813  amount */\n      dup8\n      dup8\n        /* \"contracts/CurrencyReceiver.sol\":1814:1815  i */\n      dup4\n        /* \"contracts/CurrencyReceiver.sol\":1807:1816  amount[i] */\n      dup2\n      dup2\n      lt\n      tag_96\n      jumpi\n      tag_97\n      tag_54\n      jump\t// in\n    tag_97:\n    tag_96:\n      swap1\n      pop\n      0x20\n      mul\n      add\n      calldataload\n        /* \"contracts/CurrencyReceiver.sol\":1807:1820  amount[i] > 0 */\n      gt\n        /* \"contracts/CurrencyReceiver.sol\":1799:1836  require(amount[i] > 0, \"amount fail\") */\n      tag_98\n      jumpi\n      mload(0x40)\n      0x08c379a000000000000000000000000000000000000000000000000000000000\n      dup2\n      mstore\n      0x04\n      add\n      tag_99\n      swap1\n      tag_57\n      jump\t// in\n    tag_99:\n      mload(0x40)\n      dup1\n      swap2\n      sub\n      swap1\n      revert\n    tag_98:\n        /* \"contracts/CurrencyReceiver.sol\":1850:1899  IERC20(currency[i]).safeTransfer(to[i],amount[i]) */\n      tag_100\n        /* \"contracts/CurrencyReceiver.sol\":1883:1885  to */\n      dup6\n      dup6\n        /* \"contracts/CurrencyReceiver.sol\":1886:1887  i */\n      dup4\n        /* \"contracts/CurrencyReceiver.sol\":1883:1888  to[i] */\n      dup2\n      dup2\n      lt\n      tag_101\n      jumpi\n      tag_102\n      tag_54\n      jump\t// in\n    tag_102:\n    tag_101:\n      swap1\n      pop\n      0x20\n      mul\n      add\n      0x20\n      dup2\n      add\n      swap1\n      tag_103\n      swap2\n      swap1\n      tag_25\n      jump\t// in\n    tag_103:\n        /* \"contracts/CurrencyReceiver.sol\":1889:1895  amount */\n      dup9\n      dup9\n        /* \"contracts/CurrencyReceiver.sol\":1896:1897  i */\n      dup5\n        /* \"contracts/CurrencyReceiver.sol\":1889:1898  amount[i] */\n      dup2\n      dup2\n      lt\n      tag_104\n      jumpi\n      tag_105\n      tag_54\n      jump\t// in\n    tag_105:\n    tag_104:\n      swap1\n      pop\n      0x20\n      mul\n      add\n      calldataload\n        /* \"contracts/CurrencyReceiver.sol\":1857:1865  currency */\n      dup12\n      dup12\n        /* \"contracts/CurrencyReceiver.sol\":1866:1867  i */\n      dup6\n        /* \"contracts/CurrencyReceiver.sol\":1857:1868  currency[i] */\n      dup2\n      dup2\n      lt\n      tag_106\n      jumpi\n      tag_107\n      tag_54\n      jump\t// in\n    tag_107:\n    tag_106:\n      swap1\n      pop\n      0x20\n      mul\n      add\n      0x20\n      dup2\n      add\n      swap1\n      tag_108\n      swap2\n      swap1\n      tag_25\n      jump\t// in\n    tag_108:\n        /* \"contracts/CurrencyReceiver.sol\":1850:1882  IERC20(currency[i]).safeTransfer */\n      0xffffffffffffffffffffffffffffffffffffffff\n      and\n      tag_64\n      swap1\n        /* \"contracts/CurrencyReceiver.sol\":1850:1899  IERC20(currency[i]).safeTransfer(to[i],amount[i]) */\n      swap3\n      swap2\n      swap1\n      0xffffffff\n      and\n      jump\t// in\n    tag_100:\n        /* \"contracts/CurrencyReceiver.sol\":1780:1783  i++ */\n      dup1\n      dup1\n      tag_109\n      swap1\n      tag_66\n      jump\t// in\n    tag_109:\n      swap2\n      pop\n      pop\n        /* \"contracts/CurrencyReceiver.sol\":1746:1910  for(uint256 i=0;i<currency.length;i++) {... */\n      jump(tag_93)\n    tag_94:\n      pop\n        /* \"contracts/CurrencyReceiver.sol\":1956:1958  to */\n      dup4\n      dup4\n        /* \"contracts/CurrencyReceiver.sol\":1933:1967  Refund(currency,amount,to,orderId) */\n      mload(0x40)\n      tag_110\n      swap3\n      swap2\n      swap1\n      tag_68\n      jump\t// in\n    tag_110:\n      mload(0x40)\n      dup1\n      swap2\n      sub\n      swap1\n      keccak256\n        /* \"contracts/CurrencyReceiver.sol\":1940:1948  currency */\n      dup9\n      dup9\n        /* \"contracts/CurrencyReceiver.sol\":1933:1967  Refund(currency,amount,to,orderId) */\n      mload(0x40)\n      tag_111\n      swap3\n      swap2\n      swap1\n      tag_68\n      jump\t// in\n    tag_111:\n      mload(0x40)\n      dup1\n      swap2\n      sub\n      swap1\n      keccak256\n      0xa00a8aecfc1929afaf83d428e7b217b6626396c9dd39ad9f5d7327a0bb5e4d13\n        /* \"contracts/CurrencyReceiver.sol\":1949:1955  amount */\n      dup9\n      dup9\n        /* \"contracts/CurrencyReceiver.sol\":1959:1966  orderId */\n      dup7\n      dup7\n        /* \"contracts/CurrencyReceiver.sol\":1933:1967  Refund(currency,amount,to,orderId) */\n      mload(0x40)\n      tag_112\n      swap5\n      swap4\n      swap3\n      swap2\n      swap1\n      tag_113\n      jump\t// in\n    tag_112:\n      mload(0x40)\n      dup1\n      swap2\n      sub\n      swap1\n      log3\n        /* \"contracts/CurrencyReceiver.sol\":1303:1974  function refund(... */\n      pop\n      pop\n      pop\n      pop\n      pop\n      pop\n      pop\n      pop\n      jump\t// out\n        /* \"contracts/CurrencyReceiver.sol\":1980:2194  function balanceOf(... */\n    tag_26:\n        /* \"contracts/CurrencyReceiver.sol\":2063:2070  uint256 */\n      0x00\n        /* \"contracts/CurrencyReceiver.sol\":2110:2111  0 */\n      dup1\n        /* \"contracts/CurrencyReceiver.sol\":2090:2112  currency != address(0) */\n      0xffffffffffffffffffffffffffffffffffffffff\n      and\n        /* \"contracts/CurrencyReceiver.sol\":2090:2098  currency */\n      dup3\n        /* \"contracts/CurrencyReceiver.sol\":2090:2112  currency != address(0) */\n      0xffffffffffffffffffffffffffffffffffffffff\n      and\n      sub\n        /* \"contracts/CurrencyReceiver.sol\":2082:2129  require(currency != address(0),\"currency fail\") */\n      tag_115\n      jumpi\n      mload(0x40)\n      0x08c379a000000000000000000000000000000000000000000000000000000000\n      dup2\n      mstore\n      0x04\n      add\n      tag_116\n      swap1\n      tag_44\n      jump\t// in\n    tag_116:\n      mload(0x40)\n      dup1\n      swap2\n      sub\n      swap1\n      revert\n    tag_115:\n        /* \"contracts/CurrencyReceiver.sol\":2153:2161  currency */\n      dup2\n        /* \"contracts/CurrencyReceiver.sol\":2146:2172  IERC20(currency).balanceOf */\n      0xffffffffffffffffffffffffffffffffffffffff\n      and\n      0x70a08231\n        /* \"contracts/CurrencyReceiver.sol\":2181:2185  this */\n      address\n        /* \"contracts/CurrencyReceiver.sol\":2146:2187  IERC20(currency).balanceOf(address(this)) */\n      mload(0x40)\n      dup3\n      0xffffffff\n      and\n      0xe0\n      shl\n      dup2\n      mstore\n      0x04\n      add\n      tag_117\n      swap2\n      swap1\n      tag_34\n      jump\t// in\n    tag_117:\n      0x20\n      mload(0x40)\n      dup1\n      dup4\n      sub\n      dup2\n      dup7\n      gas\n      staticcall\n      iszero\n      dup1\n      iszero\n      tag_119\n      jumpi\n      returndatasize\n      0x00\n      dup1\n      returndatacopy\n      revert(0x00, returndatasize)\n    tag_119:\n      pop\n      pop\n      pop\n      pop\n      mload(0x40)\n      returndatasize\n      not(0x1f)\n      0x1f\n      dup3\n      add\n      and\n      dup3\n      add\n      dup1\n      0x40\n      mstore\n      pop\n      dup2\n      add\n      swap1\n      tag_120\n      swap2\n      swap1\n      tag_121\n      jump\t// in\n    tag_120:\n        /* \"contracts/CurrencyReceiver.sol\":2139:2187  return IERC20(currency).balanceOf(address(this)) */\n      swap1\n      pop\n        /* \"contracts/CurrencyReceiver.sol\":1980:2194  function balanceOf(... */\n      swap2\n      swap1\n      pop\n      jump\t// out\n        /* \"@openzeppelin/contracts/access/Ownable.sol\":1831:1932  function renounceOwnership() public virtual onlyOwner {... */\n    tag_30:\n        /* \"@openzeppelin/contracts/access/Ownable.sol\":1094:1107  _checkOwner() */\n      tag_123\n        /* \"@openzeppelin/contracts/access/Ownable.sol\":1094:1105  _checkOwner */\n      tag_40\n        /* \"@openzeppelin/contracts/access/Ownable.sol\":1094:1107  _checkOwner() */\n      jump\t// in\n    tag_123:\n        /* \"@openzeppelin/contracts/access/Ownable.sol\":1895:1925  _transferOwnership(address(0)) */\n      tag_125\n        /* \"@openzeppelin/contracts/access/Ownable.sol\":1922:1923  0 */\n      0x00\n        /* \"@openzeppelin/contracts/access/Ownable.sol\":1895:1913  _transferOwnership */\n      tag_126\n        /* \"@openzeppelin/contracts/access/Ownable.sol\":1895:1925  _transferOwnership(address(0)) */\n      jump\t// in\n    tag_125:\n        /* \"@openzeppelin/contracts/access/Ownable.sol\":1831:1932  function renounceOwnership() public virtual onlyOwner {... */\n      jump\t// out\n        /* \"@openzeppelin/contracts/access/Ownable.sol\":1201:1286  function owner() public view virtual returns (address) {... */\n    tag_32:\n        /* \"@openzeppelin/contracts/access/Ownable.sol\":1247:1254  address */\n      0x00\n        /* \"@openzeppelin/contracts/access/Ownable.sol\":1273:1279  _owner */\n      dup1\n      0x00\n      swap1\n      sload\n      swap1\n      0x0100\n      exp\n      swap1\n      div\n      0xffffffffffffffffffffffffffffffffffffffff\n      and\n        /* \"@openzeppelin/contracts/access/Ownable.sol\":1266:1279  return _owner */\n      swap1\n      pop\n        /* \"@openzeppelin/contracts/access/Ownable.sol\":1201:1286  function owner() public view virtual returns (address) {... */\n      swap1\n      jump\t// out\n        /* \"@openzeppelin/contracts/access/Ownable.sol\":2081:2279  function transferOwnership(address newOwner) public virtual onlyOwner {... */\n    tag_37:\n        /* \"@openzeppelin/contracts/access/Ownable.sol\":1094:1107  _checkOwner() */\n      tag_129\n        /* \"@openzeppelin/contracts/access/Ownable.sol\":1094:1105  _checkOwner */\n      tag_40\n        /* \"@openzeppelin/contracts/access/Ownable.sol\":1094:1107  _checkOwner() */\n      jump\t// in\n    tag_129:\n        /* \"@openzeppelin/contracts/access/Ownable.sol\":2189:2190  0 */\n      0x00\n        /* \"@openzeppelin/contracts/access/Ownable.sol\":2169:2191  newOwner != address(0) */\n      0xffffffffffffffffffffffffffffffffffffffff\n      and\n        /* \"@openzeppelin/contracts/access/Ownable.sol\":2169:2177  newOwner */\n      dup2\n        /* \"@openzeppelin/contracts/access/Ownable.sol\":2169:2191  newOwner != address(0) */\n      0xffffffffffffffffffffffffffffffffffffffff\n      and\n      sub\n        /* \"@openzeppelin/contracts/access/Ownable.sol\":2161:2234  require(newOwner != address(0), \"Ownable: new owner is the zero address\") */\n      tag_131\n      jumpi\n      mload(0x40)\n      0x08c379a000000000000000000000000000000000000000000000000000000000\n      dup2\n      mstore\n      0x04\n      add\n      tag_132\n      swap1\n      tag_133\n      jump\t// in\n    tag_132:\n      mload(0x40)\n      dup1\n      swap2\n      sub\n      swap1\n      revert\n    tag_131:\n        /* \"@openzeppelin/contracts/access/Ownable.sol\":2244:2272  _transferOwnership(newOwner) */\n      tag_134\n        /* \"@openzeppelin/contracts/access/Ownable.sol\":2263:2271  newOwner */\n      dup2\n        /* \"@openzeppelin/contracts/access/Ownable.sol\":2244:2262  _transferOwnership */\n      tag_126\n        /* \"@openzeppelin/contracts/access/Ownable.sol\":2244:2272  _transferOwnership(newOwner) */\n      jump\t// in\n    tag_134:\n        /* \"@openzeppelin/contracts/access/Ownable.sol\":2081:2279  function transferOwnership(address newOwner) public virtual onlyOwner {... */\n      pop\n      jump\t// out\n        /* \"@openzeppelin/contracts/access/Ownable.sol\":1359:1489  function _checkOwner() internal view virtual {... */\n    tag_40:\n        /* \"@openzeppelin/contracts/access/Ownable.sol\":1433:1445  _msgSender() */\n      tag_136\n        /* \"@openzeppelin/contracts/access/Ownable.sol\":1433:1443  _msgSender */\n      tag_137\n        /* \"@openzeppelin/contracts/access/Ownable.sol\":1433:1445  _msgSender() */\n      jump\t// in\n    tag_136:\n        /* \"@openzeppelin/contracts/access/Ownable.sol\":1422:1445  owner() == _msgSender() */\n      0xffffffffffffffffffffffffffffffffffffffff\n      and\n        /* \"@openzeppelin/contracts/access/Ownable.sol\":1422:1429  owner() */\n      tag_138\n        /* \"@openzeppelin/contracts/access/Ownable.sol\":1422:1427  owner */\n      tag_32\n        /* \"@openzeppelin/contracts/access/Ownable.sol\":1422:1429  owner() */\n      jump\t// in\n    tag_138:\n        /* \"@openzeppelin/contracts/access/Ownable.sol\":1422:1445  owner() == _msgSender() */\n      0xffffffffffffffffffffffffffffffffffffffff\n      and\n      eq\n        /* \"@openzeppelin/contracts/access/Ownable.sol\":1414:1482  require(owner() == _msgSender(), \"Ownable: caller is not the owner\") */\n      tag_139\n      jumpi\n      mload(0x40)\n      0x08c379a000000000000000000000000000000000000000000000000000000000\n      dup2\n      mstore\n      0x04\n      add\n      tag_140\n      swap1\n      tag_141\n      jump\t// in\n    tag_140:\n      mload(0x40)\n      dup1\n      swap2\n      sub\n      swap1\n      revert\n    tag_139:\n        /* \"@openzeppelin/contracts/access/Ownable.sol\":1359:1489  function _checkOwner() internal view virtual {... */\n      jump\t// out\n        /* \"@openzeppelin/contracts/token/ERC20/utils/SafeERC20.sol\":763:968  function safeTransfer(... */\n    tag_64:\n        /* \"@openzeppelin/contracts/token/ERC20/utils/SafeERC20.sol\":875:961  _callOptionalReturn(token, abi.encodeWithSelector(token.transfer.selector, to, value)) */\n      tag_143\n        /* \"@openzeppelin/contracts/token/ERC20/utils/SafeERC20.sol\":895:900  token */\n      dup4\n        /* \"@openzeppelin/contracts/token/ERC20/utils/SafeERC20.sol\":925:948  token.transfer.selector */\n      shl(0xe0, 0xa9059cbb)\n        /* \"@openzeppelin/contracts/token/ERC20/utils/SafeERC20.sol\":950:952  to */\n      dup5\n        /* \"@openzeppelin/contracts/token/ERC20/utils/SafeERC20.sol\":954:959  value */\n      dup5\n        /* \"@openzeppelin/contracts/token/ERC20/utils/SafeERC20.sol\":902:960  abi.encodeWithSelector(token.transfer.selector, to, value) */\n      add(0x24, mload(0x40))\n      tag_144\n      swap3\n      swap2\n      swap1\n      tag_145\n      jump\t// in\n    tag_144:\n      mload(0x40)\n      0x20\n      dup2\n      dup4\n      sub\n      sub\n      dup2\n      mstore\n      swap1\n      0x40\n      mstore\n      swap1\n      not(0xffffffffffffffffffffffffffffffffffffffffffffffffffffffff)\n      and\n      0x20\n      dup3\n      add\n      dup1\n      mload\n      0xffffffffffffffffffffffffffffffffffffffffffffffffffffffff\n      dup4\n      dup2\n      dup4\n      and\n      or\n      dup4\n      mstore\n      pop\n      pop\n      pop\n      pop\n        /* \"@openzeppelin/contracts/token/ERC20/utils/SafeERC20.sol\":875:894  _callOptionalReturn */\n      tag_146\n        /* \"@openzeppelin/contracts/token/ERC20/utils/SafeERC20.sol\":875:961  _callOptionalReturn(token, abi.encodeWithSelector(token.transfer.selector, to, value)) */\n      jump\t// in\n    tag_143:\n        /* \"@openzeppelin/contracts/token/ERC20/utils/SafeERC20.sol\":763:968  function safeTransfer(... */\n      pop\n      pop\n      pop\n      jump\t// out\n        /* \"@openzeppelin/contracts/token/ERC20/utils/SafeERC20.sol\":974:1215  function safeTransferFrom(... */\n    tag_77:\n        /* \"@openzeppelin/contracts/token/ERC20/utils/SafeERC20.sol\":1112:1208  _callOptionalReturn(token, abi.encodeWithSelector(token.transferFrom.selector, from, to, value)) */\n      tag_148\n        /* \"@openzeppelin/contracts/token/ERC20/utils/SafeERC20.sol\":1132:1137  token */\n      dup5\n        /* \"@openzeppelin/contracts/token/ERC20/utils/SafeERC20.sol\":1162:1189  token.transferFrom.selector */\n      shl(0xe0, 0x23b872dd)\n        /* \"@openzeppelin/contracts/token/ERC20/utils/SafeERC20.sol\":1191:1195  from */\n      dup6\n        /* \"@openzeppelin/contracts/token/ERC20/utils/SafeERC20.sol\":1197:1199  to */\n      dup6\n        /* \"@openzeppelin/contracts/token/ERC20/utils/SafeERC20.sol\":1201:1206  value */\n      dup6\n        /* \"@openzeppelin/contracts/token/ERC20/utils/SafeERC20.sol\":1139:1207  abi.encodeWithSelector(token.transferFrom.selector, from, to, value) */\n      add(0x24, mload(0x40))\n      tag_149\n      swap4\n      swap3\n      swap2\n      swap1\n      tag_150\n      jump\t// in\n    tag_149:\n      mload(0x40)\n      0x20\n      dup2\n      dup4\n      sub\n      sub\n      dup2\n      mstore\n      swap1\n      0x40\n      mstore\n      swap1\n      not(0xffffffffffffffffffffffffffffffffffffffffffffffffffffffff)\n      and\n      0x20\n      dup3\n      add\n      dup1\n      mload\n      0xffffffffffffffffffffffffffffffffffffffffffffffffffffffff\n      dup4\n      dup2\n      dup4\n      and\n      or\n      dup4\n      mstore\n      pop\n      pop\n      pop\n      pop\n        /* \"@openzeppelin/contracts/token/ERC20/utils/SafeERC20.sol\":1112:1131  _callOptionalReturn */\n      tag_146\n        /* \"@openzeppelin/contracts/token/ERC20/utils/SafeERC20.sol\":1112:1208  _callOptionalReturn(token, abi.encodeWithSelector(token.transferFrom.selector, from, to, value)) */\n      jump\t// in\n    tag_148:\n        /* \"@openzeppelin/contracts/token/ERC20/utils/SafeERC20.sol\":974:1215  function safeTransferFrom(... */\n      pop\n      pop\n      pop\n      pop\n      jump\t// out\n        /* \"@openzeppelin/contracts/access/Ownable.sol\":2433:2620  function _transferOwnership(address newOwner) internal virtual {... */\n    tag_126:\n        /* \"@openzeppelin/contracts/access/Ownable.sol\":2506:2522  address oldOwner */\n      0x00\n        /* \"@openzeppelin/contracts/access/Ownable.sol\":2525:2531  _owner */\n      dup1\n      0x00\n      swap1\n      sload\n      swap1\n      0x0100\n      exp\n      swap1\n      div\n      0xffffffffffffffffffffffffffffffffffffffff\n      and\n        /* \"@openzeppelin/contracts/access/Ownable.sol\":2506:2531  address oldOwner = _owner */\n      swap1\n      pop\n        /* \"@openzeppelin/contracts/access/Ownable.sol\":2550:2558  newOwner */\n      dup2\n        /* \"@openzeppelin/contracts/access/Ownable.sol\":2541:2547  _owner */\n      0x00\n      dup1\n        /* \"@openzeppelin/contracts/access/Ownable.sol\":2541:2558  _owner = newOwner */\n      0x0100\n      exp\n      dup2\n      sload\n      dup2\n      0xffffffffffffffffffffffffffffffffffffffff\n      mul\n      not\n      and\n      swap1\n      dup4\n      0xffffffffffffffffffffffffffffffffffffffff\n      and\n      mul\n      or\n      swap1\n      sstore\n      pop\n        /* \"@openzeppelin/contracts/access/Ownable.sol\":2604:2612  newOwner */\n      dup2\n        /* \"@openzeppelin/contracts/access/Ownable.sol\":2573:2613  OwnershipTransferred(oldOwner, newOwner) */\n      0xffffffffffffffffffffffffffffffffffffffff\n      and\n        /* \"@openzeppelin/contracts/access/Ownable.sol\":2594:2602  oldOwner */\n      dup2\n        /* \"@openzeppelin/contracts/access/Ownable.sol\":2573:2613  OwnershipTransferred(oldOwner, newOwner) */\n      0xffffffffffffffffffffffffffffffffffffffff\n      and\n      0x8be0079c531659141344cd1fd0a4f28419497f9722a3daafe3b4186f6b6457e0\n      mload(0x40)\n      mload(0x40)\n      dup1\n      swap2\n      sub\n      swap1\n      log3\n        /* \"@openzeppelin/contracts/access/Ownable.sol\":2496:2620  {... */\n      pop\n        /* \"@openzeppelin/contracts/access/Ownable.sol\":2433:2620  function _transferOwnership(address newOwner) internal virtual {... */\n      pop\n      jump\t// out\n        /* \"@openzeppelin/contracts/utils/Context.sol\":640:736  function _msgSender() internal view virtual returns (address) {... */\n    tag_137:\n        /* \"@openzeppelin/contracts/utils/Context.sol\":693:700  address */\n      0x00\n        /* \"@openzeppelin/contracts/utils/Context.sol\":719:729  msg.sender */\n      caller\n        /* \"@openzeppelin/contracts/utils/Context.sol\":712:729  return msg.sender */\n      swap1\n      pop\n        /* \"@openzeppelin/contracts/utils/Context.sol\":640:736  function _msgSender() internal view virtual returns (address) {... */\n      swap1\n      jump\t// out\n        /* \"@openzeppelin/contracts/token/ERC20/utils/SafeERC20.sol\":3747:4453  function _callOptionalReturn(IERC20 token, bytes memory data) private {... */\n    tag_146:\n        /* \"@openzeppelin/contracts/token/ERC20/utils/SafeERC20.sol\":4166:4189  bytes memory returndata */\n      0x00\n        /* \"@openzeppelin/contracts/token/ERC20/utils/SafeERC20.sol\":4192:4261  address(token).functionCall(data, \"SafeERC20: low-level call failed\") */\n      tag_154\n        /* \"@openzeppelin/contracts/token/ERC20/utils/SafeERC20.sol\":4220:4224  data */\n      dup3\n        /* \"@openzeppelin/contracts/token/ERC20/utils/SafeERC20.sol\":4192:4261  address(token).functionCall(data, \"SafeERC20: low-level call failed\") */\n      mload(0x40)\n      dup1\n      0x40\n      add\n      0x40\n      mstore\n      dup1\n      0x20\n      dup2\n      mstore\n      0x20\n      add\n      0x5361666545524332303a206c6f772d6c6576656c2063616c6c206661696c6564\n      dup2\n      mstore\n      pop\n        /* \"@openzeppelin/contracts/token/ERC20/utils/SafeERC20.sol\":4200:4205  token */\n      dup6\n        /* \"@openzeppelin/contracts/token/ERC20/utils/SafeERC20.sol\":4192:4219  address(token).functionCall */\n      0xffffffffffffffffffffffffffffffffffffffff\n      and\n      tag_155\n      swap1\n        /* \"@openzeppelin/contracts/token/ERC20/utils/SafeERC20.sol\":4192:4261  address(token).functionCall(data, \"SafeERC20: low-level call failed\") */\n      swap3\n      swap2\n      swap1\n      0xffffffff\n      and\n      jump\t// in\n    tag_154:\n        /* \"@openzeppelin/contracts/token/ERC20/utils/SafeERC20.sol\":4166:4261  bytes memory returndata = address(token).functionCall(data, \"SafeERC20: low-level call failed\") */\n      swap1\n      pop\n        /* \"@openzeppelin/contracts/token/ERC20/utils/SafeERC20.sol\":4295:4296  0 */\n      0x00\n        /* \"@openzeppelin/contracts/token/ERC20/utils/SafeERC20.sol\":4275:4285  returndata */\n      dup2\n        /* \"@openzeppelin/contracts/token/ERC20/utils/SafeERC20.sol\":4275:4292  returndata.length */\n      mload\n        /* \"@openzeppelin/contracts/token/ERC20/utils/SafeERC20.sol\":4275:4296  returndata.length > 0 */\n      gt\n        /* \"@openzeppelin/contracts/token/ERC20/utils/SafeERC20.sol\":4271:4447  if (returndata.length > 0) {... */\n      iszero\n      tag_156\n      jumpi\n        /* \"@openzeppelin/contracts/token/ERC20/utils/SafeERC20.sol\":4370:4380  returndata */\n      dup1\n        /* \"@openzeppelin/contracts/token/ERC20/utils/SafeERC20.sol\":4359:4389  abi.decode(returndata, (bool)) */\n      dup1\n      0x20\n      add\n      swap1\n      mload\n      dup2\n      add\n      swap1\n      tag_157\n      swap2\n      swap1\n      tag_158\n      jump\t// in\n    tag_157:\n        /* \"@openzeppelin/contracts/token/ERC20/utils/SafeERC20.sol\":4351:4436  require(abi.decode(returndata, (bool)), \"SafeERC20: ERC20 operation did not succeed\") */\n      tag_159\n      jumpi\n      mload(0x40)\n      0x08c379a000000000000000000000000000000000000000000000000000000000\n      dup2\n      mstore\n      0x04\n      add\n      tag_160\n      swap1\n      tag_161\n      jump\t// in\n    tag_160:\n      mload(0x40)\n      dup1\n      swap2\n      sub\n      swap1\n      revert\n    tag_159:\n        /* \"@openzeppelin/contracts/token/ERC20/utils/SafeERC20.sol\":4271:4447  if (returndata.length > 0) {... */\n    tag_156:\n        /* \"@openzeppelin/contracts/token/ERC20/utils/SafeERC20.sol\":3817:4453  {... */\n      pop\n        /* \"@openzeppelin/contracts/token/ERC20/utils/SafeERC20.sol\":3747:4453  function _callOptionalReturn(IERC20 token, bytes memory data) private {... */\n      pop\n      pop\n      jump\t// out\n        /* \"@openzeppelin/contracts/utils/Address.sol\":3873:4096  function functionCall(... */\n    tag_155:\n        /* \"@openzeppelin/contracts/utils/Address.sol\":4006:4018  bytes memory */\n      0x60\n        /* \"@openzeppelin/contracts/utils/Address.sol\":4037:4089  functionCallWithValue(target, data, 0, errorMessage) */\n      tag_163\n        /* \"@openzeppelin/contracts/utils/Address.sol\":4059:4065  target */\n      dup5\n        /* \"@openzeppelin/contracts/utils/Address.sol\":4067:4071  data */\n      dup5\n        /* \"@openzeppelin/contracts/utils/Address.sol\":4073:4074  0 */\n      0x00\n        /* \"@openzeppelin/contracts/utils/Address.sol\":4076:4088  errorMessage */\n      dup6\n        /* \"@openzeppelin/contracts/utils/Address.sol\":4037:4058  functionCallWithValue */\n      tag_164\n        /* \"@openzeppelin/contracts/utils/Address.sol\":4037:4089  functionCallWithValue(target, data, 0, errorMessage) */\n      jump\t// in\n    tag_163:\n        /* \"@openzeppelin/contracts/utils/Address.sol\":4030:4089  return functionCallWithValue(target, data, 0, errorMessage) */\n      swap1\n      pop\n        /* \"@openzeppelin/contracts/utils/Address.sol\":3873:4096  function functionCall(... */\n      swap4\n      swap3\n      pop\n      pop\n      pop\n      jump\t// out\n        /* \"@openzeppelin/contracts/utils/Address.sol\":4960:5406  function functionCallWithValue(... */\n    tag_164:\n        /* \"@openzeppelin/contracts/utils/Address.sol\":5125:5137  bytes memory */\n      0x60\n        /* \"@openzeppelin/contracts/utils/Address.sol\":5182:5187  value */\n      dup3\n        /* \"@openzeppelin/contracts/utils/Address.sol\":5157:5178  address(this).balance */\n      selfbalance\n        /* \"@openzeppelin/contracts/utils/Address.sol\":5157:5187  address(this).balance >= value */\n      lt\n      iszero\n        /* \"@openzeppelin/contracts/utils/Address.sol\":5149:5230  require(address(this).balance >= value, \"Address: insufficient balance for call\") */\n      tag_166\n      jumpi\n      mload(0x40)\n      0x08c379a000000000000000000000000000000000000000000000000000000000\n      dup2\n      mstore\n      0x04\n      add\n      tag_167\n      swap1\n      tag_168\n      jump\t// in\n    tag_167:\n      mload(0x40)\n      dup1\n      swap2\n      sub\n      swap1\n      revert\n    tag_166:\n        /* \"@openzeppelin/contracts/utils/Address.sol\":5241:5253  bool success */\n      0x00\n        /* \"@openzeppelin/contracts/utils/Address.sol\":5255:5278  bytes memory returndata */\n      dup1\n        /* \"@openzeppelin/contracts/utils/Address.sol\":5282:5288  target */\n      dup7\n        /* \"@openzeppelin/contracts/utils/Address.sol\":5282:5293  target.call */\n      0xffffffffffffffffffffffffffffffffffffffff\n      and\n        /* \"@openzeppelin/contracts/utils/Address.sol\":5301:5306  value */\n      dup6\n        /* \"@openzeppelin/contracts/utils/Address.sol\":5308:5312  data */\n      dup8\n        /* \"@openzeppelin/contracts/utils/Address.sol\":5282:5313  target.call{value: value}(data) */\n      mload(0x40)\n      tag_169\n      swap2\n      swap1\n      tag_170\n      jump\t// in\n    tag_169:\n      0x00\n      mload(0x40)\n      dup1\n      dup4\n      sub\n      dup2\n      dup6\n      dup8\n      gas\n      call\n      swap3\n      pop\n      pop\n      pop\n      returndatasize\n      dup1\n      0x00\n      dup2\n      eq\n      tag_173\n      jumpi\n      mload(0x40)\n      swap2\n      pop\n      and(add(returndatasize, 0x3f), not(0x1f))\n      dup3\n      add\n      0x40\n      mstore\n      returndatasize\n      dup3\n      mstore\n      returndatasize\n      0x00\n      0x20\n      dup5\n      add\n      returndatacopy\n      jump(tag_172)\n    tag_173:\n      0x60\n      swap2\n      pop\n    tag_172:\n      pop\n        /* \"@openzeppelin/contracts/utils/Address.sol\":5240:5313  (bool success, bytes memory returndata) = target.call{value: value}(data) */\n      swap2\n      pop\n      swap2\n      pop\n        /* \"@openzeppelin/contracts/utils/Address.sol\":5330:5399  verifyCallResultFromTarget(target, success, returndata, errorMessage) */\n      tag_174\n        /* \"@openzeppelin/contracts/utils/Address.sol\":5357:5363  target */\n      dup8\n        /* \"@openzeppelin/contracts/utils/Address.sol\":5365:5372  success */\n      dup4\n        /* \"@openzeppelin/contracts/utils/Address.sol\":5374:5384  returndata */\n      dup4\n        /* \"@openzeppelin/contracts/utils/Address.sol\":5386:5398  errorMessage */\n      dup8\n        /* \"@openzeppelin/contracts/utils/Address.sol\":5330:5356  verifyCallResultFromTarget */\n      tag_175\n        /* \"@openzeppelin/contracts/utils/Address.sol\":5330:5399  verifyCallResultFromTarget(target, success, returndata, errorMessage) */\n      jump\t// in\n    tag_174:\n        /* \"@openzeppelin/contracts/utils/Address.sol\":5323:5399  return verifyCallResultFromTarget(target, success, returndata, errorMessage) */\n      swap3\n      pop\n      pop\n      pop\n        /* \"@openzeppelin/contracts/utils/Address.sol\":4960:5406  function functionCallWithValue(... */\n      swap5\n      swap4\n      pop\n      pop\n      pop\n      pop\n      jump\t// out\n        /* \"@openzeppelin/contracts/utils/Address.sol\":7466:8094  function verifyCallResultFromTarget(... */\n    tag_175:\n        /* \"@openzeppelin/contracts/utils/Address.sol\":7646:7658  bytes memory */\n      0x60\n        /* \"@openzeppelin/contracts/utils/Address.sol\":7674:7681  success */\n      dup4\n        /* \"@openzeppelin/contracts/utils/Address.sol\":7670:8088  if (success) {... */\n      iszero\n      tag_177\n      jumpi\n        /* \"@openzeppelin/contracts/utils/Address.sol\":7722:7723  0 */\n      0x00\n        /* \"@openzeppelin/contracts/utils/Address.sol\":7701:7711  returndata */\n      dup4\n        /* \"@openzeppelin/contracts/utils/Address.sol\":7701:7718  returndata.length */\n      mload\n        /* \"@openzeppelin/contracts/utils/Address.sol\":7701:7723  returndata.length == 0 */\n      sub\n        /* \"@openzeppelin/contracts/utils/Address.sol\":7697:7983  if (returndata.length == 0) {... */\n      tag_178\n      jumpi\n        /* \"@openzeppelin/contracts/utils/Address.sol\":7916:7934  isContract(target) */\n      tag_179\n        /* \"@openzeppelin/contracts/utils/Address.sol\":7927:7933  target */\n      dup6\n        /* \"@openzeppelin/contracts/utils/Address.sol\":7916:7926  isContract */\n      tag_180\n        /* \"@openzeppelin/contracts/utils/Address.sol\":7916:7934  isContract(target) */\n      jump\t// in\n    tag_179:\n        /* \"@openzeppelin/contracts/utils/Address.sol\":7908:7968  require(isContract(target), \"Address: call to non-contract\") */\n      tag_181\n      jumpi\n      mload(0x40)\n      0x08c379a000000000000000000000000000000000000000000000000000000000\n      dup2\n      mstore\n      0x04\n      add\n      tag_182\n      swap1\n      tag_183\n      jump\t// in\n    tag_182:\n      mload(0x40)\n      dup1\n      swap2\n      sub\n      swap1\n      revert\n    tag_181:\n        /* \"@openzeppelin/contracts/utils/Address.sol\":7697:7983  if (returndata.length == 0) {... */\n    tag_178:\n        /* \"@openzeppelin/contracts/utils/Address.sol\":8003:8013  returndata */\n      dup3\n        /* \"@openzeppelin/contracts/utils/Address.sol\":7996:8013  return returndata */\n      swap1\n      pop\n      jump(tag_176)\n        /* \"@openzeppelin/contracts/utils/Address.sol\":7670:8088  if (success) {... */\n    tag_177:\n        /* \"@openzeppelin/contracts/utils/Address.sol\":8044:8077  _revert(returndata, errorMessage) */\n      tag_185\n        /* \"@openzeppelin/contracts/utils/Address.sol\":8052:8062  returndata */\n      dup4\n        /* \"@openzeppelin/contracts/utils/Address.sol\":8064:8076  errorMessage */\n      dup4\n        /* \"@openzeppelin/contracts/utils/Address.sol\":8044:8051  _revert */\n      tag_186\n        /* \"@openzeppelin/contracts/utils/Address.sol\":8044:8077  _revert(returndata, errorMessage) */\n      jump\t// in\n    tag_185:\n        /* \"@openzeppelin/contracts/utils/Address.sol\":7466:8094  function verifyCallResultFromTarget(... */\n    tag_176:\n      swap5\n      swap4\n      pop\n      pop\n      pop\n      pop\n      jump\t// out\n        /* \"@openzeppelin/contracts/utils/Address.sol\":1175:1495  function isContract(address account) internal view returns (bool) {... */\n    tag_180:\n        /* \"@openzeppelin/contracts/utils/Address.sol\":1235:1239  bool */\n      0x00\n        /* \"@openzeppelin/contracts/utils/Address.sol\":1487:1488  0 */\n      dup1\n        /* \"@openzeppelin/contracts/utils/Address.sol\":1465:1472  account */\n      dup3\n        /* \"@openzeppelin/contracts/utils/Address.sol\":1465:1484  account.code.length */\n      0xffffffffffffffffffffffffffffffffffffffff\n      and\n      extcodesize\n        /* \"@openzeppelin/contracts/utils/Address.sol\":1465:1488  account.code.length > 0 */\n      gt\n        /* \"@openzeppelin/contracts/utils/Address.sol\":1458:1488  return account.code.length > 0 */\n      swap1\n      pop\n        /* \"@openzeppelin/contracts/utils/Address.sol\":1175:1495  function isContract(address account) internal view returns (bool) {... */\n      swap2\n      swap1\n      pop\n      jump\t// out\n        /* \"@openzeppelin/contracts/utils/Address.sol\":8616:9156  function _revert(bytes memory returndata, string memory errorMessage) private pure {... */\n    tag_186:\n        /* \"@openzeppelin/contracts/utils/Address.sol\":8795:8796  0 */\n      0x00\n        /* \"@openzeppelin/contracts/utils/Address.sol\":8775:8785  returndata */\n      dup3\n        /* \"@openzeppelin/contracts/utils/Address.sol\":8775:8792  returndata.length */\n      mload\n        /* \"@openzeppelin/contracts/utils/Address.sol\":8775:8796  returndata.length > 0 */\n      gt\n        /* \"@openzeppelin/contracts/utils/Address.sol\":8771:9150  if (returndata.length > 0) {... */\n      iszero\n      tag_189\n      jumpi\n        /* \"@openzeppelin/contracts/utils/Address.sol\":9003:9013  returndata */\n      dup2\n        /* \"@openzeppelin/contracts/utils/Address.sol\":8997:9014  mload(returndata) */\n      mload\n        /* \"@openzeppelin/contracts/utils/Address.sol\":9059:9074  returndata_size */\n      dup1\n        /* \"@openzeppelin/contracts/utils/Address.sol\":9046:9056  returndata */\n      dup4\n        /* \"@openzeppelin/contracts/utils/Address.sol\":9042:9044  32 */\n      0x20\n        /* \"@openzeppelin/contracts/utils/Address.sol\":9038:9057  add(32, returndata) */\n      add\n        /* \"@openzeppelin/contracts/utils/Address.sol\":9031:9075  revert(add(32, returndata), returndata_size) */\n      revert\n        /* \"@openzeppelin/contracts/utils/Address.sol\":8771:9150  if (returndata.length > 0) {... */\n    tag_189:\n        /* \"@openzeppelin/contracts/utils/Address.sol\":9126:9138  errorMessage */\n      dup1\n        /* \"@openzeppelin/contracts/utils/Address.sol\":9119:9139  revert(errorMessage) */\n      mload(0x40)\n      0x08c379a000000000000000000000000000000000000000000000000000000000\n      dup2\n      mstore\n      0x04\n      add\n      tag_191\n      swap2\n      swap1\n      tag_192\n      jump\t// in\n    tag_191:\n      mload(0x40)\n      dup1\n      swap2\n      sub\n      swap1\n      revert\n        /* \"#utility.yul\":88:205   */\n    tag_194:\n        /* \"#utility.yul\":197:198   */\n      0x00\n        /* \"#utility.yul\":194:195   */\n      dup1\n        /* \"#utility.yul\":187:199   */\n      revert\n        /* \"#utility.yul\":211:328   */\n    tag_195:\n        /* \"#utility.yul\":320:321   */\n      0x00\n        /* \"#utility.yul\":317:318   */\n      dup1\n        /* \"#utility.yul\":310:322   */\n      revert\n        /* \"#utility.yul\":334:451   */\n    tag_196:\n        /* \"#utility.yul\":443:444   */\n      0x00\n        /* \"#utility.yul\":440:441   */\n      dup1\n        /* \"#utility.yul\":433:445   */\n      revert\n        /* \"#utility.yul\":457:574   */\n    tag_197:\n        /* \"#utility.yul\":566:567   */\n      0x00\n        /* \"#utility.yul\":563:564   */\n      dup1\n        /* \"#utility.yul\":556:568   */\n      revert\n        /* \"#utility.yul\":580:697   */\n    tag_198:\n        /* \"#utility.yul\":689:690   */\n      0x00\n        /* \"#utility.yul\":686:687   */\n      dup1\n        /* \"#utility.yul\":679:691   */\n      revert\n        /* \"#utility.yul\":720:1288   */\n    tag_199:\n        /* \"#utility.yul\":793:801   */\n      0x00\n        /* \"#utility.yul\":803:809   */\n      dup1\n        /* \"#utility.yul\":853:856   */\n      dup4\n        /* \"#utility.yul\":846:850   */\n      0x1f\n        /* \"#utility.yul\":838:844   */\n      dup5\n        /* \"#utility.yul\":834:851   */\n      add\n        /* \"#utility.yul\":830:857   */\n      slt\n        /* \"#utility.yul\":820:942   */\n      tag_277\n      jumpi\n        /* \"#utility.yul\":861:940   */\n      tag_278\n      tag_196\n      jump\t// in\n    tag_278:\n        /* \"#utility.yul\":820:942   */\n    tag_277:\n        /* \"#utility.yul\":974:980   */\n      dup3\n        /* \"#utility.yul\":961:981   */\n      calldataload\n        /* \"#utility.yul\":951:981   */\n      swap1\n      pop\n        /* \"#utility.yul\":1004:1022   */\n      0xffffffffffffffff\n        /* \"#utility.yul\":996:1002   */\n      dup2\n        /* \"#utility.yul\":993:1023   */\n      gt\n        /* \"#utility.yul\":990:1107   */\n      iszero\n      tag_279\n      jumpi\n        /* \"#utility.yul\":1026:1105   */\n      tag_280\n      tag_197\n      jump\t// in\n    tag_280:\n        /* \"#utility.yul\":990:1107   */\n    tag_279:\n        /* \"#utility.yul\":1140:1144   */\n      0x20\n        /* \"#utility.yul\":1132:1138   */\n      dup4\n        /* \"#utility.yul\":1128:1145   */\n      add\n        /* \"#utility.yul\":1116:1145   */\n      swap2\n      pop\n        /* \"#utility.yul\":1194:1197   */\n      dup4\n        /* \"#utility.yul\":1186:1190   */\n      0x20\n        /* \"#utility.yul\":1178:1184   */\n      dup3\n        /* \"#utility.yul\":1174:1191   */\n      mul\n        /* \"#utility.yul\":1164:1172   */\n      dup4\n        /* \"#utility.yul\":1160:1192   */\n      add\n        /* \"#utility.yul\":1157:1198   */\n      gt\n        /* \"#utility.yul\":1154:1282   */\n      iszero\n      tag_281\n      jumpi\n        /* \"#utility.yul\":1201:1280   */\n      tag_282\n      tag_198\n      jump\t// in\n    tag_282:\n        /* \"#utility.yul\":1154:1282   */\n    tag_281:\n        /* \"#utility.yul\":720:1288   */\n      swap3\n      pop\n      swap3\n      swap1\n      pop\n      jump\t// out\n        /* \"#utility.yul\":1311:1879   */\n    tag_200:\n        /* \"#utility.yul\":1384:1392   */\n      0x00\n        /* \"#utility.yul\":1394:1400   */\n      dup1\n        /* \"#utility.yul\":1444:1447   */\n      dup4\n        /* \"#utility.yul\":1437:1441   */\n      0x1f\n        /* \"#utility.yul\":1429:1435   */\n      dup5\n        /* \"#utility.yul\":1425:1442   */\n      add\n        /* \"#utility.yul\":1421:1448   */\n      slt\n        /* \"#utility.yul\":1411:1533   */\n      tag_284\n      jumpi\n        /* \"#utility.yul\":1452:1531   */\n      tag_285\n      tag_196\n      jump\t// in\n    tag_285:\n        /* \"#utility.yul\":1411:1533   */\n    tag_284:\n        /* \"#utility.yul\":1565:1571   */\n      dup3\n        /* \"#utility.yul\":1552:1572   */\n      calldataload\n        /* \"#utility.yul\":1542:1572   */\n      swap1\n      pop\n        /* \"#utility.yul\":1595:1613   */\n      0xffffffffffffffff\n        /* \"#utility.yul\":1587:1593   */\n      dup2\n        /* \"#utility.yul\":1584:1614   */\n      gt\n        /* \"#utility.yul\":1581:1698   */\n      iszero\n      tag_286\n      jumpi\n        /* \"#utility.yul\":1617:1696   */\n      tag_287\n      tag_197\n      jump\t// in\n    tag_287:\n        /* \"#utility.yul\":1581:1698   */\n    tag_286:\n        /* \"#utility.yul\":1731:1735   */\n      0x20\n        /* \"#utility.yul\":1723:1729   */\n      dup4\n        /* \"#utility.yul\":1719:1736   */\n      add\n        /* \"#utility.yul\":1707:1736   */\n      swap2\n      pop\n        /* \"#utility.yul\":1785:1788   */\n      dup4\n        /* \"#utility.yul\":1777:1781   */\n      0x20\n        /* \"#utility.yul\":1769:1775   */\n      dup3\n        /* \"#utility.yul\":1765:1782   */\n      mul\n        /* \"#utility.yul\":1755:1763   */\n      dup4\n        /* \"#utility.yul\":1751:1783   */\n      add\n        /* \"#utility.yul\":1748:1789   */\n      gt\n        /* \"#utility.yul\":1745:1873   */\n      iszero\n      tag_288\n      jumpi\n        /* \"#utility.yul\":1792:1871   */\n      tag_289\n      tag_198\n      jump\t// in\n    tag_289:\n        /* \"#utility.yul\":1745:1873   */\n    tag_288:\n        /* \"#utility.yul\":1311:1879   */\n      swap3\n      pop\n      swap3\n      swap1\n      pop\n      jump\t// out\n        /* \"#utility.yul\":1899:2452   */\n    tag_201:\n        /* \"#utility.yul\":1957:1965   */\n      0x00\n        /* \"#utility.yul\":1967:1973   */\n      dup1\n        /* \"#utility.yul\":2017:2020   */\n      dup4\n        /* \"#utility.yul\":2010:2014   */\n      0x1f\n        /* \"#utility.yul\":2002:2008   */\n      dup5\n        /* \"#utility.yul\":1998:2015   */\n      add\n        /* \"#utility.yul\":1994:2021   */\n      slt\n        /* \"#utility.yul\":1984:2106   */\n      tag_291\n      jumpi\n        /* \"#utility.yul\":2025:2104   */\n      tag_292\n      tag_196\n      jump\t// in\n    tag_292:\n        /* \"#utility.yul\":1984:2106   */\n    tag_291:\n        /* \"#utility.yul\":2138:2144   */\n      dup3\n        /* \"#utility.yul\":2125:2145   */\n      calldataload\n        /* \"#utility.yul\":2115:2145   */\n      swap1\n      pop\n        /* \"#utility.yul\":2168:2186   */\n      0xffffffffffffffff\n        /* \"#utility.yul\":2160:2166   */\n      dup2\n        /* \"#utility.yul\":2157:2187   */\n      gt\n        /* \"#utility.yul\":2154:2271   */\n      iszero\n      tag_293\n      jumpi\n        /* \"#utility.yul\":2190:2269   */\n      tag_294\n      tag_197\n      jump\t// in\n    tag_294:\n        /* \"#utility.yul\":2154:2271   */\n    tag_293:\n        /* \"#utility.yul\":2304:2308   */\n      0x20\n        /* \"#utility.yul\":2296:2302   */\n      dup4\n        /* \"#utility.yul\":2292:2309   */\n      add\n        /* \"#utility.yul\":2280:2309   */\n      swap2\n      pop\n        /* \"#utility.yul\":2358:2361   */\n      dup4\n        /* \"#utility.yul\":2350:2354   */\n      0x01\n        /* \"#utility.yul\":2342:2348   */\n      dup3\n        /* \"#utility.yul\":2338:2355   */\n      mul\n        /* \"#utility.yul\":2328:2336   */\n      dup4\n        /* \"#utility.yul\":2324:2356   */\n      add\n        /* \"#utility.yul\":2321:2362   */\n      gt\n        /* \"#utility.yul\":2318:2446   */\n      iszero\n      tag_295\n      jumpi\n        /* \"#utility.yul\":2365:2444   */\n      tag_296\n      tag_198\n      jump\t// in\n    tag_296:\n        /* \"#utility.yul\":2318:2446   */\n    tag_295:\n        /* \"#utility.yul\":1899:2452   */\n      swap3\n      pop\n      swap3\n      swap1\n      pop\n      jump\t// out\n        /* \"#utility.yul\":2458:3737   */\n    tag_13:\n        /* \"#utility.yul\":2601:2607   */\n      0x00\n        /* \"#utility.yul\":2609:2615   */\n      dup1\n        /* \"#utility.yul\":2617:2623   */\n      0x00\n        /* \"#utility.yul\":2625:2631   */\n      dup1\n        /* \"#utility.yul\":2633:2639   */\n      0x00\n        /* \"#utility.yul\":2641:2647   */\n      dup1\n        /* \"#utility.yul\":2690:2692   */\n      0x60\n        /* \"#utility.yul\":2678:2687   */\n      dup8\n        /* \"#utility.yul\":2669:2676   */\n      dup10\n        /* \"#utility.yul\":2665:2688   */\n      sub\n        /* \"#utility.yul\":2661:2693   */\n      slt\n        /* \"#utility.yul\":2658:2777   */\n      iszero\n      tag_298\n      jumpi\n        /* \"#utility.yul\":2696:2775   */\n      tag_299\n      tag_194\n      jump\t// in\n    tag_299:\n        /* \"#utility.yul\":2658:2777   */\n    tag_298:\n        /* \"#utility.yul\":2844:2845   */\n      0x00\n        /* \"#utility.yul\":2833:2842   */\n      dup8\n        /* \"#utility.yul\":2829:2846   */\n      add\n        /* \"#utility.yul\":2816:2847   */\n      calldataload\n        /* \"#utility.yul\":2874:2892   */\n      0xffffffffffffffff\n        /* \"#utility.yul\":2866:2872   */\n      dup2\n        /* \"#utility.yul\":2863:2893   */\n      gt\n        /* \"#utility.yul\":2860:2977   */\n      iszero\n      tag_300\n      jumpi\n        /* \"#utility.yul\":2896:2975   */\n      tag_301\n      tag_195\n      jump\t// in\n    tag_301:\n        /* \"#utility.yul\":2860:2977   */\n    tag_300:\n        /* \"#utility.yul\":3009:3089   */\n      tag_302\n        /* \"#utility.yul\":3081:3088   */\n      dup10\n        /* \"#utility.yul\":3072:3078   */\n      dup3\n        /* \"#utility.yul\":3061:3070   */\n      dup11\n        /* \"#utility.yul\":3057:3079   */\n      add\n        /* \"#utility.yul\":3009:3089   */\n      tag_199\n      jump\t// in\n    tag_302:\n        /* \"#utility.yul\":2991:3089   */\n      swap7\n      pop\n      swap7\n      pop\n        /* \"#utility.yul\":2787:3099   */\n      pop\n        /* \"#utility.yul\":3166:3168   */\n      0x20\n        /* \"#utility.yul\":3155:3164   */\n      dup8\n        /* \"#utility.yul\":3151:3169   */\n      add\n        /* \"#utility.yul\":3138:3170   */\n      calldataload\n        /* \"#utility.yul\":3197:3215   */\n      0xffffffffffffffff\n        /* \"#utility.yul\":3189:3195   */\n      dup2\n        /* \"#utility.yul\":3186:3216   */\n      gt\n        /* \"#utility.yul\":3183:3300   */\n      iszero\n      tag_303\n      jumpi\n        /* \"#utility.yul\":3219:3298   */\n      tag_304\n      tag_195\n      jump\t// in\n    tag_304:\n        /* \"#utility.yul\":3183:3300   */\n    tag_303:\n        /* \"#utility.yul\":3332:3412   */\n      tag_305\n        /* \"#utility.yul\":3404:3411   */\n      dup10\n        /* \"#utility.yul\":3395:3401   */\n      dup3\n        /* \"#utility.yul\":3384:3393   */\n      dup11\n        /* \"#utility.yul\":3380:3402   */\n      add\n        /* \"#utility.yul\":3332:3412   */\n      tag_200\n      jump\t// in\n    tag_305:\n        /* \"#utility.yul\":3314:3412   */\n      swap5\n      pop\n      swap5\n      pop\n        /* \"#utility.yul\":3109:3422   */\n      pop\n        /* \"#utility.yul\":3489:3491   */\n      0x40\n        /* \"#utility.yul\":3478:3487   */\n      dup8\n        /* \"#utility.yul\":3474:3492   */\n      add\n        /* \"#utility.yul\":3461:3493   */\n      calldataload\n        /* \"#utility.yul\":3520:3538   */\n      0xffffffffffffffff\n        /* \"#utility.yul\":3512:3518   */\n      dup2\n        /* \"#utility.yul\":3509:3539   */\n      gt\n        /* \"#utility.yul\":3506:3623   */\n      iszero\n      tag_306\n      jumpi\n        /* \"#utility.yul\":3542:3621   */\n      tag_307\n      tag_195\n      jump\t// in\n    tag_307:\n        /* \"#utility.yul\":3506:3623   */\n    tag_306:\n        /* \"#utility.yul\":3655:3720   */\n      tag_308\n        /* \"#utility.yul\":3712:3719   */\n      dup10\n        /* \"#utility.yul\":3703:3709   */\n      dup3\n        /* \"#utility.yul\":3692:3701   */\n      dup11\n        /* \"#utility.yul\":3688:3710   */\n      add\n        /* \"#utility.yul\":3655:3720   */\n      tag_201\n      jump\t// in\n    tag_308:\n        /* \"#utility.yul\":3637:3720   */\n      swap3\n      pop\n      swap3\n      pop\n        /* \"#utility.yul\":3432:3730   */\n      pop\n        /* \"#utility.yul\":2458:3737   */\n      swap3\n      swap6\n      pop\n      swap3\n      swap6\n      pop\n      swap3\n      swap6\n      jump\t// out\n        /* \"#utility.yul\":3743:3869   */\n    tag_202:\n        /* \"#utility.yul\":3780:3787   */\n      0x00\n        /* \"#utility.yul\":3820:3862   */\n      0xffffffffffffffffffffffffffffffffffffffff\n        /* \"#utility.yul\":3813:3818   */\n      dup3\n        /* \"#utility.yul\":3809:3863   */\n      and\n        /* \"#utility.yul\":3798:3863   */\n      swap1\n      pop\n        /* \"#utility.yul\":3743:3869   */\n      swap2\n      swap1\n      pop\n      jump\t// out\n        /* \"#utility.yul\":3875:3971   */\n    tag_203:\n        /* \"#utility.yul\":3912:3919   */\n      0x00\n        /* \"#utility.yul\":3941:3965   */\n      tag_311\n        /* \"#utility.yul\":3959:3964   */\n      dup3\n        /* \"#utility.yul\":3941:3965   */\n      tag_202\n      jump\t// in\n    tag_311:\n        /* \"#utility.yul\":3930:3965   */\n      swap1\n      pop\n        /* \"#utility.yul\":3875:3971   */\n      swap2\n      swap1\n      pop\n      jump\t// out\n        /* \"#utility.yul\":3977:4099   */\n    tag_204:\n        /* \"#utility.yul\":4050:4074   */\n      tag_313\n        /* \"#utility.yul\":4068:4073   */\n      dup2\n        /* \"#utility.yul\":4050:4074   */\n      tag_203\n      jump\t// in\n    tag_313:\n        /* \"#utility.yul\":4043:4048   */\n      dup2\n        /* \"#utility.yul\":4040:4075   */\n      eq\n        /* \"#utility.yul\":4030:4093   */\n      tag_314\n      jumpi\n        /* \"#utility.yul\":4089:4090   */\n      0x00\n        /* \"#utility.yul\":4086:4087   */\n      dup1\n        /* \"#utility.yul\":4079:4091   */\n      revert\n        /* \"#utility.yul\":4030:4093   */\n    tag_314:\n        /* \"#utility.yul\":3977:4099   */\n      pop\n      jump\t// out\n        /* \"#utility.yul\":4105:4244   */\n    tag_205:\n        /* \"#utility.yul\":4151:4156   */\n      0x00\n        /* \"#utility.yul\":4189:4195   */\n      dup2\n        /* \"#utility.yul\":4176:4196   */\n      calldataload\n        /* \"#utility.yul\":4167:4196   */\n      swap1\n      pop\n        /* \"#utility.yul\":4205:4238   */\n      tag_316\n        /* \"#utility.yul\":4232:4237   */\n      dup2\n        /* \"#utility.yul\":4205:4238   */\n      tag_204\n      jump\t// in\n    tag_316:\n        /* \"#utility.yul\":4105:4244   */\n      swap3\n      swap2\n      pop\n      pop\n      jump\t// out\n        /* \"#utility.yul\":4250:4327   */\n    tag_206:\n        /* \"#utility.yul\":4287:4294   */\n      0x00\n        /* \"#utility.yul\":4316:4321   */\n      dup2\n        /* \"#utility.yul\":4305:4321   */\n      swap1\n      pop\n        /* \"#utility.yul\":4250:4327   */\n      swap2\n      swap1\n      pop\n      jump\t// out\n        /* \"#utility.yul\":4333:4455   */\n    tag_207:\n        /* \"#utility.yul\":4406:4430   */\n      tag_319\n        /* \"#utility.yul\":4424:4429   */\n      dup2\n        /* \"#utility.yul\":4406:4430   */\n      tag_206\n      jump\t// in\n    tag_319:\n        /* \"#utility.yul\":4399:4404   */\n      dup2\n        /* \"#utility.yul\":4396:4431   */\n      eq\n        /* \"#utility.yul\":4386:4449   */\n      tag_320\n      jumpi\n        /* \"#utility.yul\":4445:4446   */\n      0x00\n        /* \"#utility.yul\":4442:4443   */\n      dup1\n        /* \"#utility.yul\":4435:4447   */\n      revert\n        /* \"#utility.yul\":4386:4449   */\n    tag_320:\n        /* \"#utility.yul\":4333:4455   */\n      pop\n      jump\t// out\n        /* \"#utility.yul\":4461:4600   */\n    tag_208:\n        /* \"#utility.yul\":4507:4512   */\n      0x00\n        /* \"#utility.yul\":4545:4551   */\n      dup2\n        /* \"#utility.yul\":4532:4552   */\n      calldataload\n        /* \"#utility.yul\":4523:4552   */\n      swap1\n      pop\n        /* \"#utility.yul\":4561:4594   */\n      tag_322\n        /* \"#utility.yul\":4588:4593   */\n      dup2\n        /* \"#utility.yul\":4561:4594   */\n      tag_207\n      jump\t// in\n    tag_322:\n        /* \"#utility.yul\":4461:4600   */\n      swap3\n      swap2\n      pop\n      pop\n      jump\t// out\n        /* \"#utility.yul\":4606:5425   */\n    tag_17:\n        /* \"#utility.yul\":4695:4701   */\n      0x00\n        /* \"#utility.yul\":4703:4709   */\n      dup1\n        /* \"#utility.yul\":4711:4717   */\n      0x00\n        /* \"#utility.yul\":4719:4725   */\n      dup1\n        /* \"#utility.yul\":4768:4770   */\n      0x60\n        /* \"#utility.yul\":4756:4765   */\n      dup6\n        /* \"#utility.yul\":4747:4754   */\n      dup8\n        /* \"#utility.yul\":4743:4766   */\n      sub\n        /* \"#utility.yul\":4739:4771   */\n      slt\n        /* \"#utility.yul\":4736:4855   */\n      iszero\n      tag_324\n      jumpi\n        /* \"#utility.yul\":4774:4853   */\n      tag_325\n      tag_194\n      jump\t// in\n    tag_325:\n        /* \"#utility.yul\":4736:4855   */\n    tag_324:\n        /* \"#utility.yul\":4894:4895   */\n      0x00\n        /* \"#utility.yul\":4919:4972   */\n      tag_326\n        /* \"#utility.yul\":4964:4971   */\n      dup8\n        /* \"#utility.yul\":4955:4961   */\n      dup3\n        /* \"#utility.yul\":4944:4953   */\n      dup9\n        /* \"#utility.yul\":4940:4962   */\n      add\n        /* \"#utility.yul\":4919:4972   */\n      tag_205\n      jump\t// in\n    tag_326:\n        /* \"#utility.yul\":4909:4972   */\n      swap5\n      pop\n        /* \"#utility.yul\":4865:4982   */\n      pop\n        /* \"#utility.yul\":5021:5023   */\n      0x20\n        /* \"#utility.yul\":5047:5100   */\n      tag_327\n        /* \"#utility.yul\":5092:5099   */\n      dup8\n        /* \"#utility.yul\":5083:5089   */\n      dup3\n        /* \"#utility.yul\":5072:5081   */\n      dup9\n        /* \"#utility.yul\":5068:5090   */\n      add\n        /* \"#utility.yul\":5047:5100   */\n      tag_208\n      jump\t// in\n    tag_327:\n        /* \"#utility.yul\":5037:5100   */\n      swap4\n      pop\n        /* \"#utility.yul\":4992:5110   */\n      pop\n        /* \"#utility.yul\":5177:5179   */\n      0x40\n        /* \"#utility.yul\":5166:5175   */\n      dup6\n        /* \"#utility.yul\":5162:5180   */\n      add\n        /* \"#utility.yul\":5149:5181   */\n      calldataload\n        /* \"#utility.yul\":5208:5226   */\n      0xffffffffffffffff\n        /* \"#utility.yul\":5200:5206   */\n      dup2\n        /* \"#utility.yul\":5197:5227   */\n      gt\n        /* \"#utility.yul\":5194:5311   */\n      iszero\n      tag_328\n      jumpi\n        /* \"#utility.yul\":5230:5309   */\n      tag_329\n      tag_195\n      jump\t// in\n    tag_329:\n        /* \"#utility.yul\":5194:5311   */\n    tag_328:\n        /* \"#utility.yul\":5343:5408   */\n      tag_330\n        /* \"#utility.yul\":5400:5407   */\n      dup8\n        /* \"#utility.yul\":5391:5397   */\n      dup3\n        /* \"#utility.yul\":5380:5389   */\n      dup9\n        /* \"#utility.yul\":5376:5398   */\n      add\n        /* \"#utility.yul\":5343:5408   */\n      tag_201\n      jump\t// in\n    tag_330:\n        /* \"#utility.yul\":5325:5408   */\n      swap3\n      pop\n      swap3\n      pop\n        /* \"#utility.yul\":5120:5418   */\n      pop\n        /* \"#utility.yul\":4606:5425   */\n      swap3\n      swap6\n      swap2\n      swap5\n      pop\n      swap3\n      pop\n      jump\t// out\n        /* \"#utility.yul\":5447:6027   */\n    tag_209:\n        /* \"#utility.yul\":5532:5540   */\n      0x00\n        /* \"#utility.yul\":5542:5548   */\n      dup1\n        /* \"#utility.yul\":5592:5595   */\n      dup4\n        /* \"#utility.yul\":5585:5589   */\n      0x1f\n        /* \"#utility.yul\":5577:5583   */\n      dup5\n        /* \"#utility.yul\":5573:5590   */\n      add\n        /* \"#utility.yul\":5569:5596   */\n      slt\n        /* \"#utility.yul\":5559:5681   */\n      tag_332\n      jumpi\n        /* \"#utility.yul\":5600:5679   */\n      tag_333\n      tag_196\n      jump\t// in\n    tag_333:\n        /* \"#utility.yul\":5559:5681   */\n    tag_332:\n        /* \"#utility.yul\":5713:5719   */\n      dup3\n        /* \"#utility.yul\":5700:5720   */\n      calldataload\n        /* \"#utility.yul\":5690:5720   */\n      swap1\n      pop\n        /* \"#utility.yul\":5743:5761   */\n      0xffffffffffffffff\n        /* \"#utility.yul\":5735:5741   */\n      dup2\n        /* \"#utility.yul\":5732:5762   */\n      gt\n        /* \"#utility.yul\":5729:5846   */\n      iszero\n      tag_334\n      jumpi\n        /* \"#utility.yul\":5765:5844   */\n      tag_335\n      tag_197\n      jump\t// in\n    tag_335:\n        /* \"#utility.yul\":5729:5846   */\n    tag_334:\n        /* \"#utility.yul\":5879:5883   */\n      0x20\n        /* \"#utility.yul\":5871:5877   */\n      dup4\n        /* \"#utility.yul\":5867:5884   */\n      add\n        /* \"#utility.yul\":5855:5884   */\n      swap2\n      pop\n        /* \"#utility.yul\":5933:5936   */\n      dup4\n        /* \"#utility.yul\":5925:5929   */\n      0x20\n        /* \"#utility.yul\":5917:5923   */\n      dup3\n        /* \"#utility.yul\":5913:5930   */\n      mul\n        /* \"#utility.yul\":5903:5911   */\n      dup4\n        /* \"#utility.yul\":5899:5931   */\n      add\n        /* \"#utility.yul\":5896:5937   */\n      gt\n        /* \"#utility.yul\":5893:6021   */\n      iszero\n      tag_336\n      jumpi\n        /* \"#utility.yul\":5940:6019   */\n      tag_337\n      tag_198\n      jump\t// in\n    tag_337:\n        /* \"#utility.yul\":5893:6021   */\n    tag_336:\n        /* \"#utility.yul\":5447:6027   */\n      swap3\n      pop\n      swap3\n      swap1\n      pop\n      jump\t// out\n        /* \"#utility.yul\":6033:7742   */\n    tag_21:\n        /* \"#utility.yul\":6239:6245   */\n      0x00\n        /* \"#utility.yul\":6247:6253   */\n      dup1\n        /* \"#utility.yul\":6255:6261   */\n      0x00\n        /* \"#utility.yul\":6263:6269   */\n      dup1\n        /* \"#utility.yul\":6271:6277   */\n      0x00\n        /* \"#utility.yul\":6279:6285   */\n      dup1\n        /* \"#utility.yul\":6287:6293   */\n      0x00\n        /* \"#utility.yul\":6295:6301   */\n      dup1\n        /* \"#utility.yul\":6344:6347   */\n      0x80\n        /* \"#utility.yul\":6332:6341   */\n      dup10\n        /* \"#utility.yul\":6323:6330   */\n      dup12\n        /* \"#utility.yul\":6319:6342   */\n      sub\n        /* \"#utility.yul\":6315:6348   */\n      slt\n        /* \"#utility.yul\":6312:6432   */\n      iszero\n      tag_339\n      jumpi\n        /* \"#utility.yul\":6351:6430   */\n      tag_340\n      tag_194\n      jump\t// in\n    tag_340:\n        /* \"#utility.yul\":6312:6432   */\n    tag_339:\n        /* \"#utility.yul\":6499:6500   */\n      0x00\n        /* \"#utility.yul\":6488:6497   */\n      dup10\n        /* \"#utility.yul\":6484:6501   */\n      add\n        /* \"#utility.yul\":6471:6502   */\n      calldataload\n        /* \"#utility.yul\":6529:6547   */\n      0xffffffffffffffff\n        /* \"#utility.yul\":6521:6527   */\n      dup2\n        /* \"#utility.yul\":6518:6548   */\n      gt\n        /* \"#utility.yul\":6515:6632   */\n      iszero\n      tag_341\n      jumpi\n        /* \"#utility.yul\":6551:6630   */\n      tag_342\n      tag_195\n      jump\t// in\n    tag_342:\n        /* \"#utility.yul\":6515:6632   */\n    tag_341:\n        /* \"#utility.yul\":6664:6744   */\n      tag_343\n        /* \"#utility.yul\":6736:6743   */\n      dup12\n        /* \"#utility.yul\":6727:6733   */\n      dup3\n        /* \"#utility.yul\":6716:6725   */\n      dup13\n        /* \"#utility.yul\":6712:6734   */\n      add\n        /* \"#utility.yul\":6664:6744   */\n      tag_199\n      jump\t// in\n    tag_343:\n        /* \"#utility.yul\":6646:6744   */\n      swap9\n      pop\n      swap9\n      pop\n        /* \"#utility.yul\":6442:6754   */\n      pop\n        /* \"#utility.yul\":6821:6823   */\n      0x20\n        /* \"#utility.yul\":6810:6819   */\n      dup10\n        /* \"#utility.yul\":6806:6824   */\n      add\n        /* \"#utility.yul\":6793:6825   */\n      calldataload\n        /* \"#utility.yul\":6852:6870   */\n      0xffffffffffffffff\n        /* \"#utility.yul\":6844:6850   */\n      dup2\n        /* \"#utility.yul\":6841:6871   */\n      gt\n        /* \"#utility.yul\":6838:6955   */\n      iszero\n      tag_344\n      jumpi\n        /* \"#utility.yul\":6874:6953   */\n      tag_345\n      tag_195\n      jump\t// in\n    tag_345:\n        /* \"#utility.yul\":6838:6955   */\n    tag_344:\n        /* \"#utility.yul\":6987:7067   */\n      tag_346\n        /* \"#utility.yul\":7059:7066   */\n      dup12\n        /* \"#utility.yul\":7050:7056   */\n      dup3\n        /* \"#utility.yul\":7039:7048   */\n      dup13\n        /* \"#utility.yul\":7035:7057   */\n      add\n        /* \"#utility.yul\":6987:7067   */\n      tag_200\n      jump\t// in\n    tag_346:\n        /* \"#utility.yul\":6969:7067   */\n      swap7\n      pop\n      swap7\n      pop\n        /* \"#utility.yul\":6764:7077   */\n      pop\n        /* \"#utility.yul\":7144:7146   */\n      0x40\n        /* \"#utility.yul\":7133:7142   */\n      dup10\n        /* \"#utility.yul\":7129:7147   */\n      add\n        /* \"#utility.yul\":7116:7148   */\n      calldataload\n        /* \"#utility.yul\":7175:7193   */\n      0xffffffffffffffff\n        /* \"#utility.yul\":7167:7173   */\n      dup2\n        /* \"#utility.yul\":7164:7194   */\n      gt\n        /* \"#utility.yul\":7161:7278   */\n      iszero\n      tag_347\n      jumpi\n        /* \"#utility.yul\":7197:7276   */\n      tag_348\n      tag_195\n      jump\t// in\n    tag_348:\n        /* \"#utility.yul\":7161:7278   */\n    tag_347:\n        /* \"#utility.yul\":7310:7390   */\n      tag_349\n        /* \"#utility.yul\":7382:7389   */\n      dup12\n        /* \"#utility.yul\":7373:7379   */\n      dup3\n        /* \"#utility.yul\":7362:7371   */\n      dup13\n        /* \"#utility.yul\":7358:7380   */\n      add\n        /* \"#utility.yul\":7310:7390   */\n      tag_199\n      jump\t// in\n    tag_349:\n        /* \"#utility.yul\":7292:7390   */\n      swap5\n      pop\n      swap5\n      pop\n        /* \"#utility.yul\":7087:7400   */\n      pop\n        /* \"#utility.yul\":7467:7469   */\n      0x60\n        /* \"#utility.yul\":7456:7465   */\n      dup10\n        /* \"#utility.yul\":7452:7470   */\n      add\n        /* \"#utility.yul\":7439:7471   */\n      calldataload\n        /* \"#utility.yul\":7498:7516   */\n      0xffffffffffffffff\n        /* \"#utility.yul\":7490:7496   */\n      dup2\n        /* \"#utility.yul\":7487:7517   */\n      gt\n        /* \"#utility.yul\":7484:7601   */\n      iszero\n      tag_350\n      jumpi\n        /* \"#utility.yul\":7520:7599   */\n      tag_351\n      tag_195\n      jump\t// in\n    tag_351:\n        /* \"#utility.yul\":7484:7601   */\n    tag_350:\n        /* \"#utility.yul\":7633:7725   */\n      tag_352\n        /* \"#utility.yul\":7717:7724   */\n      dup12\n        /* \"#utility.yul\":7708:7714   */\n      dup3\n        /* \"#utility.yul\":7697:7706   */\n      dup13\n        /* \"#utility.yul\":7693:7715   */\n      add\n        /* \"#utility.yul\":7633:7725   */\n      tag_209\n      jump\t// in\n    tag_352:\n        /* \"#utility.yul\":7615:7725   */\n      swap3\n      pop\n      swap3\n      pop\n        /* \"#utility.yul\":7410:7735   */\n      pop\n        /* \"#utility.yul\":6033:7742   */\n      swap3\n      swap6\n      swap9\n      pop\n      swap3\n      swap6\n      swap9\n      swap1\n      swap4\n      swap7\n      pop\n      jump\t// out\n        /* \"#utility.yul\":7748:8077   */\n    tag_25:\n        /* \"#utility.yul\":7807:7813   */\n      0x00\n        /* \"#utility.yul\":7856:7858   */\n      0x20\n        /* \"#utility.yul\":7844:7853   */\n      dup3\n        /* \"#utility.yul\":7835:7842   */\n      dup5\n        /* \"#utility.yul\":7831:7854   */\n      sub\n        /* \"#utility.yul\":7827:7859   */\n      slt\n        /* \"#utility.yul\":7824:7943   */\n      iszero\n      tag_354\n      jumpi\n        /* \"#utility.yul\":7862:7941   */\n      tag_355\n      tag_194\n      jump\t// in\n    tag_355:\n        /* \"#utility.yul\":7824:7943   */\n    tag_354:\n        /* \"#utility.yul\":7982:7983   */\n      0x00\n        /* \"#utility.yul\":8007:8060   */\n      tag_356\n        /* \"#utility.yul\":8052:8059   */\n      dup5\n        /* \"#utility.yul\":8043:8049   */\n      dup3\n        /* \"#utility.yul\":8032:8041   */\n      dup6\n        /* \"#utility.yul\":8028:8050   */\n      add\n        /* \"#utility.yul\":8007:8060   */\n      tag_205\n      jump\t// in\n    tag_356:\n        /* \"#utility.yul\":7997:8060   */\n      swap2\n      pop\n        /* \"#utility.yul\":7953:8070   */\n      pop\n        /* \"#utility.yul\":7748:8077   */\n      swap3\n      swap2\n      pop\n      pop\n      jump\t// out\n        /* \"#utility.yul\":8083:8201   */\n    tag_210:\n        /* \"#utility.yul\":8170:8194   */\n      tag_358\n        /* \"#utility.yul\":8188:8193   */\n      dup2\n        /* \"#utility.yul\":8170:8194   */\n      tag_206\n      jump\t// in\n    tag_358:\n        /* \"#utility.yul\":8165:8168   */\n      dup3\n        /* \"#utility.yul\":8158:8195   */\n      mstore\n        /* \"#utility.yul\":8083:8201   */\n      pop\n      pop\n      jump\t// out\n        /* \"#utility.yul\":8207:8429   */\n    tag_28:\n        /* \"#utility.yul\":8300:8304   */\n      0x00\n        /* \"#utility.yul\":8338:8340   */\n      0x20\n        /* \"#utility.yul\":8327:8336   */\n      dup3\n        /* \"#utility.yul\":8323:8341   */\n      add\n        /* \"#utility.yul\":8315:8341   */\n      swap1\n      pop\n        /* \"#utility.yul\":8351:8422   */\n      tag_360\n        /* \"#utility.yul\":8419:8420   */\n      0x00\n        /* \"#utility.yul\":8408:8417   */\n      dup4\n        /* \"#utility.yul\":8404:8421   */\n      add\n        /* \"#utility.yul\":8395:8401   */\n      dup5\n        /* \"#utility.yul\":8351:8422   */\n      tag_210\n      jump\t// in\n    tag_360:\n        /* \"#utility.yul\":8207:8429   */\n      swap3\n      swap2\n      pop\n      pop\n      jump\t// out\n        /* \"#utility.yul\":8435:8553   */\n    tag_211:\n        /* \"#utility.yul\":8522:8546   */\n      tag_362\n        /* \"#utility.yul\":8540:8545   */\n      dup2\n        /* \"#utility.yul\":8522:8546   */\n      tag_203\n      jump\t// in\n    tag_362:\n        /* \"#utility.yul\":8517:8520   */\n      dup3\n        /* \"#utility.yul\":8510:8547   */\n      mstore\n        /* \"#utility.yul\":8435:8553   */\n      pop\n      pop\n      jump\t// out\n        /* \"#utility.yul\":8559:8781   */\n    tag_34:\n        /* \"#utility.yul\":8652:8656   */\n      0x00\n        /* \"#utility.yul\":8690:8692   */\n      0x20\n        /* \"#utility.yul\":8679:8688   */\n      dup3\n        /* \"#utility.yul\":8675:8693   */\n      add\n        /* \"#utility.yul\":8667:8693   */\n      swap1\n      pop\n        /* \"#utility.yul\":8703:8774   */\n      tag_364\n        /* \"#utility.yul\":8771:8772   */\n      0x00\n        /* \"#utility.yul\":8760:8769   */\n      dup4\n        /* \"#utility.yul\":8756:8773   */\n      add\n        /* \"#utility.yul\":8747:8753   */\n      dup5\n        /* \"#utility.yul\":8703:8774   */\n      tag_211\n      jump\t// in\n    tag_364:\n        /* \"#utility.yul\":8559:8781   */\n      swap3\n      swap2\n      pop\n      pop\n      jump\t// out\n        /* \"#utility.yul\":8787:8956   */\n    tag_212:\n        /* \"#utility.yul\":8871:8882   */\n      0x00\n        /* \"#utility.yul\":8905:8911   */\n      dup3\n        /* \"#utility.yul\":8900:8903   */\n      dup3\n        /* \"#utility.yul\":8893:8912   */\n      mstore\n        /* \"#utility.yul\":8945:8949   */\n      0x20\n        /* \"#utility.yul\":8940:8943   */\n      dup3\n        /* \"#utility.yul\":8936:8950   */\n      add\n        /* \"#utility.yul\":8921:8950   */\n      swap1\n      pop\n        /* \"#utility.yul\":8787:8956   */\n      swap3\n      swap2\n      pop\n      pop\n      jump\t// out\n        /* \"#utility.yul\":8962:9125   */\n    tag_213:\n        /* \"#utility.yul\":9102:9117   */\n      0x63757272656e6379206661696c00000000000000000000000000000000000000\n        /* \"#utility.yul\":9098:9099   */\n      0x00\n        /* \"#utility.yul\":9090:9096   */\n      dup3\n        /* \"#utility.yul\":9086:9100   */\n      add\n        /* \"#utility.yul\":9079:9118   */\n      mstore\n        /* \"#utility.yul\":8962:9125   */\n      pop\n      jump\t// out\n        /* \"#utility.yul\":9131:9497   */\n    tag_214:\n        /* \"#utility.yul\":9273:9276   */\n      0x00\n        /* \"#utility.yul\":9294:9361   */\n      tag_368\n        /* \"#utility.yul\":9358:9360   */\n      0x0d\n        /* \"#utility.yul\":9353:9356   */\n      dup4\n        /* \"#utility.yul\":9294:9361   */\n      tag_212\n      jump\t// in\n    tag_368:\n        /* \"#utility.yul\":9287:9361   */\n      swap2\n      pop\n        /* \"#utility.yul\":9370:9463   */\n      tag_369\n        /* \"#utility.yul\":9459:9462   */\n      dup3\n        /* \"#utility.yul\":9370:9463   */\n      tag_213\n      jump\t// in\n    tag_369:\n        /* \"#utility.yul\":9488:9490   */\n      0x20\n        /* \"#utility.yul\":9483:9486   */\n      dup3\n        /* \"#utility.yul\":9479:9491   */\n      add\n        /* \"#utility.yul\":9472:9491   */\n      swap1\n      pop\n        /* \"#utility.yul\":9131:9497   */\n      swap2\n      swap1\n      pop\n      jump\t// out\n        /* \"#utility.yul\":9503:9922   */\n    tag_44:\n        /* \"#utility.yul\":9669:9673   */\n      0x00\n        /* \"#utility.yul\":9707:9709   */\n      0x20\n        /* \"#utility.yul\":9696:9705   */\n      dup3\n        /* \"#utility.yul\":9692:9710   */\n      add\n        /* \"#utility.yul\":9684:9710   */\n      swap1\n      pop\n        /* \"#utility.yul\":9756:9765   */\n      dup2\n        /* \"#utility.yul\":9750:9754   */\n      dup2\n        /* \"#utility.yul\":9746:9766   */\n      sub\n        /* \"#utility.yul\":9742:9743   */\n      0x00\n        /* \"#utility.yul\":9731:9740   */\n      dup4\n        /* \"#utility.yul\":9727:9744   */\n      add\n        /* \"#utility.yul\":9720:9767   */\n      mstore\n        /* \"#utility.yul\":9784:9915   */\n      tag_371\n        /* \"#utility.yul\":9910:9914   */\n      dup2\n        /* \"#utility.yul\":9784:9915   */\n      tag_214\n      jump\t// in\n    tag_371:\n        /* \"#utility.yul\":9776:9915   */\n      swap1\n      pop\n        /* \"#utility.yul\":9503:9922   */\n      swap2\n      swap1\n      pop\n      jump\t// out\n        /* \"#utility.yul\":9928:10101   */\n    tag_215:\n        /* \"#utility.yul\":10068:10093   */\n      0x63757272656e6379206f7220616d6f756e74206661696c000000000000000000\n        /* \"#utility.yul\":10064:10065   */\n      0x00\n        /* \"#utility.yul\":10056:10062   */\n      dup3\n        /* \"#utility.yul\":10052:10066   */\n      add\n        /* \"#utility.yul\":10045:10094   */\n      mstore\n        /* \"#utility.yul\":9928:10101   */\n      pop\n      jump\t// out\n        /* \"#utility.yul\":10107:10473   */\n    tag_216:\n        /* \"#utility.yul\":10249:10252   */\n      0x00\n        /* \"#utility.yul\":10270:10337   */\n      tag_374\n        /* \"#utility.yul\":10334:10336   */\n      0x17\n        /* \"#utility.yul\":10329:10332   */\n      dup4\n        /* \"#utility.yul\":10270:10337   */\n      tag_212\n      jump\t// in\n    tag_374:\n        /* \"#utility.yul\":10263:10337   */\n      swap2\n      pop\n        /* \"#utility.yul\":10346:10439   */\n      tag_375\n        /* \"#utility.yul\":10435:10438   */\n      dup3\n        /* \"#utility.yul\":10346:10439   */\n      tag_215\n      jump\t// in\n    tag_375:\n        /* \"#utility.yul\":10464:10466   */\n      0x20\n        /* \"#utility.yul\":10459:10462   */\n      dup3\n        /* \"#utility.yul\":10455:10467   */\n      add\n        /* \"#utility.yul\":10448:10467   */\n      swap1\n      pop\n        /* \"#utility.yul\":10107:10473   */\n      swap2\n      swap1\n      pop\n      jump\t// out\n        /* \"#utility.yul\":10479:10898   */\n    tag_47:\n        /* \"#utility.yul\":10645:10649   */\n      0x00\n        /* \"#utility.yul\":10683:10685   */\n      0x20\n        /* \"#utility.yul\":10672:10681   */\n      dup3\n        /* \"#utility.yul\":10668:10686   */\n      add\n        /* \"#utility.yul\":10660:10686   */\n      swap1\n      pop\n        /* \"#utility.yul\":10732:10741   */\n      dup2\n        /* \"#utility.yul\":10726:10730   */\n      dup2\n        /* \"#utility.yul\":10722:10742   */\n      sub\n        /* \"#utility.yul\":10718:10719   */\n      0x00\n        /* \"#utility.yul\":10707:10716   */\n      dup4\n        /* \"#utility.yul\":10703:10720   */\n      add\n        /* \"#utility.yul\":10696:10743   */\n      mstore\n        /* \"#utility.yul\":10760:10891   */\n      tag_377\n        /* \"#utility.yul\":10886:10890   */\n      dup2\n        /* \"#utility.yul\":10760:10891   */\n      tag_216\n      jump\t// in\n    tag_377:\n        /* \"#utility.yul\":10752:10891   */\n      swap1\n      pop\n        /* \"#utility.yul\":10479:10898   */\n      swap2\n      swap1\n      pop\n      jump\t// out\n        /* \"#utility.yul\":10904:11084   */\n    tag_54:\n        /* \"#utility.yul\":10952:11029   */\n      0x4e487b7100000000000000000000000000000000000000000000000000000000\n        /* \"#utility.yul\":10949:10950   */\n      0x00\n        /* \"#utility.yul\":10942:11030   */\n      mstore\n        /* \"#utility.yul\":11049:11053   */\n      0x32\n        /* \"#utility.yul\":11046:11047   */\n      0x04\n        /* \"#utility.yul\":11039:11054   */\n      mstore\n        /* \"#utility.yul\":11073:11077   */\n      0x24\n        /* \"#utility.yul\":11070:11071   */\n      0x00\n        /* \"#utility.yul\":11063:11078   */\n      revert\n        /* \"#utility.yul\":11090:11251   */\n    tag_217:\n        /* \"#utility.yul\":11230:11243   */\n      0x616d6f756e74206661696c000000000000000000000000000000000000000000\n        /* \"#utility.yul\":11226:11227   */\n      0x00\n        /* \"#utility.yul\":11218:11224   */\n      dup3\n        /* \"#utility.yul\":11214:11228   */\n      add\n        /* \"#utility.yul\":11207:11244   */\n      mstore\n        /* \"#utility.yul\":11090:11251   */\n      pop\n      jump\t// out\n        /* \"#utility.yul\":11257:11623   */\n    tag_218:\n        /* \"#utility.yul\":11399:11402   */\n      0x00\n        /* \"#utility.yul\":11420:11487   */\n      tag_381\n        /* \"#utility.yul\":11484:11486   */\n      0x0b\n        /* \"#utility.yul\":11479:11482   */\n      dup4\n        /* \"#utility.yul\":11420:11487   */\n      tag_212\n      jump\t// in\n    tag_381:\n        /* \"#utility.yul\":11413:11487   */\n      swap2\n      pop\n        /* \"#utility.yul\":11496:11589   */\n      tag_382\n        /* \"#utility.yul\":11585:11588   */\n      dup3\n        /* \"#utility.yul\":11496:11589   */\n      tag_217\n      jump\t// in\n    tag_382:\n        /* \"#utility.yul\":11614:11616   */\n      0x20\n        /* \"#utility.yul\":11609:11612   */\n      dup3\n        /* \"#utility.yul\":11605:11617   */\n      add\n        /* \"#utility.yul\":11598:11617   */\n      swap1\n      pop\n        /* \"#utility.yul\":11257:11623   */\n      swap2\n      swap1\n      pop\n      jump\t// out\n        /* \"#utility.yul\":11629:12048   */\n    tag_57:\n        /* \"#utility.yul\":11795:11799   */\n      0x00\n        /* \"#utility.yul\":11833:11835   */\n      0x20\n        /* \"#utility.yul\":11822:11831   */\n      dup3\n        /* \"#utility.yul\":11818:11836   */\n      add\n        /* \"#utility.yul\":11810:11836   */\n      swap1\n      pop\n        /* \"#utility.yul\":11882:11891   */\n      dup2\n        /* \"#utility.yul\":11876:11880   */\n      dup2\n        /* \"#utility.yul\":11872:11892   */\n      sub\n        /* \"#utility.yul\":11868:11869   */\n      0x00\n        /* \"#utility.yul\":11857:11866   */\n      dup4\n        /* \"#utility.yul\":11853:11870   */\n      add\n        /* \"#utility.yul\":11846:11893   */\n      mstore\n        /* \"#utility.yul\":11910:12041   */\n      tag_384\n        /* \"#utility.yul\":12036:12040   */\n      dup2\n        /* \"#utility.yul\":11910:12041   */\n      tag_218\n      jump\t// in\n    tag_384:\n        /* \"#utility.yul\":11902:12041   */\n      swap1\n      pop\n        /* \"#utility.yul\":11629:12048   */\n      swap2\n      swap1\n      pop\n      jump\t// out\n        /* \"#utility.yul\":12054:12234   */\n    tag_219:\n        /* \"#utility.yul\":12102:12179   */\n      0x4e487b7100000000000000000000000000000000000000000000000000000000\n        /* \"#utility.yul\":12099:12100   */\n      0x00\n        /* \"#utility.yul\":12092:12180   */\n      mstore\n        /* \"#utility.yul\":12199:12203   */\n      0x11\n        /* \"#utility.yul\":12196:12197   */\n      0x04\n        /* \"#utility.yul\":12189:12204   */\n      mstore\n        /* \"#utility.yul\":12223:12227   */\n      0x24\n        /* \"#utility.yul\":12220:12221   */\n      0x00\n        /* \"#utility.yul\":12213:12228   */\n      revert\n        /* \"#utility.yul\":12240:12473   */\n    tag_66:\n        /* \"#utility.yul\":12279:12282   */\n      0x00\n        /* \"#utility.yul\":12302:12326   */\n      tag_387\n        /* \"#utility.yul\":12320:12325   */\n      dup3\n        /* \"#utility.yul\":12302:12326   */\n      tag_206\n      jump\t// in\n    tag_387:\n        /* \"#utility.yul\":12293:12326   */\n      swap2\n      pop\n        /* \"#utility.yul\":12348:12414   */\n      0xffffffffffffffffffffffffffffffffffffffffffffffffffffffffffffffff\n        /* \"#utility.yul\":12341:12346   */\n      dup3\n        /* \"#utility.yul\":12338:12415   */\n      sub\n        /* \"#utility.yul\":12335:12438   */\n      tag_388\n      jumpi\n        /* \"#utility.yul\":12418:12436   */\n      tag_389\n      tag_219\n      jump\t// in\n    tag_389:\n        /* \"#utility.yul\":12335:12438   */\n    tag_388:\n        /* \"#utility.yul\":12465:12466   */\n      0x01\n        /* \"#utility.yul\":12458:12463   */\n      dup3\n        /* \"#utility.yul\":12454:12467   */\n      add\n        /* \"#utility.yul\":12447:12467   */\n      swap1\n      pop\n        /* \"#utility.yul\":12240:12473   */\n      swap2\n      swap1\n      pop\n      jump\t// out\n        /* \"#utility.yul\":12479:12642   */\n    tag_220:\n        /* \"#utility.yul\":12596:12607   */\n      0x00\n        /* \"#utility.yul\":12633:12636   */\n      dup2\n        /* \"#utility.yul\":12618:12636   */\n      swap1\n      pop\n        /* \"#utility.yul\":12479:12642   */\n      swap3\n      swap2\n      pop\n      pop\n      jump\t// out\n        /* \"#utility.yul\":12648:12750   */\n    tag_221:\n        /* \"#utility.yul\":12717:12721   */\n      0x00\n        /* \"#utility.yul\":12740:12743   */\n      dup2\n        /* \"#utility.yul\":12732:12743   */\n      swap1\n      pop\n        /* \"#utility.yul\":12648:12750   */\n      swap2\n      swap1\n      pop\n      jump\t// out\n        /* \"#utility.yul\":12756:12872   */\n    tag_222:\n        /* \"#utility.yul\":12841:12865   */\n      tag_393\n        /* \"#utility.yul\":12859:12864   */\n      dup2\n        /* \"#utility.yul\":12841:12865   */\n      tag_203\n      jump\t// in\n    tag_393:\n        /* \"#utility.yul\":12836:12839   */\n      dup3\n        /* \"#utility.yul\":12829:12866   */\n      mstore\n        /* \"#utility.yul\":12756:12872   */\n      pop\n      pop\n      jump\t// out\n        /* \"#utility.yul\":12878:13073   */\n    tag_223:\n        /* \"#utility.yul\":12955:12965   */\n      0x00\n        /* \"#utility.yul\":12976:13030   */\n      tag_395\n        /* \"#utility.yul\":13026:13029   */\n      dup4\n        /* \"#utility.yul\":13018:13024   */\n      dup4\n        /* \"#utility.yul\":12976:13030   */\n      tag_222\n      jump\t// in\n    tag_395:\n        /* \"#utility.yul\":13062:13066   */\n      0x20\n        /* \"#utility.yul\":13057:13060   */\n      dup4\n        /* \"#utility.yul\":13053:13067   */\n      add\n        /* \"#utility.yul\":13039:13067   */\n      swap1\n      pop\n        /* \"#utility.yul\":12878:13073   */\n      swap3\n      swap2\n      pop\n      pop\n      jump\t// out\n        /* \"#utility.yul\":13079:13201   */\n    tag_224:\n        /* \"#utility.yul\":13131:13136   */\n      0x00\n        /* \"#utility.yul\":13156:13195   */\n      tag_397\n        /* \"#utility.yul\":13191:13193   */\n      0x20\n        /* \"#utility.yul\":13186:13189   */\n      dup5\n        /* \"#utility.yul\":13182:13194   */\n      add\n        /* \"#utility.yul\":13177:13180   */\n      dup5\n        /* \"#utility.yul\":13156:13195   */\n      tag_205\n      jump\t// in\n    tag_397:\n        /* \"#utility.yul\":13147:13195   */\n      swap1\n      pop\n        /* \"#utility.yul\":13079:13201   */\n      swap3\n      swap2\n      pop\n      pop\n      jump\t// out\n        /* \"#utility.yul\":13207:13322   */\n    tag_225:\n        /* \"#utility.yul\":13279:13283   */\n      0x00\n        /* \"#utility.yul\":13311:13315   */\n      0x20\n        /* \"#utility.yul\":13306:13309   */\n      dup3\n        /* \"#utility.yul\":13302:13316   */\n      add\n        /* \"#utility.yul\":13294:13316   */\n      swap1\n      pop\n        /* \"#utility.yul\":13207:13322   */\n      swap2\n      swap1\n      pop\n      jump\t// out\n        /* \"#utility.yul\":13358:14101   */\n    tag_226:\n        /* \"#utility.yul\":13505:13508   */\n      0x00\n        /* \"#utility.yul\":13528:13632   */\n      tag_400\n        /* \"#utility.yul\":13625:13631   */\n      dup4\n        /* \"#utility.yul\":13620:13623   */\n      dup6\n        /* \"#utility.yul\":13528:13632   */\n      tag_220\n      jump\t// in\n    tag_400:\n        /* \"#utility.yul\":13521:13632   */\n      swap4\n      pop\n        /* \"#utility.yul\":13656:13714   */\n      tag_401\n        /* \"#utility.yul\":13708:13713   */\n      dup3\n        /* \"#utility.yul\":13656:13714   */\n      tag_221\n      jump\t// in\n    tag_401:\n        /* \"#utility.yul\":13737:13744   */\n      dup1\n        /* \"#utility.yul\":13768:13769   */\n      0x00\n        /* \"#utility.yul\":13753:14076   */\n    tag_402:\n        /* \"#utility.yul\":13778:13784   */\n      dup6\n        /* \"#utility.yul\":13775:13776   */\n      dup2\n        /* \"#utility.yul\":13772:13785   */\n      lt\n        /* \"#utility.yul\":13753:14076   */\n      iszero\n      tag_404\n      jumpi\n        /* \"#utility.yul\":13848:13890   */\n      tag_405\n        /* \"#utility.yul\":13883:13889   */\n      dup3\n        /* \"#utility.yul\":13874:13881   */\n      dup5\n        /* \"#utility.yul\":13848:13890   */\n      tag_224\n      jump\t// in\n    tag_405:\n        /* \"#utility.yul\":13910:13981   */\n      tag_406\n        /* \"#utility.yul\":13977:13980   */\n      dup9\n        /* \"#utility.yul\":13962:13975   */\n      dup3\n        /* \"#utility.yul\":13910:13981   */\n      tag_223\n      jump\t// in\n    tag_406:\n        /* \"#utility.yul\":13903:13981   */\n      swap8\n      pop\n        /* \"#utility.yul\":14004:14066   */\n      tag_407\n        /* \"#utility.yul\":14059:14065   */\n      dup4\n        /* \"#utility.yul\":14004:14066   */\n      tag_225\n      jump\t// in\n    tag_407:\n        /* \"#utility.yul\":13994:14066   */\n      swap3\n      pop\n        /* \"#utility.yul\":13813:14076   */\n      pop\n        /* \"#utility.yul\":13800:13801   */\n      0x01\n        /* \"#utility.yul\":13797:13798   */\n      dup2\n        /* \"#utility.yul\":13793:13802   */\n      add\n        /* \"#utility.yul\":13788:13802   */\n      swap1\n      pop\n        /* \"#utility.yul\":13753:14076   */\n      jump(tag_402)\n    tag_404:\n        /* \"#utility.yul\":13757:13771   */\n      pop\n        /* \"#utility.yul\":14092:14095   */\n      dup6\n        /* \"#utility.yul\":14085:14095   */\n      swap3\n      pop\n        /* \"#utility.yul\":13510:14101   */\n      pop\n      pop\n        /* \"#utility.yul\":13358:14101   */\n      swap4\n      swap3\n      pop\n      pop\n      pop\n      jump\t// out\n        /* \"#utility.yul\":14107:14462   */\n    tag_68:\n        /* \"#utility.yul\":14279:14282   */\n      0x00\n        /* \"#utility.yul\":14301:14436   */\n      tag_409\n        /* \"#utility.yul\":14432:14435   */\n      dup3\n        /* \"#utility.yul\":14423:14429   */\n      dup5\n        /* \"#utility.yul\":14415:14421   */\n      dup7\n        /* \"#utility.yul\":14301:14436   */\n      tag_226\n      jump\t// in\n    tag_409:\n        /* \"#utility.yul\":14294:14436   */\n      swap2\n      pop\n        /* \"#utility.yul\":14453:14456   */\n      dup2\n        /* \"#utility.yul\":14446:14456   */\n      swap1\n      pop\n        /* \"#utility.yul\":14107:14462   */\n      swap4\n      swap3\n      pop\n      pop\n      pop\n      jump\t// out\n        /* \"#utility.yul\":14468:14652   */\n    tag_227:\n        /* \"#utility.yul\":14567:14578   */\n      0x00\n        /* \"#utility.yul\":14601:14607   */\n      dup3\n        /* \"#utility.yul\":14596:14599   */\n      dup3\n        /* \"#utility.yul\":14589:14608   */\n      mstore\n        /* \"#utility.yul\":14641:14645   */\n      0x20\n        /* \"#utility.yul\":14636:14639   */\n      dup3\n        /* \"#utility.yul\":14632:14646   */\n      add\n        /* \"#utility.yul\":14617:14646   */\n      swap1\n      pop\n        /* \"#utility.yul\":14468:14652   */\n      swap3\n      swap2\n      pop\n      pop\n      jump\t// out\n        /* \"#utility.yul\":14658:14775   */\n    tag_228:\n        /* \"#utility.yul\":14767:14768   */\n      0x00\n        /* \"#utility.yul\":14764:14765   */\n      dup1\n        /* \"#utility.yul\":14757:14769   */\n      revert\n        /* \"#utility.yul\":14781:14879   */\n    tag_229:\n        /* \"#utility.yul\":14865:14871   */\n      dup3\n        /* \"#utility.yul\":14860:14863   */\n      dup2\n        /* \"#utility.yul\":14855:14858   */\n      dup4\n        /* \"#utility.yul\":14842:14872   */\n      calldatacopy\n        /* \"#utility.yul\":14781:14879   */\n      pop\n      pop\n      pop\n      jump\t// out\n        /* \"#utility.yul\":14915:15452   */\n    tag_230:\n        /* \"#utility.yul\":15043:15046   */\n      0x00\n        /* \"#utility.yul\":15064:15150   */\n      tag_414\n        /* \"#utility.yul\":15143:15149   */\n      dup4\n        /* \"#utility.yul\":15138:15141   */\n      dup6\n        /* \"#utility.yul\":15064:15150   */\n      tag_227\n      jump\t// in\n    tag_414:\n        /* \"#utility.yul\":15057:15150   */\n      swap4\n      pop\n        /* \"#utility.yul\":15174:15240   */\n      0x07ffffffffffffffffffffffffffffffffffffffffffffffffffffffffffffff\n        /* \"#utility.yul\":15166:15172   */\n      dup4\n        /* \"#utility.yul\":15163:15241   */\n      gt\n        /* \"#utility.yul\":15160:15325   */\n      iszero\n      tag_415\n      jumpi\n        /* \"#utility.yul\":15244:15323   */\n      tag_416\n      tag_228\n      jump\t// in\n    tag_416:\n        /* \"#utility.yul\":15160:15325   */\n    tag_415:\n        /* \"#utility.yul\":15356:15360   */\n      0x20\n        /* \"#utility.yul\":15348:15354   */\n      dup4\n        /* \"#utility.yul\":15344:15361   */\n      mul\n        /* \"#utility.yul\":15334:15361   */\n      swap3\n      pop\n        /* \"#utility.yul\":15371:15414   */\n      tag_417\n        /* \"#utility.yul\":15407:15413   */\n      dup4\n        /* \"#utility.yul\":15402:15405   */\n      dup6\n        /* \"#utility.yul\":15395:15400   */\n      dup5\n        /* \"#utility.yul\":15371:15414   */\n      tag_229\n      jump\t// in\n    tag_417:\n        /* \"#utility.yul\":15439:15445   */\n      dup3\n        /* \"#utility.yul\":15434:15437   */\n      dup5\n        /* \"#utility.yul\":15430:15446   */\n      add\n        /* \"#utility.yul\":15423:15446   */\n      swap1\n      pop\n        /* \"#utility.yul\":14915:15452   */\n      swap4\n      swap3\n      pop\n      pop\n      pop\n      jump\t// out\n        /* \"#utility.yul\":15458:15604   */\n    tag_231:\n        /* \"#utility.yul\":15555:15561   */\n      dup3\n        /* \"#utility.yul\":15550:15553   */\n      dup2\n        /* \"#utility.yul\":15545:15548   */\n      dup4\n        /* \"#utility.yul\":15532:15562   */\n      calldatacopy\n        /* \"#utility.yul\":15596:15597   */\n      0x00\n        /* \"#utility.yul\":15587:15593   */\n      dup4\n        /* \"#utility.yul\":15582:15585   */\n      dup4\n        /* \"#utility.yul\":15578:15594   */\n      add\n        /* \"#utility.yul\":15571:15598   */\n      mstore\n        /* \"#utility.yul\":15458:15604   */\n      pop\n      pop\n      pop\n      jump\t// out\n        /* \"#utility.yul\":15610:15712   */\n    tag_232:\n        /* \"#utility.yul\":15651:15657   */\n      0x00\n        /* \"#utility.yul\":15702:15704   */\n      0x1f\n        /* \"#utility.yul\":15698:15705   */\n      not\n        /* \"#utility.yul\":15693:15695   */\n      0x1f\n        /* \"#utility.yul\":15686:15691   */\n      dup4\n        /* \"#utility.yul\":15682:15696   */\n      add\n        /* \"#utility.yul\":15678:15706   */\n      and\n        /* \"#utility.yul\":15668:15706   */\n      swap1\n      pop\n        /* \"#utility.yul\":15610:15712   */\n      swap2\n      swap1\n      pop\n      jump\t// out\n        /* \"#utility.yul\":15742:16059   */\n    tag_233:\n        /* \"#utility.yul\":15840:15843   */\n      0x00\n        /* \"#utility.yul\":15861:15932   */\n      tag_421\n        /* \"#utility.yul\":15925:15931   */\n      dup4\n        /* \"#utility.yul\":15920:15923   */\n      dup6\n        /* \"#utility.yul\":15861:15932   */\n      tag_212\n      jump\t// in\n    tag_421:\n        /* \"#utility.yul\":15854:15932   */\n      swap4\n      pop\n        /* \"#utility.yul\":15942:15998   */\n      tag_422\n        /* \"#utility.yul\":15991:15997   */\n      dup4\n        /* \"#utility.yul\":15986:15989   */\n      dup6\n        /* \"#utility.yul\":15979:15984   */\n      dup5\n        /* \"#utility.yul\":15942:15998   */\n      tag_231\n      jump\t// in\n    tag_422:\n        /* \"#utility.yul\":16023:16052   */\n      tag_423\n        /* \"#utility.yul\":16045:16051   */\n      dup4\n        /* \"#utility.yul\":16023:16052   */\n      tag_232\n      jump\t// in\n    tag_423:\n        /* \"#utility.yul\":16018:16021   */\n      dup5\n        /* \"#utility.yul\":16014:16053   */\n      add\n        /* \"#utility.yul\":16007:16053   */\n      swap1\n      pop\n        /* \"#utility.yul\":15742:16059   */\n      swap4\n      swap3\n      pop\n      pop\n      pop\n      jump\t// out\n        /* \"#utility.yul\":16065:16679   */\n    tag_70:\n        /* \"#utility.yul\":16276:16280   */\n      0x00\n        /* \"#utility.yul\":16314:16316   */\n      0x40\n        /* \"#utility.yul\":16303:16312   */\n      dup3\n        /* \"#utility.yul\":16299:16317   */\n      add\n        /* \"#utility.yul\":16291:16317   */\n      swap1\n      pop\n        /* \"#utility.yul\":16363:16372   */\n      dup2\n        /* \"#utility.yul\":16357:16361   */\n      dup2\n        /* \"#utility.yul\":16353:16373   */\n      sub\n        /* \"#utility.yul\":16349:16350   */\n      0x00\n        /* \"#utility.yul\":16338:16347   */\n      dup4\n        /* \"#utility.yul\":16334:16351   */\n      add\n        /* \"#utility.yul\":16327:16374   */\n      mstore\n        /* \"#utility.yul\":16391:16509   */\n      tag_425\n        /* \"#utility.yul\":16504:16508   */\n      dup2\n        /* \"#utility.yul\":16495:16501   */\n      dup7\n        /* \"#utility.yul\":16487:16493   */\n      dup9\n        /* \"#utility.yul\":16391:16509   */\n      tag_230\n      jump\t// in\n    tag_425:\n        /* \"#utility.yul\":16383:16509   */\n      swap1\n      pop\n        /* \"#utility.yul\":16556:16565   */\n      dup2\n        /* \"#utility.yul\":16550:16554   */\n      dup2\n        /* \"#utility.yul\":16546:16566   */\n      sub\n        /* \"#utility.yul\":16541:16543   */\n      0x20\n        /* \"#utility.yul\":16530:16539   */\n      dup4\n        /* \"#utility.yul\":16526:16544   */\n      add\n        /* \"#utility.yul\":16519:16567   */\n      mstore\n        /* \"#utility.yul\":16584:16672   */\n      tag_426\n        /* \"#utility.yul\":16667:16671   */\n      dup2\n        /* \"#utility.yul\":16658:16664   */\n      dup5\n        /* \"#utility.yul\":16650:16656   */\n      dup7\n        /* \"#utility.yul\":16584:16672   */\n      tag_233\n      jump\t// in\n    tag_426:\n        /* \"#utility.yul\":16576:16672   */\n      swap1\n      pop\n        /* \"#utility.yul\":16065:16679   */\n      swap6\n      swap5\n      pop\n      pop\n      pop\n      pop\n      pop\n      jump\t// out\n        /* \"#utility.yul\":16685:17128   */\n    tag_79:\n        /* \"#utility.yul\":16836:16840   */\n      0x00\n        /* \"#utility.yul\":16874:16876   */\n      0x40\n        /* \"#utility.yul\":16863:16872   */\n      dup3\n        /* \"#utility.yul\":16859:16877   */\n      add\n        /* \"#utility.yul\":16851:16877   */\n      swap1\n      pop\n        /* \"#utility.yul\":16887:16958   */\n      tag_428\n        /* \"#utility.yul\":16955:16956   */\n      0x00\n        /* \"#utility.yul\":16944:16953   */\n      dup4\n        /* \"#utility.yul\":16940:16957   */\n      add\n        /* \"#utility.yul\":16931:16937   */\n      dup7\n        /* \"#utility.yul\":16887:16958   */\n      tag_210\n      jump\t// in\n    tag_428:\n        /* \"#utility.yul\":17005:17014   */\n      dup2\n        /* \"#utility.yul\":16999:17003   */\n      dup2\n        /* \"#utility.yul\":16995:17015   */\n      sub\n        /* \"#utility.yul\":16990:16992   */\n      0x20\n        /* \"#utility.yul\":16979:16988   */\n      dup4\n        /* \"#utility.yul\":16975:16993   */\n      add\n        /* \"#utility.yul\":16968:17016   */\n      mstore\n        /* \"#utility.yul\":17033:17121   */\n      tag_429\n        /* \"#utility.yul\":17116:17120   */\n      dup2\n        /* \"#utility.yul\":17107:17113   */\n      dup5\n        /* \"#utility.yul\":17099:17105   */\n      dup7\n        /* \"#utility.yul\":17033:17121   */\n      tag_233\n      jump\t// in\n    tag_429:\n        /* \"#utility.yul\":17025:17121   */\n      swap1\n      pop\n        /* \"#utility.yul\":16685:17128   */\n      swap5\n      swap4\n      pop\n      pop\n      pop\n      pop\n      jump\t// out\n        /* \"#utility.yul\":17134:17291   */\n    tag_234:\n        /* \"#utility.yul\":17274:17283   */\n      0x746f206661696c00000000000000000000000000000000000000000000000000\n        /* \"#utility.yul\":17270:17271   */\n      0x00\n        /* \"#utility.yul\":17262:17268   */\n      dup3\n        /* \"#utility.yul\":17258:17272   */\n      add\n        /* \"#utility.yul\":17251:17284   */\n      mstore\n        /* \"#utility.yul\":17134:17291   */\n      pop\n      jump\t// out\n        /* \"#utility.yul\":17297:17662   */\n    tag_235:\n        /* \"#utility.yul\":17439:17442   */\n      0x00\n        /* \"#utility.yul\":17460:17526   */\n      tag_432\n        /* \"#utility.yul\":17524:17525   */\n      0x07\n        /* \"#utility.yul\":17519:17522   */\n      dup4\n        /* \"#utility.yul\":17460:17526   */\n      tag_212\n      jump\t// in\n    tag_432:\n        /* \"#utility.yul\":17453:17526   */\n      swap2\n      pop\n        /* \"#utility.yul\":17535:17628   */\n      tag_433\n        /* \"#utility.yul\":17624:17627   */\n      dup3\n        /* \"#utility.yul\":17535:17628   */\n      tag_234\n      jump\t// in\n    tag_433:\n        /* \"#utility.yul\":17653:17655   */\n      0x20\n        /* \"#utility.yul\":17648:17651   */\n      dup3\n        /* \"#utility.yul\":17644:17656   */\n      add\n        /* \"#utility.yul\":17637:17656   */\n      swap1\n      pop\n        /* \"#utility.yul\":17297:17662   */\n      swap2\n      swap1\n      pop\n      jump\t// out\n        /* \"#utility.yul\":17668:18087   */\n    tag_89:\n        /* \"#utility.yul\":17834:17838   */\n      0x00\n        /* \"#utility.yul\":17872:17874   */\n      0x20\n        /* \"#utility.yul\":17861:17870   */\n      dup3\n        /* \"#utility.yul\":17857:17875   */\n      add\n        /* \"#utility.yul\":17849:17875   */\n      swap1\n      pop\n        /* \"#utility.yul\":17921:17930   */\n      dup2\n        /* \"#utility.yul\":17915:17919   */\n      dup2\n        /* \"#utility.yul\":17911:17931   */\n      sub\n        /* \"#utility.yul\":17907:17908   */\n      0x00\n        /* \"#utility.yul\":17896:17905   */\n      dup4\n        /* \"#utility.yul\":17892:17909   */\n      add\n        /* \"#utility.yul\":17885:17932   */\n      mstore\n        /* \"#utility.yul\":17949:18080   */\n      tag_435\n        /* \"#utility.yul\":18075:18079   */\n      dup2\n        /* \"#utility.yul\":17949:18080   */\n      tag_235\n      jump\t// in\n    tag_435:\n        /* \"#utility.yul\":17941:18080   */\n      swap1\n      pop\n        /* \"#utility.yul\":17668:18087   */\n      swap2\n      swap1\n      pop\n      jump\t// out\n        /* \"#utility.yul\":18093:18255   */\n    tag_236:\n        /* \"#utility.yul\":18233:18247   */\n      0x6f726465724964206661696c0000000000000000000000000000000000000000\n        /* \"#utility.yul\":18229:18230   */\n      0x00\n        /* \"#utility.yul\":18221:18227   */\n      dup3\n        /* \"#utility.yul\":18217:18231   */\n      add\n        /* \"#utility.yul\":18210:18248   */\n      mstore\n        /* \"#utility.yul\":18093:18255   */\n      pop\n      jump\t// out\n        /* \"#utility.yul\":18261:18627   */\n    tag_237:\n        /* \"#utility.yul\":18403:18406   */\n      0x00\n        /* \"#utility.yul\":18424:18491   */\n      tag_438\n        /* \"#utility.yul\":18488:18490   */\n      0x0c\n        /* \"#utility.yul\":18483:18486   */\n      dup4\n        /* \"#utility.yul\":18424:18491   */\n      tag_212\n      jump\t// in\n    tag_438:\n        /* \"#utility.yul\":18417:18491   */\n      swap2\n      pop\n        /* \"#utility.yul\":18500:18593   */\n      tag_439\n        /* \"#utility.yul\":18589:18592   */\n      dup3\n        /* \"#utility.yul\":18500:18593   */\n      tag_236\n      jump\t// in\n    tag_439:\n        /* \"#utility.yul\":18618:18620   */\n      0x20\n        /* \"#utility.yul\":18613:18616   */\n      dup3\n        /* \"#utility.yul\":18609:18621   */\n      add\n        /* \"#utility.yul\":18602:18621   */\n      swap1\n      pop\n        /* \"#utility.yul\":18261:18627   */\n      swap2\n      swap1\n      pop\n      jump\t// out\n        /* \"#utility.yul\":18633:19052   */\n    tag_92:\n        /* \"#utility.yul\":18799:18803   */\n      0x00\n        /* \"#utility.yul\":18837:18839   */\n      0x20\n        /* \"#utility.yul\":18826:18835   */\n      dup3\n        /* \"#utility.yul\":18822:18840   */\n      add\n        /* \"#utility.yul\":18814:18840   */\n      swap1\n      pop\n        /* \"#utility.yul\":18886:18895   */\n      dup2\n        /* \"#utility.yul\":18880:18884   */\n      dup2\n        /* \"#utility.yul\":18876:18896   */\n      sub\n        /* \"#utility.yul\":18872:18873   */\n      0x00\n        /* \"#utility.yul\":18861:18870   */\n      dup4\n        /* \"#utility.yul\":18857:18874   */\n      add\n        /* \"#utility.yul\":18850:18897   */\n      mstore\n        /* \"#utility.yul\":18914:19045   */\n      tag_441\n        /* \"#utility.yul\":19040:19044   */\n      dup2\n        /* \"#utility.yul\":18914:19045   */\n      tag_237\n      jump\t// in\n    tag_441:\n        /* \"#utility.yul\":18906:19045   */\n      swap1\n      pop\n        /* \"#utility.yul\":18633:19052   */\n      swap2\n      swap1\n      pop\n      jump\t// out\n        /* \"#utility.yul\":19058:19252   */\n    tag_238:\n        /* \"#utility.yul\":19167:19178   */\n      0x00\n        /* \"#utility.yul\":19201:19207   */\n      dup3\n        /* \"#utility.yul\":19196:19199   */\n      dup3\n        /* \"#utility.yul\":19189:19208   */\n      mstore\n        /* \"#utility.yul\":19241:19245   */\n      0x20\n        /* \"#utility.yul\":19236:19239   */\n      dup3\n        /* \"#utility.yul\":19232:19246   */\n      add\n        /* \"#utility.yul\":19217:19246   */\n      swap1\n      pop\n        /* \"#utility.yul\":19058:19252   */\n      swap3\n      swap2\n      pop\n      pop\n      jump\t// out\n        /* \"#utility.yul\":19258:19372   */\n    tag_239:\n        /* \"#utility.yul\":19339:19343   */\n      0x00\n        /* \"#utility.yul\":19362:19365   */\n      dup2\n        /* \"#utility.yul\":19354:19365   */\n      swap1\n      pop\n        /* \"#utility.yul\":19258:19372   */\n      swap2\n      swap1\n      pop\n      jump\t// out\n        /* \"#utility.yul\":19378:19537   */\n    tag_240:\n        /* \"#utility.yul\":19452:19463   */\n      0x00\n        /* \"#utility.yul\":19486:19492   */\n      dup3\n        /* \"#utility.yul\":19481:19484   */\n      dup3\n        /* \"#utility.yul\":19474:19493   */\n      mstore\n        /* \"#utility.yul\":19526:19530   */\n      0x20\n        /* \"#utility.yul\":19521:19524   */\n      dup3\n        /* \"#utility.yul\":19517:19531   */\n      add\n        /* \"#utility.yul\":19502:19531   */\n      swap1\n      pop\n        /* \"#utility.yul\":19378:19537   */\n      swap3\n      swap2\n      pop\n      pop\n      jump\t// out\n        /* \"#utility.yul\":19567:19864   */\n    tag_241:\n        /* \"#utility.yul\":19655:19658   */\n      0x00\n        /* \"#utility.yul\":19676:19737   */\n      tag_446\n        /* \"#utility.yul\":19730:19736   */\n      dup4\n        /* \"#utility.yul\":19725:19728   */\n      dup6\n        /* \"#utility.yul\":19676:19737   */\n      tag_240\n      jump\t// in\n    tag_446:\n        /* \"#utility.yul\":19669:19737   */\n      swap4\n      pop\n        /* \"#utility.yul\":19747:19803   */\n      tag_447\n        /* \"#utility.yul\":19796:19802   */\n      dup4\n        /* \"#utility.yul\":19791:19794   */\n      dup6\n        /* \"#utility.yul\":19784:19789   */\n      dup5\n        /* \"#utility.yul\":19747:19803   */\n      tag_231\n      jump\t// in\n    tag_447:\n        /* \"#utility.yul\":19828:19857   */\n      tag_448\n        /* \"#utility.yul\":19850:19856   */\n      dup4\n        /* \"#utility.yul\":19828:19857   */\n      tag_232\n      jump\t// in\n    tag_448:\n        /* \"#utility.yul\":19823:19826   */\n      dup5\n        /* \"#utility.yul\":19819:19858   */\n      add\n        /* \"#utility.yul\":19812:19858   */\n      swap1\n      pop\n        /* \"#utility.yul\":19567:19864   */\n      swap4\n      swap3\n      pop\n      pop\n      pop\n      jump\t// out\n        /* \"#utility.yul\":19870:20086   */\n    tag_242:\n        /* \"#utility.yul\":19969:19979   */\n      0x00\n        /* \"#utility.yul\":20004:20080   */\n      tag_450\n        /* \"#utility.yul\":20076:20079   */\n      dup5\n        /* \"#utility.yul\":20068:20074   */\n      dup5\n        /* \"#utility.yul\":20060:20066   */\n      dup5\n        /* \"#utility.yul\":20004:20080   */\n      tag_241\n      jump\t// in\n    tag_450:\n        /* \"#utility.yul\":19990:20080   */\n      swap1\n      pop\n        /* \"#utility.yul\":19870:20086   */\n      swap4\n      swap3\n      pop\n      pop\n      pop\n      jump\t// out\n        /* \"#utility.yul\":20092:20209   */\n    tag_243:\n        /* \"#utility.yul\":20201:20202   */\n      0x00\n        /* \"#utility.yul\":20198:20199   */\n      dup1\n        /* \"#utility.yul\":20191:20203   */\n      revert\n        /* \"#utility.yul\":20215:20332   */\n    tag_244:\n        /* \"#utility.yul\":20324:20325   */\n      0x00\n        /* \"#utility.yul\":20321:20322   */\n      dup1\n        /* \"#utility.yul\":20314:20326   */\n      revert\n        /* \"#utility.yul\":20338:20455   */\n    tag_245:\n        /* \"#utility.yul\":20447:20448   */\n      0x00\n        /* \"#utility.yul\":20444:20445   */\n      dup1\n        /* \"#utility.yul\":20437:20449   */\n      revert\n        /* \"#utility.yul\":20461:21173   */\n    tag_246:\n        /* \"#utility.yul\":20526:20531   */\n      0x00\n        /* \"#utility.yul\":20533:20539   */\n      dup1\n        /* \"#utility.yul\":20589:20592   */\n      dup4\n        /* \"#utility.yul\":20576:20593   */\n      calldataload\n        /* \"#utility.yul\":20681:20682   */\n      0x01\n        /* \"#utility.yul\":20675:20679   */\n      0x20\n        /* \"#utility.yul\":20671:20683   */\n      sub\n        /* \"#utility.yul\":20660:20668   */\n      dup5\n        /* \"#utility.yul\":20644:20658   */\n      calldatasize\n        /* \"#utility.yul\":20640:20669   */\n      sub\n        /* \"#utility.yul\":20636:20684   */\n      sub\n        /* \"#utility.yul\":20616:20634   */\n      dup2\n        /* \"#utility.yul\":20612:20685   */\n      slt\n        /* \"#utility.yul\":20602:20770   */\n      tag_455\n      jumpi\n        /* \"#utility.yul\":20689:20768   */\n      tag_456\n      tag_245\n      jump\t// in\n    tag_456:\n        /* \"#utility.yul\":20602:20770   */\n    tag_455:\n        /* \"#utility.yul\":20812:20820   */\n      dup4\n        /* \"#utility.yul\":20792:20810   */\n      dup2\n        /* \"#utility.yul\":20788:20821   */\n      add\n        /* \"#utility.yul\":20779:20821   */\n      swap3\n      pop\n        /* \"#utility.yul\":20854:20859   */\n      dup3\n        /* \"#utility.yul\":20841:20860   */\n      calldataload\n        /* \"#utility.yul\":20831:20860   */\n      swap2\n      pop\n        /* \"#utility.yul\":20889:20893   */\n      0x20\n        /* \"#utility.yul\":20882:20887   */\n      dup4\n        /* \"#utility.yul\":20878:20894   */\n      add\n        /* \"#utility.yul\":20869:20894   */\n      swap3\n      pop\n        /* \"#utility.yul\":20917:20935   */\n      0xffffffffffffffff\n        /* \"#utility.yul\":20909:20915   */\n      dup3\n        /* \"#utility.yul\":20906:20936   */\n      gt\n        /* \"#utility.yul\":20903:21020   */\n      iszero\n      tag_457\n      jumpi\n        /* \"#utility.yul\":20939:21018   */\n      tag_458\n      tag_243\n      jump\t// in\n    tag_458:\n        /* \"#utility.yul\":20903:21020   */\n    tag_457:\n        /* \"#utility.yul\":21075:21079   */\n      0x01\n        /* \"#utility.yul\":21067:21073   */\n      dup3\n        /* \"#utility.yul\":21063:21080   */\n      mul\n        /* \"#utility.yul\":21047:21061   */\n      calldatasize\n        /* \"#utility.yul\":21043:21081   */\n      sub\n        /* \"#utility.yul\":21036:21041   */\n      dup4\n        /* \"#utility.yul\":21032:21082   */\n      sgt\n        /* \"#utility.yul\":21029:21166   */\n      iszero\n      tag_459\n      jumpi\n        /* \"#utility.yul\":21085:21164   */\n      tag_460\n      tag_244\n      jump\t// in\n    tag_460:\n        /* \"#utility.yul\":21029:21166   */\n    tag_459:\n        /* \"#utility.yul\":20540:21173   */\n      pop\n        /* \"#utility.yul\":20461:21173   */\n      swap3\n      pop\n      swap3\n      swap1\n      pop\n      jump\t// out\n        /* \"#utility.yul\":21179:21306   */\n    tag_247:\n        /* \"#utility.yul\":21263:21267   */\n      0x00\n        /* \"#utility.yul\":21295:21299   */\n      0x20\n        /* \"#utility.yul\":21290:21293   */\n      dup3\n        /* \"#utility.yul\":21286:21300   */\n      add\n        /* \"#utility.yul\":21278:21300   */\n      swap1\n      pop\n        /* \"#utility.yul\":21179:21306   */\n      swap2\n      swap1\n      pop\n      jump\t// out\n        /* \"#utility.yul\":21340:22338   */\n    tag_248:\n        /* \"#utility.yul\":21491:21494   */\n      0x00\n        /* \"#utility.yul\":21514:21610   */\n      tag_463\n        /* \"#utility.yul\":21603:21609   */\n      dup4\n        /* \"#utility.yul\":21598:21601   */\n      dup6\n        /* \"#utility.yul\":21514:21610   */\n      tag_238\n      jump\t// in\n    tag_463:\n        /* \"#utility.yul\":21507:21610   */\n      swap4\n      pop\n        /* \"#utility.yul\":21636:21639   */\n      dup4\n        /* \"#utility.yul\":21681:21685   */\n      0x20\n        /* \"#utility.yul\":21673:21679   */\n      dup5\n        /* \"#utility.yul\":21669:21686   */\n      mul\n        /* \"#utility.yul\":21664:21667   */\n      dup6\n        /* \"#utility.yul\":21660:21687   */\n      add\n        /* \"#utility.yul\":21711:21781   */\n      tag_464\n        /* \"#utility.yul\":21775:21780   */\n      dup5\n        /* \"#utility.yul\":21711:21781   */\n      tag_239\n      jump\t// in\n    tag_464:\n        /* \"#utility.yul\":21804:21811   */\n      dup1\n        /* \"#utility.yul\":21835:21836   */\n      0x00\n        /* \"#utility.yul\":21820:22293   */\n    tag_465:\n        /* \"#utility.yul\":21845:21851   */\n      dup8\n        /* \"#utility.yul\":21842:21843   */\n      dup2\n        /* \"#utility.yul\":21839:21852   */\n      lt\n        /* \"#utility.yul\":21820:22293   */\n      iszero\n      tag_467\n      jumpi\n        /* \"#utility.yul\":21916:21925   */\n      dup5\n        /* \"#utility.yul\":21910:21914   */\n      dup5\n        /* \"#utility.yul\":21906:21926   */\n      sub\n        /* \"#utility.yul\":21901:21904   */\n      dup10\n        /* \"#utility.yul\":21894:21927   */\n      mstore\n        /* \"#utility.yul\":21976:22030   */\n      tag_468\n        /* \"#utility.yul\":22023:22029   */\n      dup3\n        /* \"#utility.yul\":22014:22021   */\n      dup5\n        /* \"#utility.yul\":21976:22030   */\n      tag_246\n      jump\t// in\n    tag_468:\n        /* \"#utility.yul\":22051:22152   */\n      tag_469\n        /* \"#utility.yul\":22147:22151   */\n      dup7\n        /* \"#utility.yul\":22132:22145   */\n      dup3\n        /* \"#utility.yul\":22117:22130   */\n      dup5\n        /* \"#utility.yul\":22051:22152   */\n      tag_242\n      jump\t// in\n    tag_469:\n        /* \"#utility.yul\":22043:22152   */\n      swap6\n      pop\n        /* \"#utility.yul\":22175:22249   */\n      tag_470\n        /* \"#utility.yul\":22242:22248   */\n      dup5\n        /* \"#utility.yul\":22175:22249   */\n      tag_247\n      jump\t// in\n    tag_470:\n        /* \"#utility.yul\":22165:22249   */\n      swap4\n      pop\n        /* \"#utility.yul\":22278:22282   */\n      0x20\n        /* \"#utility.yul\":22273:22276   */\n      dup12\n        /* \"#utility.yul\":22269:22283   */\n      add\n        /* \"#utility.yul\":22262:22283   */\n      swap11\n      pop\n        /* \"#utility.yul\":21880:22293   */\n      pop\n      pop\n        /* \"#utility.yul\":21867:21868   */\n      0x01\n        /* \"#utility.yul\":21864:21865   */\n      dup2\n        /* \"#utility.yul\":21860:21869   */\n      add\n        /* \"#utility.yul\":21855:21869   */\n      swap1\n      pop\n        /* \"#utility.yul\":21820:22293   */\n      jump(tag_465)\n    tag_467:\n        /* \"#utility.yul\":21824:21838   */\n      pop\n        /* \"#utility.yul\":22309:22313   */\n      dup3\n        /* \"#utility.yul\":22302:22313   */\n      swap8\n      pop\n        /* \"#utility.yul\":22329:22332   */\n      dup8\n        /* \"#utility.yul\":22322:22332   */\n      swap5\n      pop\n        /* \"#utility.yul\":21496:22338   */\n      pop\n      pop\n      pop\n      pop\n        /* \"#utility.yul\":21340:22338   */\n      swap4\n      swap3\n      pop\n      pop\n      pop\n      jump\t// out\n        /* \"#utility.yul\":22344:23062   */\n    tag_113:\n        /* \"#utility.yul\":22607:22611   */\n      0x00\n        /* \"#utility.yul\":22645:22647   */\n      0x40\n        /* \"#utility.yul\":22634:22643   */\n      dup3\n        /* \"#utility.yul\":22630:22648   */\n      add\n        /* \"#utility.yul\":22622:22648   */\n      swap1\n      pop\n        /* \"#utility.yul\":22694:22703   */\n      dup2\n        /* \"#utility.yul\":22688:22692   */\n      dup2\n        /* \"#utility.yul\":22684:22704   */\n      sub\n        /* \"#utility.yul\":22680:22681   */\n      0x00\n        /* \"#utility.yul\":22669:22678   */\n      dup4\n        /* \"#utility.yul\":22665:22682   */\n      add\n        /* \"#utility.yul\":22658:22705   */\n      mstore\n        /* \"#utility.yul\":22722:22840   */\n      tag_472\n        /* \"#utility.yul\":22835:22839   */\n      dup2\n        /* \"#utility.yul\":22826:22832   */\n      dup7\n        /* \"#utility.yul\":22818:22824   */\n      dup9\n        /* \"#utility.yul\":22722:22840   */\n      tag_230\n      jump\t// in\n    tag_472:\n        /* \"#utility.yul\":22714:22840   */\n      swap1\n      pop\n        /* \"#utility.yul\":22887:22896   */\n      dup2\n        /* \"#utility.yul\":22881:22885   */\n      dup2\n        /* \"#utility.yul\":22877:22897   */\n      sub\n        /* \"#utility.yul\":22872:22874   */\n      0x20\n        /* \"#utility.yul\":22861:22870   */\n      dup4\n        /* \"#utility.yul\":22857:22875   */\n      add\n        /* \"#utility.yul\":22850:22898   */\n      mstore\n        /* \"#utility.yul\":22915:23055   */\n      tag_473\n        /* \"#utility.yul\":23050:23054   */\n      dup2\n        /* \"#utility.yul\":23041:23047   */\n      dup5\n        /* \"#utility.yul\":23033:23039   */\n      dup7\n        /* \"#utility.yul\":22915:23055   */\n      tag_248\n      jump\t// in\n    tag_473:\n        /* \"#utility.yul\":22907:23055   */\n      swap1\n      pop\n        /* \"#utility.yul\":22344:23062   */\n      swap6\n      swap5\n      pop\n      pop\n      pop\n      pop\n      pop\n      jump\t// out\n        /* \"#utility.yul\":23068:23211   */\n    tag_249:\n        /* \"#utility.yul\":23125:23130   */\n      0x00\n        /* \"#utility.yul\":23156:23162   */\n      dup2\n        /* \"#utility.yul\":23150:23163   */\n      mload\n        /* \"#utility.yul\":23141:23163   */\n      swap1\n      pop\n        /* \"#utility.yul\":23172:23205   */\n      tag_475\n        /* \"#utility.yul\":23199:23204   */\n      dup2\n        /* \"#utility.yul\":23172:23205   */\n      tag_207\n      jump\t// in\n    tag_475:\n        /* \"#utility.yul\":23068:23211   */\n      swap3\n      swap2\n      pop\n      pop\n      jump\t// out\n        /* \"#utility.yul\":23217:23568   */\n    tag_121:\n        /* \"#utility.yul\":23287:23293   */\n      0x00\n        /* \"#utility.yul\":23336:23338   */\n      0x20\n        /* \"#utility.yul\":23324:23333   */\n      dup3\n        /* \"#utility.yul\":23315:23322   */\n      dup5\n        /* \"#utility.yul\":23311:23334   */\n      sub\n        /* \"#utility.yul\":23307:23339   */\n      slt\n        /* \"#utility.yul\":23304:23423   */\n      iszero\n      tag_477\n      jumpi\n        /* \"#utility.yul\":23342:23421   */\n      tag_478\n      tag_194\n      jump\t// in\n    tag_478:\n        /* \"#utility.yul\":23304:23423   */\n    tag_477:\n        /* \"#utility.yul\":23462:23463   */\n      0x00\n        /* \"#utility.yul\":23487:23551   */\n      tag_479\n        /* \"#utility.yul\":23543:23550   */\n      dup5\n        /* \"#utility.yul\":23534:23540   */\n      dup3\n        /* \"#utility.yul\":23523:23532   */\n      dup6\n        /* \"#utility.yul\":23519:23541   */\n      add\n        /* \"#utility.yul\":23487:23551   */\n      tag_249\n      jump\t// in\n    tag_479:\n        /* \"#utility.yul\":23477:23551   */\n      swap2\n      pop\n        /* \"#utility.yul\":23433:23561   */\n      pop\n        /* \"#utility.yul\":23217:23568   */\n      swap3\n      swap2\n      pop\n      pop\n      jump\t// out\n        /* \"#utility.yul\":23574:23799   */\n    tag_250:\n        /* \"#utility.yul\":23714:23748   */\n      0x4f776e61626c653a206e6577206f776e657220697320746865207a65726f2061\n        /* \"#utility.yul\":23710:23711   */\n      0x00\n        /* \"#utility.yul\":23702:23708   */\n      dup3\n        /* \"#utility.yul\":23698:23712   */\n      add\n        /* \"#utility.yul\":23691:23749   */\n      mstore\n        /* \"#utility.yul\":23783:23791   */\n      0x6464726573730000000000000000000000000000000000000000000000000000\n        /* \"#utility.yul\":23778:23780   */\n      0x20\n        /* \"#utility.yul\":23770:23776   */\n      dup3\n        /* \"#utility.yul\":23766:23781   */\n      add\n        /* \"#utility.yul\":23759:23792   */\n      mstore\n        /* \"#utility.yul\":23574:23799   */\n      pop\n      jump\t// out\n        /* \"#utility.yul\":23805:24171   */\n    tag_251:\n        /* \"#utility.yul\":23947:23950   */\n      0x00\n        /* \"#utility.yul\":23968:24035   */\n      tag_482\n        /* \"#utility.yul\":24032:24034   */\n      0x26\n        /* \"#utility.yul\":24027:24030   */\n      dup4\n        /* \"#utility.yul\":23968:24035   */\n      tag_212\n      jump\t// in\n    tag_482:\n        /* \"#utility.yul\":23961:24035   */\n      swap2\n      pop\n        /* \"#utility.yul\":24044:24137   */\n      tag_483\n        /* \"#utility.yul\":24133:24136   */\n      dup3\n        /* \"#utility.yul\":24044:24137   */\n      tag_250\n      jump\t// in\n    tag_483:\n        /* \"#utility.yul\":24162:24164   */\n      0x40\n        /* \"#utility.yul\":24157:24160   */\n      dup3\n        /* \"#utility.yul\":24153:24165   */\n      add\n        /* \"#utility.yul\":24146:24165   */\n      swap1\n      pop\n        /* \"#utility.yul\":23805:24171   */\n      swap2\n      swap1\n      pop\n      jump\t// out\n        /* \"#utility.yul\":24177:24596   */\n    tag_133:\n        /* \"#utility.yul\":24343:24347   */\n      0x00\n        /* \"#utility.yul\":24381:24383   */\n      0x20\n        /* \"#utility.yul\":24370:24379   */\n      dup3\n        /* \"#utility.yul\":24366:24384   */\n      add\n        /* \"#utility.yul\":24358:24384   */\n      swap1\n      pop\n        /* \"#utility.yul\":24430:24439   */\n      dup2\n        /* \"#utility.yul\":24424:24428   */\n      dup2\n        /* \"#utility.yul\":24420:24440   */\n      sub\n        /* \"#utility.yul\":24416:24417   */\n      0x00\n        /* \"#utility.yul\":24405:24414   */\n      dup4\n        /* \"#utility.yul\":24401:24418   */\n      add\n        /* \"#utility.yul\":24394:24441   */\n      mstore\n        /* \"#utility.yul\":24458:24589   */\n      tag_485\n        /* \"#utility.yul\":24584:24588   */\n      dup2\n        /* \"#utility.yul\":24458:24589   */\n      tag_251\n      jump\t// in\n    tag_485:\n        /* \"#utility.yul\":24450:24589   */\n      swap1\n      pop\n        /* \"#utility.yul\":24177:24596   */\n      swap2\n      swap1\n      pop\n      jump\t// out\n        /* \"#utility.yul\":24602:24784   */\n    tag_252:\n        /* \"#utility.yul\":24742:24776   */\n      0x4f776e61626c653a2063616c6c6572206973206e6f7420746865206f776e6572\n        /* \"#utility.yul\":24738:24739   */\n      0x00\n        /* \"#utility.yul\":24730:24736   */\n      dup3\n        /* \"#utility.yul\":24726:24740   */\n      add\n        /* \"#utility.yul\":24719:24777   */\n      mstore\n        /* \"#utility.yul\":24602:24784   */\n      pop\n      jump\t// out\n        /* \"#utility.yul\":24790:25156   */\n    tag_253:\n        /* \"#utility.yul\":24932:24935   */\n      0x00\n        /* \"#utility.yul\":24953:25020   */\n      tag_488\n        /* \"#utility.yul\":25017:25019   */\n      0x20\n        /* \"#utility.yul\":25012:25015   */\n      dup4\n        /* \"#utility.yul\":24953:25020   */\n      tag_212\n      jump\t// in\n    tag_488:\n        /* \"#utility.yul\":24946:25020   */\n      swap2\n      pop\n        /* \"#utility.yul\":25029:25122   */\n      tag_489\n        /* \"#utility.yul\":25118:25121   */\n      dup3\n        /* \"#utility.yul\":25029:25122   */\n      tag_252\n      jump\t// in\n    tag_489:\n        /* \"#utility.yul\":25147:25149   */\n      0x20\n        /* \"#utility.yul\":25142:25145   */\n      dup3\n        /* \"#utility.yul\":25138:25150   */\n      add\n        /* \"#utility.yul\":25131:25150   */\n      swap1\n      pop\n        /* \"#utility.yul\":24790:25156   */\n      swap2\n      swap1\n      pop\n      jump\t// out\n        /* \"#utility.yul\":25162:25581   */\n    tag_141:\n        /* \"#utility.yul\":25328:25332   */\n      0x00\n        /* \"#utility.yul\":25366:25368   */\n      0x20\n        /* \"#utility.yul\":25355:25364   */\n      dup3\n        /* \"#utility.yul\":25351:25369   */\n      add\n        /* \"#utility.yul\":25343:25369   */\n      swap1\n      pop\n        /* \"#utility.yul\":25415:25424   */\n      dup2\n        /* \"#utility.yul\":25409:25413   */\n      dup2\n        /* \"#utility.yul\":25405:25425   */\n      sub\n        /* \"#utility.yul\":25401:25402   */\n      0x00\n        /* \"#utility.yul\":25390:25399   */\n      dup4\n        /* \"#utility.yul\":25386:25403   */\n      add\n        /* \"#utility.yul\":25379:25426   */\n      mstore\n        /* \"#utility.yul\":25443:25574   */\n      tag_491\n        /* \"#utility.yul\":25569:25573   */\n      dup2\n        /* \"#utility.yul\":25443:25574   */\n      tag_253\n      jump\t// in\n    tag_491:\n        /* \"#utility.yul\":25435:25574   */\n      swap1\n      pop\n        /* \"#utility.yul\":25162:25581   */\n      swap2\n      swap1\n      pop\n      jump\t// out\n        /* \"#utility.yul\":25587:25919   */\n    tag_145:\n        /* \"#utility.yul\":25708:25712   */\n      0x00\n        /* \"#utility.yul\":25746:25748   */\n      0x40\n        /* \"#utility.yul\":25735:25744   */\n      dup3\n        /* \"#utility.yul\":25731:25749   */\n      add\n        /* \"#utility.yul\":25723:25749   */\n      swap1\n      pop\n        /* \"#utility.yul\":25759:25830   */\n      tag_493\n        /* \"#utility.yul\":25827:25828   */\n      0x00\n        /* \"#utility.yul\":25816:25825   */\n      dup4\n        /* \"#utility.yul\":25812:25829   */\n      add\n        /* \"#utility.yul\":25803:25809   */\n      dup6\n        /* \"#utility.yul\":25759:25830   */\n      tag_211\n      jump\t// in\n    tag_493:\n        /* \"#utility.yul\":25840:25912   */\n      tag_494\n        /* \"#utility.yul\":25908:25910   */\n      0x20\n        /* \"#utility.yul\":25897:25906   */\n      dup4\n        /* \"#utility.yul\":25893:25911   */\n      add\n        /* \"#utility.yul\":25884:25890   */\n      dup5\n        /* \"#utility.yul\":25840:25912   */\n      tag_210\n      jump\t// in\n    tag_494:\n        /* \"#utility.yul\":25587:25919   */\n      swap4\n      swap3\n      pop\n      pop\n      pop\n      jump\t// out\n        /* \"#utility.yul\":25925:26367   */\n    tag_150:\n        /* \"#utility.yul\":26074:26078   */\n      0x00\n        /* \"#utility.yul\":26112:26114   */\n      0x60\n        /* \"#utility.yul\":26101:26110   */\n      dup3\n        /* \"#utility.yul\":26097:26115   */\n      add\n        /* \"#utility.yul\":26089:26115   */\n      swap1\n      pop\n        /* \"#utility.yul\":26125:26196   */\n      tag_496\n        /* \"#utility.yul\":26193:26194   */\n      0x00\n        /* \"#utility.yul\":26182:26191   */\n      dup4\n        /* \"#utility.yul\":26178:26195   */\n      add\n        /* \"#utility.yul\":26169:26175   */\n      dup7\n        /* \"#utility.yul\":26125:26196   */\n      tag_211\n      jump\t// in\n    tag_496:\n        /* \"#utility.yul\":26206:26278   */\n      tag_497\n        /* \"#utility.yul\":26274:26276   */\n      0x20\n        /* \"#utility.yul\":26263:26272   */\n      dup4\n        /* \"#utility.yul\":26259:26277   */\n      add\n        /* \"#utility.yul\":26250:26256   */\n      dup6\n        /* \"#utility.yul\":26206:26278   */\n      tag_211\n      jump\t// in\n    tag_497:\n        /* \"#utility.yul\":26288:26360   */\n      tag_498\n        /* \"#utility.yul\":26356:26358   */\n      0x40\n        /* \"#utility.yul\":26345:26354   */\n      dup4\n        /* \"#utility.yul\":26341:26359   */\n      add\n        /* \"#utility.yul\":26332:26338   */\n      dup5\n        /* \"#utility.yul\":26288:26360   */\n      tag_210\n      jump\t// in\n    tag_498:\n        /* \"#utility.yul\":25925:26367   */\n      swap5\n      swap4\n      pop\n      pop\n      pop\n      pop\n      jump\t// out\n        /* \"#utility.yul\":26373:26463   */\n    tag_254:\n        /* \"#utility.yul\":26407:26414   */\n      0x00\n        /* \"#utility.yul\":26450:26455   */\n      dup2\n        /* \"#utility.yul\":26443:26456   */\n      iszero\n        /* \"#utility.yul\":26436:26457   */\n      iszero\n        /* \"#utility.yul\":26425:26457   */\n      swap1\n      pop\n        /* \"#utility.yul\":26373:26463   */\n      swap2\n      swap1\n      pop\n      jump\t// out\n        /* \"#utility.yul\":26469:26585   */\n    tag_255:\n        /* \"#utility.yul\":26539:26560   */\n      tag_501\n        /* \"#utility.yul\":26554:26559   */\n      dup2\n        /* \"#utility.yul\":26539:26560   */\n      tag_254\n      jump\t// in\n    tag_501:\n        /* \"#utility.yul\":26532:26537   */\n      dup2\n        /* \"#utility.yul\":26529:26561   */\n      eq\n        /* \"#utility.yul\":26519:26579   */\n      tag_502\n      jumpi\n        /* \"#utility.yul\":26575:26576   */\n      0x00\n        /* \"#utility.yul\":26572:26573   */\n      dup1\n        /* \"#utility.yul\":26565:26577   */\n      revert\n        /* \"#utility.yul\":26519:26579   */\n    tag_502:\n        /* \"#utility.yul\":26469:26585   */\n      pop\n      jump\t// out\n        /* \"#utility.yul\":26591:26728   */\n    tag_256:\n        /* \"#utility.yul\":26645:26650   */\n      0x00\n        /* \"#utility.yul\":26676:26682   */\n      dup2\n        /* \"#utility.yul\":26670:26683   */\n      mload\n        /* \"#utility.yul\":26661:26683   */\n      swap1\n      pop\n        /* \"#utility.yul\":26692:26722   */\n      tag_504\n        /* \"#utility.yul\":26716:26721   */\n      dup2\n        /* \"#utility.yul\":26692:26722   */\n      tag_255\n      jump\t// in\n    tag_504:\n        /* \"#utility.yul\":26591:26728   */\n      swap3\n      swap2\n      pop\n      pop\n      jump\t// out\n        /* \"#utility.yul\":26734:27079   */\n    tag_158:\n        /* \"#utility.yul\":26801:26807   */\n      0x00\n        /* \"#utility.yul\":26850:26852   */\n      0x20\n        /* \"#utility.yul\":26838:26847   */\n      dup3\n        /* \"#utility.yul\":26829:26836   */\n      dup5\n        /* \"#utility.yul\":26825:26848   */\n      sub\n        /* \"#utility.yul\":26821:26853   */\n      slt\n        /* \"#utility.yul\":26818:26937   */\n      iszero\n      tag_506\n      jumpi\n        /* \"#utility.yul\":26856:26935   */\n      tag_507\n      tag_194\n      jump\t// in\n    tag_507:\n        /* \"#utility.yul\":26818:26937   */\n    tag_506:\n        /* \"#utility.yul\":26976:26977   */\n      0x00\n        /* \"#utility.yul\":27001:27062   */\n      tag_508\n        /* \"#utility.yul\":27054:27061   */\n      dup5\n        /* \"#utility.yul\":27045:27051   */\n      dup3\n        /* \"#utility.yul\":27034:27043   */\n      dup6\n        /* \"#utility.yul\":27030:27052   */\n      add\n        /* \"#utility.yul\":27001:27062   */\n      tag_256\n      jump\t// in\n    tag_508:\n        /* \"#utility.yul\":26991:27062   */\n      swap2\n      pop\n        /* \"#utility.yul\":26947:27072   */\n      pop\n        /* \"#utility.yul\":26734:27079   */\n      swap3\n      swap2\n      pop\n      pop\n      jump\t// out\n        /* \"#utility.yul\":27085:27314   */\n    tag_257:\n        /* \"#utility.yul\":27225:27259   */\n      0x5361666545524332303a204552433230206f7065726174696f6e20646964206e\n        /* \"#utility.yul\":27221:27222   */\n      0x00\n        /* \"#utility.yul\":27213:27219   */\n      dup3\n        /* \"#utility.yul\":27209:27223   */\n      add\n        /* \"#utility.yul\":27202:27260   */\n      mstore\n        /* \"#utility.yul\":27294:27306   */\n      0x6f74207375636365656400000000000000000000000000000000000000000000\n        /* \"#utility.yul\":27289:27291   */\n      0x20\n        /* \"#utility.yul\":27281:27287   */\n      dup3\n        /* \"#utility.yul\":27277:27292   */\n      add\n        /* \"#utility.yul\":27270:27307   */\n      mstore\n        /* \"#utility.yul\":27085:27314   */\n      pop\n      jump\t// out\n        /* \"#utility.yul\":27320:27686   */\n    tag_258:\n        /* \"#utility.yul\":27462:27465   */\n      0x00\n        /* \"#utility.yul\":27483:27550   */\n      tag_511\n        /* \"#utility.yul\":27547:27549   */\n      0x2a\n        /* \"#utility.yul\":27542:27545   */\n      dup4\n        /* \"#utility.yul\":27483:27550   */\n      tag_212\n      jump\t// in\n    tag_511:\n        /* \"#utility.yul\":27476:27550   */\n      swap2\n      pop\n        /* \"#utility.yul\":27559:27652   */\n      tag_512\n        /* \"#utility.yul\":27648:27651   */\n      dup3\n        /* \"#utility.yul\":27559:27652   */\n      tag_257\n      jump\t// in\n    tag_512:\n        /* \"#utility.yul\":27677:27679   */\n      0x40\n        /* \"#utility.yul\":27672:27675   */\n      dup3\n        /* \"#utility.yul\":27668:27680   */\n      add\n        /* \"#utility.yul\":27661:27680   */\n      swap1\n      pop\n        /* \"#utility.yul\":27320:27686   */\n      swap2\n      swap1\n      pop\n      jump\t// out\n        /* \"#utility.yul\":27692:28111   */\n    tag_161:\n        /* \"#utility.yul\":27858:27862   */\n      0x00\n        /* \"#utility.yul\":27896:27898   */\n      0x20\n        /* \"#utility.yul\":27885:27894   */\n      dup3\n        /* \"#utility.yul\":27881:27899   */\n      add\n        /* \"#utility.yul\":27873:27899   */\n      swap1\n      pop\n        /* \"#utility.yul\":27945:27954   */\n      dup2\n        /* \"#utility.yul\":27939:27943   */\n      dup2\n        /* \"#utility.yul\":27935:27955   */\n      sub\n        /* \"#utility.yul\":27931:27932   */\n      0x00\n        /* \"#utility.yul\":27920:27929   */\n      dup4\n        /* \"#utility.yul\":27916:27933   */\n      add\n        /* \"#utility.yul\":27909:27956   */\n      mstore\n        /* \"#utility.yul\":27973:28104   */\n      tag_514\n        /* \"#utility.yul\":28099:28103   */\n      dup2\n        /* \"#utility.yul\":27973:28104   */\n      tag_258\n      jump\t// in\n    tag_514:\n        /* \"#utility.yul\":27965:28104   */\n      swap1\n      pop\n        /* \"#utility.yul\":27692:28111   */\n      swap2\n      swap1\n      pop\n      jump\t// out\n        /* \"#utility.yul\":28117:28342   */\n    tag_259:\n        /* \"#utility.yul\":28257:28291   */\n      0x416464726573733a20696e73756666696369656e742062616c616e636520666f\n        /* \"#utility.yul\":28253:28254   */\n      0x00\n        /* \"#utility.yul\":28245:28251   */\n      dup3\n        /* \"#utility.yul\":28241:28255   */\n      add\n        /* \"#utility.yul\":28234:28292   */\n      mstore\n        /* \"#utility.yul\":28326:28334   */\n      0x722063616c6c0000000000000000000000000000000000000000000000000000\n        /* \"#utility.yul\":28321:28323   */\n      0x20\n        /* \"#utility.yul\":28313:28319   */\n      dup3\n        /* \"#utility.yul\":28309:28324   */\n      add\n        /* \"#utility.yul\":28302:28335   */\n      mstore\n        /* \"#utility.yul\":28117:28342   */\n      pop\n      jump\t// out\n        /* \"#utility.yul\":28348:28714   */\n    tag_260:\n        /* \"#utility.yul\":28490:28493   */\n      0x00\n        /* \"#utility.yul\":28511:28578   */\n      tag_517\n        /* \"#utility.yul\":28575:28577   */\n      0x26\n        /* \"#utility.yul\":28570:28573   */\n      dup4\n        /* \"#utility.yul\":28511:28578   */\n      tag_212\n      jump\t// in\n    tag_517:\n        /* \"#utility.yul\":28504:28578   */\n      swap2\n      pop\n        /* \"#utility.yul\":28587:28680   */\n      tag_518\n        /* \"#utility.yul\":28676:28679   */\n      dup3\n        /* \"#utility.yul\":28587:28680   */\n      tag_259\n      jump\t// in\n    tag_518:\n        /* \"#utility.yul\":28705:28707   */\n      0x40\n        /* \"#utility.yul\":28700:28703   */\n      dup3\n        /* \"#utility.yul\":28696:28708   */\n      add\n        /* \"#utility.yul\":28689:28708   */\n      swap1\n      pop\n        /* \"#utility.yul\":28348:28714   */\n      swap2\n      swap1\n      pop\n      jump\t// out\n        /* \"#utility.yul\":28720:29139   */\n    tag_168:\n        /* \"#utility.yul\":28886:28890   */\n      0x00\n        /* \"#utility.yul\":28924:28926   */\n      0x20\n        /* \"#utility.yul\":28913:28922   */\n      dup3\n        /* \"#utility.yul\":28909:28927   */\n      add\n        /* \"#utility.yul\":28901:28927   */\n      swap1\n      pop\n        /* \"#utility.yul\":28973:28982   */\n      dup2\n        /* \"#utility.yul\":28967:28971   */\n      dup2\n        /* \"#utility.yul\":28963:28983   */\n      sub\n        /* \"#utility.yul\":28959:28960   */\n      0x00\n        /* \"#utility.yul\":28948:28957   */\n      dup4\n        /* \"#utility.yul\":28944:28961   */\n      add\n        /* \"#utility.yul\":28937:28984   */\n      mstore\n        /* \"#utility.yul\":29001:29132   */\n      tag_520\n        /* \"#utility.yul\":29127:29131   */\n      dup2\n        /* \"#utility.yul\":29001:29132   */\n      tag_260\n      jump\t// in\n    tag_520:\n        /* \"#utility.yul\":28993:29132   */\n      swap1\n      pop\n        /* \"#utility.yul\":28720:29139   */\n      swap2\n      swap1\n      pop\n      jump\t// out\n        /* \"#utility.yul\":29145:29243   */\n    tag_261:\n        /* \"#utility.yul\":29196:29202   */\n      0x00\n        /* \"#utility.yul\":29230:29235   */\n      dup2\n        /* \"#utility.yul\":29224:29236   */\n      mload\n        /* \"#utility.yul\":29214:29236   */\n      swap1\n      pop\n        /* \"#utility.yul\":29145:29243   */\n      swap2\n      swap1\n      pop\n      jump\t// out\n        /* \"#utility.yul\":29249:29396   */\n    tag_262:\n        /* \"#utility.yul\":29350:29361   */\n      0x00\n        /* \"#utility.yul\":29387:29390   */\n      dup2\n        /* \"#utility.yul\":29372:29390   */\n      swap1\n      pop\n        /* \"#utility.yul\":29249:29396   */\n      swap3\n      swap2\n      pop\n      pop\n      jump\t// out\n        /* \"#utility.yul\":29402:29648   */\n    tag_263:\n        /* \"#utility.yul\":29483:29484   */\n      0x00\n        /* \"#utility.yul\":29493:29606   */\n    tag_524:\n        /* \"#utility.yul\":29507:29513   */\n      dup4\n        /* \"#utility.yul\":29504:29505   */\n      dup2\n        /* \"#utility.yul\":29501:29514   */\n      lt\n        /* \"#utility.yul\":29493:29606   */\n      iszero\n      tag_526\n      jumpi\n        /* \"#utility.yul\":29592:29593   */\n      dup1\n        /* \"#utility.yul\":29587:29590   */\n      dup3\n        /* \"#utility.yul\":29583:29594   */\n      add\n        /* \"#utility.yul\":29577:29595   */\n      mload\n        /* \"#utility.yul\":29573:29574   */\n      dup2\n        /* \"#utility.yul\":29568:29571   */\n      dup5\n        /* \"#utility.yul\":29564:29575   */\n      add\n        /* \"#utility.yul\":29557:29596   */\n      mstore\n        /* \"#utility.yul\":29529:29531   */\n      0x20\n        /* \"#utility.yul\":29526:29527   */\n      dup2\n        /* \"#utility.yul\":29522:29532   */\n      add\n        /* \"#utility.yul\":29517:29532   */\n      swap1\n      pop\n        /* \"#utility.yul\":29493:29606   */\n      jump(tag_524)\n    tag_526:\n        /* \"#utility.yul\":29640:29641   */\n      0x00\n        /* \"#utility.yul\":29631:29637   */\n      dup5\n        /* \"#utility.yul\":29626:29629   */\n      dup5\n        /* \"#utility.yul\":29622:29638   */\n      add\n        /* \"#utility.yul\":29615:29642   */\n      mstore\n        /* \"#utility.yul\":29464:29648   */\n      pop\n        /* \"#utility.yul\":29402:29648   */\n      pop\n      pop\n      pop\n      jump\t// out\n        /* \"#utility.yul\":29654:30040   */\n    tag_264:\n        /* \"#utility.yul\":29758:29761   */\n      0x00\n        /* \"#utility.yul\":29786:29824   */\n      tag_528\n        /* \"#utility.yul\":29818:29823   */\n      dup3\n        /* \"#utility.yul\":29786:29824   */\n      tag_261\n      jump\t// in\n    tag_528:\n        /* \"#utility.yul\":29840:29928   */\n      tag_529\n        /* \"#utility.yul\":29921:29927   */\n      dup2\n        /* \"#utility.yul\":29916:29919   */\n      dup6\n        /* \"#utility.yul\":29840:29928   */\n      tag_262\n      jump\t// in\n    tag_529:\n        /* \"#utility.yul\":29833:29928   */\n      swap4\n      pop\n        /* \"#utility.yul\":29937:30002   */\n      tag_530\n        /* \"#utility.yul\":29995:30001   */\n      dup2\n        /* \"#utility.yul\":29990:29993   */\n      dup6\n        /* \"#utility.yul\":29983:29987   */\n      0x20\n        /* \"#utility.yul\":29976:29981   */\n      dup7\n        /* \"#utility.yul\":29972:29988   */\n      add\n        /* \"#utility.yul\":29937:30002   */\n      tag_263\n      jump\t// in\n    tag_530:\n        /* \"#utility.yul\":30027:30033   */\n      dup1\n        /* \"#utility.yul\":30022:30025   */\n      dup5\n        /* \"#utility.yul\":30018:30034   */\n      add\n        /* \"#utility.yul\":30011:30034   */\n      swap2\n      pop\n        /* \"#utility.yul\":29762:30040   */\n      pop\n        /* \"#utility.yul\":29654:30040   */\n      swap3\n      swap2\n      pop\n      pop\n      jump\t// out\n        /* \"#utility.yul\":30046:30317   */\n    tag_170:\n        /* \"#utility.yul\":30176:30179   */\n      0x00\n        /* \"#utility.yul\":30198:30291   */\n      tag_532\n        /* \"#utility.yul\":30287:30290   */\n      dup3\n        /* \"#utility.yul\":30278:30284   */\n      dup5\n        /* \"#utility.yul\":30198:30291   */\n      tag_264\n      jump\t// in\n    tag_532:\n        /* \"#utility.yul\":30191:30291   */\n      swap2\n      pop\n        /* \"#utility.yul\":30308:30311   */\n      dup2\n        /* \"#utility.yul\":30301:30311   */\n      swap1\n      pop\n        /* \"#utility.yul\":30046:30317   */\n      swap3\n      swap2\n      pop\n      pop\n      jump\t// out\n        /* \"#utility.yul\":30323:30502   */\n    tag_265:\n        /* \"#utility.yul\":30463:30494   */\n      0x416464726573733a2063616c6c20746f206e6f6e2d636f6e7472616374000000\n        /* \"#utility.yul\":30459:30460   */\n      0x00\n        /* \"#utility.yul\":30451:30457   */\n      dup3\n        /* \"#utility.yul\":30447:30461   */\n      add\n        /* \"#utility.yul\":30440:30495   */\n      mstore\n        /* \"#utility.yul\":30323:30502   */\n      pop\n      jump\t// out\n        /* \"#utility.yul\":30508:30874   */\n    tag_266:\n        /* \"#utility.yul\":30650:30653   */\n      0x00\n        /* \"#utility.yul\":30671:30738   */\n      tag_535\n        /* \"#utility.yul\":30735:30737   */\n      0x1d\n        /* \"#utility.yul\":30730:30733   */\n      dup4\n        /* \"#utility.yul\":30671:30738   */\n      tag_212\n      jump\t// in\n    tag_535:\n        /* \"#utility.yul\":30664:30738   */\n      swap2\n      pop\n        /* \"#utility.yul\":30747:30840   */\n      tag_536\n        /* \"#utility.yul\":30836:30839   */\n      dup3\n        /* \"#utility.yul\":30747:30840   */\n      tag_265\n      jump\t// in\n    tag_536:\n        /* \"#utility.yul\":30865:30867   */\n      0x20\n        /* \"#utility.yul\":30860:30863   */\n      dup3\n        /* \"#utility.yul\":30856:30868   */\n      add\n        /* \"#utility.yul\":30849:30868   */\n      swap1\n      pop\n        /* \"#utility.yul\":30508:30874   */\n      swap2\n      swap1\n      pop\n      jump\t// out\n        /* \"#utility.yul\":30880:31299   */\n    tag_183:\n        /* \"#utility.yul\":31046:31050   */\n      0x00\n        /* \"#utility.yul\":31084:31086   */\n      0x20\n        /* \"#utility.yul\":31073:31082   */\n      dup3\n        /* \"#utility.yul\":31069:31087   */\n      add\n        /* \"#utility.yul\":31061:31087   */\n      swap1\n      pop\n        /* \"#utility.yul\":31133:31142   */\n      dup2\n        /* \"#utility.yul\":31127:31131   */\n      dup2\n        /* \"#utility.yul\":31123:31143   */\n      sub\n        /* \"#utility.yul\":31119:31120   */\n      0x00\n        /* \"#utility.yul\":31108:31117   */\n      dup4\n        /* \"#utility.yul\":31104:31121   */\n      add\n        /* \"#utility.yul\":31097:31144   */\n      mstore\n        /* \"#utility.yul\":31161:31292   */\n      tag_538\n        /* \"#utility.yul\":31287:31291   */\n      dup2\n        /* \"#utility.yul\":31161:31292   */\n      tag_266\n      jump\t// in\n    tag_538:\n        /* \"#utility.yul\":31153:31292   */\n      swap1\n      pop\n        /* \"#utility.yul\":30880:31299   */\n      swap2\n      swap1\n      pop\n      jump\t// out\n        /* \"#utility.yul\":31305:31404   */\n    tag_267:\n        /* \"#utility.yul\":31357:31363   */\n      0x00\n        /* \"#utility.yul\":31391:31396   */\n      dup2\n        /* \"#utility.yul\":31385:31397   */\n      mload\n        /* \"#utility.yul\":31375:31397   */\n      swap1\n      pop\n        /* \"#utility.yul\":31305:31404   */\n      swap2\n      swap1\n      pop\n      jump\t// out\n        /* \"#utility.yul\":31410:31787   */\n    tag_268:\n        /* \"#utility.yul\":31498:31501   */\n      0x00\n        /* \"#utility.yul\":31526:31565   */\n      tag_541\n        /* \"#utility.yul\":31559:31564   */\n      dup3\n        /* \"#utility.yul\":31526:31565   */\n      tag_267\n      jump\t// in\n    tag_541:\n        /* \"#utility.yul\":31581:31652   */\n      tag_542\n        /* \"#utility.yul\":31645:31651   */\n      dup2\n        /* \"#utility.yul\":31640:31643   */\n      dup6\n        /* \"#utility.yul\":31581:31652   */\n      tag_212\n      jump\t// in\n    tag_542:\n        /* \"#utility.yul\":31574:31652   */\n      swap4\n      pop\n        /* \"#utility.yul\":31661:31726   */\n      tag_543\n        /* \"#utility.yul\":31719:31725   */\n      dup2\n        /* \"#utility.yul\":31714:31717   */\n      dup6\n        /* \"#utility.yul\":31707:31711   */\n      0x20\n        /* \"#utility.yul\":31700:31705   */\n      dup7\n        /* \"#utility.yul\":31696:31712   */\n      add\n        /* \"#utility.yul\":31661:31726   */\n      tag_263\n      jump\t// in\n    tag_543:\n        /* \"#utility.yul\":31751:31780   */\n      tag_544\n        /* \"#utility.yul\":31773:31779   */\n      dup2\n        /* \"#utility.yul\":31751:31780   */\n      tag_232\n      jump\t// in\n    tag_544:\n        /* \"#utility.yul\":31746:31749   */\n      dup5\n        /* \"#utility.yul\":31742:31781   */\n      add\n        /* \"#utility.yul\":31735:31781   */\n      swap2\n      pop\n        /* \"#utility.yul\":31502:31787   */\n      pop\n        /* \"#utility.yul\":31410:31787   */\n      swap3\n      swap2\n      pop\n      pop\n      jump\t// out\n        /* \"#utility.yul\":31793:32106   */\n    tag_192:\n        /* \"#utility.yul\":31906:31910   */\n      0x00\n        /* \"#utility.yul\":31944:31946   */\n      0x20\n        /* \"#utility.yul\":31933:31942   */\n      dup3\n        /* \"#utility.yul\":31929:31947   */\n      add\n        /* \"#utility.yul\":31921:31947   */\n      swap1\n      pop\n        /* \"#utility.yul\":31993:32002   */\n      dup2\n        /* \"#utility.yul\":31987:31991   */\n      dup2\n        /* \"#utility.yul\":31983:32003   */\n      sub\n        /* \"#utility.yul\":31979:31980   */\n      0x00\n        /* \"#utility.yul\":31968:31977   */\n      dup4\n        /* \"#utility.yul\":31964:31981   */\n      add\n        /* \"#utility.yul\":31957:32004   */\n      mstore\n        /* \"#utility.yul\":32021:32099   */\n      tag_546\n        /* \"#utility.yul\":32094:32098   */\n      dup2\n        /* \"#utility.yul\":32085:32091   */\n      dup5\n        /* \"#utility.yul\":32021:32099   */\n      tag_268\n      jump\t// in\n    tag_546:\n        /* \"#utility.yul\":32013:32099   */\n      swap1\n      pop\n        /* \"#utility.yul\":31793:32106   */\n      swap3\n      swap2\n      pop\n      pop\n      jump\t// out\n\n    auxdata: 0xa2646970667358221220267f56f06bbe51dc13404e6173c2604853d5f8b178fe55b3c9011feabe207f7564736f6c63430008120033\n}\n",
				"bytecode": {
					"linkReferences": {},
					"object": "608060405234801561001057600080fd5b5061002d61002261003260201b60201c565b61003a60201b60201c565b6100fe565b600033905090565b60008060009054906101000a900473ffffffffffffffffffffffffffffffffffffffff169050816000806101000a81548173ffffffffffffffffffffffffffffffffffffffff021916908373ffffffffffffffffffffffffffffffffffffffff1602179055508173ffffffffffffffffffffffffffffffffffffffff168173ffffffffffffffffffffffffffffffffffffffff167f8be0079c531659141344cd1fd0a4f28419497f9722a3daafe3b4186f6b6457e060405160405180910390a35050565b611db08061010d6000396000f3fe608060405234801561001057600080fd5b506004361061007d5760003560e01c806370a082311161005b57806370a08231146100d6578063715018a6146101065780638da5cb5b14610110578063f2fde38b1461012e5761007d565b806317e78b6c146100825780634a4bdb301461009e57806356edb469146100ba575b600080fd5b61009c60048036038101906100979190610efe565b61014a565b005b6100b860048036038101906100b39190611046565b61034a565b005b6100d460048036038101906100cf9190611110565b610498565b005b6100f060048036038101906100eb91906111f9565b610745565b6040516100fd9190611235565b60405180910390f35b61010e610836565b005b61011861084a565b604051610125919061125f565b60405180910390f35b610148600480360381019061014391906111f9565b610873565b005b6101526108f6565b60008686905011610198576040517f08c379a000000000000000000000000000000000000000000000000000000000815260040161018f906112d7565b60405180910390fd5b8383905086869050146101e0576040517f08c379a00000000000000000000000000000000000000000000000000000000081526004016101d790611343565b60405180910390fd5b60006101ea61084a565b905060005b878790508110156102d457600086868381811061020f5761020e611363565b5b9050602002013511610256576040517f08c379a000000000000000000000000000000000000000000000000000000000815260040161024d906113de565b60405180910390fd5b6102c18287878481811061026d5761026c611363565b5b905060200201358a8a8581811061028757610286611363565b5b905060200201602081019061029c91906111f9565b73ffffffffffffffffffffffffffffffffffffffff166109749092919063ffffffff16565b80806102cc9061142d565b9150506101ef565b508073ffffffffffffffffffffffffffffffffffffffff1687876040516102fc929190611532565b60405180910390207f246131af8b217ee0901b4b5a97b3dc7ebf85c4565198d26948c19055597fc002878787876040516103399493929190611613565b60405180910390a350505050505050565b600073ffffffffffffffffffffffffffffffffffffffff168473ffffffffffffffffffffffffffffffffffffffff16036103b9576040517f08c379a00000000000000000000000000000000000000000000000000000000081526004016103b0906112d7565b60405180910390fd5b600083116103fc576040517f08c379a00000000000000000000000000000000000000000000000000000000081526004016103f3906113de565b60405180910390fd5b6104293330858773ffffffffffffffffffffffffffffffffffffffff166109fa909392919063ffffffff16565b3373ffffffffffffffffffffffffffffffffffffffff168473ffffffffffffffffffffffffffffffffffffffff167f5d2ae1cdca5222ec8fffbc4b088f5b5144ad5f4eaf2fc8afc49cd3585767108285858560405161048a9392919061164e565b60405180910390a350505050565b6104a06108f6565b600088889050116104e6576040517f08c379a00000000000000000000000000000000000000000000000000000000081526004016104dd906112d7565b60405180910390fd5b85859050888890501461052e576040517f08c379a0000000000000000000000000000000000000000000000000000000008152600401610525906113de565b60405180910390fd5b838390508888905014610576576040517f08c379a000000000000000000000000000000000000000000000000000000000815260040161056d906116cc565b60405180910390fd5b8181905088889050146105be576040517f08c379a00000000000000000000000000000000000000000000000000000000081526004016105b590611738565b60405180910390fd5b60005b888890508110156106cd5760008787838181106105e1576105e0611363565b5b9050602002013511610628576040517f08c379a000000000000000000000000000000000000000000000000000000000815260040161061f906113de565b60405180910390fd5b6106ba85858381811061063e5761063d611363565b5b905060200201602081019061065391906111f9565b88888481811061066657610665611363565b5b905060200201358b8b858181106106805761067f611363565b5b905060200201602081019061069591906111f9565b73ffffffffffffffffffffffffffffffffffffffff166109749092919063ffffffff16565b80806106c59061142d565b9150506105c1565b5083836040516106de929190611532565b604051809103902088886040516106f6929190611532565b60405180910390207fa00a8aecfc1929afaf83d428e7b217b6626396c9dd39ad9f5d7327a0bb5e4d138888868660405161073394939291906118bc565b60405180910390a35050505050505050565b60008073ffffffffffffffffffffffffffffffffffffffff168273ffffffffffffffffffffffffffffffffffffffff16036107b5576040517f08c379a00000000000000000000000000000000000000000000000000000000081526004016107ac906112d7565b60405180910390fd5b8173ffffffffffffffffffffffffffffffffffffffff166370a08231306040518263ffffffff1660e01b81526004016107ee919061125f565b602060405180830381865afa15801561080b573d6000803e3d6000fd5b505050506040513d601f19601f8201168201806040525081019061082f919061190c565b9050919050565b61083e6108f6565b6108486000610a83565b565b60008060009054906101000a900473ffffffffffffffffffffffffffffffffffffffff16905090565b61087b6108f6565b600073ffffffffffffffffffffffffffffffffffffffff168173ffffffffffffffffffffffffffffffffffffffff16036108ea576040517f08c379a00000000000000000000000000000000000000000000000000000000081526004016108e1906119ab565b60405180910390fd5b6108f381610a83565b50565b6108fe610b47565b73ffffffffffffffffffffffffffffffffffffffff1661091c61084a565b73ffffffffffffffffffffffffffffffffffffffff1614610972576040517f08c379a000000000000000000000000000000000000000000000000000000000815260040161096990611a17565b60405180910390fd5b565b6109f58363a9059cbb60e01b8484604051602401610993929190611a37565b604051602081830303815290604052907bffffffffffffffffffffffffffffffffffffffffffffffffffffffff19166020820180517bffffffffffffffffffffffffffffffffffffffffffffffffffffffff8381831617835250505050610b4f565b505050565b610a7d846323b872dd60e01b858585604051602401610a1b93929190611a60565b604051602081830303815290604052907bffffffffffffffffffffffffffffffffffffffffffffffffffffffff19166020820180517bffffffffffffffffffffffffffffffffffffffffffffffffffffffff8381831617835250505050610b4f565b50505050565b60008060009054906101000a900473ffffffffffffffffffffffffffffffffffffffff169050816000806101000a81548173ffffffffffffffffffffffffffffffffffffffff021916908373ffffffffffffffffffffffffffffffffffffffff1602179055508173ffffffffffffffffffffffffffffffffffffffff168173ffffffffffffffffffffffffffffffffffffffff167f8be0079c531659141344cd1fd0a4f28419497f9722a3daafe3b4186f6b6457e060405160405180910390a35050565b600033905090565b6000610bb1826040518060400160405280602081526020017f5361666545524332303a206c6f772d6c6576656c2063616c6c206661696c65648152508573ffffffffffffffffffffffffffffffffffffffff16610c169092919063ffffffff16565b9050600081511115610c115780806020019051810190610bd19190611acf565b610c10576040517f08c379a0000000000000000000000000000000000000000000000000000000008152600401610c0790611b6e565b60405180910390fd5b5b505050565b6060610c258484600085610c2e565b90509392505050565b606082471015610c73576040517f08c379a0000000000000000000000000000000000000000000000000000000008152600401610c6a90611c00565b60405180910390fd5b6000808673ffffffffffffffffffffffffffffffffffffffff168587604051610c9c9190611c91565b60006040518083038185875af1925050503d8060008114610cd9576040519150601f19603f3d011682016040523d82523d6000602084013e610cde565b606091505b5091509150610cef87838387610cfb565b92505050949350505050565b60608315610d5d576000835103610d5557610d1585610d70565b610d54576040517f08c379a0000000000000000000000000000000000000000000000000000000008152600401610d4b90611cf4565b60405180910390fd5b5b829050610d68565b610d678383610d93565b5b949350505050565b6000808273ffffffffffffffffffffffffffffffffffffffff163b119050919050565b600082511115610da65781518083602001fd5b806040517f08c379a0000000000000000000000000000000000000000000000000000000008152600401610dda9190611d58565b60405180910390fd5b600080fd5b600080fd5b600080fd5b600080fd5b600080fd5b60008083601f840112610e1257610e11610ded565b5b8235905067ffffffffffffffff811115610e2f57610e2e610df2565b5b602083019150836020820283011115610e4b57610e4a610df7565b5b9250929050565b60008083601f840112610e6857610e67610ded565b5b8235905067ffffffffffffffff811115610e8557610e84610df2565b5b602083019150836020820283011115610ea157610ea0610df7565b5b9250929050565b60008083601f840112610ebe57610ebd610ded565b5b8235905067ffffffffffffffff811115610edb57610eda610df2565b5b602083019150836001820283011115610ef757610ef6610df7565b5b9250929050565b60008060008060008060608789031215610f1b57610f1a610de3565b5b600087013567ffffffffffffffff811115610f3957610f38610de8565b5b610f4589828a01610dfc565b9650965050602087013567ffffffffffffffff811115610f6857610f67610de8565b5b610f7489828a01610e52565b9450945050604087013567ffffffffffffffff811115610f9757610f96610de8565b5b610fa389828a01610ea8565b92509250509295509295509295565b600073ffffffffffffffffffffffffffffffffffffffff82169050919050565b6000610fdd82610fb2565b9050919050565b610fed81610fd2565b8114610ff857600080fd5b50565b60008135905061100a81610fe4565b92915050565b6000819050919050565b61102381611010565b811461102e57600080fd5b50565b6000813590506110408161101a565b92915050565b600080600080606085870312156110605761105f610de3565b5b600061106e87828801610ffb565b945050602061107f87828801611031565b935050604085013567ffffffffffffffff8111156110a05761109f610de8565b5b6110ac87828801610ea8565b925092505092959194509250565b60008083601f8401126110d0576110cf610ded565b5b8235905067ffffffffffffffff8111156110ed576110ec610df2565b5b60208301915083602082028301111561110957611108610df7565b5b9250929050565b6000806000806000806000806080898b0312156111305761112f610de3565b5b600089013567ffffffffffffffff81111561114e5761114d610de8565b5b61115a8b828c01610dfc565b9850985050602089013567ffffffffffffffff81111561117d5761117c610de8565b5b6111898b828c01610e52565b9650965050604089013567ffffffffffffffff8111156111ac576111ab610de8565b5b6111b88b828c01610dfc565b9450945050606089013567ffffffffffffffff8111156111db576111da610de8565b5b6111e78b828c016110ba565b92509250509295985092959890939650565b60006020828403121561120f5761120e610de3565b5b600061121d84828501610ffb565b91505092915050565b61122f81611010565b82525050565b600060208201905061124a6000830184611226565b92915050565b61125981610fd2565b82525050565b60006020820190506112746000830184611250565b92915050565b600082825260208201905092915050565b7f63757272656e6379206661696c00000000000000000000000000000000000000600082015250565b60006112c1600d8361127a565b91506112cc8261128b565b602082019050919050565b600060208201905081810360008301526112f0816112b4565b9050919050565b7f63757272656e6379206f7220616d6f756e74206661696c000000000000000000600082015250565b600061132d60178361127a565b9150611338826112f7565b602082019050919050565b6000602082019050818103600083015261135c81611320565b9050919050565b7f4e487b7100000000000000000000000000000000000000000000000000000000600052603260045260246000fd5b7f616d6f756e74206661696c000000000000000000000000000000000000000000600082015250565b60006113c8600b8361127a565b91506113d382611392565b602082019050919050565b600060208201905081810360008301526113f7816113bb565b9050919050565b7f4e487b7100000000000000000000000000000000000000000000000000000000600052601160045260246000fd5b600061143882611010565b91507fffffffffffffffffffffffffffffffffffffffffffffffffffffffffffffffff820361146a576114696113fe565b5b600182019050919050565b600081905092915050565b6000819050919050565b61149381610fd2565b82525050565b60006114a5838361148a565b60208301905092915050565b60006114c06020840184610ffb565b905092915050565b6000602082019050919050565b60006114e18385611475565b93506114ec82611480565b8060005b858110156115255761150282846114b1565b61150c8882611499565b9750611517836114c8565b9250506001810190506114f0565b5085925050509392505050565b600061153f8284866114d5565b91508190509392505050565b600082825260208201905092915050565b600080fd5b82818337505050565b6000611576838561154b565b93507f07ffffffffffffffffffffffffffffffffffffffffffffffffffffffffffffff8311156115a9576115a861155c565b5b6020830292506115ba838584611561565b82840190509392505050565b82818337600083830152505050565b6000601f19601f8301169050919050565b60006115f2838561127a565b93506115ff8385846115c6565b611608836115d5565b840190509392505050565b6000604082019050818103600083015261162e81868861156a565b905081810360208301526116438184866115e6565b905095945050505050565b60006040820190506116636000830186611226565b81810360208301526116768184866115e6565b9050949350505050565b7f746f206661696c00000000000000000000000000000000000000000000000000600082015250565b60006116b660078361127a565b91506116c182611680565b602082019050919050565b600060208201905081810360008301526116e5816116a9565b9050919050565b7f6f726465724964206661696c0000000000000000000000000000000000000000600082015250565b6000611722600c8361127a565b915061172d826116ec565b602082019050919050565b6000602082019050818103600083015261175181611715565b9050919050565b600082825260208201905092915050565b6000819050919050565b600082825260208201905092915050565b60006117908385611773565b935061179d8385846115c6565b6117a6836115d5565b840190509392505050565b60006117be848484611784565b90509392505050565b600080fd5b600080fd5b600080fd5b600080833560016020038436030381126117f3576117f26117d1565b5b83810192508235915060208301925067ffffffffffffffff82111561181b5761181a6117c7565b5b600182023603831315611831576118306117cc565b5b509250929050565b6000602082019050919050565b60006118528385611758565b93508360208402850161186484611769565b8060005b878110156118aa57848403895261187f82846117d6565b61188a8682846117b1565b955061189584611839565b935060208b019a505050600181019050611868565b50829750879450505050509392505050565b600060408201905081810360008301526118d781868861156a565b905081810360208301526118ec818486611846565b905095945050505050565b6000815190506119068161101a565b92915050565b60006020828403121561192257611921610de3565b5b6000611930848285016118f7565b91505092915050565b7f4f776e61626c653a206e6577206f776e657220697320746865207a65726f206160008201527f6464726573730000000000000000000000000000000000000000000000000000602082015250565b600061199560268361127a565b91506119a082611939565b604082019050919050565b600060208201905081810360008301526119c481611988565b9050919050565b7f4f776e61626c653a2063616c6c6572206973206e6f7420746865206f776e6572600082015250565b6000611a0160208361127a565b9150611a0c826119cb565b602082019050919050565b60006020820190508181036000830152611a30816119f4565b9050919050565b6000604082019050611a4c6000830185611250565b611a596020830184611226565b9392505050565b6000606082019050611a756000830186611250565b611a826020830185611250565b611a8f6040830184611226565b949350505050565b60008115159050919050565b611aac81611a97565b8114611ab757600080fd5b50565b600081519050611ac981611aa3565b92915050565b600060208284031215611ae557611ae4610de3565b5b6000611af384828501611aba565b91505092915050565b7f5361666545524332303a204552433230206f7065726174696f6e20646964206e60008201527f6f74207375636365656400000000000000000000000000000000000000000000602082015250565b6000611b58602a8361127a565b9150611b6382611afc565b604082019050919050565b60006020820190508181036000830152611b8781611b4b565b9050919050565b7f416464726573733a20696e73756666696369656e742062616c616e636520666f60008201527f722063616c6c0000000000000000000000000000000000000000000000000000602082015250565b6000611bea60268361127a565b9150611bf582611b8e565b604082019050919050565b60006020820190508181036000830152611c1981611bdd565b9050919050565b600081519050919050565b600081905092915050565b60005b83811015611c54578082015181840152602081019050611c39565b60008484015250505050565b6000611c6b82611c20565b611c758185611c2b565b9350611c85818560208601611c36565b80840191505092915050565b6000611c9d8284611c60565b915081905092915050565b7f416464726573733a2063616c6c20746f206e6f6e2d636f6e7472616374000000600082015250565b6000611cde601d8361127a565b9150611ce982611ca8565b602082019050919050565b60006020820190508181036000830152611d0d81611cd1565b9050919050565b600081519050919050565b6000611d2a82611d14565b611d34818561127a565b9350611d44818560208601611c36565b611d4d816115d5565b840191505092915050565b60006020820190508181036000830152611d728184611d1f565b90509291505056fea2646970667358221220267f56f06bbe51dc13404e6173c2604853d5f8b178fe55b3c9011feabe207f7564736f6c63430008120033",
					"opcodes": "PUSH1 0x80 PUSH1 0x40 MSTORE CALLVALUE DUP1 ISZERO PUSH2 0x10 JUMPI PUSH1 0x0 DUP1 REVERT JUMPDEST POP PUSH2 0x2D PUSH2 0x22 PUSH2 0x32 PUSH1 0x20 SHL PUSH1 0x20 SHR JUMP JUMPDEST PUSH2 0x3A PUSH1 0x20 SHL PUSH1 0x20 SHR JUMP JUMPDEST PUSH2 0xFE JUMP JUMPDEST PUSH1 0x0 CALLER SWAP1 POP SWAP1 JUMP JUMPDEST PUSH1 0x0 DUP1 PUSH1 0x0 SWAP1 SLOAD SWAP1 PUSH2 0x100 EXP SWAP1 DIV PUSH20 0xFFFFFFFFFFFFFFFFFFFFFFFFFFFFFFFFFFFFFFFF AND SWAP1 POP DUP2 PUSH1 0x0 DUP1 PUSH2 0x100 EXP DUP2 SLOAD DUP2 PUSH20 0xFFFFFFFFFFFFFFFFFFFFFFFFFFFFFFFFFFFFFFFF MUL NOT AND SWAP1 DUP4 PUSH20 0xFFFFFFFFFFFFFFFFFFFFFFFFFFFFFFFFFFFFFFFF AND MUL OR SWAP1 SSTORE POP DUP2 PUSH20 0xFFFFFFFFFFFFFFFFFFFFFFFFFFFFFFFFFFFFFFFF AND DUP2 PUSH20 0xFFFFFFFFFFFFFFFFFFFFFFFFFFFFFFFFFFFFFFFF AND PUSH32 0x8BE0079C531659141344CD1FD0A4F28419497F9722A3DAAFE3B4186F6B6457E0 PUSH1 0x40 MLOAD PUSH1 0x40 MLOAD DUP1 SWAP2 SUB SWAP1 LOG3 POP POP JUMP JUMPDEST PUSH2 0x1DB0 DUP1 PUSH2 0x10D PUSH1 0x0 CODECOPY PUSH1 0x0 RETURN INVALID PUSH1 0x80 PUSH1 0x40 MSTORE CALLVALUE DUP1 ISZERO PUSH2 0x10 JUMPI PUSH1 0x0 DUP1 REVERT JUMPDEST POP PUSH1 0x4 CALLDATASIZE LT PUSH2 0x7D JUMPI PUSH1 0x0 CALLDATALOAD PUSH1 0xE0 SHR DUP1 PUSH4 0x70A08231 GT PUSH2 0x5B JUMPI DUP1 PUSH4 0x70A08231 EQ PUSH2 0xD6 JUMPI DUP1 PUSH4 0x715018A6 EQ PUSH2 0x106 JUMPI DUP1 PUSH4 0x8DA5CB5B EQ PUSH2 0x110 JUMPI DUP1 PUSH4 0xF2FDE38B EQ PUSH2 0x12E JUMPI PUSH2 0x7D JUMP JUMPDEST DUP1 PUSH4 0x17E78B6C EQ PUSH2 0x82 JUMPI DUP1 PUSH4 0x4A4BDB30 EQ PUSH2 0x9E JUMPI DUP1 PUSH4 0x56EDB469 EQ PUSH2 0xBA JUMPI JUMPDEST PUSH1 0x0 DUP1 REVERT JUMPDEST PUSH2 0x9C PUSH1 0x4 DUP1 CALLDATASIZE SUB DUP2 ADD SWAP1 PUSH2 0x97 SWAP2 SWAP1 PUSH2 0xEFE JUMP JUMPDEST PUSH2 0x14A JUMP JUMPDEST STOP JUMPDEST PUSH2 0xB8 PUSH1 0x4 DUP1 CALLDATASIZE SUB DUP2 ADD SWAP1 PUSH2 0xB3 SWAP2 SWAP1 PUSH2 0x1046 JUMP JUMPDEST PUSH2 0x34A JUMP JUMPDEST STOP JUMPDEST PUSH2 0xD4 PUSH1 0x4 DUP1 CALLDATASIZE SUB DUP2 ADD SWAP1 PUSH2 0xCF SWAP2 SWAP1 PUSH2 0x1110 JUMP JUMPDEST PUSH2 0x498 JUMP JUMPDEST STOP JUMPDEST PUSH2 0xF0 PUSH1 0x4 DUP1 CALLDATASIZE SUB DUP2 ADD SWAP1 PUSH2 0xEB SWAP2 SWAP1 PUSH2 0x11F9 JUMP JUMPDEST PUSH2 0x745 JUMP JUMPDEST PUSH1 0x40 MLOAD PUSH2 0xFD SWAP2 SWAP1 PUSH2 0x1235 JUMP JUMPDEST PUSH1 0x40 MLOAD DUP1 SWAP2 SUB SWAP1 RETURN JUMPDEST PUSH2 0x10E PUSH2 0x836 JUMP JUMPDEST STOP JUMPDEST PUSH2 0x118 PUSH2 0x84A JUMP JUMPDEST PUSH1 0x40 MLOAD PUSH2 0x125 SWAP2 SWAP1 PUSH2 0x125F JUMP JUMPDEST PUSH1 0x40 MLOAD DUP1 SWAP2 SUB SWAP1 RETURN JUMPDEST PUSH2 0x148 PUSH1 0x4 DUP1 CALLDATASIZE SUB DUP2 ADD SWAP1 PUSH2 0x143 SWAP2 SWAP1 PUSH2 0x11F9 JUMP JUMPDEST PUSH2 0x873 JUMP JUMPDEST STOP JUMPDEST PUSH2 0x152 PUSH2 0x8F6 JUMP JUMPDEST PUSH1 0x0 DUP7 DUP7 SWAP1 POP GT PUSH2 0x198 JUMPI PUSH1 0x40 MLOAD PUSH32 0x8C379A000000000000000000000000000000000000000000000000000000000 DUP2 MSTORE PUSH1 0x4 ADD PUSH2 0x18F SWAP1 PUSH2 0x12D7 JUMP JUMPDEST PUSH1 0x40 MLOAD DUP1 SWAP2 SUB SWAP1 REVERT JUMPDEST DUP4 DUP4 SWAP1 POP DUP7 DUP7 SWAP1 POP EQ PUSH2 0x1E0 JUMPI PUSH1 0x40 MLOAD PUSH32 0x8C379A000000000000000000000000000000000000000000000000000000000 DUP2 MSTORE PUSH1 0x4 ADD PUSH2 0x1D7 SWAP1 PUSH2 0x1343 JUMP JUMPDEST PUSH1 0x40 MLOAD DUP1 SWAP2 SUB SWAP1 REVERT JUMPDEST PUSH1 0x0 PUSH2 0x1EA PUSH2 0x84A JUMP JUMPDEST SWAP1 POP PUSH1 0x0 JUMPDEST DUP8 DUP8 SWAP1 POP DUP2 LT ISZERO PUSH2 0x2D4 JUMPI PUSH1 0x0 DUP7 DUP7 DUP4 DUP2 DUP2 LT PUSH2 0x20F JUMPI PUSH2 0x20E PUSH2 0x1363 JUMP JUMPDEST JUMPDEST SWAP1 POP PUSH1 0x20 MUL ADD CALLDATALOAD GT PUSH2 0x256 JUMPI PUSH1 0x40 MLOAD PUSH32 0x8C379A000000000000000000000000000000000000000000000000000000000 DUP2 MSTORE PUSH1 0x4 ADD PUSH2 0x24D SWAP1 PUSH2 0x13DE JUMP JUMPDEST PUSH1 0x40 MLOAD DUP1 SWAP2 SUB SWAP1 REVERT JUMPDEST PUSH2 0x2C1 DUP3 DUP8 DUP8 DUP5 DUP2 DUP2 LT PUSH2 0x26D JUMPI PUSH2 0x26C PUSH2 0x1363 JUMP JUMPDEST JUMPDEST SWAP1 POP PUSH1 0x20 MUL ADD CALLDATALOAD DUP11 DUP11 DUP6 DUP2 DUP2 LT PUSH2 0x287 JUMPI PUSH2 0x286 PUSH2 0x1363 JUMP JUMPDEST JUMPDEST SWAP1 POP PUSH1 0x20 MUL ADD PUSH1 0x20 DUP2 ADD SWAP1 PUSH2 0x29C SWAP2 SWAP1 PUSH2 0x11F9 JUMP JUMPDEST PUSH20 0xFFFFFFFFFFFFFFFFFFFFFFFFFFFFFFFFFFFFFFFF AND PUSH2 0x974 SWAP1 SWAP3 SWAP2 SWAP1 PUSH4 0xFFFFFFFF AND JUMP JUMPDEST DUP1 DUP1 PUSH2 0x2CC SWAP1 PUSH2 0x142D JUMP JUMPDEST SWAP2 POP POP PUSH2 0x1EF JUMP JUMPDEST POP DUP1 PUSH20 0xFFFFFFFFFFFFFFFFFFFFFFFFFFFFFFFFFFFFFFFF AND DUP8 DUP8 PUSH1 0x40 MLOAD PUSH2 0x2FC SWAP3 SWAP2 SWAP1 PUSH2 0x1532 JUMP JUMPDEST PUSH1 0x40 MLOAD DUP1 SWAP2 SUB SWAP1 KECCAK256 PUSH32 0x246131AF8B217EE0901B4B5A97B3DC7EBF85C4565198D26948C19055597FC002 DUP8 DUP8 DUP8 DUP8 PUSH1 0x40 MLOAD PUSH2 0x339 SWAP5 SWAP4 SWAP3 SWAP2 SWAP1 PUSH2 0x1613 JUMP JUMPDEST PUSH1 0x40 MLOAD DUP1 SWAP2 SUB SWAP1 LOG3 POP POP POP POP POP POP POP JUMP JUMPDEST PUSH1 0x0 PUSH20 0xFFFFFFFFFFFFFFFFFFFFFFFFFFFFFFFFFFFFFFFF AND DUP5 PUSH20 0xFFFFFFFFFFFFFFFFFFFFFFFFFFFFFFFFFFFFFFFF AND SUB PUSH2 0x3B9 JUMPI PUSH1 0x40 MLOAD PUSH32 0x8C379A000000000000000000000000000000000000000000000000000000000 DUP2 MSTORE PUSH1 0x4 ADD PUSH2 0x3B0 SWAP1 PUSH2 0x12D7 JUMP JUMPDEST PUSH1 0x40 MLOAD DUP1 SWAP2 SUB SWAP1 REVERT JUMPDEST PUSH1 0x0 DUP4 GT PUSH2 0x3FC JUMPI PUSH1 0x40 MLOAD PUSH32 0x8C379A000000000000000000000000000000000000000000000000000000000 DUP2 MSTORE PUSH1 0x4 ADD PUSH2 0x3F3 SWAP1 PUSH2 0x13DE JUMP JUMPDEST PUSH1 0x40 MLOAD DUP1 SWAP2 SUB SWAP1 REVERT JUMPDEST PUSH2 0x429 CALLER ADDRESS DUP6 DUP8 PUSH20 0xFFFFFFFFFFFFFFFFFFFFFFFFFFFFFFFFFFFFFFFF AND PUSH2 0x9FA SWAP1 SWAP4 SWAP3 SWAP2 SWAP1 PUSH4 0xFFFFFFFF AND JUMP JUMPDEST CALLER PUSH20 0xFFFFFFFFFFFFFFFFFFFFFFFFFFFFFFFFFFFFFFFF AND DUP5 PUSH20 0xFFFFFFFFFFFFFFFFFFFFFFFFFFFFFFFFFFFFFFFF AND PUSH32 0x5D2AE1CDCA5222EC8FFFBC4B088F5B5144AD5F4EAF2FC8AFC49CD35857671082 DUP6 DUP6 DUP6 PUSH1 0x40 MLOAD PUSH2 0x48A SWAP4 SWAP3 SWAP2 SWAP1 PUSH2 0x164E JUMP JUMPDEST PUSH1 0x40 MLOAD DUP1 SWAP2 SUB SWAP1 LOG3 POP POP POP POP JUMP JUMPDEST PUSH2 0x4A0 PUSH2 0x8F6 JUMP JUMPDEST PUSH1 0x0 DUP9 DUP9 SWAP1 POP GT PUSH2 0x4E6 JUMPI PUSH1 0x40 MLOAD PUSH32 0x8C379A000000000000000000000000000000000000000000000000000000000 DUP2 MSTORE PUSH1 0x4 ADD PUSH2 0x4DD SWAP1 PUSH2 0x12D7 JUMP JUMPDEST PUSH1 0x40 MLOAD DUP1 SWAP2 SUB SWAP1 REVERT JUMPDEST DUP6 DUP6 SWAP1 POP DUP9 DUP9 SWAP1 POP EQ PUSH2 0x52E JUMPI PUSH1 0x40 MLOAD PUSH32 0x8C379A000000000000000000000000000000000000000000000000000000000 DUP2 MSTORE PUSH1 0x4 ADD PUSH2 0x525 SWAP1 PUSH2 0x13DE JUMP JUMPDEST PUSH1 0x40 MLOAD DUP1 SWAP2 SUB SWAP1 REVERT JUMPDEST DUP4 DUP4 SWAP1 POP DUP9 DUP9 SWAP1 POP EQ PUSH2 0x576 JUMPI PUSH1 0x40 MLOAD PUSH32 0x8C379A000000000000000000000000000000000000000000000000000000000 DUP2 MSTORE PUSH1 0x4 ADD PUSH2 0x56D SWAP1 PUSH2 0x16CC JUMP JUMPDEST PUSH1 0x40 MLOAD DUP1 SWAP2 SUB SWAP1 REVERT JUMPDEST DUP2 DUP2 SWAP1 POP DUP9 DUP9 SWAP1 POP EQ PUSH2 0x5BE JUMPI PUSH1 0x40 MLOAD PUSH32 0x8C379A000000000000000000000000000000000000000000000000000000000 DUP2 MSTORE PUSH1 0x4 ADD PUSH2 0x5B5 SWAP1 PUSH2 0x1738 JUMP JUMPDEST PUSH1 0x40 MLOAD DUP1 SWAP2 SUB SWAP1 REVERT JUMPDEST PUSH1 0x0 JUMPDEST DUP9 DUP9 SWAP1 POP DUP2 LT ISZERO PUSH2 0x6CD JUMPI PUSH1 0x0 DUP8 DUP8 DUP4 DUP2 DUP2 LT PUSH2 0x5E1 JUMPI PUSH2 0x5E0 PUSH2 0x1363 JUMP JUMPDEST JUMPDEST SWAP1 POP PUSH1 0x20 MUL ADD CALLDATALOAD GT PUSH2 0x628 JUMPI PUSH1 0x40 MLOAD PUSH32 0x8C379A000000000000000000000000000000000000000000000000000000000 DUP2 MSTORE PUSH1 0x4 ADD PUSH2 0x61F SWAP1 PUSH2 0x13DE JUMP JUMPDEST PUSH1 0x40 MLOAD DUP1 SWAP2 SUB SWAP1 REVERT JUMPDEST PUSH2 0x6BA DUP6 DUP6 DUP4 DUP2 DUP2 LT PUSH2 0x63E JUMPI PUSH2 0x63D PUSH2 0x1363 JUMP JUMPDEST JUMPDEST SWAP1 POP PUSH1 0x20 MUL ADD PUSH1 0x20 DUP2 ADD SWAP1 PUSH2 0x653 SWAP2 SWAP1 PUSH2 0x11F9 JUMP JUMPDEST DUP9 DUP9 DUP5 DUP2 DUP2 LT PUSH2 0x666 JUMPI PUSH2 0x665 PUSH2 0x1363 JUMP JUMPDEST JUMPDEST SWAP1 POP PUSH1 0x20 MUL ADD CALLDATALOAD DUP12 DUP12 DUP6 DUP2 DUP2 LT PUSH2 0x680 JUMPI PUSH2 0x67F PUSH2 0x1363 JUMP JUMPDEST JUMPDEST SWAP1 POP PUSH1 0x20 MUL ADD PUSH1 0x20 DUP2 ADD SWAP1 PUSH2 0x695 SWAP2 SWAP1 PUSH2 0x11F9 JUMP JUMPDEST PUSH20 0xFFFFFFFFFFFFFFFFFFFFFFFFFFFFFFFFFFFFFFFF AND PUSH2 0x974 SWAP1 SWAP3 SWAP2 SWAP1 PUSH4 0xFFFFFFFF AND JUMP JUMPDEST DUP1 DUP1 PUSH2 0x6C5 SWAP1 PUSH2 0x142D JUMP JUMPDEST SWAP2 POP POP PUSH2 0x5C1 JUMP JUMPDEST POP DUP4 DUP4 PUSH1 0x40 MLOAD PUSH2 0x6DE SWAP3 SWAP2 SWAP1 PUSH2 0x1532 JUMP JUMPDEST PUSH1 0x40 MLOAD DUP1 SWAP2 SUB SWAP1 KECCAK256 DUP9 DUP9 PUSH1 0x40 MLOAD PUSH2 0x6F6 SWAP3 SWAP2 SWAP1 PUSH2 0x1532 JUMP JUMPDEST PUSH1 0x40 MLOAD DUP1 SWAP2 SUB SWAP1 KECCAK256 PUSH32 0xA00A8AECFC1929AFAF83D428E7B217B6626396C9DD39AD9F5D7327A0BB5E4D13 DUP9 DUP9 DUP7 DUP7 PUSH1 0x40 MLOAD PUSH2 0x733 SWAP5 SWAP4 SWAP3 SWAP2 SWAP1 PUSH2 0x18BC JUMP JUMPDEST PUSH1 0x40 MLOAD DUP1 SWAP2 SUB SWAP1 LOG3 POP POP POP POP POP POP POP POP JUMP JUMPDEST PUSH1 0x0 DUP1 PUSH20 0xFFFFFFFFFFFFFFFFFFFFFFFFFFFFFFFFFFFFFFFF AND DUP3 PUSH20 0xFFFFFFFFFFFFFFFFFFFFFFFFFFFFFFFFFFFFFFFF AND SUB PUSH2 0x7B5 JUMPI PUSH1 0x40 MLOAD PUSH32 0x8C379A000000000000000000000000000000000000000000000000000000000 DUP2 MSTORE PUSH1 0x4 ADD PUSH2 0x7AC SWAP1 PUSH2 0x12D7 JUMP JUMPDEST PUSH1 0x40 MLOAD DUP1 SWAP2 SUB SWAP1 REVERT JUMPDEST DUP2 PUSH20 0xFFFFFFFFFFFFFFFFFFFFFFFFFFFFFFFFFFFFFFFF AND PUSH4 0x70A08231 ADDRESS PUSH1 0x40 MLOAD DUP3 PUSH4 0xFFFFFFFF AND PUSH1 0xE0 SHL DUP2 MSTORE PUSH1 0x4 ADD PUSH2 0x7EE SWAP2 SWAP1 PUSH2 0x125F JUMP JUMPDEST PUSH1 0x20 PUSH1 0x40 MLOAD DUP1 DUP4 SUB DUP2 DUP7 GAS STATICCALL ISZERO DUP1 ISZERO PUSH2 0x80B JUMPI RETURNDATASIZE PUSH1 0x0 DUP1 RETURNDATACOPY RETURNDATASIZE PUSH1 0x0 REVERT JUMPDEST POP POP POP POP PUSH1 0x40 MLOAD RETURNDATASIZE PUSH1 0x1F NOT PUSH1 0x1F DUP3 ADD AND DUP3 ADD DUP1 PUSH1 0x40 MSTORE POP DUP2 ADD SWAP1 PUSH2 0x82F SWAP2 SWAP1 PUSH2 0x190C JUMP JUMPDEST SWAP1 POP SWAP2 SWAP1 POP JUMP JUMPDEST PUSH2 0x83E PUSH2 0x8F6 JUMP JUMPDEST PUSH2 0x848 PUSH1 0x0 PUSH2 0xA83 JUMP JUMPDEST JUMP JUMPDEST PUSH1 0x0 DUP1 PUSH1 0x0 SWAP1 SLOAD SWAP1 PUSH2 0x100 EXP SWAP1 DIV PUSH20 0xFFFFFFFFFFFFFFFFFFFFFFFFFFFFFFFFFFFFFFFF AND SWAP1 POP SWAP1 JUMP JUMPDEST PUSH2 0x87B PUSH2 0x8F6 JUMP JUMPDEST PUSH1 0x0 PUSH20 0xFFFFFFFFFFFFFFFFFFFFFFFFFFFFFFFFFFFFFFFF AND DUP2 PUSH20 0xFFFFFFFFFFFFFFFFFFFFFFFFFFFFFFFFFFFFFFFF AND SUB PUSH2 0x8EA JUMPI PUSH1 0x40 MLOAD PUSH32 0x8C379A000000000000000000000000000000000000000000000000000000000 DUP2 MSTORE PUSH1 0x4 ADD PUSH2 0x8E1 SWAP1 PUSH2 0x19AB JUMP JUMPDEST PUSH1 0x40 MLOAD DUP1 SWAP2 SUB SWAP1 REVERT JUMPDEST PUSH2 0x8F3 DUP2 PUSH2 0xA83 JUMP JUMPDEST POP JUMP JUMPDEST PUSH2 0x8FE PUSH2 0xB47 JUMP JUMPDEST PUSH20 0xFFFFFFFFFFFFFFFFFFFFFFFFFFFFFFFFFFFFFFFF AND PUSH2 0x91C PUSH2 0x84A JUMP JUMPDEST PUSH20 0xFFFFFFFFFFFFFFFFFFFFFFFFFFFFFFFFFFFFFFFF AND EQ PUSH2 0x972 JUMPI PUSH1 0x40 MLOAD PUSH32 0x8C379A000000000000000000000000000000000000000000000000000000000 DUP2 MSTORE PUSH1 0x4 ADD PUSH2 0x969 SWAP1 PUSH2 0x1A17 JUMP JUMPDEST PUSH1 0x40 MLOAD DUP1 SWAP2 SUB SWAP1 REVERT JUMPDEST JUMP JUMPDEST PUSH2 0x9F5 DUP4 PUSH4 0xA9059CBB PUSH1 0xE0 SHL DUP5 DUP5 PUSH1 0x40 MLOAD PUSH1 0x24 ADD PUSH2 0x993 SWAP3 SWAP2 SWAP1 PUSH2 0x1A37 JUMP JUMPDEST PUSH1 0x40 MLOAD PUSH1 0x20 DUP2 DUP4 SUB SUB DUP2 MSTORE SWAP1 PUSH1 0x40 MSTORE SWAP1 PUSH28 0xFFFFFFFFFFFFFFFFFFFFFFFFFFFFFFFFFFFFFFFFFFFFFFFFFFFFFFFF NOT AND PUSH1 0x20 DUP3 ADD DUP1 MLOAD PUSH28 0xFFFFFFFFFFFFFFFFFFFFFFFFFFFFFFFFFFFFFFFFFFFFFFFFFFFFFFFF DUP4 DUP2 DUP4 AND OR DUP4 MSTORE POP POP POP POP PUSH2 0xB4F JUMP JUMPDEST POP POP POP JUMP JUMPDEST PUSH2 0xA7D DUP5 PUSH4 0x23B872DD PUSH1 0xE0 SHL DUP6 DUP6 DUP6 PUSH1 0x40 MLOAD PUSH1 0x24 ADD PUSH2 0xA1B SWAP4 SWAP3 SWAP2 SWAP1 PUSH2 0x1A60 JUMP JUMPDEST PUSH1 0x40 MLOAD PUSH1 0x20 DUP2 DUP4 SUB SUB DUP2 MSTORE SWAP1 PUSH1 0x40 MSTORE SWAP1 PUSH28 0xFFFFFFFFFFFFFFFFFFFFFFFFFFFFFFFFFFFFFFFFFFFFFFFFFFFFFFFF NOT AND PUSH1 0x20 DUP3 ADD DUP1 MLOAD PUSH28 0xFFFFFFFFFFFFFFFFFFFFFFFFFFFFFFFFFFFFFFFFFFFFFFFFFFFFFFFF DUP4 DUP2 DUP4 AND OR DUP4 MSTORE POP POP POP POP PUSH2 0xB4F JUMP JUMPDEST POP POP POP POP JUMP JUMPDEST PUSH1 0x0 DUP1 PUSH1 0x0 SWAP1 SLOAD SWAP1 PUSH2 0x100 EXP SWAP1 DIV PUSH20 0xFFFFFFFFFFFFFFFFFFFFFFFFFFFFFFFFFFFFFFFF AND SWAP1 POP DUP2 PUSH1 0x0 DUP1 PUSH2 0x100 EXP DUP2 SLOAD DUP2 PUSH20 0xFFFFFFFFFFFFFFFFFFFFFFFFFFFFFFFFFFFFFFFF MUL NOT AND SWAP1 DUP4 PUSH20 0xFFFFFFFFFFFFFFFFFFFFFFFFFFFFFFFFFFFFFFFF AND MUL OR SWAP1 SSTORE POP DUP2 PUSH20 0xFFFFFFFFFFFFFFFFFFFFFFFFFFFFFFFFFFFFFFFF AND DUP2 PUSH20 0xFFFFFFFFFFFFFFFFFFFFFFFFFFFFFFFFFFFFFFFF AND PUSH32 0x8BE0079C531659141344CD1FD0A4F28419497F9722A3DAAFE3B4186F6B6457E0 PUSH1 0x40 MLOAD PUSH1 0x40 MLOAD DUP1 SWAP2 SUB SWAP1 LOG3 POP POP JUMP JUMPDEST PUSH1 0x0 CALLER SWAP1 POP SWAP1 JUMP JUMPDEST PUSH1 0x0 PUSH2 0xBB1 DUP3 PUSH1 0x40 MLOAD DUP1 PUSH1 0x40 ADD PUSH1 0x40 MSTORE DUP1 PUSH1 0x20 DUP2 MSTORE PUSH1 0x20 ADD PUSH32 0x5361666545524332303A206C6F772D6C6576656C2063616C6C206661696C6564 DUP2 MSTORE POP DUP6 PUSH20 0xFFFFFFFFFFFFFFFFFFFFFFFFFFFFFFFFFFFFFFFF AND PUSH2 0xC16 SWAP1 SWAP3 SWAP2 SWAP1 PUSH4 0xFFFFFFFF AND JUMP JUMPDEST SWAP1 POP PUSH1 0x0 DUP2 MLOAD GT ISZERO PUSH2 0xC11 JUMPI DUP1 DUP1 PUSH1 0x20 ADD SWAP1 MLOAD DUP2 ADD SWAP1 PUSH2 0xBD1 SWAP2 SWAP1 PUSH2 0x1ACF JUMP JUMPDEST PUSH2 0xC10 JUMPI PUSH1 0x40 MLOAD PUSH32 0x8C379A000000000000000000000000000000000000000000000000000000000 DUP2 MSTORE PUSH1 0x4 ADD PUSH2 0xC07 SWAP1 PUSH2 0x1B6E JUMP JUMPDEST PUSH1 0x40 MLOAD DUP1 SWAP2 SUB SWAP1 REVERT JUMPDEST JUMPDEST POP POP POP JUMP JUMPDEST PUSH1 0x60 PUSH2 0xC25 DUP5 DUP5 PUSH1 0x0 DUP6 PUSH2 0xC2E JUMP JUMPDEST SWAP1 POP SWAP4 SWAP3 POP POP POP JUMP JUMPDEST PUSH1 0x60 DUP3 SELFBALANCE LT ISZERO PUSH2 0xC73 JUMPI PUSH1 0x40 MLOAD PUSH32 0x8C379A000000000000000000000000000000000000000000000000000000000 DUP2 MSTORE PUSH1 0x4 ADD PUSH2 0xC6A SWAP1 PUSH2 0x1C00 JUMP JUMPDEST PUSH1 0x40 MLOAD DUP1 SWAP2 SUB SWAP1 REVERT JUMPDEST PUSH1 0x0 DUP1 DUP7 PUSH20 0xFFFFFFFFFFFFFFFFFFFFFFFFFFFFFFFFFFFFFFFF AND DUP6 DUP8 PUSH1 0x40 MLOAD PUSH2 0xC9C SWAP2 SWAP1 PUSH2 0x1C91 JUMP JUMPDEST PUSH1 0x0 PUSH1 0x40 MLOAD DUP1 DUP4 SUB DUP2 DUP6 DUP8 GAS CALL SWAP3 POP POP POP RETURNDATASIZE DUP1 PUSH1 0x0 DUP2 EQ PUSH2 0xCD9 JUMPI PUSH1 0x40 MLOAD SWAP2 POP PUSH1 0x1F NOT PUSH1 0x3F RETURNDATASIZE ADD AND DUP3 ADD PUSH1 0x40 MSTORE RETURNDATASIZE DUP3 MSTORE RETURNDATASIZE PUSH1 0x0 PUSH1 0x20 DUP5 ADD RETURNDATACOPY PUSH2 0xCDE JUMP JUMPDEST PUSH1 0x60 SWAP2 POP JUMPDEST POP SWAP2 POP SWAP2 POP PUSH2 0xCEF DUP8 DUP4 DUP4 DUP8 PUSH2 0xCFB JUMP JUMPDEST SWAP3 POP POP POP SWAP5 SWAP4 POP POP POP POP JUMP JUMPDEST PUSH1 0x60 DUP4 ISZERO PUSH2 0xD5D JUMPI PUSH1 0x0 DUP4 MLOAD SUB PUSH2 0xD55 JUMPI PUSH2 0xD15 DUP6 PUSH2 0xD70 JUMP JUMPDEST PUSH2 0xD54 JUMPI PUSH1 0x40 MLOAD PUSH32 0x8C379A000000000000000000000000000000000000000000000000000000000 DUP2 MSTORE PUSH1 0x4 ADD PUSH2 0xD4B SWAP1 PUSH2 0x1CF4 JUMP JUMPDEST PUSH1 0x40 MLOAD DUP1 SWAP2 SUB SWAP1 REVERT JUMPDEST JUMPDEST DUP3 SWAP1 POP PUSH2 0xD68 JUMP JUMPDEST PUSH2 0xD67 DUP4 DUP4 PUSH2 0xD93 JUMP JUMPDEST JUMPDEST SWAP5 SWAP4 POP POP POP POP JUMP JUMPDEST PUSH1 0x0 DUP1 DUP3 PUSH20 0xFFFFFFFFFFFFFFFFFFFFFFFFFFFFFFFFFFFFFFFF AND EXTCODESIZE GT SWAP1 POP SWAP2 SWAP1 POP JUMP JUMPDEST PUSH1 0x0 DUP3 MLOAD GT ISZERO PUSH2 0xDA6 JUMPI DUP2 MLOAD DUP1 DUP4 PUSH1 0x20 ADD REVERT JUMPDEST DUP1 PUSH1 0x40 MLOAD PUSH32 0x8C379A000000000000000000000000000000000000000000000000000000000 DUP2 MSTORE PUSH1 0x4 ADD PUSH2 0xDDA SWAP2 SWAP1 PUSH2 0x1D58 JUMP JUMPDEST PUSH1 0x40 MLOAD DUP1 SWAP2 SUB SWAP1 REVERT JUMPDEST PUSH1 0x0 DUP1 REVERT JUMPDEST PUSH1 0x0 DUP1 REVERT JUMPDEST PUSH1 0x0 DUP1 REVERT JUMPDEST PUSH1 0x0 DUP1 REVERT JUMPDEST PUSH1 0x0 DUP1 REVERT JUMPDEST PUSH1 0x0 DUP1 DUP4 PUSH1 0x1F DUP5 ADD SLT PUSH2 0xE12 JUMPI PUSH2 0xE11 PUSH2 0xDED JUMP JUMPDEST JUMPDEST DUP3 CALLDATALOAD SWAP1 POP PUSH8 0xFFFFFFFFFFFFFFFF DUP2 GT ISZERO PUSH2 0xE2F JUMPI PUSH2 0xE2E PUSH2 0xDF2 JUMP JUMPDEST JUMPDEST PUSH1 0x20 DUP4 ADD SWAP2 POP DUP4 PUSH1 0x20 DUP3 MUL DUP4 ADD GT ISZERO PUSH2 0xE4B JUMPI PUSH2 0xE4A PUSH2 0xDF7 JUMP JUMPDEST JUMPDEST SWAP3 POP SWAP3 SWAP1 POP JUMP JUMPDEST PUSH1 0x0 DUP1 DUP4 PUSH1 0x1F DUP5 ADD SLT PUSH2 0xE68 JUMPI PUSH2 0xE67 PUSH2 0xDED JUMP JUMPDEST JUMPDEST DUP3 CALLDATALOAD SWAP1 POP PUSH8 0xFFFFFFFFFFFFFFFF DUP2 GT ISZERO PUSH2 0xE85 JUMPI PUSH2 0xE84 PUSH2 0xDF2 JUMP JUMPDEST JUMPDEST PUSH1 0x20 DUP4 ADD SWAP2 POP DUP4 PUSH1 0x20 DUP3 MUL DUP4 ADD GT ISZERO PUSH2 0xEA1 JUMPI PUSH2 0xEA0 PUSH2 0xDF7 JUMP JUMPDEST JUMPDEST SWAP3 POP SWAP3 SWAP1 POP JUMP JUMPDEST PUSH1 0x0 DUP1 DUP4 PUSH1 0x1F DUP5 ADD SLT PUSH2 0xEBE JUMPI PUSH2 0xEBD PUSH2 0xDED JUMP JUMPDEST JUMPDEST DUP3 CALLDATALOAD SWAP1 POP PUSH8 0xFFFFFFFFFFFFFFFF DUP2 GT ISZERO PUSH2 0xEDB JUMPI PUSH2 0xEDA PUSH2 0xDF2 JUMP JUMPDEST JUMPDEST PUSH1 0x20 DUP4 ADD SWAP2 POP DUP4 PUSH1 0x1 DUP3 MUL DUP4 ADD GT ISZERO PUSH2 0xEF7 JUMPI PUSH2 0xEF6 PUSH2 0xDF7 JUMP JUMPDEST JUMPDEST SWAP3 POP SWAP3 SWAP1 POP JUMP JUMPDEST PUSH1 0x0 DUP1 PUSH1 0x0 DUP1 PUSH1 0x0 DUP1 PUSH1 0x60 DUP8 DUP10 SUB SLT ISZERO PUSH2 0xF1B JUMPI PUSH2 0xF1A PUSH2 0xDE3 JUMP JUMPDEST JUMPDEST PUSH1 0x0 DUP8 ADD CALLDATALOAD PUSH8 0xFFFFFFFFFFFFFFFF DUP2 GT ISZERO PUSH2 0xF39 JUMPI PUSH2 0xF38 PUSH2 0xDE8 JUMP JUMPDEST JUMPDEST PUSH2 0xF45 DUP10 DUP3 DUP11 ADD PUSH2 0xDFC JUMP JUMPDEST SWAP7 POP SWAP7 POP POP PUSH1 0x20 DUP8 ADD CALLDATALOAD PUSH8 0xFFFFFFFFFFFFFFFF DUP2 GT ISZERO PUSH2 0xF68 JUMPI PUSH2 0xF67 PUSH2 0xDE8 JUMP JUMPDEST JUMPDEST PUSH2 0xF74 DUP10 DUP3 DUP11 ADD PUSH2 0xE52 JUMP JUMPDEST SWAP5 POP SWAP5 POP POP PUSH1 0x40 DUP8 ADD CALLDATALOAD PUSH8 0xFFFFFFFFFFFFFFFF DUP2 GT ISZERO PUSH2 0xF97 JUMPI PUSH2 0xF96 PUSH2 0xDE8 JUMP JUMPDEST JUMPDEST PUSH2 0xFA3 DUP10 DUP3 DUP11 ADD PUSH2 0xEA8 JUMP JUMPDEST SWAP3 POP SWAP3 POP POP SWAP3 SWAP6 POP SWAP3 SWAP6 POP SWAP3 SWAP6 JUMP JUMPDEST PUSH1 0x0 PUSH20 0xFFFFFFFFFFFFFFFFFFFFFFFFFFFFFFFFFFFFFFFF DUP3 AND SWAP1 POP SWAP2 SWAP1 POP JUMP JUMPDEST PUSH1 0x0 PUSH2 0xFDD DUP3 PUSH2 0xFB2 JUMP JUMPDEST SWAP1 POP SWAP2 SWAP1 POP JUMP JUMPDEST PUSH2 0xFED DUP2 PUSH2 0xFD2 JUMP JUMPDEST DUP2 EQ PUSH2 0xFF8 JUMPI PUSH1 0x0 DUP1 REVERT JUMPDEST POP JUMP JUMPDEST PUSH1 0x0 DUP2 CALLDATALOAD SWAP1 POP PUSH2 0x100A DUP2 PUSH2 0xFE4 JUMP JUMPDEST SWAP3 SWAP2 POP POP JUMP JUMPDEST PUSH1 0x0 DUP2 SWAP1 POP SWAP2 SWAP1 POP JUMP JUMPDEST PUSH2 0x1023 DUP2 PUSH2 0x1010 JUMP JUMPDEST DUP2 EQ PUSH2 0x102E JUMPI PUSH1 0x0 DUP1 REVERT JUMPDEST POP JUMP JUMPDEST PUSH1 0x0 DUP2 CALLDATALOAD SWAP1 POP PUSH2 0x1040 DUP2 PUSH2 0x101A JUMP JUMPDEST SWAP3 SWAP2 POP POP JUMP JUMPDEST PUSH1 0x0 DUP1 PUSH1 0x0 DUP1 PUSH1 0x60 DUP6 DUP8 SUB SLT ISZERO PUSH2 0x1060 JUMPI PUSH2 0x105F PUSH2 0xDE3 JUMP JUMPDEST JUMPDEST PUSH1 0x0 PUSH2 0x106E DUP8 DUP3 DUP9 ADD PUSH2 0xFFB JUMP JUMPDEST SWAP5 POP POP PUSH1 0x20 PUSH2 0x107F DUP8 DUP3 DUP9 ADD PUSH2 0x1031 JUMP JUMPDEST SWAP4 POP POP PUSH1 0x40 DUP6 ADD CALLDATALOAD PUSH8 0xFFFFFFFFFFFFFFFF DUP2 GT ISZERO PUSH2 0x10A0 JUMPI PUSH2 0x109F PUSH2 0xDE8 JUMP JUMPDEST JUMPDEST PUSH2 0x10AC DUP8 DUP3 DUP9 ADD PUSH2 0xEA8 JUMP JUMPDEST SWAP3 POP SWAP3 POP POP SWAP3 SWAP6 SWAP2 SWAP5 POP SWAP3 POP JUMP JUMPDEST PUSH1 0x0 DUP1 DUP4 PUSH1 0x1F DUP5 ADD SLT PUSH2 0x10D0 JUMPI PUSH2 0x10CF PUSH2 0xDED JUMP JUMPDEST JUMPDEST DUP3 CALLDATALOAD SWAP1 POP PUSH8 0xFFFFFFFFFFFFFFFF DUP2 GT ISZERO PUSH2 0x10ED JUMPI PUSH2 0x10EC PUSH2 0xDF2 JUMP JUMPDEST JUMPDEST PUSH1 0x20 DUP4 ADD SWAP2 POP DUP4 PUSH1 0x20 DUP3 MUL DUP4 ADD GT ISZERO PUSH2 0x1109 JUMPI PUSH2 0x1108 PUSH2 0xDF7 JUMP JUMPDEST JUMPDEST SWAP3 POP SWAP3 SWAP1 POP JUMP JUMPDEST PUSH1 0x0 DUP1 PUSH1 0x0 DUP1 PUSH1 0x0 DUP1 PUSH1 0x0 DUP1 PUSH1 0x80 DUP10 DUP12 SUB SLT ISZERO PUSH2 0x1130 JUMPI PUSH2 0x112F PUSH2 0xDE3 JUMP JUMPDEST JUMPDEST PUSH1 0x0 DUP10 ADD CALLDATALOAD PUSH8 0xFFFFFFFFFFFFFFFF DUP2 GT ISZERO PUSH2 0x114E JUMPI PUSH2 0x114D PUSH2 0xDE8 JUMP JUMPDEST JUMPDEST PUSH2 0x115A DUP12 DUP3 DUP13 ADD PUSH2 0xDFC JUMP JUMPDEST SWAP9 POP SWAP9 POP POP PUSH1 0x20 DUP10 ADD CALLDATALOAD PUSH8 0xFFFFFFFFFFFFFFFF DUP2 GT ISZERO PUSH2 0x117D JUMPI PUSH2 0x117C PUSH2 0xDE8 JUMP JUMPDEST JUMPDEST PUSH2 0x1189 DUP12 DUP3 DUP13 ADD PUSH2 0xE52 JUMP JUMPDEST SWAP7 POP SWAP7 POP POP PUSH1 0x40 DUP10 ADD CALLDATALOAD PUSH8 0xFFFFFFFFFFFFFFFF DUP2 GT ISZERO PUSH2 0x11AC JUMPI PUSH2 0x11AB PUSH2 0xDE8 JUMP JUMPDEST JUMPDEST PUSH2 0x11B8 DUP12 DUP3 DUP13 ADD PUSH2 0xDFC JUMP JUMPDEST SWAP5 POP SWAP5 POP POP PUSH1 0x60 DUP10 ADD CALLDATALOAD PUSH8 0xFFFFFFFFFFFFFFFF DUP2 GT ISZERO PUSH2 0x11DB JUMPI PUSH2 0x11DA PUSH2 0xDE8 JUMP JUMPDEST JUMPDEST PUSH2 0x11E7 DUP12 DUP3 DUP13 ADD PUSH2 0x10BA JUMP JUMPDEST SWAP3 POP SWAP3 POP POP SWAP3 SWAP6 SWAP9 POP SWAP3 SWAP6 SWAP9 SWAP1 SWAP4 SWAP7 POP JUMP JUMPDEST PUSH1 0x0 PUSH1 0x20 DUP3 DUP5 SUB SLT ISZERO PUSH2 0x120F JUMPI PUSH2 0x120E PUSH2 0xDE3 JUMP JUMPDEST JUMPDEST PUSH1 0x0 PUSH2 0x121D DUP5 DUP3 DUP6 ADD PUSH2 0xFFB JUMP JUMPDEST SWAP2 POP POP SWAP3 SWAP2 POP POP JUMP JUMPDEST PUSH2 0x122F DUP2 PUSH2 0x1010 JUMP JUMPDEST DUP3 MSTORE POP POP JUMP JUMPDEST PUSH1 0x0 PUSH1 0x20 DUP3 ADD SWAP1 POP PUSH2 0x124A PUSH1 0x0 DUP4 ADD DUP5 PUSH2 0x1226 JUMP JUMPDEST SWAP3 SWAP2 POP POP JUMP JUMPDEST PUSH2 0x1259 DUP2 PUSH2 0xFD2 JUMP JUMPDEST DUP3 MSTORE POP POP JUMP JUMPDEST PUSH1 0x0 PUSH1 0x20 DUP3 ADD SWAP1 POP PUSH2 0x1274 PUSH1 0x0 DUP4 ADD DUP5 PUSH2 0x1250 JUMP JUMPDEST SWAP3 SWAP2 POP POP JUMP JUMPDEST PUSH1 0x0 DUP3 DUP3 MSTORE PUSH1 0x20 DUP3 ADD SWAP1 POP SWAP3 SWAP2 POP POP JUMP JUMPDEST PUSH32 0x63757272656E6379206661696C00000000000000000000000000000000000000 PUSH1 0x0 DUP3 ADD MSTORE POP JUMP JUMPDEST PUSH1 0x0 PUSH2 0x12C1 PUSH1 0xD DUP4 PUSH2 0x127A JUMP JUMPDEST SWAP2 POP PUSH2 0x12CC DUP3 PUSH2 0x128B JUMP JUMPDEST PUSH1 0x20 DUP3 ADD SWAP1 POP SWAP2 SWAP1 POP JUMP JUMPDEST PUSH1 0x0 PUSH1 0x20 DUP3 ADD SWAP1 POP DUP2 DUP2 SUB PUSH1 0x0 DUP4 ADD MSTORE PUSH2 0x12F0 DUP2 PUSH2 0x12B4 JUMP JUMPDEST SWAP1 POP SWAP2 SWAP1 POP JUMP JUMPDEST PUSH32 0x63757272656E6379206F7220616D6F756E74206661696C000000000000000000 PUSH1 0x0 DUP3 ADD MSTORE POP JUMP JUMPDEST PUSH1 0x0 PUSH2 0x132D PUSH1 0x17 DUP4 PUSH2 0x127A JUMP JUMPDEST SWAP2 POP PUSH2 0x1338 DUP3 PUSH2 0x12F7 JUMP JUMPDEST PUSH1 0x20 DUP3 ADD SWAP1 POP SWAP2 SWAP1 POP JUMP JUMPDEST PUSH1 0x0 PUSH1 0x20 DUP3 ADD SWAP1 POP DUP2 DUP2 SUB PUSH1 0x0 DUP4 ADD MSTORE PUSH2 0x135C DUP2 PUSH2 0x1320 JUMP JUMPDEST SWAP1 POP SWAP2 SWAP1 POP JUMP JUMPDEST PUSH32 0x4E487B7100000000000000000000000000000000000000000000000000000000 PUSH1 0x0 MSTORE PUSH1 0x32 PUSH1 0x4 MSTORE PUSH1 0x24 PUSH1 0x0 REVERT JUMPDEST PUSH32 0x616D6F756E74206661696C000000000000000000000000000000000000000000 PUSH1 0x0 DUP3 ADD MSTORE POP JUMP JUMPDEST PUSH1 0x0 PUSH2 0x13C8 PUSH1 0xB DUP4 PUSH2 0x127A JUMP JUMPDEST SWAP2 POP PUSH2 0x13D3 DUP3 PUSH2 0x1392 JUMP JUMPDEST PUSH1 0x20 DUP3 ADD SWAP1 POP SWAP2 SWAP1 POP JUMP JUMPDEST PUSH1 0x0 PUSH1 0x20 DUP3 ADD SWAP1 POP DUP2 DUP2 SUB PUSH1 0x0 DUP4 ADD MSTORE PUSH2 0x13F7 DUP2 PUSH2 0x13BB JUMP JUMPDEST SWAP1 POP SWAP2 SWAP1 POP JUMP JUMPDEST PUSH32 0x4E487B7100000000000000000000000000000000000000000000000000000000 PUSH1 0x0 MSTORE PUSH1 0x11 PUSH1 0x4 MSTORE PUSH1 0x24 PUSH1 0x0 REVERT JUMPDEST PUSH1 0x0 PUSH2 0x1438 DUP3 PUSH2 0x1010 JUMP JUMPDEST SWAP2 POP PUSH32 0xFFFFFFFFFFFFFFFFFFFFFFFFFFFFFFFFFFFFFFFFFFFFFFFFFFFFFFFFFFFFFFFF DUP3 SUB PUSH2 0x146A JUMPI PUSH2 0x1469 PUSH2 0x13FE JUMP JUMPDEST JUMPDEST PUSH1 0x1 DUP3 ADD SWAP1 POP SWAP2 SWAP1 POP JUMP JUMPDEST PUSH1 0x0 DUP2 SWAP1 POP SWAP3 SWAP2 POP POP JUMP JUMPDEST PUSH1 0x0 DUP2 SWAP1 POP SWAP2 SWAP1 POP JUMP JUMPDEST PUSH2 0x1493 DUP2 PUSH2 0xFD2 JUMP JUMPDEST DUP3 MSTORE POP POP JUMP JUMPDEST PUSH1 0x0 PUSH2 0x14A5 DUP4 DUP4 PUSH2 0x148A JUMP JUMPDEST PUSH1 0x20 DUP4 ADD SWAP1 POP SWAP3 SWAP2 POP POP JUMP JUMPDEST PUSH1 0x0 PUSH2 0x14C0 PUSH1 0x20 DUP5 ADD DUP5 PUSH2 0xFFB JUMP JUMPDEST SWAP1 POP SWAP3 SWAP2 POP POP JUMP JUMPDEST PUSH1 0x0 PUSH1 0x20 DUP3 ADD SWAP1 POP SWAP2 SWAP1 POP JUMP JUMPDEST PUSH1 0x0 PUSH2 0x14E1 DUP4 DUP6 PUSH2 0x1475 JUMP JUMPDEST SWAP4 POP PUSH2 0x14EC DUP3 PUSH2 0x1480 JUMP JUMPDEST DUP1 PUSH1 0x0 JUMPDEST DUP6 DUP2 LT ISZERO PUSH2 0x1525 JUMPI PUSH2 0x1502 DUP3 DUP5 PUSH2 0x14B1 JUMP JUMPDEST PUSH2 0x150C DUP9 DUP3 PUSH2 0x1499 JUMP JUMPDEST SWAP8 POP PUSH2 0x1517 DUP4 PUSH2 0x14C8 JUMP JUMPDEST SWAP3 POP POP PUSH1 0x1 DUP2 ADD SWAP1 POP PUSH2 0x14F0 JUMP JUMPDEST POP DUP6 SWAP3 POP POP POP SWAP4 SWAP3 POP POP POP JUMP JUMPDEST PUSH1 0x0 PUSH2 0x153F DUP3 DUP5 DUP7 PUSH2 0x14D5 JUMP JUMPDEST SWAP2 POP DUP2 SWAP1 POP SWAP4 SWAP3 POP POP POP JUMP JUMPDEST PUSH1 0x0 DUP3 DUP3 MSTORE PUSH1 0x20 DUP3 ADD SWAP1 POP SWAP3 SWAP2 POP POP JUMP JUMPDEST PUSH1 0x0 DUP1 REVERT JUMPDEST DUP3 DUP2 DUP4 CALLDATACOPY POP POP POP JUMP JUMPDEST PUSH1 0x0 PUSH2 0x1576 DUP4 DUP6 PUSH2 0x154B JUMP JUMPDEST SWAP4 POP PUSH32 0x7FFFFFFFFFFFFFFFFFFFFFFFFFFFFFFFFFFFFFFFFFFFFFFFFFFFFFFFFFFFFFF DUP4 GT ISZERO PUSH2 0x15A9 JUMPI PUSH2 0x15A8 PUSH2 0x155C JUMP JUMPDEST JUMPDEST PUSH1 0x20 DUP4 MUL SWAP3 POP PUSH2 0x15BA DUP4 DUP6 DUP5 PUSH2 0x1561 JUMP JUMPDEST DUP3 DUP5 ADD SWAP1 POP SWAP4 SWAP3 POP POP POP JUMP JUMPDEST DUP3 DUP2 DUP4 CALLDATACOPY PUSH1 0x0 DUP4 DUP4 ADD MSTORE POP POP POP JUMP JUMPDEST PUSH1 0x0 PUSH1 0x1F NOT PUSH1 0x1F DUP4 ADD AND SWAP1 POP SWAP2 SWAP1 POP JUMP JUMPDEST PUSH1 0x0 PUSH2 0x15F2 DUP4 DUP6 PUSH2 0x127A JUMP JUMPDEST SWAP4 POP PUSH2 0x15FF DUP4 DUP6 DUP5 PUSH2 0x15C6 JUMP JUMPDEST PUSH2 0x1608 DUP4 PUSH2 0x15D5 JUMP JUMPDEST DUP5 ADD SWAP1 POP SWAP4 SWAP3 POP POP POP JUMP JUMPDEST PUSH1 0x0 PUSH1 0x40 DUP3 ADD SWAP1 POP DUP2 DUP2 SUB PUSH1 0x0 DUP4 ADD MSTORE PUSH2 0x162E DUP2 DUP7 DUP9 PUSH2 0x156A JUMP JUMPDEST SWAP1 POP DUP2 DUP2 SUB PUSH1 0x20 DUP4 ADD MSTORE PUSH2 0x1643 DUP2 DUP5 DUP7 PUSH2 0x15E6 JUMP JUMPDEST SWAP1 POP SWAP6 SWAP5 POP POP POP POP POP JUMP JUMPDEST PUSH1 0x0 PUSH1 0x40 DUP3 ADD SWAP1 POP PUSH2 0x1663 PUSH1 0x0 DUP4 ADD DUP7 PUSH2 0x1226 JUMP JUMPDEST DUP2 DUP2 SUB PUSH1 0x20 DUP4 ADD MSTORE PUSH2 0x1676 DUP2 DUP5 DUP7 PUSH2 0x15E6 JUMP JUMPDEST SWAP1 POP SWAP5 SWAP4 POP POP POP POP JUMP JUMPDEST PUSH32 0x746F206661696C00000000000000000000000000000000000000000000000000 PUSH1 0x0 DUP3 ADD MSTORE POP JUMP JUMPDEST PUSH1 0x0 PUSH2 0x16B6 PUSH1 0x7 DUP4 PUSH2 0x127A JUMP JUMPDEST SWAP2 POP PUSH2 0x16C1 DUP3 PUSH2 0x1680 JUMP JUMPDEST PUSH1 0x20 DUP3 ADD SWAP1 POP SWAP2 SWAP1 POP JUMP JUMPDEST PUSH1 0x0 PUSH1 0x20 DUP3 ADD SWAP1 POP DUP2 DUP2 SUB PUSH1 0x0 DUP4 ADD MSTORE PUSH2 0x16E5 DUP2 PUSH2 0x16A9 JUMP JUMPDEST SWAP1 POP SWAP2 SWAP1 POP JUMP JUMPDEST PUSH32 0x6F726465724964206661696C0000000000000000000000000000000000000000 PUSH1 0x0 DUP3 ADD MSTORE POP JUMP JUMPDEST PUSH1 0x0 PUSH2 0x1722 PUSH1 0xC DUP4 PUSH2 0x127A JUMP JUMPDEST SWAP2 POP PUSH2 0x172D DUP3 PUSH2 0x16EC JUMP JUMPDEST PUSH1 0x20 DUP3 ADD SWAP1 POP SWAP2 SWAP1 POP JUMP JUMPDEST PUSH1 0x0 PUSH1 0x20 DUP3 ADD SWAP1 POP DUP2 DUP2 SUB PUSH1 0x0 DUP4 ADD MSTORE PUSH2 0x1751 DUP2 PUSH2 0x1715 JUMP JUMPDEST SWAP1 POP SWAP2 SWAP1 POP JUMP JUMPDEST PUSH1 0x0 DUP3 DUP3 MSTORE PUSH1 0x20 DUP3 ADD SWAP1 POP SWAP3 SWAP2 POP POP JUMP JUMPDEST PUSH1 0x0 DUP2 SWAP1 POP SWAP2 SWAP1 POP JUMP JUMPDEST PUSH1 0x0 DUP3 DUP3 MSTORE PUSH1 0x20 DUP3 ADD SWAP1 POP SWAP3 SWAP2 POP POP JUMP JUMPDEST PUSH1 0x0 PUSH2 0x1790 DUP4 DUP6 PUSH2 0x1773 JUMP JUMPDEST SWAP4 POP PUSH2 0x179D DUP4 DUP6 DUP5 PUSH2 0x15C6 JUMP JUMPDEST PUSH2 0x17A6 DUP4 PUSH2 0x15D5 JUMP JUMPDEST DUP5 ADD SWAP1 POP SWAP4 SWAP3 POP POP POP JUMP JUMPDEST PUSH1 0x0 PUSH2 0x17BE DUP5 DUP5 DUP5 PUSH2 0x1784 JUMP JUMPDEST SWAP1 POP SWAP4 SWAP3 POP POP POP JUMP JUMPDEST PUSH1 0x0 DUP1 REVERT JUMPDEST PUSH1 0x0 DUP1 REVERT JUMPDEST PUSH1 0x0 DUP1 REVERT JUMPDEST PUSH1 0x0 DUP1 DUP4 CALLDATALOAD PUSH1 0x1 PUSH1 0x20 SUB DUP5 CALLDATASIZE SUB SUB DUP2 SLT PUSH2 0x17F3 JUMPI PUSH2 0x17F2 PUSH2 0x17D1 JUMP JUMPDEST JUMPDEST DUP4 DUP2 ADD SWAP3 POP DUP3 CALLDATALOAD SWAP2 POP PUSH1 0x20 DUP4 ADD SWAP3 POP PUSH8 0xFFFFFFFFFFFFFFFF DUP3 GT ISZERO PUSH2 0x181B JUMPI PUSH2 0x181A PUSH2 0x17C7 JUMP JUMPDEST JUMPDEST PUSH1 0x1 DUP3 MUL CALLDATASIZE SUB DUP4 SGT ISZERO PUSH2 0x1831 JUMPI PUSH2 0x1830 PUSH2 0x17CC JUMP JUMPDEST JUMPDEST POP SWAP3 POP SWAP3 SWAP1 POP JUMP JUMPDEST PUSH1 0x0 PUSH1 0x20 DUP3 ADD SWAP1 POP SWAP2 SWAP1 POP JUMP JUMPDEST PUSH1 0x0 PUSH2 0x1852 DUP4 DUP6 PUSH2 0x1758 JUMP JUMPDEST SWAP4 POP DUP4 PUSH1 0x20 DUP5 MUL DUP6 ADD PUSH2 0x1864 DUP5 PUSH2 0x1769 JUMP JUMPDEST DUP1 PUSH1 0x0 JUMPDEST DUP8 DUP2 LT ISZERO PUSH2 0x18AA JUMPI DUP5 DUP5 SUB DUP10 MSTORE PUSH2 0x187F DUP3 DUP5 PUSH2 0x17D6 JUMP JUMPDEST PUSH2 0x188A DUP7 DUP3 DUP5 PUSH2 0x17B1 JUMP JUMPDEST SWAP6 POP PUSH2 0x1895 DUP5 PUSH2 0x1839 JUMP JUMPDEST SWAP4 POP PUSH1 0x20 DUP12 ADD SWAP11 POP POP POP PUSH1 0x1 DUP2 ADD SWAP1 POP PUSH2 0x1868 JUMP JUMPDEST POP DUP3 SWAP8 POP DUP8 SWAP5 POP POP POP POP POP SWAP4 SWAP3 POP POP POP JUMP JUMPDEST PUSH1 0x0 PUSH1 0x40 DUP3 ADD SWAP1 POP DUP2 DUP2 SUB PUSH1 0x0 DUP4 ADD MSTORE PUSH2 0x18D7 DUP2 DUP7 DUP9 PUSH2 0x156A JUMP JUMPDEST SWAP1 POP DUP2 DUP2 SUB PUSH1 0x20 DUP4 ADD MSTORE PUSH2 0x18EC DUP2 DUP5 DUP7 PUSH2 0x1846 JUMP JUMPDEST SWAP1 POP SWAP6 SWAP5 POP POP POP POP POP JUMP JUMPDEST PUSH1 0x0 DUP2 MLOAD SWAP1 POP PUSH2 0x1906 DUP2 PUSH2 0x101A JUMP JUMPDEST SWAP3 SWAP2 POP POP JUMP JUMPDEST PUSH1 0x0 PUSH1 0x20 DUP3 DUP5 SUB SLT ISZERO PUSH2 0x1922 JUMPI PUSH2 0x1921 PUSH2 0xDE3 JUMP JUMPDEST JUMPDEST PUSH1 0x0 PUSH2 0x1930 DUP5 DUP3 DUP6 ADD PUSH2 0x18F7 JUMP JUMPDEST SWAP2 POP POP SWAP3 SWAP2 POP POP JUMP JUMPDEST PUSH32 0x4F776E61626C653A206E6577206F776E657220697320746865207A65726F2061 PUSH1 0x0 DUP3 ADD MSTORE PUSH32 0x6464726573730000000000000000000000000000000000000000000000000000 PUSH1 0x20 DUP3 ADD MSTORE POP JUMP JUMPDEST PUSH1 0x0 PUSH2 0x1995 PUSH1 0x26 DUP4 PUSH2 0x127A JUMP JUMPDEST SWAP2 POP PUSH2 0x19A0 DUP3 PUSH2 0x1939 JUMP JUMPDEST PUSH1 0x40 DUP3 ADD SWAP1 POP SWAP2 SWAP1 POP JUMP JUMPDEST PUSH1 0x0 PUSH1 0x20 DUP3 ADD SWAP1 POP DUP2 DUP2 SUB PUSH1 0x0 DUP4 ADD MSTORE PUSH2 0x19C4 DUP2 PUSH2 0x1988 JUMP JUMPDEST SWAP1 POP SWAP2 SWAP1 POP JUMP JUMPDEST PUSH32 0x4F776E61626C653A2063616C6C6572206973206E6F7420746865206F776E6572 PUSH1 0x0 DUP3 ADD MSTORE POP JUMP JUMPDEST PUSH1 0x0 PUSH2 0x1A01 PUSH1 0x20 DUP4 PUSH2 0x127A JUMP JUMPDEST SWAP2 POP PUSH2 0x1A0C DUP3 PUSH2 0x19CB JUMP JUMPDEST PUSH1 0x20 DUP3 ADD SWAP1 POP SWAP2 SWAP1 POP JUMP JUMPDEST PUSH1 0x0 PUSH1 0x20 DUP3 ADD SWAP1 POP DUP2 DUP2 SUB PUSH1 0x0 DUP4 ADD MSTORE PUSH2 0x1A30 DUP2 PUSH2 0x19F4 JUMP JUMPDEST SWAP1 POP SWAP2 SWAP1 POP JUMP JUMPDEST PUSH1 0x0 PUSH1 0x40 DUP3 ADD SWAP1 POP PUSH2 0x1A4C PUSH1 0x0 DUP4 ADD DUP6 PUSH2 0x1250 JUMP JUMPDEST PUSH2 0x1A59 PUSH1 0x20 DUP4 ADD DUP5 PUSH2 0x1226 JUMP JUMPDEST SWAP4 SWAP3 POP POP POP JUMP JUMPDEST PUSH1 0x0 PUSH1 0x60 DUP3 ADD SWAP1 POP PUSH2 0x1A75 PUSH1 0x0 DUP4 ADD DUP7 PUSH2 0x1250 JUMP JUMPDEST PUSH2 0x1A82 PUSH1 0x20 DUP4 ADD DUP6 PUSH2 0x1250 JUMP JUMPDEST PUSH2 0x1A8F PUSH1 0x40 DUP4 ADD DUP5 PUSH2 0x1226 JUMP JUMPDEST SWAP5 SWAP4 POP POP POP POP JUMP JUMPDEST PUSH1 0x0 DUP2 ISZERO ISZERO SWAP1 POP SWAP2 SWAP1 POP JUMP JUMPDEST PUSH2 0x1AAC DUP2 PUSH2 0x1A97 JUMP JUMPDEST DUP2 EQ PUSH2 0x1AB7 JUMPI PUSH1 0x0 DUP1 REVERT JUMPDEST POP JUMP JUMPDEST PUSH1 0x0 DUP2 MLOAD SWAP1 POP PUSH2 0x1AC9 DUP2 PUSH2 0x1AA3 JUMP JUMPDEST SWAP3 SWAP2 POP POP JUMP JUMPDEST PUSH1 0x0 PUSH1 0x20 DUP3 DUP5 SUB SLT ISZERO PUSH2 0x1AE5 JUMPI PUSH2 0x1AE4 PUSH2 0xDE3 JUMP JUMPDEST JUMPDEST PUSH1 0x0 PUSH2 0x1AF3 DUP5 DUP3 DUP6 ADD PUSH2 0x1ABA JUMP JUMPDEST SWAP2 POP POP SWAP3 SWAP2 POP POP JUMP JUMPDEST PUSH32 0x5361666545524332303A204552433230206F7065726174696F6E20646964206E PUSH1 0x0 DUP3 ADD MSTORE PUSH32 0x6F74207375636365656400000000000000000000000000000000000000000000 PUSH1 0x20 DUP3 ADD MSTORE POP JUMP JUMPDEST PUSH1 0x0 PUSH2 0x1B58 PUSH1 0x2A DUP4 PUSH2 0x127A JUMP JUMPDEST SWAP2 POP PUSH2 0x1B63 DUP3 PUSH2 0x1AFC JUMP JUMPDEST PUSH1 0x40 DUP3 ADD SWAP1 POP SWAP2 SWAP1 POP JUMP JUMPDEST PUSH1 0x0 PUSH1 0x20 DUP3 ADD SWAP1 POP DUP2 DUP2 SUB PUSH1 0x0 DUP4 ADD MSTORE PUSH2 0x1B87 DUP2 PUSH2 0x1B4B JUMP JUMPDEST SWAP1 POP SWAP2 SWAP1 POP JUMP JUMPDEST PUSH32 0x416464726573733A20696E73756666696369656E742062616C616E636520666F PUSH1 0x0 DUP3 ADD MSTORE PUSH32 0x722063616C6C0000000000000000000000000000000000000000000000000000 PUSH1 0x20 DUP3 ADD MSTORE POP JUMP JUMPDEST PUSH1 0x0 PUSH2 0x1BEA PUSH1 0x26 DUP4 PUSH2 0x127A JUMP JUMPDEST SWAP2 POP PUSH2 0x1BF5 DUP3 PUSH2 0x1B8E JUMP JUMPDEST PUSH1 0x40 DUP3 ADD SWAP1 POP SWAP2 SWAP1 POP JUMP JUMPDEST PUSH1 0x0 PUSH1 0x20 DUP3 ADD SWAP1 POP DUP2 DUP2 SUB PUSH1 0x0 DUP4 ADD MSTORE PUSH2 0x1C19 DUP2 PUSH2 0x1BDD JUMP JUMPDEST SWAP1 POP SWAP2 SWAP1 POP JUMP JUMPDEST PUSH1 0x0 DUP2 MLOAD SWAP1 POP SWAP2 SWAP1 POP JUMP JUMPDEST PUSH1 0x0 DUP2 SWAP1 POP SWAP3 SWAP2 POP POP JUMP JUMPDEST PUSH1 0x0 JUMPDEST DUP4 DUP2 LT ISZERO PUSH2 0x1C54 JUMPI DUP1 DUP3 ADD MLOAD DUP2 DUP5 ADD MSTORE PUSH1 0x20 DUP2 ADD SWAP1 POP PUSH2 0x1C39 JUMP JUMPDEST PUSH1 0x0 DUP5 DUP5 ADD MSTORE POP POP POP POP JUMP JUMPDEST PUSH1 0x0 PUSH2 0x1C6B DUP3 PUSH2 0x1C20 JUMP JUMPDEST PUSH2 0x1C75 DUP2 DUP6 PUSH2 0x1C2B JUMP JUMPDEST SWAP4 POP PUSH2 0x1C85 DUP2 DUP6 PUSH1 0x20 DUP7 ADD PUSH2 0x1C36 JUMP JUMPDEST DUP1 DUP5 ADD SWAP2 POP POP SWAP3 SWAP2 POP POP JUMP JUMPDEST PUSH1 0x0 PUSH2 0x1C9D DUP3 DUP5 PUSH2 0x1C60 JUMP JUMPDEST SWAP2 POP DUP2 SWAP1 POP SWAP3 SWAP2 POP POP JUMP JUMPDEST PUSH32 0x416464726573733A2063616C6C20746F206E6F6E2D636F6E7472616374000000 PUSH1 0x0 DUP3 ADD MSTORE POP JUMP JUMPDEST PUSH1 0x0 PUSH2 0x1CDE PUSH1 0x1D DUP4 PUSH2 0x127A JUMP JUMPDEST SWAP2 POP PUSH2 0x1CE9 DUP3 PUSH2 0x1CA8 JUMP JUMPDEST PUSH1 0x20 DUP3 ADD SWAP1 POP SWAP2 SWAP1 POP JUMP JUMPDEST PUSH1 0x0 PUSH1 0x20 DUP3 ADD SWAP1 POP DUP2 DUP2 SUB PUSH1 0x0 DUP4 ADD MSTORE PUSH2 0x1D0D DUP2 PUSH2 0x1CD1 JUMP JUMPDEST SWAP1 POP SWAP2 SWAP1 POP JUMP JUMPDEST PUSH1 0x0 DUP2 MLOAD SWAP1 POP SWAP2 SWAP1 POP JUMP JUMPDEST PUSH1 0x0 PUSH2 0x1D2A DUP3 PUSH2 0x1D14 JUMP JUMPDEST PUSH2 0x1D34 DUP2 DUP6 PUSH2 0x127A JUMP JUMPDEST SWAP4 POP PUSH2 0x1D44 DUP2 DUP6 PUSH1 0x20 DUP7 ADD PUSH2 0x1C36 JUMP JUMPDEST PUSH2 0x1D4D DUP2 PUSH2 0x15D5 JUMP JUMPDEST DUP5 ADD SWAP2 POP POP SWAP3 SWAP2 POP POP JUMP JUMPDEST PUSH1 0x0 PUSH1 0x20 DUP3 ADD SWAP1 POP DUP2 DUP2 SUB PUSH1 0x0 DUP4 ADD MSTORE PUSH2 0x1D72 DUP2 DUP5 PUSH2 0x1D1F JUMP JUMPDEST SWAP1 POP SWAP3 SWAP2 POP POP JUMP INVALID LOG2 PUSH5 0x6970667358 0x22 SLT KECCAK256 0x26 PUSH32 0x56F06BBE51DC13404E6173C2604853D5F8B178FE55B3C9011FEABE207F756473 PUSH16 0x6C634300081200330000000000000000 "
				},
				"gasEstimates": {
					"creation": {
						"codeDepositCost": "1520000",
						"executionCost": "infinite",
						"totalCost": "infinite"
					},
					"external": {
						"balanceOf(address)": "infinite",
						"owner()": "2566",
						"pay(address,uint256,string)": "infinite",
						"refund(address[],uint256[],address[],string[])": "infinite",
						"renounceOwnership()": "30420",
						"transferOwnership(address)": "30810",
						"withdraw(address[],uint256[],string)": "infinite"
					}
				},
				"methodIdentifiers": {
					"balanceOf(address)": "70a08231",
					"owner()": "8da5cb5b",
					"pay(address,uint256,string)": "4a4bdb30",
					"refund(address[],uint256[],address[],string[])": "56edb469",
					"renounceOwnership()": "715018a6",
					"transferOwnership(address)": "f2fde38b",
					"withdraw(address[],uint256[],string)": "17e78b6c"
				}
			},
			"storageLayout": {
				"storage": [
					{
						"astId": 7,
						"contract": "contracts/CurrencyReceiver.sol:CurrencyReceiver",
						"label": "_owner",
						"offset": 0,
						"slot": "0",
						"type": "t_address"
					}
				],
				"types": {
					"t_address": {
						"encoding": "inplace",
						"label": "address",
						"numberOfBytes": "20"
					}
				}
			},
			"userdoc": {
				"kind": "user",
				"methods": {},
				"version": 1
			}
		}
	}
}