{
	"contracts/CurrencyReceiver.sol": {
		"CurrencyReceiver": {
			"abi": [
				{
					"inputs": [],
					"stateMutability": "nonpayable",
					"type": "constructor"
				},
				{
					"anonymous": false,
					"inputs": [
						{
							"indexed": true,
							"internalType": "address",
							"name": "previousOwner",
							"type": "address"
						},
						{
							"indexed": true,
							"internalType": "address",
							"name": "newOwner",
							"type": "address"
						}
					],
					"name": "OwnershipTransferred",
					"type": "event"
				},
				{
					"anonymous": false,
					"inputs": [
						{
							"indexed": true,
							"internalType": "address",
							"name": "currency",
							"type": "address"
						},
						{
							"indexed": true,
							"internalType": "address",
							"name": "from",
							"type": "address"
						},
						{
							"indexed": false,
							"internalType": "uint256",
							"name": "amount",
							"type": "uint256"
						},
						{
							"indexed": false,
							"internalType": "string",
							"name": "orderId",
							"type": "string"
						}
					],
					"name": "Pay",
					"type": "event"
				},
				{
					"anonymous": false,
					"inputs": [
						{
							"indexed": true,
							"internalType": "address[]",
							"name": "currency",
							"type": "address[]"
						},
						{
							"indexed": false,
							"internalType": "uint256[]",
							"name": "amount",
							"type": "uint256[]"
						},
						{
							"indexed": true,
							"internalType": "address[]",
							"name": "to",
							"type": "address[]"
						},
						{
							"indexed": false,
							"internalType": "string[]",
							"name": "orderIds",
							"type": "string[]"
						}
					],
					"name": "Refund",
					"type": "event"
				},
				{
					"anonymous": false,
					"inputs": [
						{
							"indexed": true,
							"internalType": "address[]",
							"name": "currency",
							"type": "address[]"
						},
						{
							"indexed": false,
							"internalType": "uint256[]",
							"name": "amount",
							"type": "uint256[]"
						},
						{
							"indexed": true,
							"internalType": "address",
							"name": "to",
							"type": "address"
						},
						{
							"indexed": false,
							"internalType": "string",
							"name": "billId",
							"type": "string"
						}
					],
					"name": "Withdraw",
					"type": "event"
				},
				{
					"inputs": [
						{
							"internalType": "address",
							"name": "currency",
							"type": "address"
						}
					],
					"name": "balanceOf",
					"outputs": [
						{
							"internalType": "uint256",
							"name": "",
							"type": "uint256"
						}
					],
					"stateMutability": "view",
					"type": "function"
				},
				{
					"inputs": [],
					"name": "owner",
					"outputs": [
						{
							"internalType": "address",
							"name": "",
							"type": "address"
						}
					],
					"stateMutability": "view",
					"type": "function"
				},
				{
					"inputs": [
						{
							"internalType": "address",
							"name": "currency",
							"type": "address"
						},
						{
							"internalType": "uint256",
							"name": "amount",
							"type": "uint256"
						},
						{
							"internalType": "string",
							"name": "orderId",
							"type": "string"
						}
					],
					"name": "pay",
					"outputs": [],
					"stateMutability": "nonpayable",
					"type": "function"
				},
				{
					"inputs": [
						{
							"internalType": "address[]",
							"name": "currency",
							"type": "address[]"
						},
						{
							"internalType": "uint256[]",
							"name": "amount",
							"type": "uint256[]"
						},
						{
							"internalType": "address[]",
							"name": "to",
							"type": "address[]"
						},
						{
							"internalType": "string[]",
							"name": "orderId",
							"type": "string[]"
						}
					],
					"name": "refund",
					"outputs": [],
					"stateMutability": "nonpayable",
					"type": "function"
				},
				{
					"inputs": [],
					"name": "renounceOwnership",
					"outputs": [],
					"stateMutability": "nonpayable",
					"type": "function"
				},
				{
					"inputs": [
						{
							"internalType": "address",
							"name": "newOwner",
							"type": "address"
						}
					],
					"name": "transferOwnership",
					"outputs": [],
					"stateMutability": "nonpayable",
					"type": "function"
				},
				{
					"inputs": [
						{
							"internalType": "address[]",
							"name": "currency",
							"type": "address[]"
						},
						{
							"internalType": "uint256[]",
							"name": "amount",
							"type": "uint256[]"
						},
						{
							"internalType": "string",
							"name": "billId",
							"type": "string"
						}
					],
					"name": "withdraw",
					"outputs": [],
					"stateMutability": "nonpayable",
					"type": "function"
				}
			],
			"devdoc": {
				"kind": "dev",
				"methods": {
					"owner()": {
						"details": "Returns the address of the current owner."
					},
					"renounceOwnership()": {
						"details": "Leaves the contract without owner. It will not be possible to call `onlyOwner` functions anymore. Can only be called by the current owner. NOTE: Renouncing ownership will leave the contract without an owner, thereby removing any functionality that is only available to the owner."
					},
					"transferOwnership(address)": {
						"details": "Transfers ownership of the contract to a new account (`newOwner`). Can only be called by the current owner."
					}
				},
				"version": 1
			},
			"evm": {
				"assembly": "    /* \"contracts/CurrencyReceiver.sol\":254:2640  contract CurrencyReceiver is ICurrencyReceiver, Ownable {... */\n  mstore(0x40, 0x80)\n    /* \"contracts/CurrencyReceiver.sol\":404:426  constructor () {... */\n  callvalue\n  dup1\n  iszero\n  tag_1\n  jumpi\n  0x00\n  dup1\n  revert\ntag_1:\n  pop\n    /* \"@openzeppelin/contracts/access/Ownable.sol\":936:968  _transferOwnership(_msgSender()) */\n  tag_5\n    /* \"@openzeppelin/contracts/access/Ownable.sol\":955:967  _msgSender() */\n  tag_6\n    /* \"@openzeppelin/contracts/access/Ownable.sol\":955:965  _msgSender */\n  shl(0x20, tag_7)\n    /* \"@openzeppelin/contracts/access/Ownable.sol\":955:967  _msgSender() */\n  0x20\n  shr\n  jump\t// in\ntag_6:\n    /* \"@openzeppelin/contracts/access/Ownable.sol\":936:954  _transferOwnership */\n  shl(0x20, tag_8)\n    /* \"@openzeppelin/contracts/access/Ownable.sol\":936:968  _transferOwnership(_msgSender()) */\n  0x20\n  shr\n  jump\t// in\ntag_5:\n    /* \"contracts/CurrencyReceiver.sol\":254:2640  contract CurrencyReceiver is ICurrencyReceiver, Ownable {... */\n  jump(tag_10)\n    /* \"@openzeppelin/contracts/utils/Context.sol\":640:736  function _msgSender() internal view virtual returns (address) {... */\ntag_7:\n    /* \"@openzeppelin/contracts/utils/Context.sol\":693:700  address */\n  0x00\n    /* \"@openzeppelin/contracts/utils/Context.sol\":719:729  msg.sender */\n  caller\n    /* \"@openzeppelin/contracts/utils/Context.sol\":712:729  return msg.sender */\n  swap1\n  pop\n    /* \"@openzeppelin/contracts/utils/Context.sol\":640:736  function _msgSender() internal view virtual returns (address) {... */\n  swap1\n  jump\t// out\n    /* \"@openzeppelin/contracts/access/Ownable.sol\":2433:2620  function _transferOwnership(address newOwner) internal virtual {... */\ntag_8:\n    /* \"@openzeppelin/contracts/access/Ownable.sol\":2506:2522  address oldOwner */\n  0x00\n    /* \"@openzeppelin/contracts/access/Ownable.sol\":2525:2531  _owner */\n  dup1\n  0x00\n  swap1\n  sload\n  swap1\n  0x0100\n  exp\n  swap1\n  div\n  0xffffffffffffffffffffffffffffffffffffffff\n  and\n    /* \"@openzeppelin/contracts/access/Ownable.sol\":2506:2531  address oldOwner = _owner */\n  swap1\n  pop\n    /* \"@openzeppelin/contracts/access/Ownable.sol\":2550:2558  newOwner */\n  dup2\n    /* \"@openzeppelin/contracts/access/Ownable.sol\":2541:2547  _owner */\n  0x00\n  dup1\n    /* \"@openzeppelin/contracts/access/Ownable.sol\":2541:2558  _owner = newOwner */\n  0x0100\n  exp\n  dup2\n  sload\n  dup2\n  0xffffffffffffffffffffffffffffffffffffffff\n  mul\n  not\n  and\n  swap1\n  dup4\n  0xffffffffffffffffffffffffffffffffffffffff\n  and\n  mul\n  or\n  swap1\n  sstore\n  pop\n    /* \"@openzeppelin/contracts/access/Ownable.sol\":2604:2612  newOwner */\n  dup2\n    /* \"@openzeppelin/contracts/access/Ownable.sol\":2573:2613  OwnershipTransferred(oldOwner, newOwner) */\n  0xffffffffffffffffffffffffffffffffffffffff\n  and\n    /* \"@openzeppelin/contracts/access/Ownable.sol\":2594:2602  oldOwner */\n  dup2\n    /* \"@openzeppelin/contracts/access/Ownable.sol\":2573:2613  OwnershipTransferred(oldOwner, newOwner) */\n  0xffffffffffffffffffffffffffffffffffffffff\n  and\n  0x8be0079c531659141344cd1fd0a4f28419497f9722a3daafe3b4186f6b6457e0\n  mload(0x40)\n  mload(0x40)\n  dup1\n  swap2\n  sub\n  swap1\n  log3\n    /* \"@openzeppelin/contracts/access/Ownable.sol\":2496:2620  {... */\n  pop\n    /* \"@openzeppelin/contracts/access/Ownable.sol\":2433:2620  function _transferOwnership(address newOwner) internal virtual {... */\n  pop\n  jump\t// out\n    /* \"contracts/CurrencyReceiver.sol\":254:2640  contract CurrencyReceiver is ICurrencyReceiver, Ownable {... */\ntag_10:\n  dataSize(sub_0)\n  dup1\n  dataOffset(sub_0)\n  0x00\n  codecopy\n  0x00\n  return\nstop\n\nsub_0: assembly {\n        /* \"contracts/CurrencyReceiver.sol\":254:2640  contract CurrencyReceiver is ICurrencyReceiver, Ownable {... */\n      mstore(0x40, 0x80)\n      callvalue\n      dup1\n      iszero\n      tag_1\n      jumpi\n      0x00\n      dup1\n      revert\n    tag_1:\n      pop\n      jumpi(tag_2, lt(calldatasize, 0x04))\n      shr(0xe0, calldataload(0x00))\n      dup1\n      0x70a08231\n      gt\n      tag_10\n      jumpi\n      dup1\n      0x70a08231\n      eq\n      tag_6\n      jumpi\n      dup1\n      0x715018a6\n      eq\n      tag_7\n      jumpi\n      dup1\n      0x8da5cb5b\n      eq\n      tag_8\n      jumpi\n      dup1\n      0xf2fde38b\n      eq\n      tag_9\n      jumpi\n      jump(tag_2)\n    tag_10:\n      dup1\n      0x17e78b6c\n      eq\n      tag_3\n      jumpi\n      dup1\n      0x4a4bdb30\n      eq\n      tag_4\n      jumpi\n      dup1\n      0x56edb469\n      eq\n      tag_5\n      jumpi\n    tag_2:\n      0x00\n      dup1\n      revert\n        /* \"contracts/CurrencyReceiver.sol\":948:1661  function withdraw(... */\n    tag_3:\n      tag_11\n      0x04\n      dup1\n      calldatasize\n      sub\n      dup2\n      add\n      swap1\n      tag_12\n      swap2\n      swap1\n      tag_13\n      jump\t// in\n    tag_12:\n      tag_14\n      jump\t// in\n    tag_11:\n      stop\n        /* \"contracts/CurrencyReceiver.sol\":432:942  function pay(... */\n    tag_4:\n      tag_15\n      0x04\n      dup1\n      calldatasize\n      sub\n      dup2\n      add\n      swap1\n      tag_16\n      swap2\n      swap1\n      tag_17\n      jump\t// in\n    tag_16:\n      tag_18\n      jump\t// in\n    tag_15:\n      stop\n        /* \"contracts/CurrencyReceiver.sol\":1667:2496  function refund(... */\n    tag_5:\n      tag_19\n      0x04\n      dup1\n      calldatasize\n      sub\n      dup2\n      add\n      swap1\n      tag_20\n      swap2\n      swap1\n      tag_21\n      jump\t// in\n    tag_20:\n      tag_22\n      jump\t// in\n    tag_19:\n      stop\n        /* \"contracts/CurrencyReceiver.sol\":2502:2638  function balanceOf(... */\n    tag_6:\n      tag_23\n      0x04\n      dup1\n      calldatasize\n      sub\n      dup2\n      add\n      swap1\n      tag_24\n      swap2\n      swap1\n      tag_25\n      jump\t// in\n    tag_24:\n      tag_26\n      jump\t// in\n    tag_23:\n      mload(0x40)\n      tag_27\n      swap2\n      swap1\n      tag_28\n      jump\t// in\n    tag_27:\n      mload(0x40)\n      dup1\n      swap2\n      sub\n      swap1\n      return\n        /* \"@openzeppelin/contracts/access/Ownable.sol\":1831:1932  function renounceOwnership() public virtual onlyOwner {... */\n    tag_7:\n      tag_29\n      tag_30\n      jump\t// in\n    tag_29:\n      stop\n        /* \"@openzeppelin/contracts/access/Ownable.sol\":1201:1286  function owner() public view virtual returns (address) {... */\n    tag_8:\n      tag_31\n      tag_32\n      jump\t// in\n    tag_31:\n      mload(0x40)\n      tag_33\n      swap2\n      swap1\n      tag_34\n      jump\t// in\n    tag_33:\n      mload(0x40)\n      dup1\n      swap2\n      sub\n      swap1\n      return\n        /* \"@openzeppelin/contracts/access/Ownable.sol\":2081:2279  function transferOwnership(address newOwner) public virtual onlyOwner {... */\n    tag_9:\n      tag_35\n      0x04\n      dup1\n      calldatasize\n      sub\n      dup2\n      add\n      swap1\n      tag_36\n      swap2\n      swap1\n      tag_25\n      jump\t// in\n    tag_36:\n      tag_37\n      jump\t// in\n    tag_35:\n      stop\n        /* \"contracts/CurrencyReceiver.sol\":948:1661  function withdraw(... */\n    tag_14:\n        /* \"@openzeppelin/contracts/access/Ownable.sol\":1094:1107  _checkOwner() */\n      tag_39\n        /* \"@openzeppelin/contracts/access/Ownable.sol\":1094:1105  _checkOwner */\n      tag_40\n        /* \"@openzeppelin/contracts/access/Ownable.sol\":1094:1107  _checkOwner() */\n      jump\t// in\n    tag_39:\n        /* \"contracts/CurrencyReceiver.sol\":1140:1141  0 */\n      0x00\n        /* \"contracts/CurrencyReceiver.sol\":1122:1130  currency */\n      dup7\n      dup7\n        /* \"contracts/CurrencyReceiver.sol\":1122:1137  currency.length */\n      swap1\n      pop\n        /* \"contracts/CurrencyReceiver.sol\":1122:1141  currency.length > 0 */\n      gt\n        /* \"contracts/CurrencyReceiver.sol\":1114:1158  require(currency.length > 0,\"currency fail\") */\n      tag_42\n      jumpi\n      mload(0x40)\n      0x08c379a000000000000000000000000000000000000000000000000000000000\n      dup2\n      mstore\n      0x04\n      add\n      tag_43\n      swap1\n      tag_44\n      jump\t// in\n    tag_43:\n      mload(0x40)\n      dup1\n      swap2\n      sub\n      swap1\n      revert\n    tag_42:\n        /* \"contracts/CurrencyReceiver.sol\":1195:1201  amount */\n      dup4\n      dup4\n        /* \"contracts/CurrencyReceiver.sol\":1195:1208  amount.length */\n      swap1\n      pop\n        /* \"contracts/CurrencyReceiver.sol\":1176:1184  currency */\n      dup7\n      dup7\n        /* \"contracts/CurrencyReceiver.sol\":1176:1191  currency.length */\n      swap1\n      pop\n        /* \"contracts/CurrencyReceiver.sol\":1176:1208  currency.length == amount.length */\n      eq\n        /* \"contracts/CurrencyReceiver.sol\":1168:1235  require(currency.length == amount.length,\"currency or amount fail\") */\n      tag_45\n      jumpi\n      mload(0x40)\n      0x08c379a000000000000000000000000000000000000000000000000000000000\n      dup2\n      mstore\n      0x04\n      add\n      tag_46\n      swap1\n      tag_47\n      jump\t// in\n    tag_46:\n      mload(0x40)\n      dup1\n      swap2\n      sub\n      swap1\n      revert\n    tag_45:\n        /* \"contracts/CurrencyReceiver.sol\":1246:1256  address to */\n      0x00\n        /* \"contracts/CurrencyReceiver.sol\":1259:1266  owner() */\n      tag_48\n        /* \"contracts/CurrencyReceiver.sol\":1259:1264  owner */\n      tag_32\n        /* \"contracts/CurrencyReceiver.sol\":1259:1266  owner() */\n      jump\t// in\n    tag_48:\n        /* \"contracts/CurrencyReceiver.sol\":1246:1266  address to = owner() */\n      swap1\n      pop\n        /* \"contracts/CurrencyReceiver.sol\":1281:1290  uint256 i */\n      0x00\n        /* \"contracts/CurrencyReceiver.sol\":1277:1596  for(uint256 i=0;i<currency.length;i++) {... */\n    tag_49:\n        /* \"contracts/CurrencyReceiver.sol\":1295:1303  currency */\n      dup8\n      dup8\n        /* \"contracts/CurrencyReceiver.sol\":1295:1310  currency.length */\n      swap1\n      pop\n        /* \"contracts/CurrencyReceiver.sol\":1293:1294  i */\n      dup2\n        /* \"contracts/CurrencyReceiver.sol\":1293:1310  i<currency.length */\n      lt\n        /* \"contracts/CurrencyReceiver.sol\":1277:1596  for(uint256 i=0;i<currency.length;i++) {... */\n      iszero\n      tag_50\n      jumpi\n        /* \"contracts/CurrencyReceiver.sol\":1350:1351  0 */\n      0x00\n        /* \"contracts/CurrencyReceiver.sol\":1338:1344  amount */\n      dup7\n      dup7\n        /* \"contracts/CurrencyReceiver.sol\":1345:1346  i */\n      dup4\n        /* \"contracts/CurrencyReceiver.sol\":1338:1347  amount[i] */\n      dup2\n      dup2\n      lt\n      tag_52\n      jumpi\n      tag_53\n      tag_54\n      jump\t// in\n    tag_53:\n    tag_52:\n      swap1\n      pop\n      0x20\n      mul\n      add\n      calldataload\n        /* \"contracts/CurrencyReceiver.sol\":1338:1351  amount[i] > 0 */\n      gt\n        /* \"contracts/CurrencyReceiver.sol\":1330:1367  require(amount[i] > 0, \"amount fail\") */\n      tag_55\n      jumpi\n      mload(0x40)\n      0x08c379a000000000000000000000000000000000000000000000000000000000\n      dup2\n      mstore\n      0x04\n      add\n      tag_56\n      swap1\n      tag_57\n      jump\t// in\n    tag_56:\n      mload(0x40)\n      dup1\n      swap2\n      sub\n      swap1\n      revert\n    tag_55:\n        /* \"contracts/CurrencyReceiver.sol\":1402:1412  _balanceOf */\n      0x01\n        /* \"contracts/CurrencyReceiver.sol\":1402:1425  _balanceOf[currency[i]] */\n      0x00\n        /* \"contracts/CurrencyReceiver.sol\":1413:1421  currency */\n      dup10\n      dup10\n        /* \"contracts/CurrencyReceiver.sol\":1422:1423  i */\n      dup5\n        /* \"contracts/CurrencyReceiver.sol\":1413:1424  currency[i] */\n      dup2\n      dup2\n      lt\n      tag_58\n      jumpi\n      tag_59\n      tag_54\n      jump\t// in\n    tag_59:\n    tag_58:\n      swap1\n      pop\n      0x20\n      mul\n      add\n      0x20\n      dup2\n      add\n      swap1\n      tag_60\n      swap2\n      swap1\n      tag_25\n      jump\t// in\n    tag_60:\n        /* \"contracts/CurrencyReceiver.sol\":1402:1425  _balanceOf[currency[i]] */\n      0xffffffffffffffffffffffffffffffffffffffff\n      and\n      0xffffffffffffffffffffffffffffffffffffffff\n      and\n      dup2\n      mstore\n      0x20\n      add\n      swap1\n      dup2\n      mstore\n      0x20\n      add\n      0x00\n      keccak256\n      sload\n        /* \"contracts/CurrencyReceiver.sol\":1389:1395  amount */\n      dup7\n      dup7\n        /* \"contracts/CurrencyReceiver.sol\":1396:1397  i */\n      dup4\n        /* \"contracts/CurrencyReceiver.sol\":1389:1398  amount[i] */\n      dup2\n      dup2\n      lt\n      tag_61\n      jumpi\n      tag_62\n      tag_54\n      jump\t// in\n    tag_62:\n    tag_61:\n      swap1\n      pop\n      0x20\n      mul\n      add\n      calldataload\n        /* \"contracts/CurrencyReceiver.sol\":1389:1425  amount[i] <= _balanceOf[currency[i]] */\n      gt\n      iszero\n        /* \"contracts/CurrencyReceiver.sol\":1381:1450  require(amount[i] <= _balanceOf[currency[i]], \"Insufficient balance\") */\n      tag_63\n      jumpi\n      mload(0x40)\n      0x08c379a000000000000000000000000000000000000000000000000000000000\n      dup2\n      mstore\n      0x04\n      add\n      tag_64\n      swap1\n      tag_65\n      jump\t// in\n    tag_64:\n      mload(0x40)\n      dup1\n      swap2\n      sub\n      swap1\n      revert\n    tag_63:\n        /* \"contracts/CurrencyReceiver.sol\":1464:1510  IERC20(currency[i]).safeTransfer(to,amount[i]) */\n      tag_66\n        /* \"contracts/CurrencyReceiver.sol\":1497:1499  to */\n      dup3\n        /* \"contracts/CurrencyReceiver.sol\":1500:1506  amount */\n      dup8\n      dup8\n        /* \"contracts/CurrencyReceiver.sol\":1507:1508  i */\n      dup5\n        /* \"contracts/CurrencyReceiver.sol\":1500:1509  amount[i] */\n      dup2\n      dup2\n      lt\n      tag_67\n      jumpi\n      tag_68\n      tag_54\n      jump\t// in\n    tag_68:\n    tag_67:\n      swap1\n      pop\n      0x20\n      mul\n      add\n      calldataload\n        /* \"contracts/CurrencyReceiver.sol\":1471:1479  currency */\n      dup11\n      dup11\n        /* \"contracts/CurrencyReceiver.sol\":1480:1481  i */\n      dup6\n        /* \"contracts/CurrencyReceiver.sol\":1471:1482  currency[i] */\n      dup2\n      dup2\n      lt\n      tag_69\n      jumpi\n      tag_70\n      tag_54\n      jump\t// in\n    tag_70:\n    tag_69:\n      swap1\n      pop\n      0x20\n      mul\n      add\n      0x20\n      dup2\n      add\n      swap1\n      tag_71\n      swap2\n      swap1\n      tag_25\n      jump\t// in\n    tag_71:\n        /* \"contracts/CurrencyReceiver.sol\":1464:1496  IERC20(currency[i]).safeTransfer */\n      0xffffffffffffffffffffffffffffffffffffffff\n      and\n      tag_72\n      swap1\n        /* \"contracts/CurrencyReceiver.sol\":1464:1510  IERC20(currency[i]).safeTransfer(to,amount[i]) */\n      swap3\n      swap2\n      swap1\n      0xffffffff\n      and\n      jump\t// in\n    tag_66:\n        /* \"contracts/CurrencyReceiver.sol\":1576:1582  amount */\n      dup6\n      dup6\n        /* \"contracts/CurrencyReceiver.sol\":1583:1584  i */\n      dup3\n        /* \"contracts/CurrencyReceiver.sol\":1576:1585  amount[i] */\n      dup2\n      dup2\n      lt\n      tag_73\n      jumpi\n      tag_74\n      tag_54\n      jump\t// in\n    tag_74:\n    tag_73:\n      swap1\n      pop\n      0x20\n      mul\n      add\n      calldataload\n        /* \"contracts/CurrencyReceiver.sol\":1550:1560  _balanceOf */\n      0x01\n        /* \"contracts/CurrencyReceiver.sol\":1550:1573  _balanceOf[currency[i]] */\n      0x00\n        /* \"contracts/CurrencyReceiver.sol\":1561:1569  currency */\n      dup11\n      dup11\n        /* \"contracts/CurrencyReceiver.sol\":1570:1571  i */\n      dup6\n        /* \"contracts/CurrencyReceiver.sol\":1561:1572  currency[i] */\n      dup2\n      dup2\n      lt\n      tag_75\n      jumpi\n      tag_76\n      tag_54\n      jump\t// in\n    tag_76:\n    tag_75:\n      swap1\n      pop\n      0x20\n      mul\n      add\n      0x20\n      dup2\n      add\n      swap1\n      tag_77\n      swap2\n      swap1\n      tag_25\n      jump\t// in\n    tag_77:\n        /* \"contracts/CurrencyReceiver.sol\":1550:1573  _balanceOf[currency[i]] */\n      0xffffffffffffffffffffffffffffffffffffffff\n      and\n      0xffffffffffffffffffffffffffffffffffffffff\n      and\n      dup2\n      mstore\n      0x20\n      add\n      swap1\n      dup2\n      mstore\n      0x20\n      add\n      0x00\n      keccak256\n      sload\n        /* \"contracts/CurrencyReceiver.sol\":1550:1585  _balanceOf[currency[i]] - amount[i] */\n      tag_78\n      swap2\n      swap1\n      tag_79\n      jump\t// in\n    tag_78:\n        /* \"contracts/CurrencyReceiver.sol\":1524:1534  _balanceOf */\n      0x01\n        /* \"contracts/CurrencyReceiver.sol\":1524:1547  _balanceOf[currency[i]] */\n      0x00\n        /* \"contracts/CurrencyReceiver.sol\":1535:1543  currency */\n      dup11\n      dup11\n        /* \"contracts/CurrencyReceiver.sol\":1544:1545  i */\n      dup6\n        /* \"contracts/CurrencyReceiver.sol\":1535:1546  currency[i] */\n      dup2\n      dup2\n      lt\n      tag_80\n      jumpi\n      tag_81\n      tag_54\n      jump\t// in\n    tag_81:\n    tag_80:\n      swap1\n      pop\n      0x20\n      mul\n      add\n      0x20\n      dup2\n      add\n      swap1\n      tag_82\n      swap2\n      swap1\n      tag_25\n      jump\t// in\n    tag_82:\n        /* \"contracts/CurrencyReceiver.sol\":1524:1547  _balanceOf[currency[i]] */\n      0xffffffffffffffffffffffffffffffffffffffff\n      and\n      0xffffffffffffffffffffffffffffffffffffffff\n      and\n      dup2\n      mstore\n      0x20\n      add\n      swap1\n      dup2\n      mstore\n      0x20\n      add\n      0x00\n      keccak256\n        /* \"contracts/CurrencyReceiver.sol\":1524:1585  _balanceOf[currency[i]] = _balanceOf[currency[i]] - amount[i] */\n      dup2\n      swap1\n      sstore\n      pop\n        /* \"contracts/CurrencyReceiver.sol\":1311:1314  i++ */\n      dup1\n      dup1\n      tag_83\n      swap1\n      tag_84\n      jump\t// in\n    tag_83:\n      swap2\n      pop\n      pop\n        /* \"contracts/CurrencyReceiver.sol\":1277:1596  for(uint256 i=0;i<currency.length;i++) {... */\n      jump(tag_49)\n    tag_50:\n      pop\n        /* \"contracts/CurrencyReceiver.sol\":1644:1646  to */\n      dup1\n        /* \"contracts/CurrencyReceiver.sol\":1619:1654  Withdraw(currency,amount,to,billId) */\n      0xffffffffffffffffffffffffffffffffffffffff\n      and\n        /* \"contracts/CurrencyReceiver.sol\":1628:1636  currency */\n      dup8\n      dup8\n        /* \"contracts/CurrencyReceiver.sol\":1619:1654  Withdraw(currency,amount,to,billId) */\n      mload(0x40)\n      tag_85\n      swap3\n      swap2\n      swap1\n      tag_86\n      jump\t// in\n    tag_85:\n      mload(0x40)\n      dup1\n      swap2\n      sub\n      swap1\n      keccak256\n      0x246131af8b217ee0901b4b5a97b3dc7ebf85c4565198d26948c19055597fc002\n        /* \"contracts/CurrencyReceiver.sol\":1637:1643  amount */\n      dup8\n      dup8\n        /* \"contracts/CurrencyReceiver.sol\":1647:1653  billId */\n      dup8\n      dup8\n        /* \"contracts/CurrencyReceiver.sol\":1619:1654  Withdraw(currency,amount,to,billId) */\n      mload(0x40)\n      tag_87\n      swap5\n      swap4\n      swap3\n      swap2\n      swap1\n      tag_88\n      jump\t// in\n    tag_87:\n      mload(0x40)\n      dup1\n      swap2\n      sub\n      swap1\n      log3\n        /* \"contracts/CurrencyReceiver.sol\":1104:1661  {... */\n      pop\n        /* \"contracts/CurrencyReceiver.sol\":948:1661  function withdraw(... */\n      pop\n      pop\n      pop\n      pop\n      pop\n      pop\n      jump\t// out\n        /* \"contracts/CurrencyReceiver.sol\":432:942  function pay(... */\n    tag_18:\n        /* \"contracts/CurrencyReceiver.sol\":590:591  0 */\n      0x00\n        /* \"contracts/CurrencyReceiver.sol\":570:592  currency != address(0) */\n      0xffffffffffffffffffffffffffffffffffffffff\n      and\n        /* \"contracts/CurrencyReceiver.sol\":570:578  currency */\n      dup5\n        /* \"contracts/CurrencyReceiver.sol\":570:592  currency != address(0) */\n      0xffffffffffffffffffffffffffffffffffffffff\n      and\n      sub\n        /* \"contracts/CurrencyReceiver.sol\":562:609  require(currency != address(0),\"currency fail\") */\n      tag_90\n      jumpi\n      mload(0x40)\n      0x08c379a000000000000000000000000000000000000000000000000000000000\n      dup2\n      mstore\n      0x04\n      add\n      tag_91\n      swap1\n      tag_44\n      jump\t// in\n    tag_91:\n      mload(0x40)\n      dup1\n      swap2\n      sub\n      swap1\n      revert\n    tag_90:\n        /* \"contracts/CurrencyReceiver.sol\":636:637  0 */\n      0x00\n        /* \"contracts/CurrencyReceiver.sol\":627:633  amount */\n      dup4\n        /* \"contracts/CurrencyReceiver.sol\":627:637  amount > 0 */\n      gt\n        /* \"contracts/CurrencyReceiver.sol\":619:653  require(amount > 0 ,\"amount fail\") */\n      tag_92\n      jumpi\n      mload(0x40)\n      0x08c379a000000000000000000000000000000000000000000000000000000000\n      dup2\n      mstore\n      0x04\n      add\n      tag_93\n      swap1\n      tag_57\n      jump\t// in\n    tag_93:\n      mload(0x40)\n      dup1\n      swap2\n      sub\n      swap1\n      revert\n    tag_92:\n        /* \"contracts/CurrencyReceiver.sol\":703:713  _balanceOf */\n      0x01\n        /* \"contracts/CurrencyReceiver.sol\":703:723  _balanceOf[currency] */\n      0x00\n        /* \"contracts/CurrencyReceiver.sol\":714:722  currency */\n      dup6\n        /* \"contracts/CurrencyReceiver.sol\":703:723  _balanceOf[currency] */\n      0xffffffffffffffffffffffffffffffffffffffff\n      and\n      0xffffffffffffffffffffffffffffffffffffffff\n      and\n      dup2\n      mstore\n      0x20\n      add\n      swap1\n      dup2\n      mstore\n      0x20\n      add\n      0x00\n      keccak256\n      sload\n        /* \"contracts/CurrencyReceiver.sol\":694:700  amount */\n      dup4\n        /* \"contracts/CurrencyReceiver.sol\":671:681  _balanceOf */\n      0x01\n        /* \"contracts/CurrencyReceiver.sol\":671:691  _balanceOf[currency] */\n      0x00\n        /* \"contracts/CurrencyReceiver.sol\":682:690  currency */\n      dup8\n        /* \"contracts/CurrencyReceiver.sol\":671:691  _balanceOf[currency] */\n      0xffffffffffffffffffffffffffffffffffffffff\n      and\n      0xffffffffffffffffffffffffffffffffffffffff\n      and\n      dup2\n      mstore\n      0x20\n      add\n      swap1\n      dup2\n      mstore\n      0x20\n      add\n      0x00\n      keccak256\n      sload\n        /* \"contracts/CurrencyReceiver.sol\":671:700  _balanceOf[currency] + amount */\n      tag_94\n      swap2\n      swap1\n      tag_95\n      jump\t// in\n    tag_94:\n        /* \"contracts/CurrencyReceiver.sol\":671:723  _balanceOf[currency] + amount > _balanceOf[currency] */\n      gt\n        /* \"contracts/CurrencyReceiver.sol\":663:743  require(_balanceOf[currency] + amount > _balanceOf[currency], \"amount overflow\") */\n      tag_96\n      jumpi\n      mload(0x40)\n      0x08c379a000000000000000000000000000000000000000000000000000000000\n      dup2\n      mstore\n      0x04\n      add\n      tag_97\n      swap1\n      tag_98\n      jump\t// in\n    tag_97:\n      mload(0x40)\n      dup1\n      swap2\n      sub\n      swap1\n      revert\n    tag_96:\n        /* \"contracts/CurrencyReceiver.sol\":753:819  IERC20(currency).safeTransferFrom(msg.sender,address(this),amount) */\n      tag_99\n        /* \"contracts/CurrencyReceiver.sol\":787:797  msg.sender */\n      caller\n        /* \"contracts/CurrencyReceiver.sol\":806:810  this */\n      address\n        /* \"contracts/CurrencyReceiver.sol\":812:818  amount */\n      dup6\n        /* \"contracts/CurrencyReceiver.sol\":760:768  currency */\n      dup8\n        /* \"contracts/CurrencyReceiver.sol\":753:786  IERC20(currency).safeTransferFrom */\n      0xffffffffffffffffffffffffffffffffffffffff\n      and\n      tag_100\n      swap1\n        /* \"contracts/CurrencyReceiver.sol\":753:819  IERC20(currency).safeTransferFrom(msg.sender,address(this),amount) */\n      swap4\n      swap3\n      swap2\n      swap1\n      0xffffffff\n      and\n      jump\t// in\n    tag_99:\n        /* \"contracts/CurrencyReceiver.sol\":875:881  amount */\n      dup3\n        /* \"contracts/CurrencyReceiver.sol\":852:862  _balanceOf */\n      0x01\n        /* \"contracts/CurrencyReceiver.sol\":852:872  _balanceOf[currency] */\n      0x00\n        /* \"contracts/CurrencyReceiver.sol\":863:871  currency */\n      dup7\n        /* \"contracts/CurrencyReceiver.sol\":852:872  _balanceOf[currency] */\n      0xffffffffffffffffffffffffffffffffffffffff\n      and\n      0xffffffffffffffffffffffffffffffffffffffff\n      and\n      dup2\n      mstore\n      0x20\n      add\n      swap1\n      dup2\n      mstore\n      0x20\n      add\n      0x00\n      keccak256\n      sload\n        /* \"contracts/CurrencyReceiver.sol\":852:881  _balanceOf[currency] + amount */\n      tag_101\n      swap2\n      swap1\n      tag_95\n      jump\t// in\n    tag_101:\n        /* \"contracts/CurrencyReceiver.sol\":829:839  _balanceOf */\n      0x01\n        /* \"contracts/CurrencyReceiver.sol\":829:849  _balanceOf[currency] */\n      0x00\n        /* \"contracts/CurrencyReceiver.sol\":840:848  currency */\n      dup7\n        /* \"contracts/CurrencyReceiver.sol\":829:849  _balanceOf[currency] */\n      0xffffffffffffffffffffffffffffffffffffffff\n      and\n      0xffffffffffffffffffffffffffffffffffffffff\n      and\n      dup2\n      mstore\n      0x20\n      add\n      swap1\n      dup2\n      mstore\n      0x20\n      add\n      0x00\n      keccak256\n        /* \"contracts/CurrencyReceiver.sol\":829:881  _balanceOf[currency] = _balanceOf[currency] + amount */\n      dup2\n      swap1\n      sstore\n      pop\n        /* \"contracts/CurrencyReceiver.sol\":909:919  msg.sender */\n      caller\n        /* \"contracts/CurrencyReceiver.sol\":896:935  Pay(currency,msg.sender,amount,orderId) */\n      0xffffffffffffffffffffffffffffffffffffffff\n      and\n        /* \"contracts/CurrencyReceiver.sol\":900:908  currency */\n      dup5\n        /* \"contracts/CurrencyReceiver.sol\":896:935  Pay(currency,msg.sender,amount,orderId) */\n      0xffffffffffffffffffffffffffffffffffffffff\n      and\n      0x5d2ae1cdca5222ec8fffbc4b088f5b5144ad5f4eaf2fc8afc49cd35857671082\n        /* \"contracts/CurrencyReceiver.sol\":920:926  amount */\n      dup6\n        /* \"contracts/CurrencyReceiver.sol\":927:934  orderId */\n      dup6\n      dup6\n        /* \"contracts/CurrencyReceiver.sol\":896:935  Pay(currency,msg.sender,amount,orderId) */\n      mload(0x40)\n      tag_102\n      swap4\n      swap3\n      swap2\n      swap1\n      tag_103\n      jump\t// in\n    tag_102:\n      mload(0x40)\n      dup1\n      swap2\n      sub\n      swap1\n      log3\n        /* \"contracts/CurrencyReceiver.sol\":432:942  function pay(... */\n      pop\n      pop\n      pop\n      pop\n      jump\t// out\n        /* \"contracts/CurrencyReceiver.sol\":1667:2496  function refund(... */\n    tag_22:\n        /* \"@openzeppelin/contracts/access/Ownable.sol\":1094:1107  _checkOwner() */\n      tag_105\n        /* \"@openzeppelin/contracts/access/Ownable.sol\":1094:1105  _checkOwner */\n      tag_40\n        /* \"@openzeppelin/contracts/access/Ownable.sol\":1094:1107  _checkOwner() */\n      jump\t// in\n    tag_105:\n        /* \"contracts/CurrencyReceiver.sol\":1892:1893  0 */\n      0x00\n        /* \"contracts/CurrencyReceiver.sol\":1874:1882  currency */\n      dup9\n      dup9\n        /* \"contracts/CurrencyReceiver.sol\":1874:1889  currency.length */\n      swap1\n      pop\n        /* \"contracts/CurrencyReceiver.sol\":1874:1893  currency.length > 0 */\n      gt\n        /* \"contracts/CurrencyReceiver.sol\":1866:1910  require(currency.length > 0,\"currency fail\") */\n      tag_107\n      jumpi\n      mload(0x40)\n      0x08c379a000000000000000000000000000000000000000000000000000000000\n      dup2\n      mstore\n      0x04\n      add\n      tag_108\n      swap1\n      tag_44\n      jump\t// in\n    tag_108:\n      mload(0x40)\n      dup1\n      swap2\n      sub\n      swap1\n      revert\n    tag_107:\n        /* \"contracts/CurrencyReceiver.sol\":1947:1953  amount */\n      dup6\n      dup6\n        /* \"contracts/CurrencyReceiver.sol\":1947:1960  amount.length */\n      swap1\n      pop\n        /* \"contracts/CurrencyReceiver.sol\":1928:1936  currency */\n      dup9\n      dup9\n        /* \"contracts/CurrencyReceiver.sol\":1928:1943  currency.length */\n      swap1\n      pop\n        /* \"contracts/CurrencyReceiver.sol\":1928:1960  currency.length == amount.length */\n      eq\n        /* \"contracts/CurrencyReceiver.sol\":1920:1975  require(currency.length == amount.length,\"amount fail\") */\n      tag_109\n      jumpi\n      mload(0x40)\n      0x08c379a000000000000000000000000000000000000000000000000000000000\n      dup2\n      mstore\n      0x04\n      add\n      tag_110\n      swap1\n      tag_57\n      jump\t// in\n    tag_110:\n      mload(0x40)\n      dup1\n      swap2\n      sub\n      swap1\n      revert\n    tag_109:\n        /* \"contracts/CurrencyReceiver.sol\":2012:2014  to */\n      dup4\n      dup4\n        /* \"contracts/CurrencyReceiver.sol\":2012:2021  to.length */\n      swap1\n      pop\n        /* \"contracts/CurrencyReceiver.sol\":1993:2001  currency */\n      dup9\n      dup9\n        /* \"contracts/CurrencyReceiver.sol\":1993:2008  currency.length */\n      swap1\n      pop\n        /* \"contracts/CurrencyReceiver.sol\":1993:2021  currency.length == to.length */\n      eq\n        /* \"contracts/CurrencyReceiver.sol\":1985:2032  require(currency.length == to.length,\"to fail\") */\n      tag_111\n      jumpi\n      mload(0x40)\n      0x08c379a000000000000000000000000000000000000000000000000000000000\n      dup2\n      mstore\n      0x04\n      add\n      tag_112\n      swap1\n      tag_113\n      jump\t// in\n    tag_112:\n      mload(0x40)\n      dup1\n      swap2\n      sub\n      swap1\n      revert\n    tag_111:\n        /* \"contracts/CurrencyReceiver.sol\":2069:2076  orderId */\n      dup2\n      dup2\n        /* \"contracts/CurrencyReceiver.sol\":2069:2083  orderId.length */\n      swap1\n      pop\n        /* \"contracts/CurrencyReceiver.sol\":2050:2058  currency */\n      dup9\n      dup9\n        /* \"contracts/CurrencyReceiver.sol\":2050:2065  currency.length */\n      swap1\n      pop\n        /* \"contracts/CurrencyReceiver.sol\":2050:2083  currency.length == orderId.length */\n      eq\n        /* \"contracts/CurrencyReceiver.sol\":2042:2099  require(currency.length == orderId.length,\"orderId fail\") */\n      tag_114\n      jumpi\n      mload(0x40)\n      0x08c379a000000000000000000000000000000000000000000000000000000000\n      dup2\n      mstore\n      0x04\n      add\n      tag_115\n      swap1\n      tag_116\n      jump\t// in\n    tag_115:\n      mload(0x40)\n      dup1\n      swap2\n      sub\n      swap1\n      revert\n    tag_114:\n        /* \"contracts/CurrencyReceiver.sol\":2114:2123  uint256 i */\n      0x00\n        /* \"contracts/CurrencyReceiver.sol\":2110:2432  for(uint256 i=0;i<currency.length;i++) {... */\n    tag_117:\n        /* \"contracts/CurrencyReceiver.sol\":2128:2136  currency */\n      dup9\n      dup9\n        /* \"contracts/CurrencyReceiver.sol\":2128:2143  currency.length */\n      swap1\n      pop\n        /* \"contracts/CurrencyReceiver.sol\":2126:2127  i */\n      dup2\n        /* \"contracts/CurrencyReceiver.sol\":2126:2143  i<currency.length */\n      lt\n        /* \"contracts/CurrencyReceiver.sol\":2110:2432  for(uint256 i=0;i<currency.length;i++) {... */\n      iszero\n      tag_118\n      jumpi\n        /* \"contracts/CurrencyReceiver.sol\":2183:2184  0 */\n      0x00\n        /* \"contracts/CurrencyReceiver.sol\":2171:2177  amount */\n      dup8\n      dup8\n        /* \"contracts/CurrencyReceiver.sol\":2178:2179  i */\n      dup4\n        /* \"contracts/CurrencyReceiver.sol\":2171:2180  amount[i] */\n      dup2\n      dup2\n      lt\n      tag_120\n      jumpi\n      tag_121\n      tag_54\n      jump\t// in\n    tag_121:\n    tag_120:\n      swap1\n      pop\n      0x20\n      mul\n      add\n      calldataload\n        /* \"contracts/CurrencyReceiver.sol\":2171:2184  amount[i] > 0 */\n      gt\n        /* \"contracts/CurrencyReceiver.sol\":2163:2200  require(amount[i] > 0, \"amount fail\") */\n      tag_122\n      jumpi\n      mload(0x40)\n      0x08c379a000000000000000000000000000000000000000000000000000000000\n      dup2\n      mstore\n      0x04\n      add\n      tag_123\n      swap1\n      tag_57\n      jump\t// in\n    tag_123:\n      mload(0x40)\n      dup1\n      swap2\n      sub\n      swap1\n      revert\n    tag_122:\n        /* \"contracts/CurrencyReceiver.sol\":2235:2245  _balanceOf */\n      0x01\n        /* \"contracts/CurrencyReceiver.sol\":2235:2258  _balanceOf[currency[i]] */\n      0x00\n        /* \"contracts/CurrencyReceiver.sol\":2246:2254  currency */\n      dup11\n      dup11\n        /* \"contracts/CurrencyReceiver.sol\":2255:2256  i */\n      dup5\n        /* \"contracts/CurrencyReceiver.sol\":2246:2257  currency[i] */\n      dup2\n      dup2\n      lt\n      tag_124\n      jumpi\n      tag_125\n      tag_54\n      jump\t// in\n    tag_125:\n    tag_124:\n      swap1\n      pop\n      0x20\n      mul\n      add\n      0x20\n      dup2\n      add\n      swap1\n      tag_126\n      swap2\n      swap1\n      tag_25\n      jump\t// in\n    tag_126:\n        /* \"contracts/CurrencyReceiver.sol\":2235:2258  _balanceOf[currency[i]] */\n      0xffffffffffffffffffffffffffffffffffffffff\n      and\n      0xffffffffffffffffffffffffffffffffffffffff\n      and\n      dup2\n      mstore\n      0x20\n      add\n      swap1\n      dup2\n      mstore\n      0x20\n      add\n      0x00\n      keccak256\n      sload\n        /* \"contracts/CurrencyReceiver.sol\":2222:2228  amount */\n      dup8\n      dup8\n        /* \"contracts/CurrencyReceiver.sol\":2229:2230  i */\n      dup4\n        /* \"contracts/CurrencyReceiver.sol\":2222:2231  amount[i] */\n      dup2\n      dup2\n      lt\n      tag_127\n      jumpi\n      tag_128\n      tag_54\n      jump\t// in\n    tag_128:\n    tag_127:\n      swap1\n      pop\n      0x20\n      mul\n      add\n      calldataload\n        /* \"contracts/CurrencyReceiver.sol\":2222:2258  amount[i] <= _balanceOf[currency[i]] */\n      gt\n      iszero\n        /* \"contracts/CurrencyReceiver.sol\":2214:2283  require(amount[i] <= _balanceOf[currency[i]], \"Insufficient balance\") */\n      tag_129\n      jumpi\n      mload(0x40)\n      0x08c379a000000000000000000000000000000000000000000000000000000000\n      dup2\n      mstore\n      0x04\n      add\n      tag_130\n      swap1\n      tag_65\n      jump\t// in\n    tag_130:\n      mload(0x40)\n      dup1\n      swap2\n      sub\n      swap1\n      revert\n    tag_129:\n        /* \"contracts/CurrencyReceiver.sol\":2297:2346  IERC20(currency[i]).safeTransfer(to[i],amount[i]) */\n      tag_131\n        /* \"contracts/CurrencyReceiver.sol\":2330:2332  to */\n      dup6\n      dup6\n        /* \"contracts/CurrencyReceiver.sol\":2333:2334  i */\n      dup4\n        /* \"contracts/CurrencyReceiver.sol\":2330:2335  to[i] */\n      dup2\n      dup2\n      lt\n      tag_132\n      jumpi\n      tag_133\n      tag_54\n      jump\t// in\n    tag_133:\n    tag_132:\n      swap1\n      pop\n      0x20\n      mul\n      add\n      0x20\n      dup2\n      add\n      swap1\n      tag_134\n      swap2\n      swap1\n      tag_25\n      jump\t// in\n    tag_134:\n        /* \"contracts/CurrencyReceiver.sol\":2336:2342  amount */\n      dup9\n      dup9\n        /* \"contracts/CurrencyReceiver.sol\":2343:2344  i */\n      dup5\n        /* \"contracts/CurrencyReceiver.sol\":2336:2345  amount[i] */\n      dup2\n      dup2\n      lt\n      tag_135\n      jumpi\n      tag_136\n      tag_54\n      jump\t// in\n    tag_136:\n    tag_135:\n      swap1\n      pop\n      0x20\n      mul\n      add\n      calldataload\n        /* \"contracts/CurrencyReceiver.sol\":2304:2312  currency */\n      dup12\n      dup12\n        /* \"contracts/CurrencyReceiver.sol\":2313:2314  i */\n      dup6\n        /* \"contracts/CurrencyReceiver.sol\":2304:2315  currency[i] */\n      dup2\n      dup2\n      lt\n      tag_137\n      jumpi\n      tag_138\n      tag_54\n      jump\t// in\n    tag_138:\n    tag_137:\n      swap1\n      pop\n      0x20\n      mul\n      add\n      0x20\n      dup2\n      add\n      swap1\n      tag_139\n      swap2\n      swap1\n      tag_25\n      jump\t// in\n    tag_139:\n        /* \"contracts/CurrencyReceiver.sol\":2297:2329  IERC20(currency[i]).safeTransfer */\n      0xffffffffffffffffffffffffffffffffffffffff\n      and\n      tag_72\n      swap1\n        /* \"contracts/CurrencyReceiver.sol\":2297:2346  IERC20(currency[i]).safeTransfer(to[i],amount[i]) */\n      swap3\n      swap2\n      swap1\n      0xffffffff\n      and\n      jump\t// in\n    tag_131:\n        /* \"contracts/CurrencyReceiver.sol\":2412:2418  amount */\n      dup7\n      dup7\n        /* \"contracts/CurrencyReceiver.sol\":2419:2420  i */\n      dup3\n        /* \"contracts/CurrencyReceiver.sol\":2412:2421  amount[i] */\n      dup2\n      dup2\n      lt\n      tag_140\n      jumpi\n      tag_141\n      tag_54\n      jump\t// in\n    tag_141:\n    tag_140:\n      swap1\n      pop\n      0x20\n      mul\n      add\n      calldataload\n        /* \"contracts/CurrencyReceiver.sol\":2386:2396  _balanceOf */\n      0x01\n        /* \"contracts/CurrencyReceiver.sol\":2386:2409  _balanceOf[currency[i]] */\n      0x00\n        /* \"contracts/CurrencyReceiver.sol\":2397:2405  currency */\n      dup12\n      dup12\n        /* \"contracts/CurrencyReceiver.sol\":2406:2407  i */\n      dup6\n        /* \"contracts/CurrencyReceiver.sol\":2397:2408  currency[i] */\n      dup2\n      dup2\n      lt\n      tag_142\n      jumpi\n      tag_143\n      tag_54\n      jump\t// in\n    tag_143:\n    tag_142:\n      swap1\n      pop\n      0x20\n      mul\n      add\n      0x20\n      dup2\n      add\n      swap1\n      tag_144\n      swap2\n      swap1\n      tag_25\n      jump\t// in\n    tag_144:\n        /* \"contracts/CurrencyReceiver.sol\":2386:2409  _balanceOf[currency[i]] */\n      0xffffffffffffffffffffffffffffffffffffffff\n      and\n      0xffffffffffffffffffffffffffffffffffffffff\n      and\n      dup2\n      mstore\n      0x20\n      add\n      swap1\n      dup2\n      mstore\n      0x20\n      add\n      0x00\n      keccak256\n      sload\n        /* \"contracts/CurrencyReceiver.sol\":2386:2421  _balanceOf[currency[i]] - amount[i] */\n      tag_145\n      swap2\n      swap1\n      tag_79\n      jump\t// in\n    tag_145:\n        /* \"contracts/CurrencyReceiver.sol\":2360:2370  _balanceOf */\n      0x01\n        /* \"contracts/CurrencyReceiver.sol\":2360:2383  _balanceOf[currency[i]] */\n      0x00\n        /* \"contracts/CurrencyReceiver.sol\":2371:2379  currency */\n      dup12\n      dup12\n        /* \"contracts/CurrencyReceiver.sol\":2380:2381  i */\n      dup6\n        /* \"contracts/CurrencyReceiver.sol\":2371:2382  currency[i] */\n      dup2\n      dup2\n      lt\n      tag_146\n      jumpi\n      tag_147\n      tag_54\n      jump\t// in\n    tag_147:\n    tag_146:\n      swap1\n      pop\n      0x20\n      mul\n      add\n      0x20\n      dup2\n      add\n      swap1\n      tag_148\n      swap2\n      swap1\n      tag_25\n      jump\t// in\n    tag_148:\n        /* \"contracts/CurrencyReceiver.sol\":2360:2383  _balanceOf[currency[i]] */\n      0xffffffffffffffffffffffffffffffffffffffff\n      and\n      0xffffffffffffffffffffffffffffffffffffffff\n      and\n      dup2\n      mstore\n      0x20\n      add\n      swap1\n      dup2\n      mstore\n      0x20\n      add\n      0x00\n      keccak256\n        /* \"contracts/CurrencyReceiver.sol\":2360:2421  _balanceOf[currency[i]] = _balanceOf[currency[i]] - amount[i] */\n      dup2\n      swap1\n      sstore\n      pop\n        /* \"contracts/CurrencyReceiver.sol\":2144:2147  i++ */\n      dup1\n      dup1\n      tag_149\n      swap1\n      tag_84\n      jump\t// in\n    tag_149:\n      swap2\n      pop\n      pop\n        /* \"contracts/CurrencyReceiver.sol\":2110:2432  for(uint256 i=0;i<currency.length;i++) {... */\n      jump(tag_117)\n    tag_118:\n      pop\n        /* \"contracts/CurrencyReceiver.sol\":2478:2480  to */\n      dup4\n      dup4\n        /* \"contracts/CurrencyReceiver.sol\":2455:2489  Refund(currency,amount,to,orderId) */\n      mload(0x40)\n      tag_150\n      swap3\n      swap2\n      swap1\n      tag_86\n      jump\t// in\n    tag_150:\n      mload(0x40)\n      dup1\n      swap2\n      sub\n      swap1\n      keccak256\n        /* \"contracts/CurrencyReceiver.sol\":2462:2470  currency */\n      dup9\n      dup9\n        /* \"contracts/CurrencyReceiver.sol\":2455:2489  Refund(currency,amount,to,orderId) */\n      mload(0x40)\n      tag_151\n      swap3\n      swap2\n      swap1\n      tag_86\n      jump\t// in\n    tag_151:\n      mload(0x40)\n      dup1\n      swap2\n      sub\n      swap1\n      keccak256\n      0xa00a8aecfc1929afaf83d428e7b217b6626396c9dd39ad9f5d7327a0bb5e4d13\n        /* \"contracts/CurrencyReceiver.sol\":2471:2477  amount */\n      dup9\n      dup9\n        /* \"contracts/CurrencyReceiver.sol\":2481:2488  orderId */\n      dup7\n      dup7\n        /* \"contracts/CurrencyReceiver.sol\":2455:2489  Refund(currency,amount,to,orderId) */\n      mload(0x40)\n      tag_152\n      swap5\n      swap4\n      swap3\n      swap2\n      swap1\n      tag_153\n      jump\t// in\n    tag_152:\n      mload(0x40)\n      dup1\n      swap2\n      sub\n      swap1\n      log3\n        /* \"contracts/CurrencyReceiver.sol\":1667:2496  function refund(... */\n      pop\n      pop\n      pop\n      pop\n      pop\n      pop\n      pop\n      pop\n      jump\t// out\n        /* \"contracts/CurrencyReceiver.sol\":2502:2638  function balanceOf(... */\n    tag_26:\n        /* \"contracts/CurrencyReceiver.sol\":2585:2592  uint256 */\n      0x00\n        /* \"contracts/CurrencyReceiver.sol\":2611:2621  _balanceOf */\n      0x01\n        /* \"contracts/CurrencyReceiver.sol\":2611:2631  _balanceOf[currency] */\n      0x00\n        /* \"contracts/CurrencyReceiver.sol\":2622:2630  currency */\n      dup4\n        /* \"contracts/CurrencyReceiver.sol\":2611:2631  _balanceOf[currency] */\n      0xffffffffffffffffffffffffffffffffffffffff\n      and\n      0xffffffffffffffffffffffffffffffffffffffff\n      and\n      dup2\n      mstore\n      0x20\n      add\n      swap1\n      dup2\n      mstore\n      0x20\n      add\n      0x00\n      keccak256\n      sload\n        /* \"contracts/CurrencyReceiver.sol\":2604:2631  return _balanceOf[currency] */\n      swap1\n      pop\n        /* \"contracts/CurrencyReceiver.sol\":2502:2638  function balanceOf(... */\n      swap2\n      swap1\n      pop\n      jump\t// out\n        /* \"@openzeppelin/contracts/access/Ownable.sol\":1831:1932  function renounceOwnership() public virtual onlyOwner {... */\n    tag_30:\n        /* \"@openzeppelin/contracts/access/Ownable.sol\":1094:1107  _checkOwner() */\n      tag_156\n        /* \"@openzeppelin/contracts/access/Ownable.sol\":1094:1105  _checkOwner */\n      tag_40\n        /* \"@openzeppelin/contracts/access/Ownable.sol\":1094:1107  _checkOwner() */\n      jump\t// in\n    tag_156:\n        /* \"@openzeppelin/contracts/access/Ownable.sol\":1895:1925  _transferOwnership(address(0)) */\n      tag_158\n        /* \"@openzeppelin/contracts/access/Ownable.sol\":1922:1923  0 */\n      0x00\n        /* \"@openzeppelin/contracts/access/Ownable.sol\":1895:1913  _transferOwnership */\n      tag_159\n        /* \"@openzeppelin/contracts/access/Ownable.sol\":1895:1925  _transferOwnership(address(0)) */\n      jump\t// in\n    tag_158:\n        /* \"@openzeppelin/contracts/access/Ownable.sol\":1831:1932  function renounceOwnership() public virtual onlyOwner {... */\n      jump\t// out\n        /* \"@openzeppelin/contracts/access/Ownable.sol\":1201:1286  function owner() public view virtual returns (address) {... */\n    tag_32:\n        /* \"@openzeppelin/contracts/access/Ownable.sol\":1247:1254  address */\n      0x00\n        /* \"@openzeppelin/contracts/access/Ownable.sol\":1273:1279  _owner */\n      dup1\n      0x00\n      swap1\n      sload\n      swap1\n      0x0100\n      exp\n      swap1\n      div\n      0xffffffffffffffffffffffffffffffffffffffff\n      and\n        /* \"@openzeppelin/contracts/access/Ownable.sol\":1266:1279  return _owner */\n      swap1\n      pop\n        /* \"@openzeppelin/contracts/access/Ownable.sol\":1201:1286  function owner() public view virtual returns (address) {... */\n      swap1\n      jump\t// out\n        /* \"@openzeppelin/contracts/access/Ownable.sol\":2081:2279  function transferOwnership(address newOwner) public virtual onlyOwner {... */\n    tag_37:\n        /* \"@openzeppelin/contracts/access/Ownable.sol\":1094:1107  _checkOwner() */\n      tag_162\n        /* \"@openzeppelin/contracts/access/Ownable.sol\":1094:1105  _checkOwner */\n      tag_40\n        /* \"@openzeppelin/contracts/access/Ownable.sol\":1094:1107  _checkOwner() */\n      jump\t// in\n    tag_162:\n        /* \"@openzeppelin/contracts/access/Ownable.sol\":2189:2190  0 */\n      0x00\n        /* \"@openzeppelin/contracts/access/Ownable.sol\":2169:2191  newOwner != address(0) */\n      0xffffffffffffffffffffffffffffffffffffffff\n      and\n        /* \"@openzeppelin/contracts/access/Ownable.sol\":2169:2177  newOwner */\n      dup2\n        /* \"@openzeppelin/contracts/access/Ownable.sol\":2169:2191  newOwner != address(0) */\n      0xffffffffffffffffffffffffffffffffffffffff\n      and\n      sub\n        /* \"@openzeppelin/contracts/access/Ownable.sol\":2161:2234  require(newOwner != address(0), \"Ownable: new owner is the zero address\") */\n      tag_164\n      jumpi\n      mload(0x40)\n      0x08c379a000000000000000000000000000000000000000000000000000000000\n      dup2\n      mstore\n      0x04\n      add\n      tag_165\n      swap1\n      tag_166\n      jump\t// in\n    tag_165:\n      mload(0x40)\n      dup1\n      swap2\n      sub\n      swap1\n      revert\n    tag_164:\n        /* \"@openzeppelin/contracts/access/Ownable.sol\":2244:2272  _transferOwnership(newOwner) */\n      tag_167\n        /* \"@openzeppelin/contracts/access/Ownable.sol\":2263:2271  newOwner */\n      dup2\n        /* \"@openzeppelin/contracts/access/Ownable.sol\":2244:2262  _transferOwnership */\n      tag_159\n        /* \"@openzeppelin/contracts/access/Ownable.sol\":2244:2272  _transferOwnership(newOwner) */\n      jump\t// in\n    tag_167:\n        /* \"@openzeppelin/contracts/access/Ownable.sol\":2081:2279  function transferOwnership(address newOwner) public virtual onlyOwner {... */\n      pop\n      jump\t// out\n        /* \"@openzeppelin/contracts/access/Ownable.sol\":1359:1489  function _checkOwner() internal view virtual {... */\n    tag_40:\n        /* \"@openzeppelin/contracts/access/Ownable.sol\":1433:1445  _msgSender() */\n      tag_169\n        /* \"@openzeppelin/contracts/access/Ownable.sol\":1433:1443  _msgSender */\n      tag_170\n        /* \"@openzeppelin/contracts/access/Ownable.sol\":1433:1445  _msgSender() */\n      jump\t// in\n    tag_169:\n        /* \"@openzeppelin/contracts/access/Ownable.sol\":1422:1445  owner() == _msgSender() */\n      0xffffffffffffffffffffffffffffffffffffffff\n      and\n        /* \"@openzeppelin/contracts/access/Ownable.sol\":1422:1429  owner() */\n      tag_171\n        /* \"@openzeppelin/contracts/access/Ownable.sol\":1422:1427  owner */\n      tag_32\n        /* \"@openzeppelin/contracts/access/Ownable.sol\":1422:1429  owner() */\n      jump\t// in\n    tag_171:\n        /* \"@openzeppelin/contracts/access/Ownable.sol\":1422:1445  owner() == _msgSender() */\n      0xffffffffffffffffffffffffffffffffffffffff\n      and\n      eq\n        /* \"@openzeppelin/contracts/access/Ownable.sol\":1414:1482  require(owner() == _msgSender(), \"Ownable: caller is not the owner\") */\n      tag_172\n      jumpi\n      mload(0x40)\n      0x08c379a000000000000000000000000000000000000000000000000000000000\n      dup2\n      mstore\n      0x04\n      add\n      tag_173\n      swap1\n      tag_174\n      jump\t// in\n    tag_173:\n      mload(0x40)\n      dup1\n      swap2\n      sub\n      swap1\n      revert\n    tag_172:\n        /* \"@openzeppelin/contracts/access/Ownable.sol\":1359:1489  function _checkOwner() internal view virtual {... */\n      jump\t// out\n        /* \"@openzeppelin/contracts/token/ERC20/utils/SafeERC20.sol\":763:968  function safeTransfer(... */\n    tag_72:\n        /* \"@openzeppelin/contracts/token/ERC20/utils/SafeERC20.sol\":875:961  _callOptionalReturn(token, abi.encodeWithSelector(token.transfer.selector, to, value)) */\n      tag_176\n        /* \"@openzeppelin/contracts/token/ERC20/utils/SafeERC20.sol\":895:900  token */\n      dup4\n        /* \"@openzeppelin/contracts/token/ERC20/utils/SafeERC20.sol\":925:948  token.transfer.selector */\n      shl(0xe0, 0xa9059cbb)\n        /* \"@openzeppelin/contracts/token/ERC20/utils/SafeERC20.sol\":950:952  to */\n      dup5\n        /* \"@openzeppelin/contracts/token/ERC20/utils/SafeERC20.sol\":954:959  value */\n      dup5\n        /* \"@openzeppelin/contracts/token/ERC20/utils/SafeERC20.sol\":902:960  abi.encodeWithSelector(token.transfer.selector, to, value) */\n      add(0x24, mload(0x40))\n      tag_177\n      swap3\n      swap2\n      swap1\n      tag_178\n      jump\t// in\n    tag_177:\n      mload(0x40)\n      0x20\n      dup2\n      dup4\n      sub\n      sub\n      dup2\n      mstore\n      swap1\n      0x40\n      mstore\n      swap1\n      not(0xffffffffffffffffffffffffffffffffffffffffffffffffffffffff)\n      and\n      0x20\n      dup3\n      add\n      dup1\n      mload\n      0xffffffffffffffffffffffffffffffffffffffffffffffffffffffff\n      dup4\n      dup2\n      dup4\n      and\n      or\n      dup4\n      mstore\n      pop\n      pop\n      pop\n      pop\n        /* \"@openzeppelin/contracts/token/ERC20/utils/SafeERC20.sol\":875:894  _callOptionalReturn */\n      tag_179\n        /* \"@openzeppelin/contracts/token/ERC20/utils/SafeERC20.sol\":875:961  _callOptionalReturn(token, abi.encodeWithSelector(token.transfer.selector, to, value)) */\n      jump\t// in\n    tag_176:\n        /* \"@openzeppelin/contracts/token/ERC20/utils/SafeERC20.sol\":763:968  function safeTransfer(... */\n      pop\n      pop\n      pop\n      jump\t// out\n        /* \"@openzeppelin/contracts/token/ERC20/utils/SafeERC20.sol\":974:1215  function safeTransferFrom(... */\n    tag_100:\n        /* \"@openzeppelin/contracts/token/ERC20/utils/SafeERC20.sol\":1112:1208  _callOptionalReturn(token, abi.encodeWithSelector(token.transferFrom.selector, from, to, value)) */\n      tag_181\n        /* \"@openzeppelin/contracts/token/ERC20/utils/SafeERC20.sol\":1132:1137  token */\n      dup5\n        /* \"@openzeppelin/contracts/token/ERC20/utils/SafeERC20.sol\":1162:1189  token.transferFrom.selector */\n      shl(0xe0, 0x23b872dd)\n        /* \"@openzeppelin/contracts/token/ERC20/utils/SafeERC20.sol\":1191:1195  from */\n      dup6\n        /* \"@openzeppelin/contracts/token/ERC20/utils/SafeERC20.sol\":1197:1199  to */\n      dup6\n        /* \"@openzeppelin/contracts/token/ERC20/utils/SafeERC20.sol\":1201:1206  value */\n      dup6\n        /* \"@openzeppelin/contracts/token/ERC20/utils/SafeERC20.sol\":1139:1207  abi.encodeWithSelector(token.transferFrom.selector, from, to, value) */\n      add(0x24, mload(0x40))\n      tag_182\n      swap4\n      swap3\n      swap2\n      swap1\n      tag_183\n      jump\t// in\n    tag_182:\n      mload(0x40)\n      0x20\n      dup2\n      dup4\n      sub\n      sub\n      dup2\n      mstore\n      swap1\n      0x40\n      mstore\n      swap1\n      not(0xffffffffffffffffffffffffffffffffffffffffffffffffffffffff)\n      and\n      0x20\n      dup3\n      add\n      dup1\n      mload\n      0xffffffffffffffffffffffffffffffffffffffffffffffffffffffff\n      dup4\n      dup2\n      dup4\n      and\n      or\n      dup4\n      mstore\n      pop\n      pop\n      pop\n      pop\n        /* \"@openzeppelin/contracts/token/ERC20/utils/SafeERC20.sol\":1112:1131  _callOptionalReturn */\n      tag_179\n        /* \"@openzeppelin/contracts/token/ERC20/utils/SafeERC20.sol\":1112:1208  _callOptionalReturn(token, abi.encodeWithSelector(token.transferFrom.selector, from, to, value)) */\n      jump\t// in\n    tag_181:\n        /* \"@openzeppelin/contracts/token/ERC20/utils/SafeERC20.sol\":974:1215  function safeTransferFrom(... */\n      pop\n      pop\n      pop\n      pop\n      jump\t// out\n        /* \"@openzeppelin/contracts/access/Ownable.sol\":2433:2620  function _transferOwnership(address newOwner) internal virtual {... */\n    tag_159:\n        /* \"@openzeppelin/contracts/access/Ownable.sol\":2506:2522  address oldOwner */\n      0x00\n        /* \"@openzeppelin/contracts/access/Ownable.sol\":2525:2531  _owner */\n      dup1\n      0x00\n      swap1\n      sload\n      swap1\n      0x0100\n      exp\n      swap1\n      div\n      0xffffffffffffffffffffffffffffffffffffffff\n      and\n        /* \"@openzeppelin/contracts/access/Ownable.sol\":2506:2531  address oldOwner = _owner */\n      swap1\n      pop\n        /* \"@openzeppelin/contracts/access/Ownable.sol\":2550:2558  newOwner */\n      dup2\n        /* \"@openzeppelin/contracts/access/Ownable.sol\":2541:2547  _owner */\n      0x00\n      dup1\n        /* \"@openzeppelin/contracts/access/Ownable.sol\":2541:2558  _owner = newOwner */\n      0x0100\n      exp\n      dup2\n      sload\n      dup2\n      0xffffffffffffffffffffffffffffffffffffffff\n      mul\n      not\n      and\n      swap1\n      dup4\n      0xffffffffffffffffffffffffffffffffffffffff\n      and\n      mul\n      or\n      swap1\n      sstore\n      pop\n        /* \"@openzeppelin/contracts/access/Ownable.sol\":2604:2612  newOwner */\n      dup2\n        /* \"@openzeppelin/contracts/access/Ownable.sol\":2573:2613  OwnershipTransferred(oldOwner, newOwner) */\n      0xffffffffffffffffffffffffffffffffffffffff\n      and\n        /* \"@openzeppelin/contracts/access/Ownable.sol\":2594:2602  oldOwner */\n      dup2\n        /* \"@openzeppelin/contracts/access/Ownable.sol\":2573:2613  OwnershipTransferred(oldOwner, newOwner) */\n      0xffffffffffffffffffffffffffffffffffffffff\n      and\n      0x8be0079c531659141344cd1fd0a4f28419497f9722a3daafe3b4186f6b6457e0\n      mload(0x40)\n      mload(0x40)\n      dup1\n      swap2\n      sub\n      swap1\n      log3\n        /* \"@openzeppelin/contracts/access/Ownable.sol\":2496:2620  {... */\n      pop\n        /* \"@openzeppelin/contracts/access/Ownable.sol\":2433:2620  function _transferOwnership(address newOwner) internal virtual {... */\n      pop\n      jump\t// out\n        /* \"@openzeppelin/contracts/utils/Context.sol\":640:736  function _msgSender() internal view virtual returns (address) {... */\n    tag_170:\n        /* \"@openzeppelin/contracts/utils/Context.sol\":693:700  address */\n      0x00\n        /* \"@openzeppelin/contracts/utils/Context.sol\":719:729  msg.sender */\n      caller\n        /* \"@openzeppelin/contracts/utils/Context.sol\":712:729  return msg.sender */\n      swap1\n      pop\n        /* \"@openzeppelin/contracts/utils/Context.sol\":640:736  function _msgSender() internal view virtual returns (address) {... */\n      swap1\n      jump\t// out\n        /* \"@openzeppelin/contracts/token/ERC20/utils/SafeERC20.sol\":3747:4453  function _callOptionalReturn(IERC20 token, bytes memory data) private {... */\n    tag_179:\n        /* \"@openzeppelin/contracts/token/ERC20/utils/SafeERC20.sol\":4166:4189  bytes memory returndata */\n      0x00\n        /* \"@openzeppelin/contracts/token/ERC20/utils/SafeERC20.sol\":4192:4261  address(token).functionCall(data, \"SafeERC20: low-level call failed\") */\n      tag_187\n        /* \"@openzeppelin/contracts/token/ERC20/utils/SafeERC20.sol\":4220:4224  data */\n      dup3\n        /* \"@openzeppelin/contracts/token/ERC20/utils/SafeERC20.sol\":4192:4261  address(token).functionCall(data, \"SafeERC20: low-level call failed\") */\n      mload(0x40)\n      dup1\n      0x40\n      add\n      0x40\n      mstore\n      dup1\n      0x20\n      dup2\n      mstore\n      0x20\n      add\n      0x5361666545524332303a206c6f772d6c6576656c2063616c6c206661696c6564\n      dup2\n      mstore\n      pop\n        /* \"@openzeppelin/contracts/token/ERC20/utils/SafeERC20.sol\":4200:4205  token */\n      dup6\n        /* \"@openzeppelin/contracts/token/ERC20/utils/SafeERC20.sol\":4192:4219  address(token).functionCall */\n      0xffffffffffffffffffffffffffffffffffffffff\n      and\n      tag_188\n      swap1\n        /* \"@openzeppelin/contracts/token/ERC20/utils/SafeERC20.sol\":4192:4261  address(token).functionCall(data, \"SafeERC20: low-level call failed\") */\n      swap3\n      swap2\n      swap1\n      0xffffffff\n      and\n      jump\t// in\n    tag_187:\n        /* \"@openzeppelin/contracts/token/ERC20/utils/SafeERC20.sol\":4166:4261  bytes memory returndata = address(token).functionCall(data, \"SafeERC20: low-level call failed\") */\n      swap1\n      pop\n        /* \"@openzeppelin/contracts/token/ERC20/utils/SafeERC20.sol\":4295:4296  0 */\n      0x00\n        /* \"@openzeppelin/contracts/token/ERC20/utils/SafeERC20.sol\":4275:4285  returndata */\n      dup2\n        /* \"@openzeppelin/contracts/token/ERC20/utils/SafeERC20.sol\":4275:4292  returndata.length */\n      mload\n        /* \"@openzeppelin/contracts/token/ERC20/utils/SafeERC20.sol\":4275:4296  returndata.length > 0 */\n      gt\n        /* \"@openzeppelin/contracts/token/ERC20/utils/SafeERC20.sol\":4271:4447  if (returndata.length > 0) {... */\n      iszero\n      tag_189\n      jumpi\n        /* \"@openzeppelin/contracts/token/ERC20/utils/SafeERC20.sol\":4370:4380  returndata */\n      dup1\n        /* \"@openzeppelin/contracts/token/ERC20/utils/SafeERC20.sol\":4359:4389  abi.decode(returndata, (bool)) */\n      dup1\n      0x20\n      add\n      swap1\n      mload\n      dup2\n      add\n      swap1\n      tag_190\n      swap2\n      swap1\n      tag_191\n      jump\t// in\n    tag_190:\n        /* \"@openzeppelin/contracts/token/ERC20/utils/SafeERC20.sol\":4351:4436  require(abi.decode(returndata, (bool)), \"SafeERC20: ERC20 operation did not succeed\") */\n      tag_192\n      jumpi\n      mload(0x40)\n      0x08c379a000000000000000000000000000000000000000000000000000000000\n      dup2\n      mstore\n      0x04\n      add\n      tag_193\n      swap1\n      tag_194\n      jump\t// in\n    tag_193:\n      mload(0x40)\n      dup1\n      swap2\n      sub\n      swap1\n      revert\n    tag_192:\n        /* \"@openzeppelin/contracts/token/ERC20/utils/SafeERC20.sol\":4271:4447  if (returndata.length > 0) {... */\n    tag_189:\n        /* \"@openzeppelin/contracts/token/ERC20/utils/SafeERC20.sol\":3817:4453  {... */\n      pop\n        /* \"@openzeppelin/contracts/token/ERC20/utils/SafeERC20.sol\":3747:4453  function _callOptionalReturn(IERC20 token, bytes memory data) private {... */\n      pop\n      pop\n      jump\t// out\n        /* \"@openzeppelin/contracts/utils/Address.sol\":3873:4096  function functionCall(... */\n    tag_188:\n        /* \"@openzeppelin/contracts/utils/Address.sol\":4006:4018  bytes memory */\n      0x60\n        /* \"@openzeppelin/contracts/utils/Address.sol\":4037:4089  functionCallWithValue(target, data, 0, errorMessage) */\n      tag_196\n        /* \"@openzeppelin/contracts/utils/Address.sol\":4059:4065  target */\n      dup5\n        /* \"@openzeppelin/contracts/utils/Address.sol\":4067:4071  data */\n      dup5\n        /* \"@openzeppelin/contracts/utils/Address.sol\":4073:4074  0 */\n      0x00\n        /* \"@openzeppelin/contracts/utils/Address.sol\":4076:4088  errorMessage */\n      dup6\n        /* \"@openzeppelin/contracts/utils/Address.sol\":4037:4058  functionCallWithValue */\n      tag_197\n        /* \"@openzeppelin/contracts/utils/Address.sol\":4037:4089  functionCallWithValue(target, data, 0, errorMessage) */\n      jump\t// in\n    tag_196:\n        /* \"@openzeppelin/contracts/utils/Address.sol\":4030:4089  return functionCallWithValue(target, data, 0, errorMessage) */\n      swap1\n      pop\n        /* \"@openzeppelin/contracts/utils/Address.sol\":3873:4096  function functionCall(... */\n      swap4\n      swap3\n      pop\n      pop\n      pop\n      jump\t// out\n        /* \"@openzeppelin/contracts/utils/Address.sol\":4960:5406  function functionCallWithValue(... */\n    tag_197:\n        /* \"@openzeppelin/contracts/utils/Address.sol\":5125:5137  bytes memory */\n      0x60\n        /* \"@openzeppelin/contracts/utils/Address.sol\":5182:5187  value */\n      dup3\n        /* \"@openzeppelin/contracts/utils/Address.sol\":5157:5178  address(this).balance */\n      selfbalance\n        /* \"@openzeppelin/contracts/utils/Address.sol\":5157:5187  address(this).balance >= value */\n      lt\n      iszero\n        /* \"@openzeppelin/contracts/utils/Address.sol\":5149:5230  require(address(this).balance >= value, \"Address: insufficient balance for call\") */\n      tag_199\n      jumpi\n      mload(0x40)\n      0x08c379a000000000000000000000000000000000000000000000000000000000\n      dup2\n      mstore\n      0x04\n      add\n      tag_200\n      swap1\n      tag_201\n      jump\t// in\n    tag_200:\n      mload(0x40)\n      dup1\n      swap2\n      sub\n      swap1\n      revert\n    tag_199:\n        /* \"@openzeppelin/contracts/utils/Address.sol\":5241:5253  bool success */\n      0x00\n        /* \"@openzeppelin/contracts/utils/Address.sol\":5255:5278  bytes memory returndata */\n      dup1\n        /* \"@openzeppelin/contracts/utils/Address.sol\":5282:5288  target */\n      dup7\n        /* \"@openzeppelin/contracts/utils/Address.sol\":5282:5293  target.call */\n      0xffffffffffffffffffffffffffffffffffffffff\n      and\n        /* \"@openzeppelin/contracts/utils/Address.sol\":5301:5306  value */\n      dup6\n        /* \"@openzeppelin/contracts/utils/Address.sol\":5308:5312  data */\n      dup8\n        /* \"@openzeppelin/contracts/utils/Address.sol\":5282:5313  target.call{value: value}(data) */\n      mload(0x40)\n      tag_202\n      swap2\n      swap1\n      tag_203\n      jump\t// in\n    tag_202:\n      0x00\n      mload(0x40)\n      dup1\n      dup4\n      sub\n      dup2\n      dup6\n      dup8\n      gas\n      call\n      swap3\n      pop\n      pop\n      pop\n      returndatasize\n      dup1\n      0x00\n      dup2\n      eq\n      tag_206\n      jumpi\n      mload(0x40)\n      swap2\n      pop\n      and(add(returndatasize, 0x3f), not(0x1f))\n      dup3\n      add\n      0x40\n      mstore\n      returndatasize\n      dup3\n      mstore\n      returndatasize\n      0x00\n      0x20\n      dup5\n      add\n      returndatacopy\n      jump(tag_205)\n    tag_206:\n      0x60\n      swap2\n      pop\n    tag_205:\n      pop\n        /* \"@openzeppelin/contracts/utils/Address.sol\":5240:5313  (bool success, bytes memory returndata) = target.call{value: value}(data) */\n      swap2\n      pop\n      swap2\n      pop\n        /* \"@openzeppelin/contracts/utils/Address.sol\":5330:5399  verifyCallResultFromTarget(target, success, returndata, errorMessage) */\n      tag_207\n        /* \"@openzeppelin/contracts/utils/Address.sol\":5357:5363  target */\n      dup8\n        /* \"@openzeppelin/contracts/utils/Address.sol\":5365:5372  success */\n      dup4\n        /* \"@openzeppelin/contracts/utils/Address.sol\":5374:5384  returndata */\n      dup4\n        /* \"@openzeppelin/contracts/utils/Address.sol\":5386:5398  errorMessage */\n      dup8\n        /* \"@openzeppelin/contracts/utils/Address.sol\":5330:5356  verifyCallResultFromTarget */\n      tag_208\n        /* \"@openzeppelin/contracts/utils/Address.sol\":5330:5399  verifyCallResultFromTarget(target, success, returndata, errorMessage) */\n      jump\t// in\n    tag_207:\n        /* \"@openzeppelin/contracts/utils/Address.sol\":5323:5399  return verifyCallResultFromTarget(target, success, returndata, errorMessage) */\n      swap3\n      pop\n      pop\n      pop\n        /* \"@openzeppelin/contracts/utils/Address.sol\":4960:5406  function functionCallWithValue(... */\n      swap5\n      swap4\n      pop\n      pop\n      pop\n      pop\n      jump\t// out\n        /* \"@openzeppelin/contracts/utils/Address.sol\":7466:8094  function verifyCallResultFromTarget(... */\n    tag_208:\n        /* \"@openzeppelin/contracts/utils/Address.sol\":7646:7658  bytes memory */\n      0x60\n        /* \"@openzeppelin/contracts/utils/Address.sol\":7674:7681  success */\n      dup4\n        /* \"@openzeppelin/contracts/utils/Address.sol\":7670:8088  if (success) {... */\n      iszero\n      tag_210\n      jumpi\n        /* \"@openzeppelin/contracts/utils/Address.sol\":7722:7723  0 */\n      0x00\n        /* \"@openzeppelin/contracts/utils/Address.sol\":7701:7711  returndata */\n      dup4\n        /* \"@openzeppelin/contracts/utils/Address.sol\":7701:7718  returndata.length */\n      mload\n        /* \"@openzeppelin/contracts/utils/Address.sol\":7701:7723  returndata.length == 0 */\n      sub\n        /* \"@openzeppelin/contracts/utils/Address.sol\":7697:7983  if (returndata.length == 0) {... */\n      tag_211\n      jumpi\n        /* \"@openzeppelin/contracts/utils/Address.sol\":7916:7934  isContract(target) */\n      tag_212\n        /* \"@openzeppelin/contracts/utils/Address.sol\":7927:7933  target */\n      dup6\n        /* \"@openzeppelin/contracts/utils/Address.sol\":7916:7926  isContract */\n      tag_213\n        /* \"@openzeppelin/contracts/utils/Address.sol\":7916:7934  isContract(target) */\n      jump\t// in\n    tag_212:\n        /* \"@openzeppelin/contracts/utils/Address.sol\":7908:7968  require(isContract(target), \"Address: call to non-contract\") */\n      tag_214\n      jumpi\n      mload(0x40)\n      0x08c379a000000000000000000000000000000000000000000000000000000000\n      dup2\n      mstore\n      0x04\n      add\n      tag_215\n      swap1\n      tag_216\n      jump\t// in\n    tag_215:\n      mload(0x40)\n      dup1\n      swap2\n      sub\n      swap1\n      revert\n    tag_214:\n        /* \"@openzeppelin/contracts/utils/Address.sol\":7697:7983  if (returndata.length == 0) {... */\n    tag_211:\n        /* \"@openzeppelin/contracts/utils/Address.sol\":8003:8013  returndata */\n      dup3\n        /* \"@openzeppelin/contracts/utils/Address.sol\":7996:8013  return returndata */\n      swap1\n      pop\n      jump(tag_209)\n        /* \"@openzeppelin/contracts/utils/Address.sol\":7670:8088  if (success) {... */\n    tag_210:\n        /* \"@openzeppelin/contracts/utils/Address.sol\":8044:8077  _revert(returndata, errorMessage) */\n      tag_218\n        /* \"@openzeppelin/contracts/utils/Address.sol\":8052:8062  returndata */\n      dup4\n        /* \"@openzeppelin/contracts/utils/Address.sol\":8064:8076  errorMessage */\n      dup4\n        /* \"@openzeppelin/contracts/utils/Address.sol\":8044:8051  _revert */\n      tag_219\n        /* \"@openzeppelin/contracts/utils/Address.sol\":8044:8077  _revert(returndata, errorMessage) */\n      jump\t// in\n    tag_218:\n        /* \"@openzeppelin/contracts/utils/Address.sol\":7466:8094  function verifyCallResultFromTarget(... */\n    tag_209:\n      swap5\n      swap4\n      pop\n      pop\n      pop\n      pop\n      jump\t// out\n        /* \"@openzeppelin/contracts/utils/Address.sol\":1175:1495  function isContract(address account) internal view returns (bool) {... */\n    tag_213:\n        /* \"@openzeppelin/contracts/utils/Address.sol\":1235:1239  bool */\n      0x00\n        /* \"@openzeppelin/contracts/utils/Address.sol\":1487:1488  0 */\n      dup1\n        /* \"@openzeppelin/contracts/utils/Address.sol\":1465:1472  account */\n      dup3\n        /* \"@openzeppelin/contracts/utils/Address.sol\":1465:1484  account.code.length */\n      0xffffffffffffffffffffffffffffffffffffffff\n      and\n      extcodesize\n        /* \"@openzeppelin/contracts/utils/Address.sol\":1465:1488  account.code.length > 0 */\n      gt\n        /* \"@openzeppelin/contracts/utils/Address.sol\":1458:1488  return account.code.length > 0 */\n      swap1\n      pop\n        /* \"@openzeppelin/contracts/utils/Address.sol\":1175:1495  function isContract(address account) internal view returns (bool) {... */\n      swap2\n      swap1\n      pop\n      jump\t// out\n        /* \"@openzeppelin/contracts/utils/Address.sol\":8616:9156  function _revert(bytes memory returndata, string memory errorMessage) private pure {... */\n    tag_219:\n        /* \"@openzeppelin/contracts/utils/Address.sol\":8795:8796  0 */\n      0x00\n        /* \"@openzeppelin/contracts/utils/Address.sol\":8775:8785  returndata */\n      dup3\n        /* \"@openzeppelin/contracts/utils/Address.sol\":8775:8792  returndata.length */\n      mload\n        /* \"@openzeppelin/contracts/utils/Address.sol\":8775:8796  returndata.length > 0 */\n      gt\n        /* \"@openzeppelin/contracts/utils/Address.sol\":8771:9150  if (returndata.length > 0) {... */\n      iszero\n      tag_222\n      jumpi\n        /* \"@openzeppelin/contracts/utils/Address.sol\":9003:9013  returndata */\n      dup2\n        /* \"@openzeppelin/contracts/utils/Address.sol\":8997:9014  mload(returndata) */\n      mload\n        /* \"@openzeppelin/contracts/utils/Address.sol\":9059:9074  returndata_size */\n      dup1\n        /* \"@openzeppelin/contracts/utils/Address.sol\":9046:9056  returndata */\n      dup4\n        /* \"@openzeppelin/contracts/utils/Address.sol\":9042:9044  32 */\n      0x20\n        /* \"@openzeppelin/contracts/utils/Address.sol\":9038:9057  add(32, returndata) */\n      add\n        /* \"@openzeppelin/contracts/utils/Address.sol\":9031:9075  revert(add(32, returndata), returndata_size) */\n      revert\n        /* \"@openzeppelin/contracts/utils/Address.sol\":8771:9150  if (returndata.length > 0) {... */\n    tag_222:\n        /* \"@openzeppelin/contracts/utils/Address.sol\":9126:9138  errorMessage */\n      dup1\n        /* \"@openzeppelin/contracts/utils/Address.sol\":9119:9139  revert(errorMessage) */\n      mload(0x40)\n      0x08c379a000000000000000000000000000000000000000000000000000000000\n      dup2\n      mstore\n      0x04\n      add\n      tag_224\n      swap2\n      swap1\n      tag_225\n      jump\t// in\n    tag_224:\n      mload(0x40)\n      dup1\n      swap2\n      sub\n      swap1\n      revert\n        /* \"#utility.yul\":88:205   */\n    tag_227:\n        /* \"#utility.yul\":197:198   */\n      0x00\n        /* \"#utility.yul\":194:195   */\n      dup1\n        /* \"#utility.yul\":187:199   */\n      revert\n        /* \"#utility.yul\":211:328   */\n    tag_228:\n        /* \"#utility.yul\":320:321   */\n      0x00\n        /* \"#utility.yul\":317:318   */\n      dup1\n        /* \"#utility.yul\":310:322   */\n      revert\n        /* \"#utility.yul\":334:451   */\n    tag_229:\n        /* \"#utility.yul\":443:444   */\n      0x00\n        /* \"#utility.yul\":440:441   */\n      dup1\n        /* \"#utility.yul\":433:445   */\n      revert\n        /* \"#utility.yul\":457:574   */\n    tag_230:\n        /* \"#utility.yul\":566:567   */\n      0x00\n        /* \"#utility.yul\":563:564   */\n      dup1\n        /* \"#utility.yul\":556:568   */\n      revert\n        /* \"#utility.yul\":580:697   */\n    tag_231:\n        /* \"#utility.yul\":689:690   */\n      0x00\n        /* \"#utility.yul\":686:687   */\n      dup1\n        /* \"#utility.yul\":679:691   */\n      revert\n        /* \"#utility.yul\":720:1288   */\n    tag_232:\n        /* \"#utility.yul\":793:801   */\n      0x00\n        /* \"#utility.yul\":803:809   */\n      dup1\n        /* \"#utility.yul\":853:856   */\n      dup4\n        /* \"#utility.yul\":846:850   */\n      0x1f\n        /* \"#utility.yul\":838:844   */\n      dup5\n        /* \"#utility.yul\":834:851   */\n      add\n        /* \"#utility.yul\":830:857   */\n      slt\n        /* \"#utility.yul\":820:942   */\n      tag_313\n      jumpi\n        /* \"#utility.yul\":861:940   */\n      tag_314\n      tag_229\n      jump\t// in\n    tag_314:\n        /* \"#utility.yul\":820:942   */\n    tag_313:\n        /* \"#utility.yul\":974:980   */\n      dup3\n        /* \"#utility.yul\":961:981   */\n      calldataload\n        /* \"#utility.yul\":951:981   */\n      swap1\n      pop\n        /* \"#utility.yul\":1004:1022   */\n      0xffffffffffffffff\n        /* \"#utility.yul\":996:1002   */\n      dup2\n        /* \"#utility.yul\":993:1023   */\n      gt\n        /* \"#utility.yul\":990:1107   */\n      iszero\n      tag_315\n      jumpi\n        /* \"#utility.yul\":1026:1105   */\n      tag_316\n      tag_230\n      jump\t// in\n    tag_316:\n        /* \"#utility.yul\":990:1107   */\n    tag_315:\n        /* \"#utility.yul\":1140:1144   */\n      0x20\n        /* \"#utility.yul\":1132:1138   */\n      dup4\n        /* \"#utility.yul\":1128:1145   */\n      add\n        /* \"#utility.yul\":1116:1145   */\n      swap2\n      pop\n        /* \"#utility.yul\":1194:1197   */\n      dup4\n        /* \"#utility.yul\":1186:1190   */\n      0x20\n        /* \"#utility.yul\":1178:1184   */\n      dup3\n        /* \"#utility.yul\":1174:1191   */\n      mul\n        /* \"#utility.yul\":1164:1172   */\n      dup4\n        /* \"#utility.yul\":1160:1192   */\n      add\n        /* \"#utility.yul\":1157:1198   */\n      gt\n        /* \"#utility.yul\":1154:1282   */\n      iszero\n      tag_317\n      jumpi\n        /* \"#utility.yul\":1201:1280   */\n      tag_318\n      tag_231\n      jump\t// in\n    tag_318:\n        /* \"#utility.yul\":1154:1282   */\n    tag_317:\n        /* \"#utility.yul\":720:1288   */\n      swap3\n      pop\n      swap3\n      swap1\n      pop\n      jump\t// out\n        /* \"#utility.yul\":1311:1879   */\n    tag_233:\n        /* \"#utility.yul\":1384:1392   */\n      0x00\n        /* \"#utility.yul\":1394:1400   */\n      dup1\n        /* \"#utility.yul\":1444:1447   */\n      dup4\n        /* \"#utility.yul\":1437:1441   */\n      0x1f\n        /* \"#utility.yul\":1429:1435   */\n      dup5\n        /* \"#utility.yul\":1425:1442   */\n      add\n        /* \"#utility.yul\":1421:1448   */\n      slt\n        /* \"#utility.yul\":1411:1533   */\n      tag_320\n      jumpi\n        /* \"#utility.yul\":1452:1531   */\n      tag_321\n      tag_229\n      jump\t// in\n    tag_321:\n        /* \"#utility.yul\":1411:1533   */\n    tag_320:\n        /* \"#utility.yul\":1565:1571   */\n      dup3\n        /* \"#utility.yul\":1552:1572   */\n      calldataload\n        /* \"#utility.yul\":1542:1572   */\n      swap1\n      pop\n        /* \"#utility.yul\":1595:1613   */\n      0xffffffffffffffff\n        /* \"#utility.yul\":1587:1593   */\n      dup2\n        /* \"#utility.yul\":1584:1614   */\n      gt\n        /* \"#utility.yul\":1581:1698   */\n      iszero\n      tag_322\n      jumpi\n        /* \"#utility.yul\":1617:1696   */\n      tag_323\n      tag_230\n      jump\t// in\n    tag_323:\n        /* \"#utility.yul\":1581:1698   */\n    tag_322:\n        /* \"#utility.yul\":1731:1735   */\n      0x20\n        /* \"#utility.yul\":1723:1729   */\n      dup4\n        /* \"#utility.yul\":1719:1736   */\n      add\n        /* \"#utility.yul\":1707:1736   */\n      swap2\n      pop\n        /* \"#utility.yul\":1785:1788   */\n      dup4\n        /* \"#utility.yul\":1777:1781   */\n      0x20\n        /* \"#utility.yul\":1769:1775   */\n      dup3\n        /* \"#utility.yul\":1765:1782   */\n      mul\n        /* \"#utility.yul\":1755:1763   */\n      dup4\n        /* \"#utility.yul\":1751:1783   */\n      add\n        /* \"#utility.yul\":1748:1789   */\n      gt\n        /* \"#utility.yul\":1745:1873   */\n      iszero\n      tag_324\n      jumpi\n        /* \"#utility.yul\":1792:1871   */\n      tag_325\n      tag_231\n      jump\t// in\n    tag_325:\n        /* \"#utility.yul\":1745:1873   */\n    tag_324:\n        /* \"#utility.yul\":1311:1879   */\n      swap3\n      pop\n      swap3\n      swap1\n      pop\n      jump\t// out\n        /* \"#utility.yul\":1899:2452   */\n    tag_234:\n        /* \"#utility.yul\":1957:1965   */\n      0x00\n        /* \"#utility.yul\":1967:1973   */\n      dup1\n        /* \"#utility.yul\":2017:2020   */\n      dup4\n        /* \"#utility.yul\":2010:2014   */\n      0x1f\n        /* \"#utility.yul\":2002:2008   */\n      dup5\n        /* \"#utility.yul\":1998:2015   */\n      add\n        /* \"#utility.yul\":1994:2021   */\n      slt\n        /* \"#utility.yul\":1984:2106   */\n      tag_327\n      jumpi\n        /* \"#utility.yul\":2025:2104   */\n      tag_328\n      tag_229\n      jump\t// in\n    tag_328:\n        /* \"#utility.yul\":1984:2106   */\n    tag_327:\n        /* \"#utility.yul\":2138:2144   */\n      dup3\n        /* \"#utility.yul\":2125:2145   */\n      calldataload\n        /* \"#utility.yul\":2115:2145   */\n      swap1\n      pop\n        /* \"#utility.yul\":2168:2186   */\n      0xffffffffffffffff\n        /* \"#utility.yul\":2160:2166   */\n      dup2\n        /* \"#utility.yul\":2157:2187   */\n      gt\n        /* \"#utility.yul\":2154:2271   */\n      iszero\n      tag_329\n      jumpi\n        /* \"#utility.yul\":2190:2269   */\n      tag_330\n      tag_230\n      jump\t// in\n    tag_330:\n        /* \"#utility.yul\":2154:2271   */\n    tag_329:\n        /* \"#utility.yul\":2304:2308   */\n      0x20\n        /* \"#utility.yul\":2296:2302   */\n      dup4\n        /* \"#utility.yul\":2292:2309   */\n      add\n        /* \"#utility.yul\":2280:2309   */\n      swap2\n      pop\n        /* \"#utility.yul\":2358:2361   */\n      dup4\n        /* \"#utility.yul\":2350:2354   */\n      0x01\n        /* \"#utility.yul\":2342:2348   */\n      dup3\n        /* \"#utility.yul\":2338:2355   */\n      mul\n        /* \"#utility.yul\":2328:2336   */\n      dup4\n        /* \"#utility.yul\":2324:2356   */\n      add\n        /* \"#utility.yul\":2321:2362   */\n      gt\n        /* \"#utility.yul\":2318:2446   */\n      iszero\n      tag_331\n      jumpi\n        /* \"#utility.yul\":2365:2444   */\n      tag_332\n      tag_231\n      jump\t// in\n    tag_332:\n        /* \"#utility.yul\":2318:2446   */\n    tag_331:\n        /* \"#utility.yul\":1899:2452   */\n      swap3\n      pop\n      swap3\n      swap1\n      pop\n      jump\t// out\n        /* \"#utility.yul\":2458:3737   */\n    tag_13:\n        /* \"#utility.yul\":2601:2607   */\n      0x00\n        /* \"#utility.yul\":2609:2615   */\n      dup1\n        /* \"#utility.yul\":2617:2623   */\n      0x00\n        /* \"#utility.yul\":2625:2631   */\n      dup1\n        /* \"#utility.yul\":2633:2639   */\n      0x00\n        /* \"#utility.yul\":2641:2647   */\n      dup1\n        /* \"#utility.yul\":2690:2692   */\n      0x60\n        /* \"#utility.yul\":2678:2687   */\n      dup8\n        /* \"#utility.yul\":2669:2676   */\n      dup10\n        /* \"#utility.yul\":2665:2688   */\n      sub\n        /* \"#utility.yul\":2661:2693   */\n      slt\n        /* \"#utility.yul\":2658:2777   */\n      iszero\n      tag_334\n      jumpi\n        /* \"#utility.yul\":2696:2775   */\n      tag_335\n      tag_227\n      jump\t// in\n    tag_335:\n        /* \"#utility.yul\":2658:2777   */\n    tag_334:\n        /* \"#utility.yul\":2844:2845   */\n      0x00\n        /* \"#utility.yul\":2833:2842   */\n      dup8\n        /* \"#utility.yul\":2829:2846   */\n      add\n        /* \"#utility.yul\":2816:2847   */\n      calldataload\n        /* \"#utility.yul\":2874:2892   */\n      0xffffffffffffffff\n        /* \"#utility.yul\":2866:2872   */\n      dup2\n        /* \"#utility.yul\":2863:2893   */\n      gt\n        /* \"#utility.yul\":2860:2977   */\n      iszero\n      tag_336\n      jumpi\n        /* \"#utility.yul\":2896:2975   */\n      tag_337\n      tag_228\n      jump\t// in\n    tag_337:\n        /* \"#utility.yul\":2860:2977   */\n    tag_336:\n        /* \"#utility.yul\":3009:3089   */\n      tag_338\n        /* \"#utility.yul\":3081:3088   */\n      dup10\n        /* \"#utility.yul\":3072:3078   */\n      dup3\n        /* \"#utility.yul\":3061:3070   */\n      dup11\n        /* \"#utility.yul\":3057:3079   */\n      add\n        /* \"#utility.yul\":3009:3089   */\n      tag_232\n      jump\t// in\n    tag_338:\n        /* \"#utility.yul\":2991:3089   */\n      swap7\n      pop\n      swap7\n      pop\n        /* \"#utility.yul\":2787:3099   */\n      pop\n        /* \"#utility.yul\":3166:3168   */\n      0x20\n        /* \"#utility.yul\":3155:3164   */\n      dup8\n        /* \"#utility.yul\":3151:3169   */\n      add\n        /* \"#utility.yul\":3138:3170   */\n      calldataload\n        /* \"#utility.yul\":3197:3215   */\n      0xffffffffffffffff\n        /* \"#utility.yul\":3189:3195   */\n      dup2\n        /* \"#utility.yul\":3186:3216   */\n      gt\n        /* \"#utility.yul\":3183:3300   */\n      iszero\n      tag_339\n      jumpi\n        /* \"#utility.yul\":3219:3298   */\n      tag_340\n      tag_228\n      jump\t// in\n    tag_340:\n        /* \"#utility.yul\":3183:3300   */\n    tag_339:\n        /* \"#utility.yul\":3332:3412   */\n      tag_341\n        /* \"#utility.yul\":3404:3411   */\n      dup10\n        /* \"#utility.yul\":3395:3401   */\n      dup3\n        /* \"#utility.yul\":3384:3393   */\n      dup11\n        /* \"#utility.yul\":3380:3402   */\n      add\n        /* \"#utility.yul\":3332:3412   */\n      tag_233\n      jump\t// in\n    tag_341:\n        /* \"#utility.yul\":3314:3412   */\n      swap5\n      pop\n      swap5\n      pop\n        /* \"#utility.yul\":3109:3422   */\n      pop\n        /* \"#utility.yul\":3489:3491   */\n      0x40\n        /* \"#utility.yul\":3478:3487   */\n      dup8\n        /* \"#utility.yul\":3474:3492   */\n      add\n        /* \"#utility.yul\":3461:3493   */\n      calldataload\n        /* \"#utility.yul\":3520:3538   */\n      0xffffffffffffffff\n        /* \"#utility.yul\":3512:3518   */\n      dup2\n        /* \"#utility.yul\":3509:3539   */\n      gt\n        /* \"#utility.yul\":3506:3623   */\n      iszero\n      tag_342\n      jumpi\n        /* \"#utility.yul\":3542:3621   */\n      tag_343\n      tag_228\n      jump\t// in\n    tag_343:\n        /* \"#utility.yul\":3506:3623   */\n    tag_342:\n        /* \"#utility.yul\":3655:3720   */\n      tag_344\n        /* \"#utility.yul\":3712:3719   */\n      dup10\n        /* \"#utility.yul\":3703:3709   */\n      dup3\n        /* \"#utility.yul\":3692:3701   */\n      dup11\n        /* \"#utility.yul\":3688:3710   */\n      add\n        /* \"#utility.yul\":3655:3720   */\n      tag_234\n      jump\t// in\n    tag_344:\n        /* \"#utility.yul\":3637:3720   */\n      swap3\n      pop\n      swap3\n      pop\n        /* \"#utility.yul\":3432:3730   */\n      pop\n        /* \"#utility.yul\":2458:3737   */\n      swap3\n      swap6\n      pop\n      swap3\n      swap6\n      pop\n      swap3\n      swap6\n      jump\t// out\n        /* \"#utility.yul\":3743:3869   */\n    tag_235:\n        /* \"#utility.yul\":3780:3787   */\n      0x00\n        /* \"#utility.yul\":3820:3862   */\n      0xffffffffffffffffffffffffffffffffffffffff\n        /* \"#utility.yul\":3813:3818   */\n      dup3\n        /* \"#utility.yul\":3809:3863   */\n      and\n        /* \"#utility.yul\":3798:3863   */\n      swap1\n      pop\n        /* \"#utility.yul\":3743:3869   */\n      swap2\n      swap1\n      pop\n      jump\t// out\n        /* \"#utility.yul\":3875:3971   */\n    tag_236:\n        /* \"#utility.yul\":3912:3919   */\n      0x00\n        /* \"#utility.yul\":3941:3965   */\n      tag_347\n        /* \"#utility.yul\":3959:3964   */\n      dup3\n        /* \"#utility.yul\":3941:3965   */\n      tag_235\n      jump\t// in\n    tag_347:\n        /* \"#utility.yul\":3930:3965   */\n      swap1\n      pop\n        /* \"#utility.yul\":3875:3971   */\n      swap2\n      swap1\n      pop\n      jump\t// out\n        /* \"#utility.yul\":3977:4099   */\n    tag_237:\n        /* \"#utility.yul\":4050:4074   */\n      tag_349\n        /* \"#utility.yul\":4068:4073   */\n      dup2\n        /* \"#utility.yul\":4050:4074   */\n      tag_236\n      jump\t// in\n    tag_349:\n        /* \"#utility.yul\":4043:4048   */\n      dup2\n        /* \"#utility.yul\":4040:4075   */\n      eq\n        /* \"#utility.yul\":4030:4093   */\n      tag_350\n      jumpi\n        /* \"#utility.yul\":4089:4090   */\n      0x00\n        /* \"#utility.yul\":4086:4087   */\n      dup1\n        /* \"#utility.yul\":4079:4091   */\n      revert\n        /* \"#utility.yul\":4030:4093   */\n    tag_350:\n        /* \"#utility.yul\":3977:4099   */\n      pop\n      jump\t// out\n        /* \"#utility.yul\":4105:4244   */\n    tag_238:\n        /* \"#utility.yul\":4151:4156   */\n      0x00\n        /* \"#utility.yul\":4189:4195   */\n      dup2\n        /* \"#utility.yul\":4176:4196   */\n      calldataload\n        /* \"#utility.yul\":4167:4196   */\n      swap1\n      pop\n        /* \"#utility.yul\":4205:4238   */\n      tag_352\n        /* \"#utility.yul\":4232:4237   */\n      dup2\n        /* \"#utility.yul\":4205:4238   */\n      tag_237\n      jump\t// in\n    tag_352:\n        /* \"#utility.yul\":4105:4244   */\n      swap3\n      swap2\n      pop\n      pop\n      jump\t// out\n        /* \"#utility.yul\":4250:4327   */\n    tag_239:\n        /* \"#utility.yul\":4287:4294   */\n      0x00\n        /* \"#utility.yul\":4316:4321   */\n      dup2\n        /* \"#utility.yul\":4305:4321   */\n      swap1\n      pop\n        /* \"#utility.yul\":4250:4327   */\n      swap2\n      swap1\n      pop\n      jump\t// out\n        /* \"#utility.yul\":4333:4455   */\n    tag_240:\n        /* \"#utility.yul\":4406:4430   */\n      tag_355\n        /* \"#utility.yul\":4424:4429   */\n      dup2\n        /* \"#utility.yul\":4406:4430   */\n      tag_239\n      jump\t// in\n    tag_355:\n        /* \"#utility.yul\":4399:4404   */\n      dup2\n        /* \"#utility.yul\":4396:4431   */\n      eq\n        /* \"#utility.yul\":4386:4449   */\n      tag_356\n      jumpi\n        /* \"#utility.yul\":4445:4446   */\n      0x00\n        /* \"#utility.yul\":4442:4443   */\n      dup1\n        /* \"#utility.yul\":4435:4447   */\n      revert\n        /* \"#utility.yul\":4386:4449   */\n    tag_356:\n        /* \"#utility.yul\":4333:4455   */\n      pop\n      jump\t// out\n        /* \"#utility.yul\":4461:4600   */\n    tag_241:\n        /* \"#utility.yul\":4507:4512   */\n      0x00\n        /* \"#utility.yul\":4545:4551   */\n      dup2\n        /* \"#utility.yul\":4532:4552   */\n      calldataload\n        /* \"#utility.yul\":4523:4552   */\n      swap1\n      pop\n        /* \"#utility.yul\":4561:4594   */\n      tag_358\n        /* \"#utility.yul\":4588:4593   */\n      dup2\n        /* \"#utility.yul\":4561:4594   */\n      tag_240\n      jump\t// in\n    tag_358:\n        /* \"#utility.yul\":4461:4600   */\n      swap3\n      swap2\n      pop\n      pop\n      jump\t// out\n        /* \"#utility.yul\":4606:5425   */\n    tag_17:\n        /* \"#utility.yul\":4695:4701   */\n      0x00\n        /* \"#utility.yul\":4703:4709   */\n      dup1\n        /* \"#utility.yul\":4711:4717   */\n      0x00\n        /* \"#utility.yul\":4719:4725   */\n      dup1\n        /* \"#utility.yul\":4768:4770   */\n      0x60\n        /* \"#utility.yul\":4756:4765   */\n      dup6\n        /* \"#utility.yul\":4747:4754   */\n      dup8\n        /* \"#utility.yul\":4743:4766   */\n      sub\n        /* \"#utility.yul\":4739:4771   */\n      slt\n        /* \"#utility.yul\":4736:4855   */\n      iszero\n      tag_360\n      jumpi\n        /* \"#utility.yul\":4774:4853   */\n      tag_361\n      tag_227\n      jump\t// in\n    tag_361:\n        /* \"#utility.yul\":4736:4855   */\n    tag_360:\n        /* \"#utility.yul\":4894:4895   */\n      0x00\n        /* \"#utility.yul\":4919:4972   */\n      tag_362\n        /* \"#utility.yul\":4964:4971   */\n      dup8\n        /* \"#utility.yul\":4955:4961   */\n      dup3\n        /* \"#utility.yul\":4944:4953   */\n      dup9\n        /* \"#utility.yul\":4940:4962   */\n      add\n        /* \"#utility.yul\":4919:4972   */\n      tag_238\n      jump\t// in\n    tag_362:\n        /* \"#utility.yul\":4909:4972   */\n      swap5\n      pop\n        /* \"#utility.yul\":4865:4982   */\n      pop\n        /* \"#utility.yul\":5021:5023   */\n      0x20\n        /* \"#utility.yul\":5047:5100   */\n      tag_363\n        /* \"#utility.yul\":5092:5099   */\n      dup8\n        /* \"#utility.yul\":5083:5089   */\n      dup3\n        /* \"#utility.yul\":5072:5081   */\n      dup9\n        /* \"#utility.yul\":5068:5090   */\n      add\n        /* \"#utility.yul\":5047:5100   */\n      tag_241\n      jump\t// in\n    tag_363:\n        /* \"#utility.yul\":5037:5100   */\n      swap4\n      pop\n        /* \"#utility.yul\":4992:5110   */\n      pop\n        /* \"#utility.yul\":5177:5179   */\n      0x40\n        /* \"#utility.yul\":5166:5175   */\n      dup6\n        /* \"#utility.yul\":5162:5180   */\n      add\n        /* \"#utility.yul\":5149:5181   */\n      calldataload\n        /* \"#utility.yul\":5208:5226   */\n      0xffffffffffffffff\n        /* \"#utility.yul\":5200:5206   */\n      dup2\n        /* \"#utility.yul\":5197:5227   */\n      gt\n        /* \"#utility.yul\":5194:5311   */\n      iszero\n      tag_364\n      jumpi\n        /* \"#utility.yul\":5230:5309   */\n      tag_365\n      tag_228\n      jump\t// in\n    tag_365:\n        /* \"#utility.yul\":5194:5311   */\n    tag_364:\n        /* \"#utility.yul\":5343:5408   */\n      tag_366\n        /* \"#utility.yul\":5400:5407   */\n      dup8\n        /* \"#utility.yul\":5391:5397   */\n      dup3\n        /* \"#utility.yul\":5380:5389   */\n      dup9\n        /* \"#utility.yul\":5376:5398   */\n      add\n        /* \"#utility.yul\":5343:5408   */\n      tag_234\n      jump\t// in\n    tag_366:\n        /* \"#utility.yul\":5325:5408   */\n      swap3\n      pop\n      swap3\n      pop\n        /* \"#utility.yul\":5120:5418   */\n      pop\n        /* \"#utility.yul\":4606:5425   */\n      swap3\n      swap6\n      swap2\n      swap5\n      pop\n      swap3\n      pop\n      jump\t// out\n        /* \"#utility.yul\":5447:6027   */\n    tag_242:\n        /* \"#utility.yul\":5532:5540   */\n      0x00\n        /* \"#utility.yul\":5542:5548   */\n      dup1\n        /* \"#utility.yul\":5592:5595   */\n      dup4\n        /* \"#utility.yul\":5585:5589   */\n      0x1f\n        /* \"#utility.yul\":5577:5583   */\n      dup5\n        /* \"#utility.yul\":5573:5590   */\n      add\n        /* \"#utility.yul\":5569:5596   */\n      slt\n        /* \"#utility.yul\":5559:5681   */\n      tag_368\n      jumpi\n        /* \"#utility.yul\":5600:5679   */\n      tag_369\n      tag_229\n      jump\t// in\n    tag_369:\n        /* \"#utility.yul\":5559:5681   */\n    tag_368:\n        /* \"#utility.yul\":5713:5719   */\n      dup3\n        /* \"#utility.yul\":5700:5720   */\n      calldataload\n        /* \"#utility.yul\":5690:5720   */\n      swap1\n      pop\n        /* \"#utility.yul\":5743:5761   */\n      0xffffffffffffffff\n        /* \"#utility.yul\":5735:5741   */\n      dup2\n        /* \"#utility.yul\":5732:5762   */\n      gt\n        /* \"#utility.yul\":5729:5846   */\n      iszero\n      tag_370\n      jumpi\n        /* \"#utility.yul\":5765:5844   */\n      tag_371\n      tag_230\n      jump\t// in\n    tag_371:\n        /* \"#utility.yul\":5729:5846   */\n    tag_370:\n        /* \"#utility.yul\":5879:5883   */\n      0x20\n        /* \"#utility.yul\":5871:5877   */\n      dup4\n        /* \"#utility.yul\":5867:5884   */\n      add\n        /* \"#utility.yul\":5855:5884   */\n      swap2\n      pop\n        /* \"#utility.yul\":5933:5936   */\n      dup4\n        /* \"#utility.yul\":5925:5929   */\n      0x20\n        /* \"#utility.yul\":5917:5923   */\n      dup3\n        /* \"#utility.yul\":5913:5930   */\n      mul\n        /* \"#utility.yul\":5903:5911   */\n      dup4\n        /* \"#utility.yul\":5899:5931   */\n      add\n        /* \"#utility.yul\":5896:5937   */\n      gt\n        /* \"#utility.yul\":5893:6021   */\n      iszero\n      tag_372\n      jumpi\n        /* \"#utility.yul\":5940:6019   */\n      tag_373\n      tag_231\n      jump\t// in\n    tag_373:\n        /* \"#utility.yul\":5893:6021   */\n    tag_372:\n        /* \"#utility.yul\":5447:6027   */\n      swap3\n      pop\n      swap3\n      swap1\n      pop\n      jump\t// out\n        /* \"#utility.yul\":6033:7742   */\n    tag_21:\n        /* \"#utility.yul\":6239:6245   */\n      0x00\n        /* \"#utility.yul\":6247:6253   */\n      dup1\n        /* \"#utility.yul\":6255:6261   */\n      0x00\n        /* \"#utility.yul\":6263:6269   */\n      dup1\n        /* \"#utility.yul\":6271:6277   */\n      0x00\n        /* \"#utility.yul\":6279:6285   */\n      dup1\n        /* \"#utility.yul\":6287:6293   */\n      0x00\n        /* \"#utility.yul\":6295:6301   */\n      dup1\n        /* \"#utility.yul\":6344:6347   */\n      0x80\n        /* \"#utility.yul\":6332:6341   */\n      dup10\n        /* \"#utility.yul\":6323:6330   */\n      dup12\n        /* \"#utility.yul\":6319:6342   */\n      sub\n        /* \"#utility.yul\":6315:6348   */\n      slt\n        /* \"#utility.yul\":6312:6432   */\n      iszero\n      tag_375\n      jumpi\n        /* \"#utility.yul\":6351:6430   */\n      tag_376\n      tag_227\n      jump\t// in\n    tag_376:\n        /* \"#utility.yul\":6312:6432   */\n    tag_375:\n        /* \"#utility.yul\":6499:6500   */\n      0x00\n        /* \"#utility.yul\":6488:6497   */\n      dup10\n        /* \"#utility.yul\":6484:6501   */\n      add\n        /* \"#utility.yul\":6471:6502   */\n      calldataload\n        /* \"#utility.yul\":6529:6547   */\n      0xffffffffffffffff\n        /* \"#utility.yul\":6521:6527   */\n      dup2\n        /* \"#utility.yul\":6518:6548   */\n      gt\n        /* \"#utility.yul\":6515:6632   */\n      iszero\n      tag_377\n      jumpi\n        /* \"#utility.yul\":6551:6630   */\n      tag_378\n      tag_228\n      jump\t// in\n    tag_378:\n        /* \"#utility.yul\":6515:6632   */\n    tag_377:\n        /* \"#utility.yul\":6664:6744   */\n      tag_379\n        /* \"#utility.yul\":6736:6743   */\n      dup12\n        /* \"#utility.yul\":6727:6733   */\n      dup3\n        /* \"#utility.yul\":6716:6725   */\n      dup13\n        /* \"#utility.yul\":6712:6734   */\n      add\n        /* \"#utility.yul\":6664:6744   */\n      tag_232\n      jump\t// in\n    tag_379:\n        /* \"#utility.yul\":6646:6744   */\n      swap9\n      pop\n      swap9\n      pop\n        /* \"#utility.yul\":6442:6754   */\n      pop\n        /* \"#utility.yul\":6821:6823   */\n      0x20\n        /* \"#utility.yul\":6810:6819   */\n      dup10\n        /* \"#utility.yul\":6806:6824   */\n      add\n        /* \"#utility.yul\":6793:6825   */\n      calldataload\n        /* \"#utility.yul\":6852:6870   */\n      0xffffffffffffffff\n        /* \"#utility.yul\":6844:6850   */\n      dup2\n        /* \"#utility.yul\":6841:6871   */\n      gt\n        /* \"#utility.yul\":6838:6955   */\n      iszero\n      tag_380\n      jumpi\n        /* \"#utility.yul\":6874:6953   */\n      tag_381\n      tag_228\n      jump\t// in\n    tag_381:\n        /* \"#utility.yul\":6838:6955   */\n    tag_380:\n        /* \"#utility.yul\":6987:7067   */\n      tag_382\n        /* \"#utility.yul\":7059:7066   */\n      dup12\n        /* \"#utility.yul\":7050:7056   */\n      dup3\n        /* \"#utility.yul\":7039:7048   */\n      dup13\n        /* \"#utility.yul\":7035:7057   */\n      add\n        /* \"#utility.yul\":6987:7067   */\n      tag_233\n      jump\t// in\n    tag_382:\n        /* \"#utility.yul\":6969:7067   */\n      swap7\n      pop\n      swap7\n      pop\n        /* \"#utility.yul\":6764:7077   */\n      pop\n        /* \"#utility.yul\":7144:7146   */\n      0x40\n        /* \"#utility.yul\":7133:7142   */\n      dup10\n        /* \"#utility.yul\":7129:7147   */\n      add\n        /* \"#utility.yul\":7116:7148   */\n      calldataload\n        /* \"#utility.yul\":7175:7193   */\n      0xffffffffffffffff\n        /* \"#utility.yul\":7167:7173   */\n      dup2\n        /* \"#utility.yul\":7164:7194   */\n      gt\n        /* \"#utility.yul\":7161:7278   */\n      iszero\n      tag_383\n      jumpi\n        /* \"#utility.yul\":7197:7276   */\n      tag_384\n      tag_228\n      jump\t// in\n    tag_384:\n        /* \"#utility.yul\":7161:7278   */\n    tag_383:\n        /* \"#utility.yul\":7310:7390   */\n      tag_385\n        /* \"#utility.yul\":7382:7389   */\n      dup12\n        /* \"#utility.yul\":7373:7379   */\n      dup3\n        /* \"#utility.yul\":7362:7371   */\n      dup13\n        /* \"#utility.yul\":7358:7380   */\n      add\n        /* \"#utility.yul\":7310:7390   */\n      tag_232\n      jump\t// in\n    tag_385:\n        /* \"#utility.yul\":7292:7390   */\n      swap5\n      pop\n      swap5\n      pop\n        /* \"#utility.yul\":7087:7400   */\n      pop\n        /* \"#utility.yul\":7467:7469   */\n      0x60\n        /* \"#utility.yul\":7456:7465   */\n      dup10\n        /* \"#utility.yul\":7452:7470   */\n      add\n        /* \"#utility.yul\":7439:7471   */\n      calldataload\n        /* \"#utility.yul\":7498:7516   */\n      0xffffffffffffffff\n        /* \"#utility.yul\":7490:7496   */\n      dup2\n        /* \"#utility.yul\":7487:7517   */\n      gt\n        /* \"#utility.yul\":7484:7601   */\n      iszero\n      tag_386\n      jumpi\n        /* \"#utility.yul\":7520:7599   */\n      tag_387\n      tag_228\n      jump\t// in\n    tag_387:\n        /* \"#utility.yul\":7484:7601   */\n    tag_386:\n        /* \"#utility.yul\":7633:7725   */\n      tag_388\n        /* \"#utility.yul\":7717:7724   */\n      dup12\n        /* \"#utility.yul\":7708:7714   */\n      dup3\n        /* \"#utility.yul\":7697:7706   */\n      dup13\n        /* \"#utility.yul\":7693:7715   */\n      add\n        /* \"#utility.yul\":7633:7725   */\n      tag_242\n      jump\t// in\n    tag_388:\n        /* \"#utility.yul\":7615:7725   */\n      swap3\n      pop\n      swap3\n      pop\n        /* \"#utility.yul\":7410:7735   */\n      pop\n        /* \"#utility.yul\":6033:7742   */\n      swap3\n      swap6\n      swap9\n      pop\n      swap3\n      swap6\n      swap9\n      swap1\n      swap4\n      swap7\n      pop\n      jump\t// out\n        /* \"#utility.yul\":7748:8077   */\n    tag_25:\n        /* \"#utility.yul\":7807:7813   */\n      0x00\n        /* \"#utility.yul\":7856:7858   */\n      0x20\n        /* \"#utility.yul\":7844:7853   */\n      dup3\n        /* \"#utility.yul\":7835:7842   */\n      dup5\n        /* \"#utility.yul\":7831:7854   */\n      sub\n        /* \"#utility.yul\":7827:7859   */\n      slt\n        /* \"#utility.yul\":7824:7943   */\n      iszero\n      tag_390\n      jumpi\n        /* \"#utility.yul\":7862:7941   */\n      tag_391\n      tag_227\n      jump\t// in\n    tag_391:\n        /* \"#utility.yul\":7824:7943   */\n    tag_390:\n        /* \"#utility.yul\":7982:7983   */\n      0x00\n        /* \"#utility.yul\":8007:8060   */\n      tag_392\n        /* \"#utility.yul\":8052:8059   */\n      dup5\n        /* \"#utility.yul\":8043:8049   */\n      dup3\n        /* \"#utility.yul\":8032:8041   */\n      dup6\n        /* \"#utility.yul\":8028:8050   */\n      add\n        /* \"#utility.yul\":8007:8060   */\n      tag_238\n      jump\t// in\n    tag_392:\n        /* \"#utility.yul\":7997:8060   */\n      swap2\n      pop\n        /* \"#utility.yul\":7953:8070   */\n      pop\n        /* \"#utility.yul\":7748:8077   */\n      swap3\n      swap2\n      pop\n      pop\n      jump\t// out\n        /* \"#utility.yul\":8083:8201   */\n    tag_243:\n        /* \"#utility.yul\":8170:8194   */\n      tag_394\n        /* \"#utility.yul\":8188:8193   */\n      dup2\n        /* \"#utility.yul\":8170:8194   */\n      tag_239\n      jump\t// in\n    tag_394:\n        /* \"#utility.yul\":8165:8168   */\n      dup3\n        /* \"#utility.yul\":8158:8195   */\n      mstore\n        /* \"#utility.yul\":8083:8201   */\n      pop\n      pop\n      jump\t// out\n        /* \"#utility.yul\":8207:8429   */\n    tag_28:\n        /* \"#utility.yul\":8300:8304   */\n      0x00\n        /* \"#utility.yul\":8338:8340   */\n      0x20\n        /* \"#utility.yul\":8327:8336   */\n      dup3\n        /* \"#utility.yul\":8323:8341   */\n      add\n        /* \"#utility.yul\":8315:8341   */\n      swap1\n      pop\n        /* \"#utility.yul\":8351:8422   */\n      tag_396\n        /* \"#utility.yul\":8419:8420   */\n      0x00\n        /* \"#utility.yul\":8408:8417   */\n      dup4\n        /* \"#utility.yul\":8404:8421   */\n      add\n        /* \"#utility.yul\":8395:8401   */\n      dup5\n        /* \"#utility.yul\":8351:8422   */\n      tag_243\n      jump\t// in\n    tag_396:\n        /* \"#utility.yul\":8207:8429   */\n      swap3\n      swap2\n      pop\n      pop\n      jump\t// out\n        /* \"#utility.yul\":8435:8553   */\n    tag_244:\n        /* \"#utility.yul\":8522:8546   */\n      tag_398\n        /* \"#utility.yul\":8540:8545   */\n      dup2\n        /* \"#utility.yul\":8522:8546   */\n      tag_236\n      jump\t// in\n    tag_398:\n        /* \"#utility.yul\":8517:8520   */\n      dup3\n        /* \"#utility.yul\":8510:8547   */\n      mstore\n        /* \"#utility.yul\":8435:8553   */\n      pop\n      pop\n      jump\t// out\n        /* \"#utility.yul\":8559:8781   */\n    tag_34:\n        /* \"#utility.yul\":8652:8656   */\n      0x00\n        /* \"#utility.yul\":8690:8692   */\n      0x20\n        /* \"#utility.yul\":8679:8688   */\n      dup3\n        /* \"#utility.yul\":8675:8693   */\n      add\n        /* \"#utility.yul\":8667:8693   */\n      swap1\n      pop\n        /* \"#utility.yul\":8703:8774   */\n      tag_400\n        /* \"#utility.yul\":8771:8772   */\n      0x00\n        /* \"#utility.yul\":8760:8769   */\n      dup4\n        /* \"#utility.yul\":8756:8773   */\n      add\n        /* \"#utility.yul\":8747:8753   */\n      dup5\n        /* \"#utility.yul\":8703:8774   */\n      tag_244\n      jump\t// in\n    tag_400:\n        /* \"#utility.yul\":8559:8781   */\n      swap3\n      swap2\n      pop\n      pop\n      jump\t// out\n        /* \"#utility.yul\":8787:8956   */\n    tag_245:\n        /* \"#utility.yul\":8871:8882   */\n      0x00\n        /* \"#utility.yul\":8905:8911   */\n      dup3\n        /* \"#utility.yul\":8900:8903   */\n      dup3\n        /* \"#utility.yul\":8893:8912   */\n      mstore\n        /* \"#utility.yul\":8945:8949   */\n      0x20\n        /* \"#utility.yul\":8940:8943   */\n      dup3\n        /* \"#utility.yul\":8936:8950   */\n      add\n        /* \"#utility.yul\":8921:8950   */\n      swap1\n      pop\n        /* \"#utility.yul\":8787:8956   */\n      swap3\n      swap2\n      pop\n      pop\n      jump\t// out\n        /* \"#utility.yul\":8962:9125   */\n    tag_246:\n        /* \"#utility.yul\":9102:9117   */\n      0x63757272656e6379206661696c00000000000000000000000000000000000000\n        /* \"#utility.yul\":9098:9099   */\n      0x00\n        /* \"#utility.yul\":9090:9096   */\n      dup3\n        /* \"#utility.yul\":9086:9100   */\n      add\n        /* \"#utility.yul\":9079:9118   */\n      mstore\n        /* \"#utility.yul\":8962:9125   */\n      pop\n      jump\t// out\n        /* \"#utility.yul\":9131:9497   */\n    tag_247:\n        /* \"#utility.yul\":9273:9276   */\n      0x00\n        /* \"#utility.yul\":9294:9361   */\n      tag_404\n        /* \"#utility.yul\":9358:9360   */\n      0x0d\n        /* \"#utility.yul\":9353:9356   */\n      dup4\n        /* \"#utility.yul\":9294:9361   */\n      tag_245\n      jump\t// in\n    tag_404:\n        /* \"#utility.yul\":9287:9361   */\n      swap2\n      pop\n        /* \"#utility.yul\":9370:9463   */\n      tag_405\n        /* \"#utility.yul\":9459:9462   */\n      dup3\n        /* \"#utility.yul\":9370:9463   */\n      tag_246\n      jump\t// in\n    tag_405:\n        /* \"#utility.yul\":9488:9490   */\n      0x20\n        /* \"#utility.yul\":9483:9486   */\n      dup3\n        /* \"#utility.yul\":9479:9491   */\n      add\n        /* \"#utility.yul\":9472:9491   */\n      swap1\n      pop\n        /* \"#utility.yul\":9131:9497   */\n      swap2\n      swap1\n      pop\n      jump\t// out\n        /* \"#utility.yul\":9503:9922   */\n    tag_44:\n        /* \"#utility.yul\":9669:9673   */\n      0x00\n        /* \"#utility.yul\":9707:9709   */\n      0x20\n        /* \"#utility.yul\":9696:9705   */\n      dup3\n        /* \"#utility.yul\":9692:9710   */\n      add\n        /* \"#utility.yul\":9684:9710   */\n      swap1\n      pop\n        /* \"#utility.yul\":9756:9765   */\n      dup2\n        /* \"#utility.yul\":9750:9754   */\n      dup2\n        /* \"#utility.yul\":9746:9766   */\n      sub\n        /* \"#utility.yul\":9742:9743   */\n      0x00\n        /* \"#utility.yul\":9731:9740   */\n      dup4\n        /* \"#utility.yul\":9727:9744   */\n      add\n        /* \"#utility.yul\":9720:9767   */\n      mstore\n        /* \"#utility.yul\":9784:9915   */\n      tag_407\n        /* \"#utility.yul\":9910:9914   */\n      dup2\n        /* \"#utility.yul\":9784:9915   */\n      tag_247\n      jump\t// in\n    tag_407:\n        /* \"#utility.yul\":9776:9915   */\n      swap1\n      pop\n        /* \"#utility.yul\":9503:9922   */\n      swap2\n      swap1\n      pop\n      jump\t// out\n        /* \"#utility.yul\":9928:10101   */\n    tag_248:\n        /* \"#utility.yul\":10068:10093   */\n      0x63757272656e6379206f7220616d6f756e74206661696c000000000000000000\n        /* \"#utility.yul\":10064:10065   */\n      0x00\n        /* \"#utility.yul\":10056:10062   */\n      dup3\n        /* \"#utility.yul\":10052:10066   */\n      add\n        /* \"#utility.yul\":10045:10094   */\n      mstore\n        /* \"#utility.yul\":9928:10101   */\n      pop\n      jump\t// out\n        /* \"#utility.yul\":10107:10473   */\n    tag_249:\n        /* \"#utility.yul\":10249:10252   */\n      0x00\n        /* \"#utility.yul\":10270:10337   */\n      tag_410\n        /* \"#utility.yul\":10334:10336   */\n      0x17\n        /* \"#utility.yul\":10329:10332   */\n      dup4\n        /* \"#utility.yul\":10270:10337   */\n      tag_245\n      jump\t// in\n    tag_410:\n        /* \"#utility.yul\":10263:10337   */\n      swap2\n      pop\n        /* \"#utility.yul\":10346:10439   */\n      tag_411\n        /* \"#utility.yul\":10435:10438   */\n      dup3\n        /* \"#utility.yul\":10346:10439   */\n      tag_248\n      jump\t// in\n    tag_411:\n        /* \"#utility.yul\":10464:10466   */\n      0x20\n        /* \"#utility.yul\":10459:10462   */\n      dup3\n        /* \"#utility.yul\":10455:10467   */\n      add\n        /* \"#utility.yul\":10448:10467   */\n      swap1\n      pop\n        /* \"#utility.yul\":10107:10473   */\n      swap2\n      swap1\n      pop\n      jump\t// out\n        /* \"#utility.yul\":10479:10898   */\n    tag_47:\n        /* \"#utility.yul\":10645:10649   */\n      0x00\n        /* \"#utility.yul\":10683:10685   */\n      0x20\n        /* \"#utility.yul\":10672:10681   */\n      dup3\n        /* \"#utility.yul\":10668:10686   */\n      add\n        /* \"#utility.yul\":10660:10686   */\n      swap1\n      pop\n        /* \"#utility.yul\":10732:10741   */\n      dup2\n        /* \"#utility.yul\":10726:10730   */\n      dup2\n        /* \"#utility.yul\":10722:10742   */\n      sub\n        /* \"#utility.yul\":10718:10719   */\n      0x00\n        /* \"#utility.yul\":10707:10716   */\n      dup4\n        /* \"#utility.yul\":10703:10720   */\n      add\n        /* \"#utility.yul\":10696:10743   */\n      mstore\n        /* \"#utility.yul\":10760:10891   */\n      tag_413\n        /* \"#utility.yul\":10886:10890   */\n      dup2\n        /* \"#utility.yul\":10760:10891   */\n      tag_249\n      jump\t// in\n    tag_413:\n        /* \"#utility.yul\":10752:10891   */\n      swap1\n      pop\n        /* \"#utility.yul\":10479:10898   */\n      swap2\n      swap1\n      pop\n      jump\t// out\n        /* \"#utility.yul\":10904:11084   */\n    tag_54:\n        /* \"#utility.yul\":10952:11029   */\n      0x4e487b7100000000000000000000000000000000000000000000000000000000\n        /* \"#utility.yul\":10949:10950   */\n      0x00\n        /* \"#utility.yul\":10942:11030   */\n      mstore\n        /* \"#utility.yul\":11049:11053   */\n      0x32\n        /* \"#utility.yul\":11046:11047   */\n      0x04\n        /* \"#utility.yul\":11039:11054   */\n      mstore\n        /* \"#utility.yul\":11073:11077   */\n      0x24\n        /* \"#utility.yul\":11070:11071   */\n      0x00\n        /* \"#utility.yul\":11063:11078   */\n      revert\n        /* \"#utility.yul\":11090:11251   */\n    tag_250:\n        /* \"#utility.yul\":11230:11243   */\n      0x616d6f756e74206661696c000000000000000000000000000000000000000000\n        /* \"#utility.yul\":11226:11227   */\n      0x00\n        /* \"#utility.yul\":11218:11224   */\n      dup3\n        /* \"#utility.yul\":11214:11228   */\n      add\n        /* \"#utility.yul\":11207:11244   */\n      mstore\n        /* \"#utility.yul\":11090:11251   */\n      pop\n      jump\t// out\n        /* \"#utility.yul\":11257:11623   */\n    tag_251:\n        /* \"#utility.yul\":11399:11402   */\n      0x00\n        /* \"#utility.yul\":11420:11487   */\n      tag_417\n        /* \"#utility.yul\":11484:11486   */\n      0x0b\n        /* \"#utility.yul\":11479:11482   */\n      dup4\n        /* \"#utility.yul\":11420:11487   */\n      tag_245\n      jump\t// in\n    tag_417:\n        /* \"#utility.yul\":11413:11487   */\n      swap2\n      pop\n        /* \"#utility.yul\":11496:11589   */\n      tag_418\n        /* \"#utility.yul\":11585:11588   */\n      dup3\n        /* \"#utility.yul\":11496:11589   */\n      tag_250\n      jump\t// in\n    tag_418:\n        /* \"#utility.yul\":11614:11616   */\n      0x20\n        /* \"#utility.yul\":11609:11612   */\n      dup3\n        /* \"#utility.yul\":11605:11617   */\n      add\n        /* \"#utility.yul\":11598:11617   */\n      swap1\n      pop\n        /* \"#utility.yul\":11257:11623   */\n      swap2\n      swap1\n      pop\n      jump\t// out\n        /* \"#utility.yul\":11629:12048   */\n    tag_57:\n        /* \"#utility.yul\":11795:11799   */\n      0x00\n        /* \"#utility.yul\":11833:11835   */\n      0x20\n        /* \"#utility.yul\":11822:11831   */\n      dup3\n        /* \"#utility.yul\":11818:11836   */\n      add\n        /* \"#utility.yul\":11810:11836   */\n      swap1\n      pop\n        /* \"#utility.yul\":11882:11891   */\n      dup2\n        /* \"#utility.yul\":11876:11880   */\n      dup2\n        /* \"#utility.yul\":11872:11892   */\n      sub\n        /* \"#utility.yul\":11868:11869   */\n      0x00\n        /* \"#utility.yul\":11857:11866   */\n      dup4\n        /* \"#utility.yul\":11853:11870   */\n      add\n        /* \"#utility.yul\":11846:11893   */\n      mstore\n        /* \"#utility.yul\":11910:12041   */\n      tag_420\n        /* \"#utility.yul\":12036:12040   */\n      dup2\n        /* \"#utility.yul\":11910:12041   */\n      tag_251\n      jump\t// in\n    tag_420:\n        /* \"#utility.yul\":11902:12041   */\n      swap1\n      pop\n        /* \"#utility.yul\":11629:12048   */\n      swap2\n      swap1\n      pop\n      jump\t// out\n        /* \"#utility.yul\":12054:12224   */\n    tag_252:\n        /* \"#utility.yul\":12194:12216   */\n      0x496e73756666696369656e742062616c616e6365000000000000000000000000\n        /* \"#utility.yul\":12190:12191   */\n      0x00\n        /* \"#utility.yul\":12182:12188   */\n      dup3\n        /* \"#utility.yul\":12178:12192   */\n      add\n        /* \"#utility.yul\":12171:12217   */\n      mstore\n        /* \"#utility.yul\":12054:12224   */\n      pop\n      jump\t// out\n        /* \"#utility.yul\":12230:12596   */\n    tag_253:\n        /* \"#utility.yul\":12372:12375   */\n      0x00\n        /* \"#utility.yul\":12393:12460   */\n      tag_423\n        /* \"#utility.yul\":12457:12459   */\n      0x14\n        /* \"#utility.yul\":12452:12455   */\n      dup4\n        /* \"#utility.yul\":12393:12460   */\n      tag_245\n      jump\t// in\n    tag_423:\n        /* \"#utility.yul\":12386:12460   */\n      swap2\n      pop\n        /* \"#utility.yul\":12469:12562   */\n      tag_424\n        /* \"#utility.yul\":12558:12561   */\n      dup3\n        /* \"#utility.yul\":12469:12562   */\n      tag_252\n      jump\t// in\n    tag_424:\n        /* \"#utility.yul\":12587:12589   */\n      0x20\n        /* \"#utility.yul\":12582:12585   */\n      dup3\n        /* \"#utility.yul\":12578:12590   */\n      add\n        /* \"#utility.yul\":12571:12590   */\n      swap1\n      pop\n        /* \"#utility.yul\":12230:12596   */\n      swap2\n      swap1\n      pop\n      jump\t// out\n        /* \"#utility.yul\":12602:13021   */\n    tag_65:\n        /* \"#utility.yul\":12768:12772   */\n      0x00\n        /* \"#utility.yul\":12806:12808   */\n      0x20\n        /* \"#utility.yul\":12795:12804   */\n      dup3\n        /* \"#utility.yul\":12791:12809   */\n      add\n        /* \"#utility.yul\":12783:12809   */\n      swap1\n      pop\n        /* \"#utility.yul\":12855:12864   */\n      dup2\n        /* \"#utility.yul\":12849:12853   */\n      dup2\n        /* \"#utility.yul\":12845:12865   */\n      sub\n        /* \"#utility.yul\":12841:12842   */\n      0x00\n        /* \"#utility.yul\":12830:12839   */\n      dup4\n        /* \"#utility.yul\":12826:12843   */\n      add\n        /* \"#utility.yul\":12819:12866   */\n      mstore\n        /* \"#utility.yul\":12883:13014   */\n      tag_426\n        /* \"#utility.yul\":13009:13013   */\n      dup2\n        /* \"#utility.yul\":12883:13014   */\n      tag_253\n      jump\t// in\n    tag_426:\n        /* \"#utility.yul\":12875:13014   */\n      swap1\n      pop\n        /* \"#utility.yul\":12602:13021   */\n      swap2\n      swap1\n      pop\n      jump\t// out\n        /* \"#utility.yul\":13027:13207   */\n    tag_254:\n        /* \"#utility.yul\":13075:13152   */\n      0x4e487b7100000000000000000000000000000000000000000000000000000000\n        /* \"#utility.yul\":13072:13073   */\n      0x00\n        /* \"#utility.yul\":13065:13153   */\n      mstore\n        /* \"#utility.yul\":13172:13176   */\n      0x11\n        /* \"#utility.yul\":13169:13170   */\n      0x04\n        /* \"#utility.yul\":13162:13177   */\n      mstore\n        /* \"#utility.yul\":13196:13200   */\n      0x24\n        /* \"#utility.yul\":13193:13194   */\n      0x00\n        /* \"#utility.yul\":13186:13201   */\n      revert\n        /* \"#utility.yul\":13213:13407   */\n    tag_79:\n        /* \"#utility.yul\":13253:13257   */\n      0x00\n        /* \"#utility.yul\":13273:13293   */\n      tag_429\n        /* \"#utility.yul\":13291:13292   */\n      dup3\n        /* \"#utility.yul\":13273:13293   */\n      tag_239\n      jump\t// in\n    tag_429:\n        /* \"#utility.yul\":13268:13293   */\n      swap2\n      pop\n        /* \"#utility.yul\":13307:13327   */\n      tag_430\n        /* \"#utility.yul\":13325:13326   */\n      dup4\n        /* \"#utility.yul\":13307:13327   */\n      tag_239\n      jump\t// in\n    tag_430:\n        /* \"#utility.yul\":13302:13327   */\n      swap3\n      pop\n        /* \"#utility.yul\":13351:13352   */\n      dup3\n        /* \"#utility.yul\":13348:13349   */\n      dup3\n        /* \"#utility.yul\":13344:13353   */\n      sub\n        /* \"#utility.yul\":13336:13353   */\n      swap1\n      pop\n        /* \"#utility.yul\":13375:13376   */\n      dup2\n        /* \"#utility.yul\":13369:13373   */\n      dup2\n        /* \"#utility.yul\":13366:13377   */\n      gt\n        /* \"#utility.yul\":13363:13400   */\n      iszero\n      tag_431\n      jumpi\n        /* \"#utility.yul\":13380:13398   */\n      tag_432\n      tag_254\n      jump\t// in\n    tag_432:\n        /* \"#utility.yul\":13363:13400   */\n    tag_431:\n        /* \"#utility.yul\":13213:13407   */\n      swap3\n      swap2\n      pop\n      pop\n      jump\t// out\n        /* \"#utility.yul\":13413:13646   */\n    tag_84:\n        /* \"#utility.yul\":13452:13455   */\n      0x00\n        /* \"#utility.yul\":13475:13499   */\n      tag_434\n        /* \"#utility.yul\":13493:13498   */\n      dup3\n        /* \"#utility.yul\":13475:13499   */\n      tag_239\n      jump\t// in\n    tag_434:\n        /* \"#utility.yul\":13466:13499   */\n      swap2\n      pop\n        /* \"#utility.yul\":13521:13587   */\n      0xffffffffffffffffffffffffffffffffffffffffffffffffffffffffffffffff\n        /* \"#utility.yul\":13514:13519   */\n      dup3\n        /* \"#utility.yul\":13511:13588   */\n      sub\n        /* \"#utility.yul\":13508:13611   */\n      tag_435\n      jumpi\n        /* \"#utility.yul\":13591:13609   */\n      tag_436\n      tag_254\n      jump\t// in\n    tag_436:\n        /* \"#utility.yul\":13508:13611   */\n    tag_435:\n        /* \"#utility.yul\":13638:13639   */\n      0x01\n        /* \"#utility.yul\":13631:13636   */\n      dup3\n        /* \"#utility.yul\":13627:13640   */\n      add\n        /* \"#utility.yul\":13620:13640   */\n      swap1\n      pop\n        /* \"#utility.yul\":13413:13646   */\n      swap2\n      swap1\n      pop\n      jump\t// out\n        /* \"#utility.yul\":13652:13815   */\n    tag_255:\n        /* \"#utility.yul\":13769:13780   */\n      0x00\n        /* \"#utility.yul\":13806:13809   */\n      dup2\n        /* \"#utility.yul\":13791:13809   */\n      swap1\n      pop\n        /* \"#utility.yul\":13652:13815   */\n      swap3\n      swap2\n      pop\n      pop\n      jump\t// out\n        /* \"#utility.yul\":13821:13923   */\n    tag_256:\n        /* \"#utility.yul\":13890:13894   */\n      0x00\n        /* \"#utility.yul\":13913:13916   */\n      dup2\n        /* \"#utility.yul\":13905:13916   */\n      swap1\n      pop\n        /* \"#utility.yul\":13821:13923   */\n      swap2\n      swap1\n      pop\n      jump\t// out\n        /* \"#utility.yul\":13929:14045   */\n    tag_257:\n        /* \"#utility.yul\":14014:14038   */\n      tag_440\n        /* \"#utility.yul\":14032:14037   */\n      dup2\n        /* \"#utility.yul\":14014:14038   */\n      tag_236\n      jump\t// in\n    tag_440:\n        /* \"#utility.yul\":14009:14012   */\n      dup3\n        /* \"#utility.yul\":14002:14039   */\n      mstore\n        /* \"#utility.yul\":13929:14045   */\n      pop\n      pop\n      jump\t// out\n        /* \"#utility.yul\":14051:14246   */\n    tag_258:\n        /* \"#utility.yul\":14128:14138   */\n      0x00\n        /* \"#utility.yul\":14149:14203   */\n      tag_442\n        /* \"#utility.yul\":14199:14202   */\n      dup4\n        /* \"#utility.yul\":14191:14197   */\n      dup4\n        /* \"#utility.yul\":14149:14203   */\n      tag_257\n      jump\t// in\n    tag_442:\n        /* \"#utility.yul\":14235:14239   */\n      0x20\n        /* \"#utility.yul\":14230:14233   */\n      dup4\n        /* \"#utility.yul\":14226:14240   */\n      add\n        /* \"#utility.yul\":14212:14240   */\n      swap1\n      pop\n        /* \"#utility.yul\":14051:14246   */\n      swap3\n      swap2\n      pop\n      pop\n      jump\t// out\n        /* \"#utility.yul\":14252:14374   */\n    tag_259:\n        /* \"#utility.yul\":14304:14309   */\n      0x00\n        /* \"#utility.yul\":14329:14368   */\n      tag_444\n        /* \"#utility.yul\":14364:14366   */\n      0x20\n        /* \"#utility.yul\":14359:14362   */\n      dup5\n        /* \"#utility.yul\":14355:14367   */\n      add\n        /* \"#utility.yul\":14350:14353   */\n      dup5\n        /* \"#utility.yul\":14329:14368   */\n      tag_238\n      jump\t// in\n    tag_444:\n        /* \"#utility.yul\":14320:14368   */\n      swap1\n      pop\n        /* \"#utility.yul\":14252:14374   */\n      swap3\n      swap2\n      pop\n      pop\n      jump\t// out\n        /* \"#utility.yul\":14380:14495   */\n    tag_260:\n        /* \"#utility.yul\":14452:14456   */\n      0x00\n        /* \"#utility.yul\":14484:14488   */\n      0x20\n        /* \"#utility.yul\":14479:14482   */\n      dup3\n        /* \"#utility.yul\":14475:14489   */\n      add\n        /* \"#utility.yul\":14467:14489   */\n      swap1\n      pop\n        /* \"#utility.yul\":14380:14495   */\n      swap2\n      swap1\n      pop\n      jump\t// out\n        /* \"#utility.yul\":14531:15274   */\n    tag_261:\n        /* \"#utility.yul\":14678:14681   */\n      0x00\n        /* \"#utility.yul\":14701:14805   */\n      tag_447\n        /* \"#utility.yul\":14798:14804   */\n      dup4\n        /* \"#utility.yul\":14793:14796   */\n      dup6\n        /* \"#utility.yul\":14701:14805   */\n      tag_255\n      jump\t// in\n    tag_447:\n        /* \"#utility.yul\":14694:14805   */\n      swap4\n      pop\n        /* \"#utility.yul\":14829:14887   */\n      tag_448\n        /* \"#utility.yul\":14881:14886   */\n      dup3\n        /* \"#utility.yul\":14829:14887   */\n      tag_256\n      jump\t// in\n    tag_448:\n        /* \"#utility.yul\":14910:14917   */\n      dup1\n        /* \"#utility.yul\":14941:14942   */\n      0x00\n        /* \"#utility.yul\":14926:15249   */\n    tag_449:\n        /* \"#utility.yul\":14951:14957   */\n      dup6\n        /* \"#utility.yul\":14948:14949   */\n      dup2\n        /* \"#utility.yul\":14945:14958   */\n      lt\n        /* \"#utility.yul\":14926:15249   */\n      iszero\n      tag_451\n      jumpi\n        /* \"#utility.yul\":15021:15063   */\n      tag_452\n        /* \"#utility.yul\":15056:15062   */\n      dup3\n        /* \"#utility.yul\":15047:15054   */\n      dup5\n        /* \"#utility.yul\":15021:15063   */\n      tag_259\n      jump\t// in\n    tag_452:\n        /* \"#utility.yul\":15083:15154   */\n      tag_453\n        /* \"#utility.yul\":15150:15153   */\n      dup9\n        /* \"#utility.yul\":15135:15148   */\n      dup3\n        /* \"#utility.yul\":15083:15154   */\n      tag_258\n      jump\t// in\n    tag_453:\n        /* \"#utility.yul\":15076:15154   */\n      swap8\n      pop\n        /* \"#utility.yul\":15177:15239   */\n      tag_454\n        /* \"#utility.yul\":15232:15238   */\n      dup4\n        /* \"#utility.yul\":15177:15239   */\n      tag_260\n      jump\t// in\n    tag_454:\n        /* \"#utility.yul\":15167:15239   */\n      swap3\n      pop\n        /* \"#utility.yul\":14986:15249   */\n      pop\n        /* \"#utility.yul\":14973:14974   */\n      0x01\n        /* \"#utility.yul\":14970:14971   */\n      dup2\n        /* \"#utility.yul\":14966:14975   */\n      add\n        /* \"#utility.yul\":14961:14975   */\n      swap1\n      pop\n        /* \"#utility.yul\":14926:15249   */\n      jump(tag_449)\n    tag_451:\n        /* \"#utility.yul\":14930:14944   */\n      pop\n        /* \"#utility.yul\":15265:15268   */\n      dup6\n        /* \"#utility.yul\":15258:15268   */\n      swap3\n      pop\n        /* \"#utility.yul\":14683:15274   */\n      pop\n      pop\n        /* \"#utility.yul\":14531:15274   */\n      swap4\n      swap3\n      pop\n      pop\n      pop\n      jump\t// out\n        /* \"#utility.yul\":15280:15635   */\n    tag_86:\n        /* \"#utility.yul\":15452:15455   */\n      0x00\n        /* \"#utility.yul\":15474:15609   */\n      tag_456\n        /* \"#utility.yul\":15605:15608   */\n      dup3\n        /* \"#utility.yul\":15596:15602   */\n      dup5\n        /* \"#utility.yul\":15588:15594   */\n      dup7\n        /* \"#utility.yul\":15474:15609   */\n      tag_261\n      jump\t// in\n    tag_456:\n        /* \"#utility.yul\":15467:15609   */\n      swap2\n      pop\n        /* \"#utility.yul\":15626:15629   */\n      dup2\n        /* \"#utility.yul\":15619:15629   */\n      swap1\n      pop\n        /* \"#utility.yul\":15280:15635   */\n      swap4\n      swap3\n      pop\n      pop\n      pop\n      jump\t// out\n        /* \"#utility.yul\":15641:15825   */\n    tag_262:\n        /* \"#utility.yul\":15740:15751   */\n      0x00\n        /* \"#utility.yul\":15774:15780   */\n      dup3\n        /* \"#utility.yul\":15769:15772   */\n      dup3\n        /* \"#utility.yul\":15762:15781   */\n      mstore\n        /* \"#utility.yul\":15814:15818   */\n      0x20\n        /* \"#utility.yul\":15809:15812   */\n      dup3\n        /* \"#utility.yul\":15805:15819   */\n      add\n        /* \"#utility.yul\":15790:15819   */\n      swap1\n      pop\n        /* \"#utility.yul\":15641:15825   */\n      swap3\n      swap2\n      pop\n      pop\n      jump\t// out\n        /* \"#utility.yul\":15831:15948   */\n    tag_263:\n        /* \"#utility.yul\":15940:15941   */\n      0x00\n        /* \"#utility.yul\":15937:15938   */\n      dup1\n        /* \"#utility.yul\":15930:15942   */\n      revert\n        /* \"#utility.yul\":15954:16052   */\n    tag_264:\n        /* \"#utility.yul\":16038:16044   */\n      dup3\n        /* \"#utility.yul\":16033:16036   */\n      dup2\n        /* \"#utility.yul\":16028:16031   */\n      dup4\n        /* \"#utility.yul\":16015:16045   */\n      calldatacopy\n        /* \"#utility.yul\":15954:16052   */\n      pop\n      pop\n      pop\n      jump\t// out\n        /* \"#utility.yul\":16088:16625   */\n    tag_265:\n        /* \"#utility.yul\":16216:16219   */\n      0x00\n        /* \"#utility.yul\":16237:16323   */\n      tag_461\n        /* \"#utility.yul\":16316:16322   */\n      dup4\n        /* \"#utility.yul\":16311:16314   */\n      dup6\n        /* \"#utility.yul\":16237:16323   */\n      tag_262\n      jump\t// in\n    tag_461:\n        /* \"#utility.yul\":16230:16323   */\n      swap4\n      pop\n        /* \"#utility.yul\":16347:16413   */\n      0x07ffffffffffffffffffffffffffffffffffffffffffffffffffffffffffffff\n        /* \"#utility.yul\":16339:16345   */\n      dup4\n        /* \"#utility.yul\":16336:16414   */\n      gt\n        /* \"#utility.yul\":16333:16498   */\n      iszero\n      tag_462\n      jumpi\n        /* \"#utility.yul\":16417:16496   */\n      tag_463\n      tag_263\n      jump\t// in\n    tag_463:\n        /* \"#utility.yul\":16333:16498   */\n    tag_462:\n        /* \"#utility.yul\":16529:16533   */\n      0x20\n        /* \"#utility.yul\":16521:16527   */\n      dup4\n        /* \"#utility.yul\":16517:16534   */\n      mul\n        /* \"#utility.yul\":16507:16534   */\n      swap3\n      pop\n        /* \"#utility.yul\":16544:16587   */\n      tag_464\n        /* \"#utility.yul\":16580:16586   */\n      dup4\n        /* \"#utility.yul\":16575:16578   */\n      dup6\n        /* \"#utility.yul\":16568:16573   */\n      dup5\n        /* \"#utility.yul\":16544:16587   */\n      tag_264\n      jump\t// in\n    tag_464:\n        /* \"#utility.yul\":16612:16618   */\n      dup3\n        /* \"#utility.yul\":16607:16610   */\n      dup5\n        /* \"#utility.yul\":16603:16619   */\n      add\n        /* \"#utility.yul\":16596:16619   */\n      swap1\n      pop\n        /* \"#utility.yul\":16088:16625   */\n      swap4\n      swap3\n      pop\n      pop\n      pop\n      jump\t// out\n        /* \"#utility.yul\":16631:16777   */\n    tag_266:\n        /* \"#utility.yul\":16728:16734   */\n      dup3\n        /* \"#utility.yul\":16723:16726   */\n      dup2\n        /* \"#utility.yul\":16718:16721   */\n      dup4\n        /* \"#utility.yul\":16705:16735   */\n      calldatacopy\n        /* \"#utility.yul\":16769:16770   */\n      0x00\n        /* \"#utility.yul\":16760:16766   */\n      dup4\n        /* \"#utility.yul\":16755:16758   */\n      dup4\n        /* \"#utility.yul\":16751:16767   */\n      add\n        /* \"#utility.yul\":16744:16771   */\n      mstore\n        /* \"#utility.yul\":16631:16777   */\n      pop\n      pop\n      pop\n      jump\t// out\n        /* \"#utility.yul\":16783:16885   */\n    tag_267:\n        /* \"#utility.yul\":16824:16830   */\n      0x00\n        /* \"#utility.yul\":16875:16877   */\n      0x1f\n        /* \"#utility.yul\":16871:16878   */\n      not\n        /* \"#utility.yul\":16866:16868   */\n      0x1f\n        /* \"#utility.yul\":16859:16864   */\n      dup4\n        /* \"#utility.yul\":16855:16869   */\n      add\n        /* \"#utility.yul\":16851:16879   */\n      and\n        /* \"#utility.yul\":16841:16879   */\n      swap1\n      pop\n        /* \"#utility.yul\":16783:16885   */\n      swap2\n      swap1\n      pop\n      jump\t// out\n        /* \"#utility.yul\":16915:17232   */\n    tag_268:\n        /* \"#utility.yul\":17013:17016   */\n      0x00\n        /* \"#utility.yul\":17034:17105   */\n      tag_468\n        /* \"#utility.yul\":17098:17104   */\n      dup4\n        /* \"#utility.yul\":17093:17096   */\n      dup6\n        /* \"#utility.yul\":17034:17105   */\n      tag_245\n      jump\t// in\n    tag_468:\n        /* \"#utility.yul\":17027:17105   */\n      swap4\n      pop\n        /* \"#utility.yul\":17115:17171   */\n      tag_469\n        /* \"#utility.yul\":17164:17170   */\n      dup4\n        /* \"#utility.yul\":17159:17162   */\n      dup6\n        /* \"#utility.yul\":17152:17157   */\n      dup5\n        /* \"#utility.yul\":17115:17171   */\n      tag_266\n      jump\t// in\n    tag_469:\n        /* \"#utility.yul\":17196:17225   */\n      tag_470\n        /* \"#utility.yul\":17218:17224   */\n      dup4\n        /* \"#utility.yul\":17196:17225   */\n      tag_267\n      jump\t// in\n    tag_470:\n        /* \"#utility.yul\":17191:17194   */\n      dup5\n        /* \"#utility.yul\":17187:17226   */\n      add\n        /* \"#utility.yul\":17180:17226   */\n      swap1\n      pop\n        /* \"#utility.yul\":16915:17232   */\n      swap4\n      swap3\n      pop\n      pop\n      pop\n      jump\t// out\n        /* \"#utility.yul\":17238:17852   */\n    tag_88:\n        /* \"#utility.yul\":17449:17453   */\n      0x00\n        /* \"#utility.yul\":17487:17489   */\n      0x40\n        /* \"#utility.yul\":17476:17485   */\n      dup3\n        /* \"#utility.yul\":17472:17490   */\n      add\n        /* \"#utility.yul\":17464:17490   */\n      swap1\n      pop\n        /* \"#utility.yul\":17536:17545   */\n      dup2\n        /* \"#utility.yul\":17530:17534   */\n      dup2\n        /* \"#utility.yul\":17526:17546   */\n      sub\n        /* \"#utility.yul\":17522:17523   */\n      0x00\n        /* \"#utility.yul\":17511:17520   */\n      dup4\n        /* \"#utility.yul\":17507:17524   */\n      add\n        /* \"#utility.yul\":17500:17547   */\n      mstore\n        /* \"#utility.yul\":17564:17682   */\n      tag_472\n        /* \"#utility.yul\":17677:17681   */\n      dup2\n        /* \"#utility.yul\":17668:17674   */\n      dup7\n        /* \"#utility.yul\":17660:17666   */\n      dup9\n        /* \"#utility.yul\":17564:17682   */\n      tag_265\n      jump\t// in\n    tag_472:\n        /* \"#utility.yul\":17556:17682   */\n      swap1\n      pop\n        /* \"#utility.yul\":17729:17738   */\n      dup2\n        /* \"#utility.yul\":17723:17727   */\n      dup2\n        /* \"#utility.yul\":17719:17739   */\n      sub\n        /* \"#utility.yul\":17714:17716   */\n      0x20\n        /* \"#utility.yul\":17703:17712   */\n      dup4\n        /* \"#utility.yul\":17699:17717   */\n      add\n        /* \"#utility.yul\":17692:17740   */\n      mstore\n        /* \"#utility.yul\":17757:17845   */\n      tag_473\n        /* \"#utility.yul\":17840:17844   */\n      dup2\n        /* \"#utility.yul\":17831:17837   */\n      dup5\n        /* \"#utility.yul\":17823:17829   */\n      dup7\n        /* \"#utility.yul\":17757:17845   */\n      tag_268\n      jump\t// in\n    tag_473:\n        /* \"#utility.yul\":17749:17845   */\n      swap1\n      pop\n        /* \"#utility.yul\":17238:17852   */\n      swap6\n      swap5\n      pop\n      pop\n      pop\n      pop\n      pop\n      jump\t// out\n        /* \"#utility.yul\":17858:18049   */\n    tag_95:\n        /* \"#utility.yul\":17898:17901   */\n      0x00\n        /* \"#utility.yul\":17917:17937   */\n      tag_475\n        /* \"#utility.yul\":17935:17936   */\n      dup3\n        /* \"#utility.yul\":17917:17937   */\n      tag_239\n      jump\t// in\n    tag_475:\n        /* \"#utility.yul\":17912:17937   */\n      swap2\n      pop\n        /* \"#utility.yul\":17951:17971   */\n      tag_476\n        /* \"#utility.yul\":17969:17970   */\n      dup4\n        /* \"#utility.yul\":17951:17971   */\n      tag_239\n      jump\t// in\n    tag_476:\n        /* \"#utility.yul\":17946:17971   */\n      swap3\n      pop\n        /* \"#utility.yul\":17994:17995   */\n      dup3\n        /* \"#utility.yul\":17991:17992   */\n      dup3\n        /* \"#utility.yul\":17987:17996   */\n      add\n        /* \"#utility.yul\":17980:17996   */\n      swap1\n      pop\n        /* \"#utility.yul\":18015:18018   */\n      dup1\n        /* \"#utility.yul\":18012:18013   */\n      dup3\n        /* \"#utility.yul\":18009:18019   */\n      gt\n        /* \"#utility.yul\":18006:18042   */\n      iszero\n      tag_477\n      jumpi\n        /* \"#utility.yul\":18022:18040   */\n      tag_478\n      tag_254\n      jump\t// in\n    tag_478:\n        /* \"#utility.yul\":18006:18042   */\n    tag_477:\n        /* \"#utility.yul\":17858:18049   */\n      swap3\n      swap2\n      pop\n      pop\n      jump\t// out\n        /* \"#utility.yul\":18055:18220   */\n    tag_269:\n        /* \"#utility.yul\":18195:18212   */\n      0x616d6f756e74206f766572666c6f770000000000000000000000000000000000\n        /* \"#utility.yul\":18191:18192   */\n      0x00\n        /* \"#utility.yul\":18183:18189   */\n      dup3\n        /* \"#utility.yul\":18179:18193   */\n      add\n        /* \"#utility.yul\":18172:18213   */\n      mstore\n        /* \"#utility.yul\":18055:18220   */\n      pop\n      jump\t// out\n        /* \"#utility.yul\":18226:18592   */\n    tag_270:\n        /* \"#utility.yul\":18368:18371   */\n      0x00\n        /* \"#utility.yul\":18389:18456   */\n      tag_481\n        /* \"#utility.yul\":18453:18455   */\n      0x0f\n        /* \"#utility.yul\":18448:18451   */\n      dup4\n        /* \"#utility.yul\":18389:18456   */\n      tag_245\n      jump\t// in\n    tag_481:\n        /* \"#utility.yul\":18382:18456   */\n      swap2\n      pop\n        /* \"#utility.yul\":18465:18558   */\n      tag_482\n        /* \"#utility.yul\":18554:18557   */\n      dup3\n        /* \"#utility.yul\":18465:18558   */\n      tag_269\n      jump\t// in\n    tag_482:\n        /* \"#utility.yul\":18583:18585   */\n      0x20\n        /* \"#utility.yul\":18578:18581   */\n      dup3\n        /* \"#utility.yul\":18574:18586   */\n      add\n        /* \"#utility.yul\":18567:18586   */\n      swap1\n      pop\n        /* \"#utility.yul\":18226:18592   */\n      swap2\n      swap1\n      pop\n      jump\t// out\n        /* \"#utility.yul\":18598:19017   */\n    tag_98:\n        /* \"#utility.yul\":18764:18768   */\n      0x00\n        /* \"#utility.yul\":18802:18804   */\n      0x20\n        /* \"#utility.yul\":18791:18800   */\n      dup3\n        /* \"#utility.yul\":18787:18805   */\n      add\n        /* \"#utility.yul\":18779:18805   */\n      swap1\n      pop\n        /* \"#utility.yul\":18851:18860   */\n      dup2\n        /* \"#utility.yul\":18845:18849   */\n      dup2\n        /* \"#utility.yul\":18841:18861   */\n      sub\n        /* \"#utility.yul\":18837:18838   */\n      0x00\n        /* \"#utility.yul\":18826:18835   */\n      dup4\n        /* \"#utility.yul\":18822:18839   */\n      add\n        /* \"#utility.yul\":18815:18862   */\n      mstore\n        /* \"#utility.yul\":18879:19010   */\n      tag_484\n        /* \"#utility.yul\":19005:19009   */\n      dup2\n        /* \"#utility.yul\":18879:19010   */\n      tag_270\n      jump\t// in\n    tag_484:\n        /* \"#utility.yul\":18871:19010   */\n      swap1\n      pop\n        /* \"#utility.yul\":18598:19017   */\n      swap2\n      swap1\n      pop\n      jump\t// out\n        /* \"#utility.yul\":19023:19466   */\n    tag_103:\n        /* \"#utility.yul\":19174:19178   */\n      0x00\n        /* \"#utility.yul\":19212:19214   */\n      0x40\n        /* \"#utility.yul\":19201:19210   */\n      dup3\n        /* \"#utility.yul\":19197:19215   */\n      add\n        /* \"#utility.yul\":19189:19215   */\n      swap1\n      pop\n        /* \"#utility.yul\":19225:19296   */\n      tag_486\n        /* \"#utility.yul\":19293:19294   */\n      0x00\n        /* \"#utility.yul\":19282:19291   */\n      dup4\n        /* \"#utility.yul\":19278:19295   */\n      add\n        /* \"#utility.yul\":19269:19275   */\n      dup7\n        /* \"#utility.yul\":19225:19296   */\n      tag_243\n      jump\t// in\n    tag_486:\n        /* \"#utility.yul\":19343:19352   */\n      dup2\n        /* \"#utility.yul\":19337:19341   */\n      dup2\n        /* \"#utility.yul\":19333:19353   */\n      sub\n        /* \"#utility.yul\":19328:19330   */\n      0x20\n        /* \"#utility.yul\":19317:19326   */\n      dup4\n        /* \"#utility.yul\":19313:19331   */\n      add\n        /* \"#utility.yul\":19306:19354   */\n      mstore\n        /* \"#utility.yul\":19371:19459   */\n      tag_487\n        /* \"#utility.yul\":19454:19458   */\n      dup2\n        /* \"#utility.yul\":19445:19451   */\n      dup5\n        /* \"#utility.yul\":19437:19443   */\n      dup7\n        /* \"#utility.yul\":19371:19459   */\n      tag_268\n      jump\t// in\n    tag_487:\n        /* \"#utility.yul\":19363:19459   */\n      swap1\n      pop\n        /* \"#utility.yul\":19023:19466   */\n      swap5\n      swap4\n      pop\n      pop\n      pop\n      pop\n      jump\t// out\n        /* \"#utility.yul\":19472:19629   */\n    tag_271:\n        /* \"#utility.yul\":19612:19621   */\n      0x746f206661696c00000000000000000000000000000000000000000000000000\n        /* \"#utility.yul\":19608:19609   */\n      0x00\n        /* \"#utility.yul\":19600:19606   */\n      dup3\n        /* \"#utility.yul\":19596:19610   */\n      add\n        /* \"#utility.yul\":19589:19622   */\n      mstore\n        /* \"#utility.yul\":19472:19629   */\n      pop\n      jump\t// out\n        /* \"#utility.yul\":19635:20000   */\n    tag_272:\n        /* \"#utility.yul\":19777:19780   */\n      0x00\n        /* \"#utility.yul\":19798:19864   */\n      tag_490\n        /* \"#utility.yul\":19862:19863   */\n      0x07\n        /* \"#utility.yul\":19857:19860   */\n      dup4\n        /* \"#utility.yul\":19798:19864   */\n      tag_245\n      jump\t// in\n    tag_490:\n        /* \"#utility.yul\":19791:19864   */\n      swap2\n      pop\n        /* \"#utility.yul\":19873:19966   */\n      tag_491\n        /* \"#utility.yul\":19962:19965   */\n      dup3\n        /* \"#utility.yul\":19873:19966   */\n      tag_271\n      jump\t// in\n    tag_491:\n        /* \"#utility.yul\":19991:19993   */\n      0x20\n        /* \"#utility.yul\":19986:19989   */\n      dup3\n        /* \"#utility.yul\":19982:19994   */\n      add\n        /* \"#utility.yul\":19975:19994   */\n      swap1\n      pop\n        /* \"#utility.yul\":19635:20000   */\n      swap2\n      swap1\n      pop\n      jump\t// out\n        /* \"#utility.yul\":20006:20425   */\n    tag_113:\n        /* \"#utility.yul\":20172:20176   */\n      0x00\n        /* \"#utility.yul\":20210:20212   */\n      0x20\n        /* \"#utility.yul\":20199:20208   */\n      dup3\n        /* \"#utility.yul\":20195:20213   */\n      add\n        /* \"#utility.yul\":20187:20213   */\n      swap1\n      pop\n        /* \"#utility.yul\":20259:20268   */\n      dup2\n        /* \"#utility.yul\":20253:20257   */\n      dup2\n        /* \"#utility.yul\":20249:20269   */\n      sub\n        /* \"#utility.yul\":20245:20246   */\n      0x00\n        /* \"#utility.yul\":20234:20243   */\n      dup4\n        /* \"#utility.yul\":20230:20247   */\n      add\n        /* \"#utility.yul\":20223:20270   */\n      mstore\n        /* \"#utility.yul\":20287:20418   */\n      tag_493\n        /* \"#utility.yul\":20413:20417   */\n      dup2\n        /* \"#utility.yul\":20287:20418   */\n      tag_272\n      jump\t// in\n    tag_493:\n        /* \"#utility.yul\":20279:20418   */\n      swap1\n      pop\n        /* \"#utility.yul\":20006:20425   */\n      swap2\n      swap1\n      pop\n      jump\t// out\n        /* \"#utility.yul\":20431:20593   */\n    tag_273:\n        /* \"#utility.yul\":20571:20585   */\n      0x6f726465724964206661696c0000000000000000000000000000000000000000\n        /* \"#utility.yul\":20567:20568   */\n      0x00\n        /* \"#utility.yul\":20559:20565   */\n      dup3\n        /* \"#utility.yul\":20555:20569   */\n      add\n        /* \"#utility.yul\":20548:20586   */\n      mstore\n        /* \"#utility.yul\":20431:20593   */\n      pop\n      jump\t// out\n        /* \"#utility.yul\":20599:20965   */\n    tag_274:\n        /* \"#utility.yul\":20741:20744   */\n      0x00\n        /* \"#utility.yul\":20762:20829   */\n      tag_496\n        /* \"#utility.yul\":20826:20828   */\n      0x0c\n        /* \"#utility.yul\":20821:20824   */\n      dup4\n        /* \"#utility.yul\":20762:20829   */\n      tag_245\n      jump\t// in\n    tag_496:\n        /* \"#utility.yul\":20755:20829   */\n      swap2\n      pop\n        /* \"#utility.yul\":20838:20931   */\n      tag_497\n        /* \"#utility.yul\":20927:20930   */\n      dup3\n        /* \"#utility.yul\":20838:20931   */\n      tag_273\n      jump\t// in\n    tag_497:\n        /* \"#utility.yul\":20956:20958   */\n      0x20\n        /* \"#utility.yul\":20951:20954   */\n      dup3\n        /* \"#utility.yul\":20947:20959   */\n      add\n        /* \"#utility.yul\":20940:20959   */\n      swap1\n      pop\n        /* \"#utility.yul\":20599:20965   */\n      swap2\n      swap1\n      pop\n      jump\t// out\n        /* \"#utility.yul\":20971:21390   */\n    tag_116:\n        /* \"#utility.yul\":21137:21141   */\n      0x00\n        /* \"#utility.yul\":21175:21177   */\n      0x20\n        /* \"#utility.yul\":21164:21173   */\n      dup3\n        /* \"#utility.yul\":21160:21178   */\n      add\n        /* \"#utility.yul\":21152:21178   */\n      swap1\n      pop\n        /* \"#utility.yul\":21224:21233   */\n      dup2\n        /* \"#utility.yul\":21218:21222   */\n      dup2\n        /* \"#utility.yul\":21214:21234   */\n      sub\n        /* \"#utility.yul\":21210:21211   */\n      0x00\n        /* \"#utility.yul\":21199:21208   */\n      dup4\n        /* \"#utility.yul\":21195:21212   */\n      add\n        /* \"#utility.yul\":21188:21235   */\n      mstore\n        /* \"#utility.yul\":21252:21383   */\n      tag_499\n        /* \"#utility.yul\":21378:21382   */\n      dup2\n        /* \"#utility.yul\":21252:21383   */\n      tag_274\n      jump\t// in\n    tag_499:\n        /* \"#utility.yul\":21244:21383   */\n      swap1\n      pop\n        /* \"#utility.yul\":20971:21390   */\n      swap2\n      swap1\n      pop\n      jump\t// out\n        /* \"#utility.yul\":21396:21590   */\n    tag_275:\n        /* \"#utility.yul\":21505:21516   */\n      0x00\n        /* \"#utility.yul\":21539:21545   */\n      dup3\n        /* \"#utility.yul\":21534:21537   */\n      dup3\n        /* \"#utility.yul\":21527:21546   */\n      mstore\n        /* \"#utility.yul\":21579:21583   */\n      0x20\n        /* \"#utility.yul\":21574:21577   */\n      dup3\n        /* \"#utility.yul\":21570:21584   */\n      add\n        /* \"#utility.yul\":21555:21584   */\n      swap1\n      pop\n        /* \"#utility.yul\":21396:21590   */\n      swap3\n      swap2\n      pop\n      pop\n      jump\t// out\n        /* \"#utility.yul\":21596:21710   */\n    tag_276:\n        /* \"#utility.yul\":21677:21681   */\n      0x00\n        /* \"#utility.yul\":21700:21703   */\n      dup2\n        /* \"#utility.yul\":21692:21703   */\n      swap1\n      pop\n        /* \"#utility.yul\":21596:21710   */\n      swap2\n      swap1\n      pop\n      jump\t// out\n        /* \"#utility.yul\":21716:21875   */\n    tag_277:\n        /* \"#utility.yul\":21790:21801   */\n      0x00\n        /* \"#utility.yul\":21824:21830   */\n      dup3\n        /* \"#utility.yul\":21819:21822   */\n      dup3\n        /* \"#utility.yul\":21812:21831   */\n      mstore\n        /* \"#utility.yul\":21864:21868   */\n      0x20\n        /* \"#utility.yul\":21859:21862   */\n      dup3\n        /* \"#utility.yul\":21855:21869   */\n      add\n        /* \"#utility.yul\":21840:21869   */\n      swap1\n      pop\n        /* \"#utility.yul\":21716:21875   */\n      swap3\n      swap2\n      pop\n      pop\n      jump\t// out\n        /* \"#utility.yul\":21905:22202   */\n    tag_278:\n        /* \"#utility.yul\":21993:21996   */\n      0x00\n        /* \"#utility.yul\":22014:22075   */\n      tag_504\n        /* \"#utility.yul\":22068:22074   */\n      dup4\n        /* \"#utility.yul\":22063:22066   */\n      dup6\n        /* \"#utility.yul\":22014:22075   */\n      tag_277\n      jump\t// in\n    tag_504:\n        /* \"#utility.yul\":22007:22075   */\n      swap4\n      pop\n        /* \"#utility.yul\":22085:22141   */\n      tag_505\n        /* \"#utility.yul\":22134:22140   */\n      dup4\n        /* \"#utility.yul\":22129:22132   */\n      dup6\n        /* \"#utility.yul\":22122:22127   */\n      dup5\n        /* \"#utility.yul\":22085:22141   */\n      tag_266\n      jump\t// in\n    tag_505:\n        /* \"#utility.yul\":22166:22195   */\n      tag_506\n        /* \"#utility.yul\":22188:22194   */\n      dup4\n        /* \"#utility.yul\":22166:22195   */\n      tag_267\n      jump\t// in\n    tag_506:\n        /* \"#utility.yul\":22161:22164   */\n      dup5\n        /* \"#utility.yul\":22157:22196   */\n      add\n        /* \"#utility.yul\":22150:22196   */\n      swap1\n      pop\n        /* \"#utility.yul\":21905:22202   */\n      swap4\n      swap3\n      pop\n      pop\n      pop\n      jump\t// out\n        /* \"#utility.yul\":22208:22424   */\n    tag_279:\n        /* \"#utility.yul\":22307:22317   */\n      0x00\n        /* \"#utility.yul\":22342:22418   */\n      tag_508\n        /* \"#utility.yul\":22414:22417   */\n      dup5\n        /* \"#utility.yul\":22406:22412   */\n      dup5\n        /* \"#utility.yul\":22398:22404   */\n      dup5\n        /* \"#utility.yul\":22342:22418   */\n      tag_278\n      jump\t// in\n    tag_508:\n        /* \"#utility.yul\":22328:22418   */\n      swap1\n      pop\n        /* \"#utility.yul\":22208:22424   */\n      swap4\n      swap3\n      pop\n      pop\n      pop\n      jump\t// out\n        /* \"#utility.yul\":22430:22547   */\n    tag_280:\n        /* \"#utility.yul\":22539:22540   */\n      0x00\n        /* \"#utility.yul\":22536:22537   */\n      dup1\n        /* \"#utility.yul\":22529:22541   */\n      revert\n        /* \"#utility.yul\":22553:22670   */\n    tag_281:\n        /* \"#utility.yul\":22662:22663   */\n      0x00\n        /* \"#utility.yul\":22659:22660   */\n      dup1\n        /* \"#utility.yul\":22652:22664   */\n      revert\n        /* \"#utility.yul\":22676:22793   */\n    tag_282:\n        /* \"#utility.yul\":22785:22786   */\n      0x00\n        /* \"#utility.yul\":22782:22783   */\n      dup1\n        /* \"#utility.yul\":22775:22787   */\n      revert\n        /* \"#utility.yul\":22799:23511   */\n    tag_283:\n        /* \"#utility.yul\":22864:22869   */\n      0x00\n        /* \"#utility.yul\":22871:22877   */\n      dup1\n        /* \"#utility.yul\":22927:22930   */\n      dup4\n        /* \"#utility.yul\":22914:22931   */\n      calldataload\n        /* \"#utility.yul\":23019:23020   */\n      0x01\n        /* \"#utility.yul\":23013:23017   */\n      0x20\n        /* \"#utility.yul\":23009:23021   */\n      sub\n        /* \"#utility.yul\":22998:23006   */\n      dup5\n        /* \"#utility.yul\":22982:22996   */\n      calldatasize\n        /* \"#utility.yul\":22978:23007   */\n      sub\n        /* \"#utility.yul\":22974:23022   */\n      sub\n        /* \"#utility.yul\":22954:22972   */\n      dup2\n        /* \"#utility.yul\":22950:23023   */\n      slt\n        /* \"#utility.yul\":22940:23108   */\n      tag_513\n      jumpi\n        /* \"#utility.yul\":23027:23106   */\n      tag_514\n      tag_282\n      jump\t// in\n    tag_514:\n        /* \"#utility.yul\":22940:23108   */\n    tag_513:\n        /* \"#utility.yul\":23150:23158   */\n      dup4\n        /* \"#utility.yul\":23130:23148   */\n      dup2\n        /* \"#utility.yul\":23126:23159   */\n      add\n        /* \"#utility.yul\":23117:23159   */\n      swap3\n      pop\n        /* \"#utility.yul\":23192:23197   */\n      dup3\n        /* \"#utility.yul\":23179:23198   */\n      calldataload\n        /* \"#utility.yul\":23169:23198   */\n      swap2\n      pop\n        /* \"#utility.yul\":23227:23231   */\n      0x20\n        /* \"#utility.yul\":23220:23225   */\n      dup4\n        /* \"#utility.yul\":23216:23232   */\n      add\n        /* \"#utility.yul\":23207:23232   */\n      swap3\n      pop\n        /* \"#utility.yul\":23255:23273   */\n      0xffffffffffffffff\n        /* \"#utility.yul\":23247:23253   */\n      dup3\n        /* \"#utility.yul\":23244:23274   */\n      gt\n        /* \"#utility.yul\":23241:23358   */\n      iszero\n      tag_515\n      jumpi\n        /* \"#utility.yul\":23277:23356   */\n      tag_516\n      tag_280\n      jump\t// in\n    tag_516:\n        /* \"#utility.yul\":23241:23358   */\n    tag_515:\n        /* \"#utility.yul\":23413:23417   */\n      0x01\n        /* \"#utility.yul\":23405:23411   */\n      dup3\n        /* \"#utility.yul\":23401:23418   */\n      mul\n        /* \"#utility.yul\":23385:23399   */\n      calldatasize\n        /* \"#utility.yul\":23381:23419   */\n      sub\n        /* \"#utility.yul\":23374:23379   */\n      dup4\n        /* \"#utility.yul\":23370:23420   */\n      sgt\n        /* \"#utility.yul\":23367:23504   */\n      iszero\n      tag_517\n      jumpi\n        /* \"#utility.yul\":23423:23502   */\n      tag_518\n      tag_281\n      jump\t// in\n    tag_518:\n        /* \"#utility.yul\":23367:23504   */\n    tag_517:\n        /* \"#utility.yul\":22878:23511   */\n      pop\n        /* \"#utility.yul\":22799:23511   */\n      swap3\n      pop\n      swap3\n      swap1\n      pop\n      jump\t// out\n        /* \"#utility.yul\":23517:23644   */\n    tag_284:\n        /* \"#utility.yul\":23601:23605   */\n      0x00\n        /* \"#utility.yul\":23633:23637   */\n      0x20\n        /* \"#utility.yul\":23628:23631   */\n      dup3\n        /* \"#utility.yul\":23624:23638   */\n      add\n        /* \"#utility.yul\":23616:23638   */\n      swap1\n      pop\n        /* \"#utility.yul\":23517:23644   */\n      swap2\n      swap1\n      pop\n      jump\t// out\n        /* \"#utility.yul\":23678:24676   */\n    tag_285:\n        /* \"#utility.yul\":23829:23832   */\n      0x00\n        /* \"#utility.yul\":23852:23948   */\n      tag_521\n        /* \"#utility.yul\":23941:23947   */\n      dup4\n        /* \"#utility.yul\":23936:23939   */\n      dup6\n        /* \"#utility.yul\":23852:23948   */\n      tag_275\n      jump\t// in\n    tag_521:\n        /* \"#utility.yul\":23845:23948   */\n      swap4\n      pop\n        /* \"#utility.yul\":23974:23977   */\n      dup4\n        /* \"#utility.yul\":24019:24023   */\n      0x20\n        /* \"#utility.yul\":24011:24017   */\n      dup5\n        /* \"#utility.yul\":24007:24024   */\n      mul\n        /* \"#utility.yul\":24002:24005   */\n      dup6\n        /* \"#utility.yul\":23998:24025   */\n      add\n        /* \"#utility.yul\":24049:24119   */\n      tag_522\n        /* \"#utility.yul\":24113:24118   */\n      dup5\n        /* \"#utility.yul\":24049:24119   */\n      tag_276\n      jump\t// in\n    tag_522:\n        /* \"#utility.yul\":24142:24149   */\n      dup1\n        /* \"#utility.yul\":24173:24174   */\n      0x00\n        /* \"#utility.yul\":24158:24631   */\n    tag_523:\n        /* \"#utility.yul\":24183:24189   */\n      dup8\n        /* \"#utility.yul\":24180:24181   */\n      dup2\n        /* \"#utility.yul\":24177:24190   */\n      lt\n        /* \"#utility.yul\":24158:24631   */\n      iszero\n      tag_525\n      jumpi\n        /* \"#utility.yul\":24254:24263   */\n      dup5\n        /* \"#utility.yul\":24248:24252   */\n      dup5\n        /* \"#utility.yul\":24244:24264   */\n      sub\n        /* \"#utility.yul\":24239:24242   */\n      dup10\n        /* \"#utility.yul\":24232:24265   */\n      mstore\n        /* \"#utility.yul\":24314:24368   */\n      tag_526\n        /* \"#utility.yul\":24361:24367   */\n      dup3\n        /* \"#utility.yul\":24352:24359   */\n      dup5\n        /* \"#utility.yul\":24314:24368   */\n      tag_283\n      jump\t// in\n    tag_526:\n        /* \"#utility.yul\":24389:24490   */\n      tag_527\n        /* \"#utility.yul\":24485:24489   */\n      dup7\n        /* \"#utility.yul\":24470:24483   */\n      dup3\n        /* \"#utility.yul\":24455:24468   */\n      dup5\n        /* \"#utility.yul\":24389:24490   */\n      tag_279\n      jump\t// in\n    tag_527:\n        /* \"#utility.yul\":24381:24490   */\n      swap6\n      pop\n        /* \"#utility.yul\":24513:24587   */\n      tag_528\n        /* \"#utility.yul\":24580:24586   */\n      dup5\n        /* \"#utility.yul\":24513:24587   */\n      tag_284\n      jump\t// in\n    tag_528:\n        /* \"#utility.yul\":24503:24587   */\n      swap4\n      pop\n        /* \"#utility.yul\":24616:24620   */\n      0x20\n        /* \"#utility.yul\":24611:24614   */\n      dup12\n        /* \"#utility.yul\":24607:24621   */\n      add\n        /* \"#utility.yul\":24600:24621   */\n      swap11\n      pop\n        /* \"#utility.yul\":24218:24631   */\n      pop\n      pop\n        /* \"#utility.yul\":24205:24206   */\n      0x01\n        /* \"#utility.yul\":24202:24203   */\n      dup2\n        /* \"#utility.yul\":24198:24207   */\n      add\n        /* \"#utility.yul\":24193:24207   */\n      swap1\n      pop\n        /* \"#utility.yul\":24158:24631   */\n      jump(tag_523)\n    tag_525:\n        /* \"#utility.yul\":24162:24176   */\n      pop\n        /* \"#utility.yul\":24647:24651   */\n      dup3\n        /* \"#utility.yul\":24640:24651   */\n      swap8\n      pop\n        /* \"#utility.yul\":24667:24670   */\n      dup8\n        /* \"#utility.yul\":24660:24670   */\n      swap5\n      pop\n        /* \"#utility.yul\":23834:24676   */\n      pop\n      pop\n      pop\n      pop\n        /* \"#utility.yul\":23678:24676   */\n      swap4\n      swap3\n      pop\n      pop\n      pop\n      jump\t// out\n        /* \"#utility.yul\":24682:25400   */\n    tag_153:\n        /* \"#utility.yul\":24945:24949   */\n      0x00\n        /* \"#utility.yul\":24983:24985   */\n      0x40\n        /* \"#utility.yul\":24972:24981   */\n      dup3\n        /* \"#utility.yul\":24968:24986   */\n      add\n        /* \"#utility.yul\":24960:24986   */\n      swap1\n      pop\n        /* \"#utility.yul\":25032:25041   */\n      dup2\n        /* \"#utility.yul\":25026:25030   */\n      dup2\n        /* \"#utility.yul\":25022:25042   */\n      sub\n        /* \"#utility.yul\":25018:25019   */\n      0x00\n        /* \"#utility.yul\":25007:25016   */\n      dup4\n        /* \"#utility.yul\":25003:25020   */\n      add\n        /* \"#utility.yul\":24996:25043   */\n      mstore\n        /* \"#utility.yul\":25060:25178   */\n      tag_530\n        /* \"#utility.yul\":25173:25177   */\n      dup2\n        /* \"#utility.yul\":25164:25170   */\n      dup7\n        /* \"#utility.yul\":25156:25162   */\n      dup9\n        /* \"#utility.yul\":25060:25178   */\n      tag_265\n      jump\t// in\n    tag_530:\n        /* \"#utility.yul\":25052:25178   */\n      swap1\n      pop\n        /* \"#utility.yul\":25225:25234   */\n      dup2\n        /* \"#utility.yul\":25219:25223   */\n      dup2\n        /* \"#utility.yul\":25215:25235   */\n      sub\n        /* \"#utility.yul\":25210:25212   */\n      0x20\n        /* \"#utility.yul\":25199:25208   */\n      dup4\n        /* \"#utility.yul\":25195:25213   */\n      add\n        /* \"#utility.yul\":25188:25236   */\n      mstore\n        /* \"#utility.yul\":25253:25393   */\n      tag_531\n        /* \"#utility.yul\":25388:25392   */\n      dup2\n        /* \"#utility.yul\":25379:25385   */\n      dup5\n        /* \"#utility.yul\":25371:25377   */\n      dup7\n        /* \"#utility.yul\":25253:25393   */\n      tag_285\n      jump\t// in\n    tag_531:\n        /* \"#utility.yul\":25245:25393   */\n      swap1\n      pop\n        /* \"#utility.yul\":24682:25400   */\n      swap6\n      swap5\n      pop\n      pop\n      pop\n      pop\n      pop\n      jump\t// out\n        /* \"#utility.yul\":25406:25631   */\n    tag_286:\n        /* \"#utility.yul\":25546:25580   */\n      0x4f776e61626c653a206e6577206f776e657220697320746865207a65726f2061\n        /* \"#utility.yul\":25542:25543   */\n      0x00\n        /* \"#utility.yul\":25534:25540   */\n      dup3\n        /* \"#utility.yul\":25530:25544   */\n      add\n        /* \"#utility.yul\":25523:25581   */\n      mstore\n        /* \"#utility.yul\":25615:25623   */\n      0x6464726573730000000000000000000000000000000000000000000000000000\n        /* \"#utility.yul\":25610:25612   */\n      0x20\n        /* \"#utility.yul\":25602:25608   */\n      dup3\n        /* \"#utility.yul\":25598:25613   */\n      add\n        /* \"#utility.yul\":25591:25624   */\n      mstore\n        /* \"#utility.yul\":25406:25631   */\n      pop\n      jump\t// out\n        /* \"#utility.yul\":25637:26003   */\n    tag_287:\n        /* \"#utility.yul\":25779:25782   */\n      0x00\n        /* \"#utility.yul\":25800:25867   */\n      tag_534\n        /* \"#utility.yul\":25864:25866   */\n      0x26\n        /* \"#utility.yul\":25859:25862   */\n      dup4\n        /* \"#utility.yul\":25800:25867   */\n      tag_245\n      jump\t// in\n    tag_534:\n        /* \"#utility.yul\":25793:25867   */\n      swap2\n      pop\n        /* \"#utility.yul\":25876:25969   */\n      tag_535\n        /* \"#utility.yul\":25965:25968   */\n      dup3\n        /* \"#utility.yul\":25876:25969   */\n      tag_286\n      jump\t// in\n    tag_535:\n        /* \"#utility.yul\":25994:25996   */\n      0x40\n        /* \"#utility.yul\":25989:25992   */\n      dup3\n        /* \"#utility.yul\":25985:25997   */\n      add\n        /* \"#utility.yul\":25978:25997   */\n      swap1\n      pop\n        /* \"#utility.yul\":25637:26003   */\n      swap2\n      swap1\n      pop\n      jump\t// out\n        /* \"#utility.yul\":26009:26428   */\n    tag_166:\n        /* \"#utility.yul\":26175:26179   */\n      0x00\n        /* \"#utility.yul\":26213:26215   */\n      0x20\n        /* \"#utility.yul\":26202:26211   */\n      dup3\n        /* \"#utility.yul\":26198:26216   */\n      add\n        /* \"#utility.yul\":26190:26216   */\n      swap1\n      pop\n        /* \"#utility.yul\":26262:26271   */\n      dup2\n        /* \"#utility.yul\":26256:26260   */\n      dup2\n        /* \"#utility.yul\":26252:26272   */\n      sub\n        /* \"#utility.yul\":26248:26249   */\n      0x00\n        /* \"#utility.yul\":26237:26246   */\n      dup4\n        /* \"#utility.yul\":26233:26250   */\n      add\n        /* \"#utility.yul\":26226:26273   */\n      mstore\n        /* \"#utility.yul\":26290:26421   */\n      tag_537\n        /* \"#utility.yul\":26416:26420   */\n      dup2\n        /* \"#utility.yul\":26290:26421   */\n      tag_287\n      jump\t// in\n    tag_537:\n        /* \"#utility.yul\":26282:26421   */\n      swap1\n      pop\n        /* \"#utility.yul\":26009:26428   */\n      swap2\n      swap1\n      pop\n      jump\t// out\n        /* \"#utility.yul\":26434:26616   */\n    tag_288:\n        /* \"#utility.yul\":26574:26608   */\n      0x4f776e61626c653a2063616c6c6572206973206e6f7420746865206f776e6572\n        /* \"#utility.yul\":26570:26571   */\n      0x00\n        /* \"#utility.yul\":26562:26568   */\n      dup3\n        /* \"#utility.yul\":26558:26572   */\n      add\n        /* \"#utility.yul\":26551:26609   */\n      mstore\n        /* \"#utility.yul\":26434:26616   */\n      pop\n      jump\t// out\n        /* \"#utility.yul\":26622:26988   */\n    tag_289:\n        /* \"#utility.yul\":26764:26767   */\n      0x00\n        /* \"#utility.yul\":26785:26852   */\n      tag_540\n        /* \"#utility.yul\":26849:26851   */\n      0x20\n        /* \"#utility.yul\":26844:26847   */\n      dup4\n        /* \"#utility.yul\":26785:26852   */\n      tag_245\n      jump\t// in\n    tag_540:\n        /* \"#utility.yul\":26778:26852   */\n      swap2\n      pop\n        /* \"#utility.yul\":26861:26954   */\n      tag_541\n        /* \"#utility.yul\":26950:26953   */\n      dup3\n        /* \"#utility.yul\":26861:26954   */\n      tag_288\n      jump\t// in\n    tag_541:\n        /* \"#utility.yul\":26979:26981   */\n      0x20\n        /* \"#utility.yul\":26974:26977   */\n      dup3\n        /* \"#utility.yul\":26970:26982   */\n      add\n        /* \"#utility.yul\":26963:26982   */\n      swap1\n      pop\n        /* \"#utility.yul\":26622:26988   */\n      swap2\n      swap1\n      pop\n      jump\t// out\n        /* \"#utility.yul\":26994:27413   */\n    tag_174:\n        /* \"#utility.yul\":27160:27164   */\n      0x00\n        /* \"#utility.yul\":27198:27200   */\n      0x20\n        /* \"#utility.yul\":27187:27196   */\n      dup3\n        /* \"#utility.yul\":27183:27201   */\n      add\n        /* \"#utility.yul\":27175:27201   */\n      swap1\n      pop\n        /* \"#utility.yul\":27247:27256   */\n      dup2\n        /* \"#utility.yul\":27241:27245   */\n      dup2\n        /* \"#utility.yul\":27237:27257   */\n      sub\n        /* \"#utility.yul\":27233:27234   */\n      0x00\n        /* \"#utility.yul\":27222:27231   */\n      dup4\n        /* \"#utility.yul\":27218:27235   */\n      add\n        /* \"#utility.yul\":27211:27258   */\n      mstore\n        /* \"#utility.yul\":27275:27406   */\n      tag_543\n        /* \"#utility.yul\":27401:27405   */\n      dup2\n        /* \"#utility.yul\":27275:27406   */\n      tag_289\n      jump\t// in\n    tag_543:\n        /* \"#utility.yul\":27267:27406   */\n      swap1\n      pop\n        /* \"#utility.yul\":26994:27413   */\n      swap2\n      swap1\n      pop\n      jump\t// out\n        /* \"#utility.yul\":27419:27751   */\n    tag_178:\n        /* \"#utility.yul\":27540:27544   */\n      0x00\n        /* \"#utility.yul\":27578:27580   */\n      0x40\n        /* \"#utility.yul\":27567:27576   */\n      dup3\n        /* \"#utility.yul\":27563:27581   */\n      add\n        /* \"#utility.yul\":27555:27581   */\n      swap1\n      pop\n        /* \"#utility.yul\":27591:27662   */\n      tag_545\n        /* \"#utility.yul\":27659:27660   */\n      0x00\n        /* \"#utility.yul\":27648:27657   */\n      dup4\n        /* \"#utility.yul\":27644:27661   */\n      add\n        /* \"#utility.yul\":27635:27641   */\n      dup6\n        /* \"#utility.yul\":27591:27662   */\n      tag_244\n      jump\t// in\n    tag_545:\n        /* \"#utility.yul\":27672:27744   */\n      tag_546\n        /* \"#utility.yul\":27740:27742   */\n      0x20\n        /* \"#utility.yul\":27729:27738   */\n      dup4\n        /* \"#utility.yul\":27725:27743   */\n      add\n        /* \"#utility.yul\":27716:27722   */\n      dup5\n        /* \"#utility.yul\":27672:27744   */\n      tag_243\n      jump\t// in\n    tag_546:\n        /* \"#utility.yul\":27419:27751   */\n      swap4\n      swap3\n      pop\n      pop\n      pop\n      jump\t// out\n        /* \"#utility.yul\":27757:28199   */\n    tag_183:\n        /* \"#utility.yul\":27906:27910   */\n      0x00\n        /* \"#utility.yul\":27944:27946   */\n      0x60\n        /* \"#utility.yul\":27933:27942   */\n      dup3\n        /* \"#utility.yul\":27929:27947   */\n      add\n        /* \"#utility.yul\":27921:27947   */\n      swap1\n      pop\n        /* \"#utility.yul\":27957:28028   */\n      tag_548\n        /* \"#utility.yul\":28025:28026   */\n      0x00\n        /* \"#utility.yul\":28014:28023   */\n      dup4\n        /* \"#utility.yul\":28010:28027   */\n      add\n        /* \"#utility.yul\":28001:28007   */\n      dup7\n        /* \"#utility.yul\":27957:28028   */\n      tag_244\n      jump\t// in\n    tag_548:\n        /* \"#utility.yul\":28038:28110   */\n      tag_549\n        /* \"#utility.yul\":28106:28108   */\n      0x20\n        /* \"#utility.yul\":28095:28104   */\n      dup4\n        /* \"#utility.yul\":28091:28109   */\n      add\n        /* \"#utility.yul\":28082:28088   */\n      dup6\n        /* \"#utility.yul\":28038:28110   */\n      tag_244\n      jump\t// in\n    tag_549:\n        /* \"#utility.yul\":28120:28192   */\n      tag_550\n        /* \"#utility.yul\":28188:28190   */\n      0x40\n        /* \"#utility.yul\":28177:28186   */\n      dup4\n        /* \"#utility.yul\":28173:28191   */\n      add\n        /* \"#utility.yul\":28164:28170   */\n      dup5\n        /* \"#utility.yul\":28120:28192   */\n      tag_243\n      jump\t// in\n    tag_550:\n        /* \"#utility.yul\":27757:28199   */\n      swap5\n      swap4\n      pop\n      pop\n      pop\n      pop\n      jump\t// out\n        /* \"#utility.yul\":28205:28295   */\n    tag_290:\n        /* \"#utility.yul\":28239:28246   */\n      0x00\n        /* \"#utility.yul\":28282:28287   */\n      dup2\n        /* \"#utility.yul\":28275:28288   */\n      iszero\n        /* \"#utility.yul\":28268:28289   */\n      iszero\n        /* \"#utility.yul\":28257:28289   */\n      swap1\n      pop\n        /* \"#utility.yul\":28205:28295   */\n      swap2\n      swap1\n      pop\n      jump\t// out\n        /* \"#utility.yul\":28301:28417   */\n    tag_291:\n        /* \"#utility.yul\":28371:28392   */\n      tag_553\n        /* \"#utility.yul\":28386:28391   */\n      dup2\n        /* \"#utility.yul\":28371:28392   */\n      tag_290\n      jump\t// in\n    tag_553:\n        /* \"#utility.yul\":28364:28369   */\n      dup2\n        /* \"#utility.yul\":28361:28393   */\n      eq\n        /* \"#utility.yul\":28351:28411   */\n      tag_554\n      jumpi\n        /* \"#utility.yul\":28407:28408   */\n      0x00\n        /* \"#utility.yul\":28404:28405   */\n      dup1\n        /* \"#utility.yul\":28397:28409   */\n      revert\n        /* \"#utility.yul\":28351:28411   */\n    tag_554:\n        /* \"#utility.yul\":28301:28417   */\n      pop\n      jump\t// out\n        /* \"#utility.yul\":28423:28560   */\n    tag_292:\n        /* \"#utility.yul\":28477:28482   */\n      0x00\n        /* \"#utility.yul\":28508:28514   */\n      dup2\n        /* \"#utility.yul\":28502:28515   */\n      mload\n        /* \"#utility.yul\":28493:28515   */\n      swap1\n      pop\n        /* \"#utility.yul\":28524:28554   */\n      tag_556\n        /* \"#utility.yul\":28548:28553   */\n      dup2\n        /* \"#utility.yul\":28524:28554   */\n      tag_291\n      jump\t// in\n    tag_556:\n        /* \"#utility.yul\":28423:28560   */\n      swap3\n      swap2\n      pop\n      pop\n      jump\t// out\n        /* \"#utility.yul\":28566:28911   */\n    tag_191:\n        /* \"#utility.yul\":28633:28639   */\n      0x00\n        /* \"#utility.yul\":28682:28684   */\n      0x20\n        /* \"#utility.yul\":28670:28679   */\n      dup3\n        /* \"#utility.yul\":28661:28668   */\n      dup5\n        /* \"#utility.yul\":28657:28680   */\n      sub\n        /* \"#utility.yul\":28653:28685   */\n      slt\n        /* \"#utility.yul\":28650:28769   */\n      iszero\n      tag_558\n      jumpi\n        /* \"#utility.yul\":28688:28767   */\n      tag_559\n      tag_227\n      jump\t// in\n    tag_559:\n        /* \"#utility.yul\":28650:28769   */\n    tag_558:\n        /* \"#utility.yul\":28808:28809   */\n      0x00\n        /* \"#utility.yul\":28833:28894   */\n      tag_560\n        /* \"#utility.yul\":28886:28893   */\n      dup5\n        /* \"#utility.yul\":28877:28883   */\n      dup3\n        /* \"#utility.yul\":28866:28875   */\n      dup6\n        /* \"#utility.yul\":28862:28884   */\n      add\n        /* \"#utility.yul\":28833:28894   */\n      tag_292\n      jump\t// in\n    tag_560:\n        /* \"#utility.yul\":28823:28894   */\n      swap2\n      pop\n        /* \"#utility.yul\":28779:28904   */\n      pop\n        /* \"#utility.yul\":28566:28911   */\n      swap3\n      swap2\n      pop\n      pop\n      jump\t// out\n        /* \"#utility.yul\":28917:29146   */\n    tag_293:\n        /* \"#utility.yul\":29057:29091   */\n      0x5361666545524332303a204552433230206f7065726174696f6e20646964206e\n        /* \"#utility.yul\":29053:29054   */\n      0x00\n        /* \"#utility.yul\":29045:29051   */\n      dup3\n        /* \"#utility.yul\":29041:29055   */\n      add\n        /* \"#utility.yul\":29034:29092   */\n      mstore\n        /* \"#utility.yul\":29126:29138   */\n      0x6f74207375636365656400000000000000000000000000000000000000000000\n        /* \"#utility.yul\":29121:29123   */\n      0x20\n        /* \"#utility.yul\":29113:29119   */\n      dup3\n        /* \"#utility.yul\":29109:29124   */\n      add\n        /* \"#utility.yul\":29102:29139   */\n      mstore\n        /* \"#utility.yul\":28917:29146   */\n      pop\n      jump\t// out\n        /* \"#utility.yul\":29152:29518   */\n    tag_294:\n        /* \"#utility.yul\":29294:29297   */\n      0x00\n        /* \"#utility.yul\":29315:29382   */\n      tag_563\n        /* \"#utility.yul\":29379:29381   */\n      0x2a\n        /* \"#utility.yul\":29374:29377   */\n      dup4\n        /* \"#utility.yul\":29315:29382   */\n      tag_245\n      jump\t// in\n    tag_563:\n        /* \"#utility.yul\":29308:29382   */\n      swap2\n      pop\n        /* \"#utility.yul\":29391:29484   */\n      tag_564\n        /* \"#utility.yul\":29480:29483   */\n      dup3\n        /* \"#utility.yul\":29391:29484   */\n      tag_293\n      jump\t// in\n    tag_564:\n        /* \"#utility.yul\":29509:29511   */\n      0x40\n        /* \"#utility.yul\":29504:29507   */\n      dup3\n        /* \"#utility.yul\":29500:29512   */\n      add\n        /* \"#utility.yul\":29493:29512   */\n      swap1\n      pop\n        /* \"#utility.yul\":29152:29518   */\n      swap2\n      swap1\n      pop\n      jump\t// out\n        /* \"#utility.yul\":29524:29943   */\n    tag_194:\n        /* \"#utility.yul\":29690:29694   */\n      0x00\n        /* \"#utility.yul\":29728:29730   */\n      0x20\n        /* \"#utility.yul\":29717:29726   */\n      dup3\n        /* \"#utility.yul\":29713:29731   */\n      add\n        /* \"#utility.yul\":29705:29731   */\n      swap1\n      pop\n        /* \"#utility.yul\":29777:29786   */\n      dup2\n        /* \"#utility.yul\":29771:29775   */\n      dup2\n        /* \"#utility.yul\":29767:29787   */\n      sub\n        /* \"#utility.yul\":29763:29764   */\n      0x00\n        /* \"#utility.yul\":29752:29761   */\n      dup4\n        /* \"#utility.yul\":29748:29765   */\n      add\n        /* \"#utility.yul\":29741:29788   */\n      mstore\n        /* \"#utility.yul\":29805:29936   */\n      tag_566\n        /* \"#utility.yul\":29931:29935   */\n      dup2\n        /* \"#utility.yul\":29805:29936   */\n      tag_294\n      jump\t// in\n    tag_566:\n        /* \"#utility.yul\":29797:29936   */\n      swap1\n      pop\n        /* \"#utility.yul\":29524:29943   */\n      swap2\n      swap1\n      pop\n      jump\t// out\n        /* \"#utility.yul\":29949:30174   */\n    tag_295:\n        /* \"#utility.yul\":30089:30123   */\n      0x416464726573733a20696e73756666696369656e742062616c616e636520666f\n        /* \"#utility.yul\":30085:30086   */\n      0x00\n        /* \"#utility.yul\":30077:30083   */\n      dup3\n        /* \"#utility.yul\":30073:30087   */\n      add\n        /* \"#utility.yul\":30066:30124   */\n      mstore\n        /* \"#utility.yul\":30158:30166   */\n      0x722063616c6c0000000000000000000000000000000000000000000000000000\n        /* \"#utility.yul\":30153:30155   */\n      0x20\n        /* \"#utility.yul\":30145:30151   */\n      dup3\n        /* \"#utility.yul\":30141:30156   */\n      add\n        /* \"#utility.yul\":30134:30167   */\n      mstore\n        /* \"#utility.yul\":29949:30174   */\n      pop\n      jump\t// out\n        /* \"#utility.yul\":30180:30546   */\n    tag_296:\n        /* \"#utility.yul\":30322:30325   */\n      0x00\n        /* \"#utility.yul\":30343:30410   */\n      tag_569\n        /* \"#utility.yul\":30407:30409   */\n      0x26\n        /* \"#utility.yul\":30402:30405   */\n      dup4\n        /* \"#utility.yul\":30343:30410   */\n      tag_245\n      jump\t// in\n    tag_569:\n        /* \"#utility.yul\":30336:30410   */\n      swap2\n      pop\n        /* \"#utility.yul\":30419:30512   */\n      tag_570\n        /* \"#utility.yul\":30508:30511   */\n      dup3\n        /* \"#utility.yul\":30419:30512   */\n      tag_295\n      jump\t// in\n    tag_570:\n        /* \"#utility.yul\":30537:30539   */\n      0x40\n        /* \"#utility.yul\":30532:30535   */\n      dup3\n        /* \"#utility.yul\":30528:30540   */\n      add\n        /* \"#utility.yul\":30521:30540   */\n      swap1\n      pop\n        /* \"#utility.yul\":30180:30546   */\n      swap2\n      swap1\n      pop\n      jump\t// out\n        /* \"#utility.yul\":30552:30971   */\n    tag_201:\n        /* \"#utility.yul\":30718:30722   */\n      0x00\n        /* \"#utility.yul\":30756:30758   */\n      0x20\n        /* \"#utility.yul\":30745:30754   */\n      dup3\n        /* \"#utility.yul\":30741:30759   */\n      add\n        /* \"#utility.yul\":30733:30759   */\n      swap1\n      pop\n        /* \"#utility.yul\":30805:30814   */\n      dup2\n        /* \"#utility.yul\":30799:30803   */\n      dup2\n        /* \"#utility.yul\":30795:30815   */\n      sub\n        /* \"#utility.yul\":30791:30792   */\n      0x00\n        /* \"#utility.yul\":30780:30789   */\n      dup4\n        /* \"#utility.yul\":30776:30793   */\n      add\n        /* \"#utility.yul\":30769:30816   */\n      mstore\n        /* \"#utility.yul\":30833:30964   */\n      tag_572\n        /* \"#utility.yul\":30959:30963   */\n      dup2\n        /* \"#utility.yul\":30833:30964   */\n      tag_296\n      jump\t// in\n    tag_572:\n        /* \"#utility.yul\":30825:30964   */\n      swap1\n      pop\n        /* \"#utility.yul\":30552:30971   */\n      swap2\n      swap1\n      pop\n      jump\t// out\n        /* \"#utility.yul\":30977:31075   */\n    tag_297:\n        /* \"#utility.yul\":31028:31034   */\n      0x00\n        /* \"#utility.yul\":31062:31067   */\n      dup2\n        /* \"#utility.yul\":31056:31068   */\n      mload\n        /* \"#utility.yul\":31046:31068   */\n      swap1\n      pop\n        /* \"#utility.yul\":30977:31075   */\n      swap2\n      swap1\n      pop\n      jump\t// out\n        /* \"#utility.yul\":31081:31228   */\n    tag_298:\n        /* \"#utility.yul\":31182:31193   */\n      0x00\n        /* \"#utility.yul\":31219:31222   */\n      dup2\n        /* \"#utility.yul\":31204:31222   */\n      swap1\n      pop\n        /* \"#utility.yul\":31081:31228   */\n      swap3\n      swap2\n      pop\n      pop\n      jump\t// out\n        /* \"#utility.yul\":31234:31480   */\n    tag_299:\n        /* \"#utility.yul\":31315:31316   */\n      0x00\n        /* \"#utility.yul\":31325:31438   */\n    tag_576:\n        /* \"#utility.yul\":31339:31345   */\n      dup4\n        /* \"#utility.yul\":31336:31337   */\n      dup2\n        /* \"#utility.yul\":31333:31346   */\n      lt\n        /* \"#utility.yul\":31325:31438   */\n      iszero\n      tag_578\n      jumpi\n        /* \"#utility.yul\":31424:31425   */\n      dup1\n        /* \"#utility.yul\":31419:31422   */\n      dup3\n        /* \"#utility.yul\":31415:31426   */\n      add\n        /* \"#utility.yul\":31409:31427   */\n      mload\n        /* \"#utility.yul\":31405:31406   */\n      dup2\n        /* \"#utility.yul\":31400:31403   */\n      dup5\n        /* \"#utility.yul\":31396:31407   */\n      add\n        /* \"#utility.yul\":31389:31428   */\n      mstore\n        /* \"#utility.yul\":31361:31363   */\n      0x20\n        /* \"#utility.yul\":31358:31359   */\n      dup2\n        /* \"#utility.yul\":31354:31364   */\n      add\n        /* \"#utility.yul\":31349:31364   */\n      swap1\n      pop\n        /* \"#utility.yul\":31325:31438   */\n      jump(tag_576)\n    tag_578:\n        /* \"#utility.yul\":31472:31473   */\n      0x00\n        /* \"#utility.yul\":31463:31469   */\n      dup5\n        /* \"#utility.yul\":31458:31461   */\n      dup5\n        /* \"#utility.yul\":31454:31470   */\n      add\n        /* \"#utility.yul\":31447:31474   */\n      mstore\n        /* \"#utility.yul\":31296:31480   */\n      pop\n        /* \"#utility.yul\":31234:31480   */\n      pop\n      pop\n      pop\n      jump\t// out\n        /* \"#utility.yul\":31486:31872   */\n    tag_300:\n        /* \"#utility.yul\":31590:31593   */\n      0x00\n        /* \"#utility.yul\":31618:31656   */\n      tag_580\n        /* \"#utility.yul\":31650:31655   */\n      dup3\n        /* \"#utility.yul\":31618:31656   */\n      tag_297\n      jump\t// in\n    tag_580:\n        /* \"#utility.yul\":31672:31760   */\n      tag_581\n        /* \"#utility.yul\":31753:31759   */\n      dup2\n        /* \"#utility.yul\":31748:31751   */\n      dup6\n        /* \"#utility.yul\":31672:31760   */\n      tag_298\n      jump\t// in\n    tag_581:\n        /* \"#utility.yul\":31665:31760   */\n      swap4\n      pop\n        /* \"#utility.yul\":31769:31834   */\n      tag_582\n        /* \"#utility.yul\":31827:31833   */\n      dup2\n        /* \"#utility.yul\":31822:31825   */\n      dup6\n        /* \"#utility.yul\":31815:31819   */\n      0x20\n        /* \"#utility.yul\":31808:31813   */\n      dup7\n        /* \"#utility.yul\":31804:31820   */\n      add\n        /* \"#utility.yul\":31769:31834   */\n      tag_299\n      jump\t// in\n    tag_582:\n        /* \"#utility.yul\":31859:31865   */\n      dup1\n        /* \"#utility.yul\":31854:31857   */\n      dup5\n        /* \"#utility.yul\":31850:31866   */\n      add\n        /* \"#utility.yul\":31843:31866   */\n      swap2\n      pop\n        /* \"#utility.yul\":31594:31872   */\n      pop\n        /* \"#utility.yul\":31486:31872   */\n      swap3\n      swap2\n      pop\n      pop\n      jump\t// out\n        /* \"#utility.yul\":31878:32149   */\n    tag_203:\n        /* \"#utility.yul\":32008:32011   */\n      0x00\n        /* \"#utility.yul\":32030:32123   */\n      tag_584\n        /* \"#utility.yul\":32119:32122   */\n      dup3\n        /* \"#utility.yul\":32110:32116   */\n      dup5\n        /* \"#utility.yul\":32030:32123   */\n      tag_300\n      jump\t// in\n    tag_584:\n        /* \"#utility.yul\":32023:32123   */\n      swap2\n      pop\n        /* \"#utility.yul\":32140:32143   */\n      dup2\n        /* \"#utility.yul\":32133:32143   */\n      swap1\n      pop\n        /* \"#utility.yul\":31878:32149   */\n      swap3\n      swap2\n      pop\n      pop\n      jump\t// out\n        /* \"#utility.yul\":32155:32334   */\n    tag_301:\n        /* \"#utility.yul\":32295:32326   */\n      0x416464726573733a2063616c6c20746f206e6f6e2d636f6e7472616374000000\n        /* \"#utility.yul\":32291:32292   */\n      0x00\n        /* \"#utility.yul\":32283:32289   */\n      dup3\n        /* \"#utility.yul\":32279:32293   */\n      add\n        /* \"#utility.yul\":32272:32327   */\n      mstore\n        /* \"#utility.yul\":32155:32334   */\n      pop\n      jump\t// out\n        /* \"#utility.yul\":32340:32706   */\n    tag_302:\n        /* \"#utility.yul\":32482:32485   */\n      0x00\n        /* \"#utility.yul\":32503:32570   */\n      tag_587\n        /* \"#utility.yul\":32567:32569   */\n      0x1d\n        /* \"#utility.yul\":32562:32565   */\n      dup4\n        /* \"#utility.yul\":32503:32570   */\n      tag_245\n      jump\t// in\n    tag_587:\n        /* \"#utility.yul\":32496:32570   */\n      swap2\n      pop\n        /* \"#utility.yul\":32579:32672   */\n      tag_588\n        /* \"#utility.yul\":32668:32671   */\n      dup3\n        /* \"#utility.yul\":32579:32672   */\n      tag_301\n      jump\t// in\n    tag_588:\n        /* \"#utility.yul\":32697:32699   */\n      0x20\n        /* \"#utility.yul\":32692:32695   */\n      dup3\n        /* \"#utility.yul\":32688:32700   */\n      add\n        /* \"#utility.yul\":32681:32700   */\n      swap1\n      pop\n        /* \"#utility.yul\":32340:32706   */\n      swap2\n      swap1\n      pop\n      jump\t// out\n        /* \"#utility.yul\":32712:33131   */\n    tag_216:\n        /* \"#utility.yul\":32878:32882   */\n      0x00\n        /* \"#utility.yul\":32916:32918   */\n      0x20\n        /* \"#utility.yul\":32905:32914   */\n      dup3\n        /* \"#utility.yul\":32901:32919   */\n      add\n        /* \"#utility.yul\":32893:32919   */\n      swap1\n      pop\n        /* \"#utility.yul\":32965:32974   */\n      dup2\n        /* \"#utility.yul\":32959:32963   */\n      dup2\n        /* \"#utility.yul\":32955:32975   */\n      sub\n        /* \"#utility.yul\":32951:32952   */\n      0x00\n        /* \"#utility.yul\":32940:32949   */\n      dup4\n        /* \"#utility.yul\":32936:32953   */\n      add\n        /* \"#utility.yul\":32929:32976   */\n      mstore\n        /* \"#utility.yul\":32993:33124   */\n      tag_590\n        /* \"#utility.yul\":33119:33123   */\n      dup2\n        /* \"#utility.yul\":32993:33124   */\n      tag_302\n      jump\t// in\n    tag_590:\n        /* \"#utility.yul\":32985:33124   */\n      swap1\n      pop\n        /* \"#utility.yul\":32712:33131   */\n      swap2\n      swap1\n      pop\n      jump\t// out\n        /* \"#utility.yul\":33137:33236   */\n    tag_303:\n        /* \"#utility.yul\":33189:33195   */\n      0x00\n        /* \"#utility.yul\":33223:33228   */\n      dup2\n        /* \"#utility.yul\":33217:33229   */\n      mload\n        /* \"#utility.yul\":33207:33229   */\n      swap1\n      pop\n        /* \"#utility.yul\":33137:33236   */\n      swap2\n      swap1\n      pop\n      jump\t// out\n        /* \"#utility.yul\":33242:33619   */\n    tag_304:\n        /* \"#utility.yul\":33330:33333   */\n      0x00\n        /* \"#utility.yul\":33358:33397   */\n      tag_593\n        /* \"#utility.yul\":33391:33396   */\n      dup3\n        /* \"#utility.yul\":33358:33397   */\n      tag_303\n      jump\t// in\n    tag_593:\n        /* \"#utility.yul\":33413:33484   */\n      tag_594\n        /* \"#utility.yul\":33477:33483   */\n      dup2\n        /* \"#utility.yul\":33472:33475   */\n      dup6\n        /* \"#utility.yul\":33413:33484   */\n      tag_245\n      jump\t// in\n    tag_594:\n        /* \"#utility.yul\":33406:33484   */\n      swap4\n      pop\n        /* \"#utility.yul\":33493:33558   */\n      tag_595\n        /* \"#utility.yul\":33551:33557   */\n      dup2\n        /* \"#utility.yul\":33546:33549   */\n      dup6\n        /* \"#utility.yul\":33539:33543   */\n      0x20\n        /* \"#utility.yul\":33532:33537   */\n      dup7\n        /* \"#utility.yul\":33528:33544   */\n      add\n        /* \"#utility.yul\":33493:33558   */\n      tag_299\n      jump\t// in\n    tag_595:\n        /* \"#utility.yul\":33583:33612   */\n      tag_596\n        /* \"#utility.yul\":33605:33611   */\n      dup2\n        /* \"#utility.yul\":33583:33612   */\n      tag_267\n      jump\t// in\n    tag_596:\n        /* \"#utility.yul\":33578:33581   */\n      dup5\n        /* \"#utility.yul\":33574:33613   */\n      add\n        /* \"#utility.yul\":33567:33613   */\n      swap2\n      pop\n        /* \"#utility.yul\":33334:33619   */\n      pop\n        /* \"#utility.yul\":33242:33619   */\n      swap3\n      swap2\n      pop\n      pop\n      jump\t// out\n        /* \"#utility.yul\":33625:33938   */\n    tag_225:\n        /* \"#utility.yul\":33738:33742   */\n      0x00\n        /* \"#utility.yul\":33776:33778   */\n      0x20\n        /* \"#utility.yul\":33765:33774   */\n      dup3\n        /* \"#utility.yul\":33761:33779   */\n      add\n        /* \"#utility.yul\":33753:33779   */\n      swap1\n      pop\n        /* \"#utility.yul\":33825:33834   */\n      dup2\n        /* \"#utility.yul\":33819:33823   */\n      dup2\n        /* \"#utility.yul\":33815:33835   */\n      sub\n        /* \"#utility.yul\":33811:33812   */\n      0x00\n        /* \"#utility.yul\":33800:33809   */\n      dup4\n        /* \"#utility.yul\":33796:33813   */\n      add\n        /* \"#utility.yul\":33789:33836   */\n      mstore\n        /* \"#utility.yul\":33853:33931   */\n      tag_598\n        /* \"#utility.yul\":33926:33930   */\n      dup2\n        /* \"#utility.yul\":33917:33923   */\n      dup5\n        /* \"#utility.yul\":33853:33931   */\n      tag_304\n      jump\t// in\n    tag_598:\n        /* \"#utility.yul\":33845:33931   */\n      swap1\n      pop\n        /* \"#utility.yul\":33625:33938   */\n      swap3\n      swap2\n      pop\n      pop\n      jump\t// out\n\n    auxdata: 0xa2646970667358221220385ef3102d59caeecea11322f7ad74ac46c3044e4eee7521226843a33ce3fbac64736f6c63430008120033\n}\n",
				"bytecode": {
					"linkReferences": {},
					"object": "608060405234801561001057600080fd5b5061002d61002261003260201b60201c565b61003a60201b60201c565b6100fe565b600033905090565b60008060009054906101000a900473ffffffffffffffffffffffffffffffffffffffff169050816000806101000a81548173ffffffffffffffffffffffffffffffffffffffff021916908373ffffffffffffffffffffffffffffffffffffffff1602179055508173ffffffffffffffffffffffffffffffffffffffff168173ffffffffffffffffffffffffffffffffffffffff167f8be0079c531659141344cd1fd0a4f28419497f9722a3daafe3b4186f6b6457e060405160405180910390a35050565b6122cd806200010e6000396000f3fe608060405234801561001057600080fd5b506004361061007d5760003560e01c806370a082311161005b57806370a08231146100d6578063715018a6146101065780638da5cb5b14610110578063f2fde38b1461012e5761007d565b806317e78b6c146100825780634a4bdb301461009e57806356edb469146100ba575b600080fd5b61009c6004803603810190610097919061131d565b61014a565b005b6100b860048036038101906100b39190611465565b610501565b005b6100d460048036038101906100cf919061152f565b6107a8565b005b6100f060048036038101906100eb9190611618565b610c0c565b6040516100fd9190611654565b60405180910390f35b61010e610c55565b005b610118610c69565b604051610125919061167e565b60405180910390f35b61014860048036038101906101439190611618565b610c92565b005b610152610d15565b60008686905011610198576040517f08c379a000000000000000000000000000000000000000000000000000000000815260040161018f906116f6565b60405180910390fd5b8383905086869050146101e0576040517f08c379a00000000000000000000000000000000000000000000000000000000081526004016101d790611762565b60405180910390fd5b60006101ea610c69565b905060005b8787905081101561048b57600086868381811061020f5761020e611782565b5b9050602002013511610256576040517f08c379a000000000000000000000000000000000000000000000000000000000815260040161024d906117fd565b60405180910390fd5b6001600089898481811061026d5761026c611782565b5b90506020020160208101906102829190611618565b73ffffffffffffffffffffffffffffffffffffffff1673ffffffffffffffffffffffffffffffffffffffff168152602001908152602001600020548686838181106102d0576102cf611782565b5b905060200201351115610318576040517f08c379a000000000000000000000000000000000000000000000000000000000815260040161030f90611869565b60405180910390fd5b6103838287878481811061032f5761032e611782565b5b905060200201358a8a8581811061034957610348611782565b5b905060200201602081019061035e9190611618565b73ffffffffffffffffffffffffffffffffffffffff16610d939092919063ffffffff16565b85858281811061039657610395611782565b5b90506020020135600160008a8a858181106103b4576103b3611782565b5b90506020020160208101906103c99190611618565b73ffffffffffffffffffffffffffffffffffffffff1673ffffffffffffffffffffffffffffffffffffffff1681526020019081526020016000205461040e91906118b8565b600160008a8a8581811061042557610424611782565b5b905060200201602081019061043a9190611618565b73ffffffffffffffffffffffffffffffffffffffff1673ffffffffffffffffffffffffffffffffffffffff168152602001908152602001600020819055508080610483906118ec565b9150506101ef565b508073ffffffffffffffffffffffffffffffffffffffff1687876040516104b39291906119f1565b60405180910390207f246131af8b217ee0901b4b5a97b3dc7ebf85c4565198d26948c19055597fc002878787876040516104f09493929190611ad2565b60405180910390a350505050505050565b600073ffffffffffffffffffffffffffffffffffffffff168473ffffffffffffffffffffffffffffffffffffffff1603610570576040517f08c379a0000000000000000000000000000000000000000000000000000000008152600401610567906116f6565b60405180910390fd5b600083116105b3576040517f08c379a00000000000000000000000000000000000000000000000000000000081526004016105aa906117fd565b60405180910390fd5b600160008573ffffffffffffffffffffffffffffffffffffffff1673ffffffffffffffffffffffffffffffffffffffff1681526020019081526020016000205483600160008773ffffffffffffffffffffffffffffffffffffffff1673ffffffffffffffffffffffffffffffffffffffff1681526020019081526020016000205461063e9190611b0d565b1161067e576040517f08c379a000000000000000000000000000000000000000000000000000000000815260040161067590611b8d565b60405180910390fd5b6106ab3330858773ffffffffffffffffffffffffffffffffffffffff16610e19909392919063ffffffff16565b82600160008673ffffffffffffffffffffffffffffffffffffffff1673ffffffffffffffffffffffffffffffffffffffff168152602001908152602001600020546106f69190611b0d565b600160008673ffffffffffffffffffffffffffffffffffffffff1673ffffffffffffffffffffffffffffffffffffffff168152602001908152602001600020819055503373ffffffffffffffffffffffffffffffffffffffff168473ffffffffffffffffffffffffffffffffffffffff167f5d2ae1cdca5222ec8fffbc4b088f5b5144ad5f4eaf2fc8afc49cd3585767108285858560405161079a93929190611bad565b60405180910390a350505050565b6107b0610d15565b600088889050116107f6576040517f08c379a00000000000000000000000000000000000000000000000000000000081526004016107ed906116f6565b60405180910390fd5b85859050888890501461083e576040517f08c379a0000000000000000000000000000000000000000000000000000000008152600401610835906117fd565b60405180910390fd5b838390508888905014610886576040517f08c379a000000000000000000000000000000000000000000000000000000000815260040161087d90611c2b565b60405180910390fd5b8181905088889050146108ce576040517f08c379a00000000000000000000000000000000000000000000000000000000081526004016108c590611c97565b60405180910390fd5b60005b88889050811015610b945760008787838181106108f1576108f0611782565b5b9050602002013511610938576040517f08c379a000000000000000000000000000000000000000000000000000000000815260040161092f906117fd565b60405180910390fd5b600160008a8a8481811061094f5761094e611782565b5b90506020020160208101906109649190611618565b73ffffffffffffffffffffffffffffffffffffffff1673ffffffffffffffffffffffffffffffffffffffff168152602001908152602001600020548787838181106109b2576109b1611782565b5b9050602002013511156109fa576040517f08c379a00000000000000000000000000000000000000000000000000000000081526004016109f190611869565b60405180910390fd5b610a8c858583818110610a1057610a0f611782565b5b9050602002016020810190610a259190611618565b888884818110610a3857610a37611782565b5b905060200201358b8b85818110610a5257610a51611782565b5b9050602002016020810190610a679190611618565b73ffffffffffffffffffffffffffffffffffffffff16610d939092919063ffffffff16565b868682818110610a9f57610a9e611782565b5b90506020020135600160008b8b85818110610abd57610abc611782565b5b9050602002016020810190610ad29190611618565b73ffffffffffffffffffffffffffffffffffffffff1673ffffffffffffffffffffffffffffffffffffffff16815260200190815260200160002054610b1791906118b8565b600160008b8b85818110610b2e57610b2d611782565b5b9050602002016020810190610b439190611618565b73ffffffffffffffffffffffffffffffffffffffff1673ffffffffffffffffffffffffffffffffffffffff168152602001908152602001600020819055508080610b8c906118ec565b9150506108d1565b508383604051610ba59291906119f1565b60405180910390208888604051610bbd9291906119f1565b60405180910390207fa00a8aecfc1929afaf83d428e7b217b6626396c9dd39ad9f5d7327a0bb5e4d1388888686604051610bfa9493929190611e1b565b60405180910390a35050505050505050565b6000600160008373ffffffffffffffffffffffffffffffffffffffff1673ffffffffffffffffffffffffffffffffffffffff168152602001908152602001600020549050919050565b610c5d610d15565b610c676000610ea2565b565b60008060009054906101000a900473ffffffffffffffffffffffffffffffffffffffff16905090565b610c9a610d15565b600073ffffffffffffffffffffffffffffffffffffffff168173ffffffffffffffffffffffffffffffffffffffff1603610d09576040517f08c379a0000000000000000000000000000000000000000000000000000000008152600401610d0090611ec8565b60405180910390fd5b610d1281610ea2565b50565b610d1d610f66565b73ffffffffffffffffffffffffffffffffffffffff16610d3b610c69565b73ffffffffffffffffffffffffffffffffffffffff1614610d91576040517f08c379a0000000000000000000000000000000000000000000000000000000008152600401610d8890611f34565b60405180910390fd5b565b610e148363a9059cbb60e01b8484604051602401610db2929190611f54565b604051602081830303815290604052907bffffffffffffffffffffffffffffffffffffffffffffffffffffffff19166020820180517bffffffffffffffffffffffffffffffffffffffffffffffffffffffff8381831617835250505050610f6e565b505050565b610e9c846323b872dd60e01b858585604051602401610e3a93929190611f7d565b604051602081830303815290604052907bffffffffffffffffffffffffffffffffffffffffffffffffffffffff19166020820180517bffffffffffffffffffffffffffffffffffffffffffffffffffffffff8381831617835250505050610f6e565b50505050565b60008060009054906101000a900473ffffffffffffffffffffffffffffffffffffffff169050816000806101000a81548173ffffffffffffffffffffffffffffffffffffffff021916908373ffffffffffffffffffffffffffffffffffffffff1602179055508173ffffffffffffffffffffffffffffffffffffffff168173ffffffffffffffffffffffffffffffffffffffff167f8be0079c531659141344cd1fd0a4f28419497f9722a3daafe3b4186f6b6457e060405160405180910390a35050565b600033905090565b6000610fd0826040518060400160405280602081526020017f5361666545524332303a206c6f772d6c6576656c2063616c6c206661696c65648152508573ffffffffffffffffffffffffffffffffffffffff166110359092919063ffffffff16565b90506000815111156110305780806020019051810190610ff09190611fec565b61102f576040517f08c379a00000000000000000000000000000000000000000000000000000000081526004016110269061208b565b60405180910390fd5b5b505050565b6060611044848460008561104d565b90509392505050565b606082471015611092576040517f08c379a00000000000000000000000000000000000000000000000000000000081526004016110899061211d565b60405180910390fd5b6000808673ffffffffffffffffffffffffffffffffffffffff1685876040516110bb91906121ae565b60006040518083038185875af1925050503d80600081146110f8576040519150601f19603f3d011682016040523d82523d6000602084013e6110fd565b606091505b509150915061110e8783838761111a565b92505050949350505050565b6060831561117c576000835103611174576111348561118f565b611173576040517f08c379a000000000000000000000000000000000000000000000000000000000815260040161116a90612211565b60405180910390fd5b5b829050611187565b61118683836111b2565b5b949350505050565b6000808273ffffffffffffffffffffffffffffffffffffffff163b119050919050565b6000825111156111c55781518083602001fd5b806040517f08c379a00000000000000000000000000000000000000000000000000000000081526004016111f99190612275565b60405180910390fd5b600080fd5b600080fd5b600080fd5b600080fd5b600080fd5b60008083601f8401126112315761123061120c565b5b8235905067ffffffffffffffff81111561124e5761124d611211565b5b60208301915083602082028301111561126a57611269611216565b5b9250929050565b60008083601f8401126112875761128661120c565b5b8235905067ffffffffffffffff8111156112a4576112a3611211565b5b6020830191508360208202830111156112c0576112bf611216565b5b9250929050565b60008083601f8401126112dd576112dc61120c565b5b8235905067ffffffffffffffff8111156112fa576112f9611211565b5b60208301915083600182028301111561131657611315611216565b5b9250929050565b6000806000806000806060878903121561133a57611339611202565b5b600087013567ffffffffffffffff81111561135857611357611207565b5b61136489828a0161121b565b9650965050602087013567ffffffffffffffff81111561138757611386611207565b5b61139389828a01611271565b9450945050604087013567ffffffffffffffff8111156113b6576113b5611207565b5b6113c289828a016112c7565b92509250509295509295509295565b600073ffffffffffffffffffffffffffffffffffffffff82169050919050565b60006113fc826113d1565b9050919050565b61140c816113f1565b811461141757600080fd5b50565b60008135905061142981611403565b92915050565b6000819050919050565b6114428161142f565b811461144d57600080fd5b50565b60008135905061145f81611439565b92915050565b6000806000806060858703121561147f5761147e611202565b5b600061148d8782880161141a565b945050602061149e87828801611450565b935050604085013567ffffffffffffffff8111156114bf576114be611207565b5b6114cb878288016112c7565b925092505092959194509250565b60008083601f8401126114ef576114ee61120c565b5b8235905067ffffffffffffffff81111561150c5761150b611211565b5b60208301915083602082028301111561152857611527611216565b5b9250929050565b6000806000806000806000806080898b03121561154f5761154e611202565b5b600089013567ffffffffffffffff81111561156d5761156c611207565b5b6115798b828c0161121b565b9850985050602089013567ffffffffffffffff81111561159c5761159b611207565b5b6115a88b828c01611271565b9650965050604089013567ffffffffffffffff8111156115cb576115ca611207565b5b6115d78b828c0161121b565b9450945050606089013567ffffffffffffffff8111156115fa576115f9611207565b5b6116068b828c016114d9565b92509250509295985092959890939650565b60006020828403121561162e5761162d611202565b5b600061163c8482850161141a565b91505092915050565b61164e8161142f565b82525050565b60006020820190506116696000830184611645565b92915050565b611678816113f1565b82525050565b6000602082019050611693600083018461166f565b92915050565b600082825260208201905092915050565b7f63757272656e6379206661696c00000000000000000000000000000000000000600082015250565b60006116e0600d83611699565b91506116eb826116aa565b602082019050919050565b6000602082019050818103600083015261170f816116d3565b9050919050565b7f63757272656e6379206f7220616d6f756e74206661696c000000000000000000600082015250565b600061174c601783611699565b915061175782611716565b602082019050919050565b6000602082019050818103600083015261177b8161173f565b9050919050565b7f4e487b7100000000000000000000000000000000000000000000000000000000600052603260045260246000fd5b7f616d6f756e74206661696c000000000000000000000000000000000000000000600082015250565b60006117e7600b83611699565b91506117f2826117b1565b602082019050919050565b60006020820190508181036000830152611816816117da565b9050919050565b7f496e73756666696369656e742062616c616e6365000000000000000000000000600082015250565b6000611853601483611699565b915061185e8261181d565b602082019050919050565b6000602082019050818103600083015261188281611846565b9050919050565b7f4e487b7100000000000000000000000000000000000000000000000000000000600052601160045260246000fd5b60006118c38261142f565b91506118ce8361142f565b92508282039050818111156118e6576118e5611889565b5b92915050565b60006118f78261142f565b91507fffffffffffffffffffffffffffffffffffffffffffffffffffffffffffffffff820361192957611928611889565b5b600182019050919050565b600081905092915050565b6000819050919050565b611952816113f1565b82525050565b60006119648383611949565b60208301905092915050565b600061197f602084018461141a565b905092915050565b6000602082019050919050565b60006119a08385611934565b93506119ab8261193f565b8060005b858110156119e4576119c18284611970565b6119cb8882611958565b97506119d683611987565b9250506001810190506119af565b5085925050509392505050565b60006119fe828486611994565b91508190509392505050565b600082825260208201905092915050565b600080fd5b82818337505050565b6000611a358385611a0a565b93507f07ffffffffffffffffffffffffffffffffffffffffffffffffffffffffffffff831115611a6857611a67611a1b565b5b602083029250611a79838584611a20565b82840190509392505050565b82818337600083830152505050565b6000601f19601f8301169050919050565b6000611ab18385611699565b9350611abe838584611a85565b611ac783611a94565b840190509392505050565b60006040820190508181036000830152611aed818688611a29565b90508181036020830152611b02818486611aa5565b905095945050505050565b6000611b188261142f565b9150611b238361142f565b9250828201905080821115611b3b57611b3a611889565b5b92915050565b7f616d6f756e74206f766572666c6f770000000000000000000000000000000000600082015250565b6000611b77600f83611699565b9150611b8282611b41565b602082019050919050565b60006020820190508181036000830152611ba681611b6a565b9050919050565b6000604082019050611bc26000830186611645565b8181036020830152611bd5818486611aa5565b9050949350505050565b7f746f206661696c00000000000000000000000000000000000000000000000000600082015250565b6000611c15600783611699565b9150611c2082611bdf565b602082019050919050565b60006020820190508181036000830152611c4481611c08565b9050919050565b7f6f726465724964206661696c0000000000000000000000000000000000000000600082015250565b6000611c81600c83611699565b9150611c8c82611c4b565b602082019050919050565b60006020820190508181036000830152611cb081611c74565b9050919050565b600082825260208201905092915050565b6000819050919050565b600082825260208201905092915050565b6000611cef8385611cd2565b9350611cfc838584611a85565b611d0583611a94565b840190509392505050565b6000611d1d848484611ce3565b90509392505050565b600080fd5b600080fd5b600080fd5b60008083356001602003843603038112611d5257611d51611d30565b5b83810192508235915060208301925067ffffffffffffffff821115611d7a57611d79611d26565b5b600182023603831315611d9057611d8f611d2b565b5b509250929050565b6000602082019050919050565b6000611db18385611cb7565b935083602084028501611dc384611cc8565b8060005b87811015611e09578484038952611dde8284611d35565b611de9868284611d10565b9550611df484611d98565b935060208b019a505050600181019050611dc7565b50829750879450505050509392505050565b60006040820190508181036000830152611e36818688611a29565b90508181036020830152611e4b818486611da5565b905095945050505050565b7f4f776e61626c653a206e6577206f776e657220697320746865207a65726f206160008201527f6464726573730000000000000000000000000000000000000000000000000000602082015250565b6000611eb2602683611699565b9150611ebd82611e56565b604082019050919050565b60006020820190508181036000830152611ee181611ea5565b9050919050565b7f4f776e61626c653a2063616c6c6572206973206e6f7420746865206f776e6572600082015250565b6000611f1e602083611699565b9150611f2982611ee8565b602082019050919050565b60006020820190508181036000830152611f4d81611f11565b9050919050565b6000604082019050611f69600083018561166f565b611f766020830184611645565b9392505050565b6000606082019050611f92600083018661166f565b611f9f602083018561166f565b611fac6040830184611645565b949350505050565b60008115159050919050565b611fc981611fb4565b8114611fd457600080fd5b50565b600081519050611fe681611fc0565b92915050565b60006020828403121561200257612001611202565b5b600061201084828501611fd7565b91505092915050565b7f5361666545524332303a204552433230206f7065726174696f6e20646964206e60008201527f6f74207375636365656400000000000000000000000000000000000000000000602082015250565b6000612075602a83611699565b915061208082612019565b604082019050919050565b600060208201905081810360008301526120a481612068565b9050919050565b7f416464726573733a20696e73756666696369656e742062616c616e636520666f60008201527f722063616c6c0000000000000000000000000000000000000000000000000000602082015250565b6000612107602683611699565b9150612112826120ab565b604082019050919050565b60006020820190508181036000830152612136816120fa565b9050919050565b600081519050919050565b600081905092915050565b60005b83811015612171578082015181840152602081019050612156565b60008484015250505050565b60006121888261213d565b6121928185612148565b93506121a2818560208601612153565b80840191505092915050565b60006121ba828461217d565b915081905092915050565b7f416464726573733a2063616c6c20746f206e6f6e2d636f6e7472616374000000600082015250565b60006121fb601d83611699565b9150612206826121c5565b602082019050919050565b6000602082019050818103600083015261222a816121ee565b9050919050565b600081519050919050565b600061224782612231565b6122518185611699565b9350612261818560208601612153565b61226a81611a94565b840191505092915050565b6000602082019050818103600083015261228f818461223c565b90509291505056fea2646970667358221220385ef3102d59caeecea11322f7ad74ac46c3044e4eee7521226843a33ce3fbac64736f6c63430008120033",
					"opcodes": "PUSH1 0x80 PUSH1 0x40 MSTORE CALLVALUE DUP1 ISZERO PUSH2 0x10 JUMPI PUSH1 0x0 DUP1 REVERT JUMPDEST POP PUSH2 0x2D PUSH2 0x22 PUSH2 0x32 PUSH1 0x20 SHL PUSH1 0x20 SHR JUMP JUMPDEST PUSH2 0x3A PUSH1 0x20 SHL PUSH1 0x20 SHR JUMP JUMPDEST PUSH2 0xFE JUMP JUMPDEST PUSH1 0x0 CALLER SWAP1 POP SWAP1 JUMP JUMPDEST PUSH1 0x0 DUP1 PUSH1 0x0 SWAP1 SLOAD SWAP1 PUSH2 0x100 EXP SWAP1 DIV PUSH20 0xFFFFFFFFFFFFFFFFFFFFFFFFFFFFFFFFFFFFFFFF AND SWAP1 POP DUP2 PUSH1 0x0 DUP1 PUSH2 0x100 EXP DUP2 SLOAD DUP2 PUSH20 0xFFFFFFFFFFFFFFFFFFFFFFFFFFFFFFFFFFFFFFFF MUL NOT AND SWAP1 DUP4 PUSH20 0xFFFFFFFFFFFFFFFFFFFFFFFFFFFFFFFFFFFFFFFF AND MUL OR SWAP1 SSTORE POP DUP2 PUSH20 0xFFFFFFFFFFFFFFFFFFFFFFFFFFFFFFFFFFFFFFFF AND DUP2 PUSH20 0xFFFFFFFFFFFFFFFFFFFFFFFFFFFFFFFFFFFFFFFF AND PUSH32 0x8BE0079C531659141344CD1FD0A4F28419497F9722A3DAAFE3B4186F6B6457E0 PUSH1 0x40 MLOAD PUSH1 0x40 MLOAD DUP1 SWAP2 SUB SWAP1 LOG3 POP POP JUMP JUMPDEST PUSH2 0x22CD DUP1 PUSH3 0x10E PUSH1 0x0 CODECOPY PUSH1 0x0 RETURN INVALID PUSH1 0x80 PUSH1 0x40 MSTORE CALLVALUE DUP1 ISZERO PUSH2 0x10 JUMPI PUSH1 0x0 DUP1 REVERT JUMPDEST POP PUSH1 0x4 CALLDATASIZE LT PUSH2 0x7D JUMPI PUSH1 0x0 CALLDATALOAD PUSH1 0xE0 SHR DUP1 PUSH4 0x70A08231 GT PUSH2 0x5B JUMPI DUP1 PUSH4 0x70A08231 EQ PUSH2 0xD6 JUMPI DUP1 PUSH4 0x715018A6 EQ PUSH2 0x106 JUMPI DUP1 PUSH4 0x8DA5CB5B EQ PUSH2 0x110 JUMPI DUP1 PUSH4 0xF2FDE38B EQ PUSH2 0x12E JUMPI PUSH2 0x7D JUMP JUMPDEST DUP1 PUSH4 0x17E78B6C EQ PUSH2 0x82 JUMPI DUP1 PUSH4 0x4A4BDB30 EQ PUSH2 0x9E JUMPI DUP1 PUSH4 0x56EDB469 EQ PUSH2 0xBA JUMPI JUMPDEST PUSH1 0x0 DUP1 REVERT JUMPDEST PUSH2 0x9C PUSH1 0x4 DUP1 CALLDATASIZE SUB DUP2 ADD SWAP1 PUSH2 0x97 SWAP2 SWAP1 PUSH2 0x131D JUMP JUMPDEST PUSH2 0x14A JUMP JUMPDEST STOP JUMPDEST PUSH2 0xB8 PUSH1 0x4 DUP1 CALLDATASIZE SUB DUP2 ADD SWAP1 PUSH2 0xB3 SWAP2 SWAP1 PUSH2 0x1465 JUMP JUMPDEST PUSH2 0x501 JUMP JUMPDEST STOP JUMPDEST PUSH2 0xD4 PUSH1 0x4 DUP1 CALLDATASIZE SUB DUP2 ADD SWAP1 PUSH2 0xCF SWAP2 SWAP1 PUSH2 0x152F JUMP JUMPDEST PUSH2 0x7A8 JUMP JUMPDEST STOP JUMPDEST PUSH2 0xF0 PUSH1 0x4 DUP1 CALLDATASIZE SUB DUP2 ADD SWAP1 PUSH2 0xEB SWAP2 SWAP1 PUSH2 0x1618 JUMP JUMPDEST PUSH2 0xC0C JUMP JUMPDEST PUSH1 0x40 MLOAD PUSH2 0xFD SWAP2 SWAP1 PUSH2 0x1654 JUMP JUMPDEST PUSH1 0x40 MLOAD DUP1 SWAP2 SUB SWAP1 RETURN JUMPDEST PUSH2 0x10E PUSH2 0xC55 JUMP JUMPDEST STOP JUMPDEST PUSH2 0x118 PUSH2 0xC69 JUMP JUMPDEST PUSH1 0x40 MLOAD PUSH2 0x125 SWAP2 SWAP1 PUSH2 0x167E JUMP JUMPDEST PUSH1 0x40 MLOAD DUP1 SWAP2 SUB SWAP1 RETURN JUMPDEST PUSH2 0x148 PUSH1 0x4 DUP1 CALLDATASIZE SUB DUP2 ADD SWAP1 PUSH2 0x143 SWAP2 SWAP1 PUSH2 0x1618 JUMP JUMPDEST PUSH2 0xC92 JUMP JUMPDEST STOP JUMPDEST PUSH2 0x152 PUSH2 0xD15 JUMP JUMPDEST PUSH1 0x0 DUP7 DUP7 SWAP1 POP GT PUSH2 0x198 JUMPI PUSH1 0x40 MLOAD PUSH32 0x8C379A000000000000000000000000000000000000000000000000000000000 DUP2 MSTORE PUSH1 0x4 ADD PUSH2 0x18F SWAP1 PUSH2 0x16F6 JUMP JUMPDEST PUSH1 0x40 MLOAD DUP1 SWAP2 SUB SWAP1 REVERT JUMPDEST DUP4 DUP4 SWAP1 POP DUP7 DUP7 SWAP1 POP EQ PUSH2 0x1E0 JUMPI PUSH1 0x40 MLOAD PUSH32 0x8C379A000000000000000000000000000000000000000000000000000000000 DUP2 MSTORE PUSH1 0x4 ADD PUSH2 0x1D7 SWAP1 PUSH2 0x1762 JUMP JUMPDEST PUSH1 0x40 MLOAD DUP1 SWAP2 SUB SWAP1 REVERT JUMPDEST PUSH1 0x0 PUSH2 0x1EA PUSH2 0xC69 JUMP JUMPDEST SWAP1 POP PUSH1 0x0 JUMPDEST DUP8 DUP8 SWAP1 POP DUP2 LT ISZERO PUSH2 0x48B JUMPI PUSH1 0x0 DUP7 DUP7 DUP4 DUP2 DUP2 LT PUSH2 0x20F JUMPI PUSH2 0x20E PUSH2 0x1782 JUMP JUMPDEST JUMPDEST SWAP1 POP PUSH1 0x20 MUL ADD CALLDATALOAD GT PUSH2 0x256 JUMPI PUSH1 0x40 MLOAD PUSH32 0x8C379A000000000000000000000000000000000000000000000000000000000 DUP2 MSTORE PUSH1 0x4 ADD PUSH2 0x24D SWAP1 PUSH2 0x17FD JUMP JUMPDEST PUSH1 0x40 MLOAD DUP1 SWAP2 SUB SWAP1 REVERT JUMPDEST PUSH1 0x1 PUSH1 0x0 DUP10 DUP10 DUP5 DUP2 DUP2 LT PUSH2 0x26D JUMPI PUSH2 0x26C PUSH2 0x1782 JUMP JUMPDEST JUMPDEST SWAP1 POP PUSH1 0x20 MUL ADD PUSH1 0x20 DUP2 ADD SWAP1 PUSH2 0x282 SWAP2 SWAP1 PUSH2 0x1618 JUMP JUMPDEST PUSH20 0xFFFFFFFFFFFFFFFFFFFFFFFFFFFFFFFFFFFFFFFF AND PUSH20 0xFFFFFFFFFFFFFFFFFFFFFFFFFFFFFFFFFFFFFFFF AND DUP2 MSTORE PUSH1 0x20 ADD SWAP1 DUP2 MSTORE PUSH1 0x20 ADD PUSH1 0x0 KECCAK256 SLOAD DUP7 DUP7 DUP4 DUP2 DUP2 LT PUSH2 0x2D0 JUMPI PUSH2 0x2CF PUSH2 0x1782 JUMP JUMPDEST JUMPDEST SWAP1 POP PUSH1 0x20 MUL ADD CALLDATALOAD GT ISZERO PUSH2 0x318 JUMPI PUSH1 0x40 MLOAD PUSH32 0x8C379A000000000000000000000000000000000000000000000000000000000 DUP2 MSTORE PUSH1 0x4 ADD PUSH2 0x30F SWAP1 PUSH2 0x1869 JUMP JUMPDEST PUSH1 0x40 MLOAD DUP1 SWAP2 SUB SWAP1 REVERT JUMPDEST PUSH2 0x383 DUP3 DUP8 DUP8 DUP5 DUP2 DUP2 LT PUSH2 0x32F JUMPI PUSH2 0x32E PUSH2 0x1782 JUMP JUMPDEST JUMPDEST SWAP1 POP PUSH1 0x20 MUL ADD CALLDATALOAD DUP11 DUP11 DUP6 DUP2 DUP2 LT PUSH2 0x349 JUMPI PUSH2 0x348 PUSH2 0x1782 JUMP JUMPDEST JUMPDEST SWAP1 POP PUSH1 0x20 MUL ADD PUSH1 0x20 DUP2 ADD SWAP1 PUSH2 0x35E SWAP2 SWAP1 PUSH2 0x1618 JUMP JUMPDEST PUSH20 0xFFFFFFFFFFFFFFFFFFFFFFFFFFFFFFFFFFFFFFFF AND PUSH2 0xD93 SWAP1 SWAP3 SWAP2 SWAP1 PUSH4 0xFFFFFFFF AND JUMP JUMPDEST DUP6 DUP6 DUP3 DUP2 DUP2 LT PUSH2 0x396 JUMPI PUSH2 0x395 PUSH2 0x1782 JUMP JUMPDEST JUMPDEST SWAP1 POP PUSH1 0x20 MUL ADD CALLDATALOAD PUSH1 0x1 PUSH1 0x0 DUP11 DUP11 DUP6 DUP2 DUP2 LT PUSH2 0x3B4 JUMPI PUSH2 0x3B3 PUSH2 0x1782 JUMP JUMPDEST JUMPDEST SWAP1 POP PUSH1 0x20 MUL ADD PUSH1 0x20 DUP2 ADD SWAP1 PUSH2 0x3C9 SWAP2 SWAP1 PUSH2 0x1618 JUMP JUMPDEST PUSH20 0xFFFFFFFFFFFFFFFFFFFFFFFFFFFFFFFFFFFFFFFF AND PUSH20 0xFFFFFFFFFFFFFFFFFFFFFFFFFFFFFFFFFFFFFFFF AND DUP2 MSTORE PUSH1 0x20 ADD SWAP1 DUP2 MSTORE PUSH1 0x20 ADD PUSH1 0x0 KECCAK256 SLOAD PUSH2 0x40E SWAP2 SWAP1 PUSH2 0x18B8 JUMP JUMPDEST PUSH1 0x1 PUSH1 0x0 DUP11 DUP11 DUP6 DUP2 DUP2 LT PUSH2 0x425 JUMPI PUSH2 0x424 PUSH2 0x1782 JUMP JUMPDEST JUMPDEST SWAP1 POP PUSH1 0x20 MUL ADD PUSH1 0x20 DUP2 ADD SWAP1 PUSH2 0x43A SWAP2 SWAP1 PUSH2 0x1618 JUMP JUMPDEST PUSH20 0xFFFFFFFFFFFFFFFFFFFFFFFFFFFFFFFFFFFFFFFF AND PUSH20 0xFFFFFFFFFFFFFFFFFFFFFFFFFFFFFFFFFFFFFFFF AND DUP2 MSTORE PUSH1 0x20 ADD SWAP1 DUP2 MSTORE PUSH1 0x20 ADD PUSH1 0x0 KECCAK256 DUP2 SWAP1 SSTORE POP DUP1 DUP1 PUSH2 0x483 SWAP1 PUSH2 0x18EC JUMP JUMPDEST SWAP2 POP POP PUSH2 0x1EF JUMP JUMPDEST POP DUP1 PUSH20 0xFFFFFFFFFFFFFFFFFFFFFFFFFFFFFFFFFFFFFFFF AND DUP8 DUP8 PUSH1 0x40 MLOAD PUSH2 0x4B3 SWAP3 SWAP2 SWAP1 PUSH2 0x19F1 JUMP JUMPDEST PUSH1 0x40 MLOAD DUP1 SWAP2 SUB SWAP1 KECCAK256 PUSH32 0x246131AF8B217EE0901B4B5A97B3DC7EBF85C4565198D26948C19055597FC002 DUP8 DUP8 DUP8 DUP8 PUSH1 0x40 MLOAD PUSH2 0x4F0 SWAP5 SWAP4 SWAP3 SWAP2 SWAP1 PUSH2 0x1AD2 JUMP JUMPDEST PUSH1 0x40 MLOAD DUP1 SWAP2 SUB SWAP1 LOG3 POP POP POP POP POP POP POP JUMP JUMPDEST PUSH1 0x0 PUSH20 0xFFFFFFFFFFFFFFFFFFFFFFFFFFFFFFFFFFFFFFFF AND DUP5 PUSH20 0xFFFFFFFFFFFFFFFFFFFFFFFFFFFFFFFFFFFFFFFF AND SUB PUSH2 0x570 JUMPI PUSH1 0x40 MLOAD PUSH32 0x8C379A000000000000000000000000000000000000000000000000000000000 DUP2 MSTORE PUSH1 0x4 ADD PUSH2 0x567 SWAP1 PUSH2 0x16F6 JUMP JUMPDEST PUSH1 0x40 MLOAD DUP1 SWAP2 SUB SWAP1 REVERT JUMPDEST PUSH1 0x0 DUP4 GT PUSH2 0x5B3 JUMPI PUSH1 0x40 MLOAD PUSH32 0x8C379A000000000000000000000000000000000000000000000000000000000 DUP2 MSTORE PUSH1 0x4 ADD PUSH2 0x5AA SWAP1 PUSH2 0x17FD JUMP JUMPDEST PUSH1 0x40 MLOAD DUP1 SWAP2 SUB SWAP1 REVERT JUMPDEST PUSH1 0x1 PUSH1 0x0 DUP6 PUSH20 0xFFFFFFFFFFFFFFFFFFFFFFFFFFFFFFFFFFFFFFFF AND PUSH20 0xFFFFFFFFFFFFFFFFFFFFFFFFFFFFFFFFFFFFFFFF AND DUP2 MSTORE PUSH1 0x20 ADD SWAP1 DUP2 MSTORE PUSH1 0x20 ADD PUSH1 0x0 KECCAK256 SLOAD DUP4 PUSH1 0x1 PUSH1 0x0 DUP8 PUSH20 0xFFFFFFFFFFFFFFFFFFFFFFFFFFFFFFFFFFFFFFFF AND PUSH20 0xFFFFFFFFFFFFFFFFFFFFFFFFFFFFFFFFFFFFFFFF AND DUP2 MSTORE PUSH1 0x20 ADD SWAP1 DUP2 MSTORE PUSH1 0x20 ADD PUSH1 0x0 KECCAK256 SLOAD PUSH2 0x63E SWAP2 SWAP1 PUSH2 0x1B0D JUMP JUMPDEST GT PUSH2 0x67E JUMPI PUSH1 0x40 MLOAD PUSH32 0x8C379A000000000000000000000000000000000000000000000000000000000 DUP2 MSTORE PUSH1 0x4 ADD PUSH2 0x675 SWAP1 PUSH2 0x1B8D JUMP JUMPDEST PUSH1 0x40 MLOAD DUP1 SWAP2 SUB SWAP1 REVERT JUMPDEST PUSH2 0x6AB CALLER ADDRESS DUP6 DUP8 PUSH20 0xFFFFFFFFFFFFFFFFFFFFFFFFFFFFFFFFFFFFFFFF AND PUSH2 0xE19 SWAP1 SWAP4 SWAP3 SWAP2 SWAP1 PUSH4 0xFFFFFFFF AND JUMP JUMPDEST DUP3 PUSH1 0x1 PUSH1 0x0 DUP7 PUSH20 0xFFFFFFFFFFFFFFFFFFFFFFFFFFFFFFFFFFFFFFFF AND PUSH20 0xFFFFFFFFFFFFFFFFFFFFFFFFFFFFFFFFFFFFFFFF AND DUP2 MSTORE PUSH1 0x20 ADD SWAP1 DUP2 MSTORE PUSH1 0x20 ADD PUSH1 0x0 KECCAK256 SLOAD PUSH2 0x6F6 SWAP2 SWAP1 PUSH2 0x1B0D JUMP JUMPDEST PUSH1 0x1 PUSH1 0x0 DUP7 PUSH20 0xFFFFFFFFFFFFFFFFFFFFFFFFFFFFFFFFFFFFFFFF AND PUSH20 0xFFFFFFFFFFFFFFFFFFFFFFFFFFFFFFFFFFFFFFFF AND DUP2 MSTORE PUSH1 0x20 ADD SWAP1 DUP2 MSTORE PUSH1 0x20 ADD PUSH1 0x0 KECCAK256 DUP2 SWAP1 SSTORE POP CALLER PUSH20 0xFFFFFFFFFFFFFFFFFFFFFFFFFFFFFFFFFFFFFFFF AND DUP5 PUSH20 0xFFFFFFFFFFFFFFFFFFFFFFFFFFFFFFFFFFFFFFFF AND PUSH32 0x5D2AE1CDCA5222EC8FFFBC4B088F5B5144AD5F4EAF2FC8AFC49CD35857671082 DUP6 DUP6 DUP6 PUSH1 0x40 MLOAD PUSH2 0x79A SWAP4 SWAP3 SWAP2 SWAP1 PUSH2 0x1BAD JUMP JUMPDEST PUSH1 0x40 MLOAD DUP1 SWAP2 SUB SWAP1 LOG3 POP POP POP POP JUMP JUMPDEST PUSH2 0x7B0 PUSH2 0xD15 JUMP JUMPDEST PUSH1 0x0 DUP9 DUP9 SWAP1 POP GT PUSH2 0x7F6 JUMPI PUSH1 0x40 MLOAD PUSH32 0x8C379A000000000000000000000000000000000000000000000000000000000 DUP2 MSTORE PUSH1 0x4 ADD PUSH2 0x7ED SWAP1 PUSH2 0x16F6 JUMP JUMPDEST PUSH1 0x40 MLOAD DUP1 SWAP2 SUB SWAP1 REVERT JUMPDEST DUP6 DUP6 SWAP1 POP DUP9 DUP9 SWAP1 POP EQ PUSH2 0x83E JUMPI PUSH1 0x40 MLOAD PUSH32 0x8C379A000000000000000000000000000000000000000000000000000000000 DUP2 MSTORE PUSH1 0x4 ADD PUSH2 0x835 SWAP1 PUSH2 0x17FD JUMP JUMPDEST PUSH1 0x40 MLOAD DUP1 SWAP2 SUB SWAP1 REVERT JUMPDEST DUP4 DUP4 SWAP1 POP DUP9 DUP9 SWAP1 POP EQ PUSH2 0x886 JUMPI PUSH1 0x40 MLOAD PUSH32 0x8C379A000000000000000000000000000000000000000000000000000000000 DUP2 MSTORE PUSH1 0x4 ADD PUSH2 0x87D SWAP1 PUSH2 0x1C2B JUMP JUMPDEST PUSH1 0x40 MLOAD DUP1 SWAP2 SUB SWAP1 REVERT JUMPDEST DUP2 DUP2 SWAP1 POP DUP9 DUP9 SWAP1 POP EQ PUSH2 0x8CE JUMPI PUSH1 0x40 MLOAD PUSH32 0x8C379A000000000000000000000000000000000000000000000000000000000 DUP2 MSTORE PUSH1 0x4 ADD PUSH2 0x8C5 SWAP1 PUSH2 0x1C97 JUMP JUMPDEST PUSH1 0x40 MLOAD DUP1 SWAP2 SUB SWAP1 REVERT JUMPDEST PUSH1 0x0 JUMPDEST DUP9 DUP9 SWAP1 POP DUP2 LT ISZERO PUSH2 0xB94 JUMPI PUSH1 0x0 DUP8 DUP8 DUP4 DUP2 DUP2 LT PUSH2 0x8F1 JUMPI PUSH2 0x8F0 PUSH2 0x1782 JUMP JUMPDEST JUMPDEST SWAP1 POP PUSH1 0x20 MUL ADD CALLDATALOAD GT PUSH2 0x938 JUMPI PUSH1 0x40 MLOAD PUSH32 0x8C379A000000000000000000000000000000000000000000000000000000000 DUP2 MSTORE PUSH1 0x4 ADD PUSH2 0x92F SWAP1 PUSH2 0x17FD JUMP JUMPDEST PUSH1 0x40 MLOAD DUP1 SWAP2 SUB SWAP1 REVERT JUMPDEST PUSH1 0x1 PUSH1 0x0 DUP11 DUP11 DUP5 DUP2 DUP2 LT PUSH2 0x94F JUMPI PUSH2 0x94E PUSH2 0x1782 JUMP JUMPDEST JUMPDEST SWAP1 POP PUSH1 0x20 MUL ADD PUSH1 0x20 DUP2 ADD SWAP1 PUSH2 0x964 SWAP2 SWAP1 PUSH2 0x1618 JUMP JUMPDEST PUSH20 0xFFFFFFFFFFFFFFFFFFFFFFFFFFFFFFFFFFFFFFFF AND PUSH20 0xFFFFFFFFFFFFFFFFFFFFFFFFFFFFFFFFFFFFFFFF AND DUP2 MSTORE PUSH1 0x20 ADD SWAP1 DUP2 MSTORE PUSH1 0x20 ADD PUSH1 0x0 KECCAK256 SLOAD DUP8 DUP8 DUP4 DUP2 DUP2 LT PUSH2 0x9B2 JUMPI PUSH2 0x9B1 PUSH2 0x1782 JUMP JUMPDEST JUMPDEST SWAP1 POP PUSH1 0x20 MUL ADD CALLDATALOAD GT ISZERO PUSH2 0x9FA JUMPI PUSH1 0x40 MLOAD PUSH32 0x8C379A000000000000000000000000000000000000000000000000000000000 DUP2 MSTORE PUSH1 0x4 ADD PUSH2 0x9F1 SWAP1 PUSH2 0x1869 JUMP JUMPDEST PUSH1 0x40 MLOAD DUP1 SWAP2 SUB SWAP1 REVERT JUMPDEST PUSH2 0xA8C DUP6 DUP6 DUP4 DUP2 DUP2 LT PUSH2 0xA10 JUMPI PUSH2 0xA0F PUSH2 0x1782 JUMP JUMPDEST JUMPDEST SWAP1 POP PUSH1 0x20 MUL ADD PUSH1 0x20 DUP2 ADD SWAP1 PUSH2 0xA25 SWAP2 SWAP1 PUSH2 0x1618 JUMP JUMPDEST DUP9 DUP9 DUP5 DUP2 DUP2 LT PUSH2 0xA38 JUMPI PUSH2 0xA37 PUSH2 0x1782 JUMP JUMPDEST JUMPDEST SWAP1 POP PUSH1 0x20 MUL ADD CALLDATALOAD DUP12 DUP12 DUP6 DUP2 DUP2 LT PUSH2 0xA52 JUMPI PUSH2 0xA51 PUSH2 0x1782 JUMP JUMPDEST JUMPDEST SWAP1 POP PUSH1 0x20 MUL ADD PUSH1 0x20 DUP2 ADD SWAP1 PUSH2 0xA67 SWAP2 SWAP1 PUSH2 0x1618 JUMP JUMPDEST PUSH20 0xFFFFFFFFFFFFFFFFFFFFFFFFFFFFFFFFFFFFFFFF AND PUSH2 0xD93 SWAP1 SWAP3 SWAP2 SWAP1 PUSH4 0xFFFFFFFF AND JUMP JUMPDEST DUP7 DUP7 DUP3 DUP2 DUP2 LT PUSH2 0xA9F JUMPI PUSH2 0xA9E PUSH2 0x1782 JUMP JUMPDEST JUMPDEST SWAP1 POP PUSH1 0x20 MUL ADD CALLDATALOAD PUSH1 0x1 PUSH1 0x0 DUP12 DUP12 DUP6 DUP2 DUP2 LT PUSH2 0xABD JUMPI PUSH2 0xABC PUSH2 0x1782 JUMP JUMPDEST JUMPDEST SWAP1 POP PUSH1 0x20 MUL ADD PUSH1 0x20 DUP2 ADD SWAP1 PUSH2 0xAD2 SWAP2 SWAP1 PUSH2 0x1618 JUMP JUMPDEST PUSH20 0xFFFFFFFFFFFFFFFFFFFFFFFFFFFFFFFFFFFFFFFF AND PUSH20 0xFFFFFFFFFFFFFFFFFFFFFFFFFFFFFFFFFFFFFFFF AND DUP2 MSTORE PUSH1 0x20 ADD SWAP1 DUP2 MSTORE PUSH1 0x20 ADD PUSH1 0x0 KECCAK256 SLOAD PUSH2 0xB17 SWAP2 SWAP1 PUSH2 0x18B8 JUMP JUMPDEST PUSH1 0x1 PUSH1 0x0 DUP12 DUP12 DUP6 DUP2 DUP2 LT PUSH2 0xB2E JUMPI PUSH2 0xB2D PUSH2 0x1782 JUMP JUMPDEST JUMPDEST SWAP1 POP PUSH1 0x20 MUL ADD PUSH1 0x20 DUP2 ADD SWAP1 PUSH2 0xB43 SWAP2 SWAP1 PUSH2 0x1618 JUMP JUMPDEST PUSH20 0xFFFFFFFFFFFFFFFFFFFFFFFFFFFFFFFFFFFFFFFF AND PUSH20 0xFFFFFFFFFFFFFFFFFFFFFFFFFFFFFFFFFFFFFFFF AND DUP2 MSTORE PUSH1 0x20 ADD SWAP1 DUP2 MSTORE PUSH1 0x20 ADD PUSH1 0x0 KECCAK256 DUP2 SWAP1 SSTORE POP DUP1 DUP1 PUSH2 0xB8C SWAP1 PUSH2 0x18EC JUMP JUMPDEST SWAP2 POP POP PUSH2 0x8D1 JUMP JUMPDEST POP DUP4 DUP4 PUSH1 0x40 MLOAD PUSH2 0xBA5 SWAP3 SWAP2 SWAP1 PUSH2 0x19F1 JUMP JUMPDEST PUSH1 0x40 MLOAD DUP1 SWAP2 SUB SWAP1 KECCAK256 DUP9 DUP9 PUSH1 0x40 MLOAD PUSH2 0xBBD SWAP3 SWAP2 SWAP1 PUSH2 0x19F1 JUMP JUMPDEST PUSH1 0x40 MLOAD DUP1 SWAP2 SUB SWAP1 KECCAK256 PUSH32 0xA00A8AECFC1929AFAF83D428E7B217B6626396C9DD39AD9F5D7327A0BB5E4D13 DUP9 DUP9 DUP7 DUP7 PUSH1 0x40 MLOAD PUSH2 0xBFA SWAP5 SWAP4 SWAP3 SWAP2 SWAP1 PUSH2 0x1E1B JUMP JUMPDEST PUSH1 0x40 MLOAD DUP1 SWAP2 SUB SWAP1 LOG3 POP POP POP POP POP POP POP POP JUMP JUMPDEST PUSH1 0x0 PUSH1 0x1 PUSH1 0x0 DUP4 PUSH20 0xFFFFFFFFFFFFFFFFFFFFFFFFFFFFFFFFFFFFFFFF AND PUSH20 0xFFFFFFFFFFFFFFFFFFFFFFFFFFFFFFFFFFFFFFFF AND DUP2 MSTORE PUSH1 0x20 ADD SWAP1 DUP2 MSTORE PUSH1 0x20 ADD PUSH1 0x0 KECCAK256 SLOAD SWAP1 POP SWAP2 SWAP1 POP JUMP JUMPDEST PUSH2 0xC5D PUSH2 0xD15 JUMP JUMPDEST PUSH2 0xC67 PUSH1 0x0 PUSH2 0xEA2 JUMP JUMPDEST JUMP JUMPDEST PUSH1 0x0 DUP1 PUSH1 0x0 SWAP1 SLOAD SWAP1 PUSH2 0x100 EXP SWAP1 DIV PUSH20 0xFFFFFFFFFFFFFFFFFFFFFFFFFFFFFFFFFFFFFFFF AND SWAP1 POP SWAP1 JUMP JUMPDEST PUSH2 0xC9A PUSH2 0xD15 JUMP JUMPDEST PUSH1 0x0 PUSH20 0xFFFFFFFFFFFFFFFFFFFFFFFFFFFFFFFFFFFFFFFF AND DUP2 PUSH20 0xFFFFFFFFFFFFFFFFFFFFFFFFFFFFFFFFFFFFFFFF AND SUB PUSH2 0xD09 JUMPI PUSH1 0x40 MLOAD PUSH32 0x8C379A000000000000000000000000000000000000000000000000000000000 DUP2 MSTORE PUSH1 0x4 ADD PUSH2 0xD00 SWAP1 PUSH2 0x1EC8 JUMP JUMPDEST PUSH1 0x40 MLOAD DUP1 SWAP2 SUB SWAP1 REVERT JUMPDEST PUSH2 0xD12 DUP2 PUSH2 0xEA2 JUMP JUMPDEST POP JUMP JUMPDEST PUSH2 0xD1D PUSH2 0xF66 JUMP JUMPDEST PUSH20 0xFFFFFFFFFFFFFFFFFFFFFFFFFFFFFFFFFFFFFFFF AND PUSH2 0xD3B PUSH2 0xC69 JUMP JUMPDEST PUSH20 0xFFFFFFFFFFFFFFFFFFFFFFFFFFFFFFFFFFFFFFFF AND EQ PUSH2 0xD91 JUMPI PUSH1 0x40 MLOAD PUSH32 0x8C379A000000000000000000000000000000000000000000000000000000000 DUP2 MSTORE PUSH1 0x4 ADD PUSH2 0xD88 SWAP1 PUSH2 0x1F34 JUMP JUMPDEST PUSH1 0x40 MLOAD DUP1 SWAP2 SUB SWAP1 REVERT JUMPDEST JUMP JUMPDEST PUSH2 0xE14 DUP4 PUSH4 0xA9059CBB PUSH1 0xE0 SHL DUP5 DUP5 PUSH1 0x40 MLOAD PUSH1 0x24 ADD PUSH2 0xDB2 SWAP3 SWAP2 SWAP1 PUSH2 0x1F54 JUMP JUMPDEST PUSH1 0x40 MLOAD PUSH1 0x20 DUP2 DUP4 SUB SUB DUP2 MSTORE SWAP1 PUSH1 0x40 MSTORE SWAP1 PUSH28 0xFFFFFFFFFFFFFFFFFFFFFFFFFFFFFFFFFFFFFFFFFFFFFFFFFFFFFFFF NOT AND PUSH1 0x20 DUP3 ADD DUP1 MLOAD PUSH28 0xFFFFFFFFFFFFFFFFFFFFFFFFFFFFFFFFFFFFFFFFFFFFFFFFFFFFFFFF DUP4 DUP2 DUP4 AND OR DUP4 MSTORE POP POP POP POP PUSH2 0xF6E JUMP JUMPDEST POP POP POP JUMP JUMPDEST PUSH2 0xE9C DUP5 PUSH4 0x23B872DD PUSH1 0xE0 SHL DUP6 DUP6 DUP6 PUSH1 0x40 MLOAD PUSH1 0x24 ADD PUSH2 0xE3A SWAP4 SWAP3 SWAP2 SWAP1 PUSH2 0x1F7D JUMP JUMPDEST PUSH1 0x40 MLOAD PUSH1 0x20 DUP2 DUP4 SUB SUB DUP2 MSTORE SWAP1 PUSH1 0x40 MSTORE SWAP1 PUSH28 0xFFFFFFFFFFFFFFFFFFFFFFFFFFFFFFFFFFFFFFFFFFFFFFFFFFFFFFFF NOT AND PUSH1 0x20 DUP3 ADD DUP1 MLOAD PUSH28 0xFFFFFFFFFFFFFFFFFFFFFFFFFFFFFFFFFFFFFFFFFFFFFFFFFFFFFFFF DUP4 DUP2 DUP4 AND OR DUP4 MSTORE POP POP POP POP PUSH2 0xF6E JUMP JUMPDEST POP POP POP POP JUMP JUMPDEST PUSH1 0x0 DUP1 PUSH1 0x0 SWAP1 SLOAD SWAP1 PUSH2 0x100 EXP SWAP1 DIV PUSH20 0xFFFFFFFFFFFFFFFFFFFFFFFFFFFFFFFFFFFFFFFF AND SWAP1 POP DUP2 PUSH1 0x0 DUP1 PUSH2 0x100 EXP DUP2 SLOAD DUP2 PUSH20 0xFFFFFFFFFFFFFFFFFFFFFFFFFFFFFFFFFFFFFFFF MUL NOT AND SWAP1 DUP4 PUSH20 0xFFFFFFFFFFFFFFFFFFFFFFFFFFFFFFFFFFFFFFFF AND MUL OR SWAP1 SSTORE POP DUP2 PUSH20 0xFFFFFFFFFFFFFFFFFFFFFFFFFFFFFFFFFFFFFFFF AND DUP2 PUSH20 0xFFFFFFFFFFFFFFFFFFFFFFFFFFFFFFFFFFFFFFFF AND PUSH32 0x8BE0079C531659141344CD1FD0A4F28419497F9722A3DAAFE3B4186F6B6457E0 PUSH1 0x40 MLOAD PUSH1 0x40 MLOAD DUP1 SWAP2 SUB SWAP1 LOG3 POP POP JUMP JUMPDEST PUSH1 0x0 CALLER SWAP1 POP SWAP1 JUMP JUMPDEST PUSH1 0x0 PUSH2 0xFD0 DUP3 PUSH1 0x40 MLOAD DUP1 PUSH1 0x40 ADD PUSH1 0x40 MSTORE DUP1 PUSH1 0x20 DUP2 MSTORE PUSH1 0x20 ADD PUSH32 0x5361666545524332303A206C6F772D6C6576656C2063616C6C206661696C6564 DUP2 MSTORE POP DUP6 PUSH20 0xFFFFFFFFFFFFFFFFFFFFFFFFFFFFFFFFFFFFFFFF AND PUSH2 0x1035 SWAP1 SWAP3 SWAP2 SWAP1 PUSH4 0xFFFFFFFF AND JUMP JUMPDEST SWAP1 POP PUSH1 0x0 DUP2 MLOAD GT ISZERO PUSH2 0x1030 JUMPI DUP1 DUP1 PUSH1 0x20 ADD SWAP1 MLOAD DUP2 ADD SWAP1 PUSH2 0xFF0 SWAP2 SWAP1 PUSH2 0x1FEC JUMP JUMPDEST PUSH2 0x102F JUMPI PUSH1 0x40 MLOAD PUSH32 0x8C379A000000000000000000000000000000000000000000000000000000000 DUP2 MSTORE PUSH1 0x4 ADD PUSH2 0x1026 SWAP1 PUSH2 0x208B JUMP JUMPDEST PUSH1 0x40 MLOAD DUP1 SWAP2 SUB SWAP1 REVERT JUMPDEST JUMPDEST POP POP POP JUMP JUMPDEST PUSH1 0x60 PUSH2 0x1044 DUP5 DUP5 PUSH1 0x0 DUP6 PUSH2 0x104D JUMP JUMPDEST SWAP1 POP SWAP4 SWAP3 POP POP POP JUMP JUMPDEST PUSH1 0x60 DUP3 SELFBALANCE LT ISZERO PUSH2 0x1092 JUMPI PUSH1 0x40 MLOAD PUSH32 0x8C379A000000000000000000000000000000000000000000000000000000000 DUP2 MSTORE PUSH1 0x4 ADD PUSH2 0x1089 SWAP1 PUSH2 0x211D JUMP JUMPDEST PUSH1 0x40 MLOAD DUP1 SWAP2 SUB SWAP1 REVERT JUMPDEST PUSH1 0x0 DUP1 DUP7 PUSH20 0xFFFFFFFFFFFFFFFFFFFFFFFFFFFFFFFFFFFFFFFF AND DUP6 DUP8 PUSH1 0x40 MLOAD PUSH2 0x10BB SWAP2 SWAP1 PUSH2 0x21AE JUMP JUMPDEST PUSH1 0x0 PUSH1 0x40 MLOAD DUP1 DUP4 SUB DUP2 DUP6 DUP8 GAS CALL SWAP3 POP POP POP RETURNDATASIZE DUP1 PUSH1 0x0 DUP2 EQ PUSH2 0x10F8 JUMPI PUSH1 0x40 MLOAD SWAP2 POP PUSH1 0x1F NOT PUSH1 0x3F RETURNDATASIZE ADD AND DUP3 ADD PUSH1 0x40 MSTORE RETURNDATASIZE DUP3 MSTORE RETURNDATASIZE PUSH1 0x0 PUSH1 0x20 DUP5 ADD RETURNDATACOPY PUSH2 0x10FD JUMP JUMPDEST PUSH1 0x60 SWAP2 POP JUMPDEST POP SWAP2 POP SWAP2 POP PUSH2 0x110E DUP8 DUP4 DUP4 DUP8 PUSH2 0x111A JUMP JUMPDEST SWAP3 POP POP POP SWAP5 SWAP4 POP POP POP POP JUMP JUMPDEST PUSH1 0x60 DUP4 ISZERO PUSH2 0x117C JUMPI PUSH1 0x0 DUP4 MLOAD SUB PUSH2 0x1174 JUMPI PUSH2 0x1134 DUP6 PUSH2 0x118F JUMP JUMPDEST PUSH2 0x1173 JUMPI PUSH1 0x40 MLOAD PUSH32 0x8C379A000000000000000000000000000000000000000000000000000000000 DUP2 MSTORE PUSH1 0x4 ADD PUSH2 0x116A SWAP1 PUSH2 0x2211 JUMP JUMPDEST PUSH1 0x40 MLOAD DUP1 SWAP2 SUB SWAP1 REVERT JUMPDEST JUMPDEST DUP3 SWAP1 POP PUSH2 0x1187 JUMP JUMPDEST PUSH2 0x1186 DUP4 DUP4 PUSH2 0x11B2 JUMP JUMPDEST JUMPDEST SWAP5 SWAP4 POP POP POP POP JUMP JUMPDEST PUSH1 0x0 DUP1 DUP3 PUSH20 0xFFFFFFFFFFFFFFFFFFFFFFFFFFFFFFFFFFFFFFFF AND EXTCODESIZE GT SWAP1 POP SWAP2 SWAP1 POP JUMP JUMPDEST PUSH1 0x0 DUP3 MLOAD GT ISZERO PUSH2 0x11C5 JUMPI DUP2 MLOAD DUP1 DUP4 PUSH1 0x20 ADD REVERT JUMPDEST DUP1 PUSH1 0x40 MLOAD PUSH32 0x8C379A000000000000000000000000000000000000000000000000000000000 DUP2 MSTORE PUSH1 0x4 ADD PUSH2 0x11F9 SWAP2 SWAP1 PUSH2 0x2275 JUMP JUMPDEST PUSH1 0x40 MLOAD DUP1 SWAP2 SUB SWAP1 REVERT JUMPDEST PUSH1 0x0 DUP1 REVERT JUMPDEST PUSH1 0x0 DUP1 REVERT JUMPDEST PUSH1 0x0 DUP1 REVERT JUMPDEST PUSH1 0x0 DUP1 REVERT JUMPDEST PUSH1 0x0 DUP1 REVERT JUMPDEST PUSH1 0x0 DUP1 DUP4 PUSH1 0x1F DUP5 ADD SLT PUSH2 0x1231 JUMPI PUSH2 0x1230 PUSH2 0x120C JUMP JUMPDEST JUMPDEST DUP3 CALLDATALOAD SWAP1 POP PUSH8 0xFFFFFFFFFFFFFFFF DUP2 GT ISZERO PUSH2 0x124E JUMPI PUSH2 0x124D PUSH2 0x1211 JUMP JUMPDEST JUMPDEST PUSH1 0x20 DUP4 ADD SWAP2 POP DUP4 PUSH1 0x20 DUP3 MUL DUP4 ADD GT ISZERO PUSH2 0x126A JUMPI PUSH2 0x1269 PUSH2 0x1216 JUMP JUMPDEST JUMPDEST SWAP3 POP SWAP3 SWAP1 POP JUMP JUMPDEST PUSH1 0x0 DUP1 DUP4 PUSH1 0x1F DUP5 ADD SLT PUSH2 0x1287 JUMPI PUSH2 0x1286 PUSH2 0x120C JUMP JUMPDEST JUMPDEST DUP3 CALLDATALOAD SWAP1 POP PUSH8 0xFFFFFFFFFFFFFFFF DUP2 GT ISZERO PUSH2 0x12A4 JUMPI PUSH2 0x12A3 PUSH2 0x1211 JUMP JUMPDEST JUMPDEST PUSH1 0x20 DUP4 ADD SWAP2 POP DUP4 PUSH1 0x20 DUP3 MUL DUP4 ADD GT ISZERO PUSH2 0x12C0 JUMPI PUSH2 0x12BF PUSH2 0x1216 JUMP JUMPDEST JUMPDEST SWAP3 POP SWAP3 SWAP1 POP JUMP JUMPDEST PUSH1 0x0 DUP1 DUP4 PUSH1 0x1F DUP5 ADD SLT PUSH2 0x12DD JUMPI PUSH2 0x12DC PUSH2 0x120C JUMP JUMPDEST JUMPDEST DUP3 CALLDATALOAD SWAP1 POP PUSH8 0xFFFFFFFFFFFFFFFF DUP2 GT ISZERO PUSH2 0x12FA JUMPI PUSH2 0x12F9 PUSH2 0x1211 JUMP JUMPDEST JUMPDEST PUSH1 0x20 DUP4 ADD SWAP2 POP DUP4 PUSH1 0x1 DUP3 MUL DUP4 ADD GT ISZERO PUSH2 0x1316 JUMPI PUSH2 0x1315 PUSH2 0x1216 JUMP JUMPDEST JUMPDEST SWAP3 POP SWAP3 SWAP1 POP JUMP JUMPDEST PUSH1 0x0 DUP1 PUSH1 0x0 DUP1 PUSH1 0x0 DUP1 PUSH1 0x60 DUP8 DUP10 SUB SLT ISZERO PUSH2 0x133A JUMPI PUSH2 0x1339 PUSH2 0x1202 JUMP JUMPDEST JUMPDEST PUSH1 0x0 DUP8 ADD CALLDATALOAD PUSH8 0xFFFFFFFFFFFFFFFF DUP2 GT ISZERO PUSH2 0x1358 JUMPI PUSH2 0x1357 PUSH2 0x1207 JUMP JUMPDEST JUMPDEST PUSH2 0x1364 DUP10 DUP3 DUP11 ADD PUSH2 0x121B JUMP JUMPDEST SWAP7 POP SWAP7 POP POP PUSH1 0x20 DUP8 ADD CALLDATALOAD PUSH8 0xFFFFFFFFFFFFFFFF DUP2 GT ISZERO PUSH2 0x1387 JUMPI PUSH2 0x1386 PUSH2 0x1207 JUMP JUMPDEST JUMPDEST PUSH2 0x1393 DUP10 DUP3 DUP11 ADD PUSH2 0x1271 JUMP JUMPDEST SWAP5 POP SWAP5 POP POP PUSH1 0x40 DUP8 ADD CALLDATALOAD PUSH8 0xFFFFFFFFFFFFFFFF DUP2 GT ISZERO PUSH2 0x13B6 JUMPI PUSH2 0x13B5 PUSH2 0x1207 JUMP JUMPDEST JUMPDEST PUSH2 0x13C2 DUP10 DUP3 DUP11 ADD PUSH2 0x12C7 JUMP JUMPDEST SWAP3 POP SWAP3 POP POP SWAP3 SWAP6 POP SWAP3 SWAP6 POP SWAP3 SWAP6 JUMP JUMPDEST PUSH1 0x0 PUSH20 0xFFFFFFFFFFFFFFFFFFFFFFFFFFFFFFFFFFFFFFFF DUP3 AND SWAP1 POP SWAP2 SWAP1 POP JUMP JUMPDEST PUSH1 0x0 PUSH2 0x13FC DUP3 PUSH2 0x13D1 JUMP JUMPDEST SWAP1 POP SWAP2 SWAP1 POP JUMP JUMPDEST PUSH2 0x140C DUP2 PUSH2 0x13F1 JUMP JUMPDEST DUP2 EQ PUSH2 0x1417 JUMPI PUSH1 0x0 DUP1 REVERT JUMPDEST POP JUMP JUMPDEST PUSH1 0x0 DUP2 CALLDATALOAD SWAP1 POP PUSH2 0x1429 DUP2 PUSH2 0x1403 JUMP JUMPDEST SWAP3 SWAP2 POP POP JUMP JUMPDEST PUSH1 0x0 DUP2 SWAP1 POP SWAP2 SWAP1 POP JUMP JUMPDEST PUSH2 0x1442 DUP2 PUSH2 0x142F JUMP JUMPDEST DUP2 EQ PUSH2 0x144D JUMPI PUSH1 0x0 DUP1 REVERT JUMPDEST POP JUMP JUMPDEST PUSH1 0x0 DUP2 CALLDATALOAD SWAP1 POP PUSH2 0x145F DUP2 PUSH2 0x1439 JUMP JUMPDEST SWAP3 SWAP2 POP POP JUMP JUMPDEST PUSH1 0x0 DUP1 PUSH1 0x0 DUP1 PUSH1 0x60 DUP6 DUP8 SUB SLT ISZERO PUSH2 0x147F JUMPI PUSH2 0x147E PUSH2 0x1202 JUMP JUMPDEST JUMPDEST PUSH1 0x0 PUSH2 0x148D DUP8 DUP3 DUP9 ADD PUSH2 0x141A JUMP JUMPDEST SWAP5 POP POP PUSH1 0x20 PUSH2 0x149E DUP8 DUP3 DUP9 ADD PUSH2 0x1450 JUMP JUMPDEST SWAP4 POP POP PUSH1 0x40 DUP6 ADD CALLDATALOAD PUSH8 0xFFFFFFFFFFFFFFFF DUP2 GT ISZERO PUSH2 0x14BF JUMPI PUSH2 0x14BE PUSH2 0x1207 JUMP JUMPDEST JUMPDEST PUSH2 0x14CB DUP8 DUP3 DUP9 ADD PUSH2 0x12C7 JUMP JUMPDEST SWAP3 POP SWAP3 POP POP SWAP3 SWAP6 SWAP2 SWAP5 POP SWAP3 POP JUMP JUMPDEST PUSH1 0x0 DUP1 DUP4 PUSH1 0x1F DUP5 ADD SLT PUSH2 0x14EF JUMPI PUSH2 0x14EE PUSH2 0x120C JUMP JUMPDEST JUMPDEST DUP3 CALLDATALOAD SWAP1 POP PUSH8 0xFFFFFFFFFFFFFFFF DUP2 GT ISZERO PUSH2 0x150C JUMPI PUSH2 0x150B PUSH2 0x1211 JUMP JUMPDEST JUMPDEST PUSH1 0x20 DUP4 ADD SWAP2 POP DUP4 PUSH1 0x20 DUP3 MUL DUP4 ADD GT ISZERO PUSH2 0x1528 JUMPI PUSH2 0x1527 PUSH2 0x1216 JUMP JUMPDEST JUMPDEST SWAP3 POP SWAP3 SWAP1 POP JUMP JUMPDEST PUSH1 0x0 DUP1 PUSH1 0x0 DUP1 PUSH1 0x0 DUP1 PUSH1 0x0 DUP1 PUSH1 0x80 DUP10 DUP12 SUB SLT ISZERO PUSH2 0x154F JUMPI PUSH2 0x154E PUSH2 0x1202 JUMP JUMPDEST JUMPDEST PUSH1 0x0 DUP10 ADD CALLDATALOAD PUSH8 0xFFFFFFFFFFFFFFFF DUP2 GT ISZERO PUSH2 0x156D JUMPI PUSH2 0x156C PUSH2 0x1207 JUMP JUMPDEST JUMPDEST PUSH2 0x1579 DUP12 DUP3 DUP13 ADD PUSH2 0x121B JUMP JUMPDEST SWAP9 POP SWAP9 POP POP PUSH1 0x20 DUP10 ADD CALLDATALOAD PUSH8 0xFFFFFFFFFFFFFFFF DUP2 GT ISZERO PUSH2 0x159C JUMPI PUSH2 0x159B PUSH2 0x1207 JUMP JUMPDEST JUMPDEST PUSH2 0x15A8 DUP12 DUP3 DUP13 ADD PUSH2 0x1271 JUMP JUMPDEST SWAP7 POP SWAP7 POP POP PUSH1 0x40 DUP10 ADD CALLDATALOAD PUSH8 0xFFFFFFFFFFFFFFFF DUP2 GT ISZERO PUSH2 0x15CB JUMPI PUSH2 0x15CA PUSH2 0x1207 JUMP JUMPDEST JUMPDEST PUSH2 0x15D7 DUP12 DUP3 DUP13 ADD PUSH2 0x121B JUMP JUMPDEST SWAP5 POP SWAP5 POP POP PUSH1 0x60 DUP10 ADD CALLDATALOAD PUSH8 0xFFFFFFFFFFFFFFFF DUP2 GT ISZERO PUSH2 0x15FA JUMPI PUSH2 0x15F9 PUSH2 0x1207 JUMP JUMPDEST JUMPDEST PUSH2 0x1606 DUP12 DUP3 DUP13 ADD PUSH2 0x14D9 JUMP JUMPDEST SWAP3 POP SWAP3 POP POP SWAP3 SWAP6 SWAP9 POP SWAP3 SWAP6 SWAP9 SWAP1 SWAP4 SWAP7 POP JUMP JUMPDEST PUSH1 0x0 PUSH1 0x20 DUP3 DUP5 SUB SLT ISZERO PUSH2 0x162E JUMPI PUSH2 0x162D PUSH2 0x1202 JUMP JUMPDEST JUMPDEST PUSH1 0x0 PUSH2 0x163C DUP5 DUP3 DUP6 ADD PUSH2 0x141A JUMP JUMPDEST SWAP2 POP POP SWAP3 SWAP2 POP POP JUMP JUMPDEST PUSH2 0x164E DUP2 PUSH2 0x142F JUMP JUMPDEST DUP3 MSTORE POP POP JUMP JUMPDEST PUSH1 0x0 PUSH1 0x20 DUP3 ADD SWAP1 POP PUSH2 0x1669 PUSH1 0x0 DUP4 ADD DUP5 PUSH2 0x1645 JUMP JUMPDEST SWAP3 SWAP2 POP POP JUMP JUMPDEST PUSH2 0x1678 DUP2 PUSH2 0x13F1 JUMP JUMPDEST DUP3 MSTORE POP POP JUMP JUMPDEST PUSH1 0x0 PUSH1 0x20 DUP3 ADD SWAP1 POP PUSH2 0x1693 PUSH1 0x0 DUP4 ADD DUP5 PUSH2 0x166F JUMP JUMPDEST SWAP3 SWAP2 POP POP JUMP JUMPDEST PUSH1 0x0 DUP3 DUP3 MSTORE PUSH1 0x20 DUP3 ADD SWAP1 POP SWAP3 SWAP2 POP POP JUMP JUMPDEST PUSH32 0x63757272656E6379206661696C00000000000000000000000000000000000000 PUSH1 0x0 DUP3 ADD MSTORE POP JUMP JUMPDEST PUSH1 0x0 PUSH2 0x16E0 PUSH1 0xD DUP4 PUSH2 0x1699 JUMP JUMPDEST SWAP2 POP PUSH2 0x16EB DUP3 PUSH2 0x16AA JUMP JUMPDEST PUSH1 0x20 DUP3 ADD SWAP1 POP SWAP2 SWAP1 POP JUMP JUMPDEST PUSH1 0x0 PUSH1 0x20 DUP3 ADD SWAP1 POP DUP2 DUP2 SUB PUSH1 0x0 DUP4 ADD MSTORE PUSH2 0x170F DUP2 PUSH2 0x16D3 JUMP JUMPDEST SWAP1 POP SWAP2 SWAP1 POP JUMP JUMPDEST PUSH32 0x63757272656E6379206F7220616D6F756E74206661696C000000000000000000 PUSH1 0x0 DUP3 ADD MSTORE POP JUMP JUMPDEST PUSH1 0x0 PUSH2 0x174C PUSH1 0x17 DUP4 PUSH2 0x1699 JUMP JUMPDEST SWAP2 POP PUSH2 0x1757 DUP3 PUSH2 0x1716 JUMP JUMPDEST PUSH1 0x20 DUP3 ADD SWAP1 POP SWAP2 SWAP1 POP JUMP JUMPDEST PUSH1 0x0 PUSH1 0x20 DUP3 ADD SWAP1 POP DUP2 DUP2 SUB PUSH1 0x0 DUP4 ADD MSTORE PUSH2 0x177B DUP2 PUSH2 0x173F JUMP JUMPDEST SWAP1 POP SWAP2 SWAP1 POP JUMP JUMPDEST PUSH32 0x4E487B7100000000000000000000000000000000000000000000000000000000 PUSH1 0x0 MSTORE PUSH1 0x32 PUSH1 0x4 MSTORE PUSH1 0x24 PUSH1 0x0 REVERT JUMPDEST PUSH32 0x616D6F756E74206661696C000000000000000000000000000000000000000000 PUSH1 0x0 DUP3 ADD MSTORE POP JUMP JUMPDEST PUSH1 0x0 PUSH2 0x17E7 PUSH1 0xB DUP4 PUSH2 0x1699 JUMP JUMPDEST SWAP2 POP PUSH2 0x17F2 DUP3 PUSH2 0x17B1 JUMP JUMPDEST PUSH1 0x20 DUP3 ADD SWAP1 POP SWAP2 SWAP1 POP JUMP JUMPDEST PUSH1 0x0 PUSH1 0x20 DUP3 ADD SWAP1 POP DUP2 DUP2 SUB PUSH1 0x0 DUP4 ADD MSTORE PUSH2 0x1816 DUP2 PUSH2 0x17DA JUMP JUMPDEST SWAP1 POP SWAP2 SWAP1 POP JUMP JUMPDEST PUSH32 0x496E73756666696369656E742062616C616E6365000000000000000000000000 PUSH1 0x0 DUP3 ADD MSTORE POP JUMP JUMPDEST PUSH1 0x0 PUSH2 0x1853 PUSH1 0x14 DUP4 PUSH2 0x1699 JUMP JUMPDEST SWAP2 POP PUSH2 0x185E DUP3 PUSH2 0x181D JUMP JUMPDEST PUSH1 0x20 DUP3 ADD SWAP1 POP SWAP2 SWAP1 POP JUMP JUMPDEST PUSH1 0x0 PUSH1 0x20 DUP3 ADD SWAP1 POP DUP2 DUP2 SUB PUSH1 0x0 DUP4 ADD MSTORE PUSH2 0x1882 DUP2 PUSH2 0x1846 JUMP JUMPDEST SWAP1 POP SWAP2 SWAP1 POP JUMP JUMPDEST PUSH32 0x4E487B7100000000000000000000000000000000000000000000000000000000 PUSH1 0x0 MSTORE PUSH1 0x11 PUSH1 0x4 MSTORE PUSH1 0x24 PUSH1 0x0 REVERT JUMPDEST PUSH1 0x0 PUSH2 0x18C3 DUP3 PUSH2 0x142F JUMP JUMPDEST SWAP2 POP PUSH2 0x18CE DUP4 PUSH2 0x142F JUMP JUMPDEST SWAP3 POP DUP3 DUP3 SUB SWAP1 POP DUP2 DUP2 GT ISZERO PUSH2 0x18E6 JUMPI PUSH2 0x18E5 PUSH2 0x1889 JUMP JUMPDEST JUMPDEST SWAP3 SWAP2 POP POP JUMP JUMPDEST PUSH1 0x0 PUSH2 0x18F7 DUP3 PUSH2 0x142F JUMP JUMPDEST SWAP2 POP PUSH32 0xFFFFFFFFFFFFFFFFFFFFFFFFFFFFFFFFFFFFFFFFFFFFFFFFFFFFFFFFFFFFFFFF DUP3 SUB PUSH2 0x1929 JUMPI PUSH2 0x1928 PUSH2 0x1889 JUMP JUMPDEST JUMPDEST PUSH1 0x1 DUP3 ADD SWAP1 POP SWAP2 SWAP1 POP JUMP JUMPDEST PUSH1 0x0 DUP2 SWAP1 POP SWAP3 SWAP2 POP POP JUMP JUMPDEST PUSH1 0x0 DUP2 SWAP1 POP SWAP2 SWAP1 POP JUMP JUMPDEST PUSH2 0x1952 DUP2 PUSH2 0x13F1 JUMP JUMPDEST DUP3 MSTORE POP POP JUMP JUMPDEST PUSH1 0x0 PUSH2 0x1964 DUP4 DUP4 PUSH2 0x1949 JUMP JUMPDEST PUSH1 0x20 DUP4 ADD SWAP1 POP SWAP3 SWAP2 POP POP JUMP JUMPDEST PUSH1 0x0 PUSH2 0x197F PUSH1 0x20 DUP5 ADD DUP5 PUSH2 0x141A JUMP JUMPDEST SWAP1 POP SWAP3 SWAP2 POP POP JUMP JUMPDEST PUSH1 0x0 PUSH1 0x20 DUP3 ADD SWAP1 POP SWAP2 SWAP1 POP JUMP JUMPDEST PUSH1 0x0 PUSH2 0x19A0 DUP4 DUP6 PUSH2 0x1934 JUMP JUMPDEST SWAP4 POP PUSH2 0x19AB DUP3 PUSH2 0x193F JUMP JUMPDEST DUP1 PUSH1 0x0 JUMPDEST DUP6 DUP2 LT ISZERO PUSH2 0x19E4 JUMPI PUSH2 0x19C1 DUP3 DUP5 PUSH2 0x1970 JUMP JUMPDEST PUSH2 0x19CB DUP9 DUP3 PUSH2 0x1958 JUMP JUMPDEST SWAP8 POP PUSH2 0x19D6 DUP4 PUSH2 0x1987 JUMP JUMPDEST SWAP3 POP POP PUSH1 0x1 DUP2 ADD SWAP1 POP PUSH2 0x19AF JUMP JUMPDEST POP DUP6 SWAP3 POP POP POP SWAP4 SWAP3 POP POP POP JUMP JUMPDEST PUSH1 0x0 PUSH2 0x19FE DUP3 DUP5 DUP7 PUSH2 0x1994 JUMP JUMPDEST SWAP2 POP DUP2 SWAP1 POP SWAP4 SWAP3 POP POP POP JUMP JUMPDEST PUSH1 0x0 DUP3 DUP3 MSTORE PUSH1 0x20 DUP3 ADD SWAP1 POP SWAP3 SWAP2 POP POP JUMP JUMPDEST PUSH1 0x0 DUP1 REVERT JUMPDEST DUP3 DUP2 DUP4 CALLDATACOPY POP POP POP JUMP JUMPDEST PUSH1 0x0 PUSH2 0x1A35 DUP4 DUP6 PUSH2 0x1A0A JUMP JUMPDEST SWAP4 POP PUSH32 0x7FFFFFFFFFFFFFFFFFFFFFFFFFFFFFFFFFFFFFFFFFFFFFFFFFFFFFFFFFFFFFF DUP4 GT ISZERO PUSH2 0x1A68 JUMPI PUSH2 0x1A67 PUSH2 0x1A1B JUMP JUMPDEST JUMPDEST PUSH1 0x20 DUP4 MUL SWAP3 POP PUSH2 0x1A79 DUP4 DUP6 DUP5 PUSH2 0x1A20 JUMP JUMPDEST DUP3 DUP5 ADD SWAP1 POP SWAP4 SWAP3 POP POP POP JUMP JUMPDEST DUP3 DUP2 DUP4 CALLDATACOPY PUSH1 0x0 DUP4 DUP4 ADD MSTORE POP POP POP JUMP JUMPDEST PUSH1 0x0 PUSH1 0x1F NOT PUSH1 0x1F DUP4 ADD AND SWAP1 POP SWAP2 SWAP1 POP JUMP JUMPDEST PUSH1 0x0 PUSH2 0x1AB1 DUP4 DUP6 PUSH2 0x1699 JUMP JUMPDEST SWAP4 POP PUSH2 0x1ABE DUP4 DUP6 DUP5 PUSH2 0x1A85 JUMP JUMPDEST PUSH2 0x1AC7 DUP4 PUSH2 0x1A94 JUMP JUMPDEST DUP5 ADD SWAP1 POP SWAP4 SWAP3 POP POP POP JUMP JUMPDEST PUSH1 0x0 PUSH1 0x40 DUP3 ADD SWAP1 POP DUP2 DUP2 SUB PUSH1 0x0 DUP4 ADD MSTORE PUSH2 0x1AED DUP2 DUP7 DUP9 PUSH2 0x1A29 JUMP JUMPDEST SWAP1 POP DUP2 DUP2 SUB PUSH1 0x20 DUP4 ADD MSTORE PUSH2 0x1B02 DUP2 DUP5 DUP7 PUSH2 0x1AA5 JUMP JUMPDEST SWAP1 POP SWAP6 SWAP5 POP POP POP POP POP JUMP JUMPDEST PUSH1 0x0 PUSH2 0x1B18 DUP3 PUSH2 0x142F JUMP JUMPDEST SWAP2 POP PUSH2 0x1B23 DUP4 PUSH2 0x142F JUMP JUMPDEST SWAP3 POP DUP3 DUP3 ADD SWAP1 POP DUP1 DUP3 GT ISZERO PUSH2 0x1B3B JUMPI PUSH2 0x1B3A PUSH2 0x1889 JUMP JUMPDEST JUMPDEST SWAP3 SWAP2 POP POP JUMP JUMPDEST PUSH32 0x616D6F756E74206F766572666C6F770000000000000000000000000000000000 PUSH1 0x0 DUP3 ADD MSTORE POP JUMP JUMPDEST PUSH1 0x0 PUSH2 0x1B77 PUSH1 0xF DUP4 PUSH2 0x1699 JUMP JUMPDEST SWAP2 POP PUSH2 0x1B82 DUP3 PUSH2 0x1B41 JUMP JUMPDEST PUSH1 0x20 DUP3 ADD SWAP1 POP SWAP2 SWAP1 POP JUMP JUMPDEST PUSH1 0x0 PUSH1 0x20 DUP3 ADD SWAP1 POP DUP2 DUP2 SUB PUSH1 0x0 DUP4 ADD MSTORE PUSH2 0x1BA6 DUP2 PUSH2 0x1B6A JUMP JUMPDEST SWAP1 POP SWAP2 SWAP1 POP JUMP JUMPDEST PUSH1 0x0 PUSH1 0x40 DUP3 ADD SWAP1 POP PUSH2 0x1BC2 PUSH1 0x0 DUP4 ADD DUP7 PUSH2 0x1645 JUMP JUMPDEST DUP2 DUP2 SUB PUSH1 0x20 DUP4 ADD MSTORE PUSH2 0x1BD5 DUP2 DUP5 DUP7 PUSH2 0x1AA5 JUMP JUMPDEST SWAP1 POP SWAP5 SWAP4 POP POP POP POP JUMP JUMPDEST PUSH32 0x746F206661696C00000000000000000000000000000000000000000000000000 PUSH1 0x0 DUP3 ADD MSTORE POP JUMP JUMPDEST PUSH1 0x0 PUSH2 0x1C15 PUSH1 0x7 DUP4 PUSH2 0x1699 JUMP JUMPDEST SWAP2 POP PUSH2 0x1C20 DUP3 PUSH2 0x1BDF JUMP JUMPDEST PUSH1 0x20 DUP3 ADD SWAP1 POP SWAP2 SWAP1 POP JUMP JUMPDEST PUSH1 0x0 PUSH1 0x20 DUP3 ADD SWAP1 POP DUP2 DUP2 SUB PUSH1 0x0 DUP4 ADD MSTORE PUSH2 0x1C44 DUP2 PUSH2 0x1C08 JUMP JUMPDEST SWAP1 POP SWAP2 SWAP1 POP JUMP JUMPDEST PUSH32 0x6F726465724964206661696C0000000000000000000000000000000000000000 PUSH1 0x0 DUP3 ADD MSTORE POP JUMP JUMPDEST PUSH1 0x0 PUSH2 0x1C81 PUSH1 0xC DUP4 PUSH2 0x1699 JUMP JUMPDEST SWAP2 POP PUSH2 0x1C8C DUP3 PUSH2 0x1C4B JUMP JUMPDEST PUSH1 0x20 DUP3 ADD SWAP1 POP SWAP2 SWAP1 POP JUMP JUMPDEST PUSH1 0x0 PUSH1 0x20 DUP3 ADD SWAP1 POP DUP2 DUP2 SUB PUSH1 0x0 DUP4 ADD MSTORE PUSH2 0x1CB0 DUP2 PUSH2 0x1C74 JUMP JUMPDEST SWAP1 POP SWAP2 SWAP1 POP JUMP JUMPDEST PUSH1 0x0 DUP3 DUP3 MSTORE PUSH1 0x20 DUP3 ADD SWAP1 POP SWAP3 SWAP2 POP POP JUMP JUMPDEST PUSH1 0x0 DUP2 SWAP1 POP SWAP2 SWAP1 POP JUMP JUMPDEST PUSH1 0x0 DUP3 DUP3 MSTORE PUSH1 0x20 DUP3 ADD SWAP1 POP SWAP3 SWAP2 POP POP JUMP JUMPDEST PUSH1 0x0 PUSH2 0x1CEF DUP4 DUP6 PUSH2 0x1CD2 JUMP JUMPDEST SWAP4 POP PUSH2 0x1CFC DUP4 DUP6 DUP5 PUSH2 0x1A85 JUMP JUMPDEST PUSH2 0x1D05 DUP4 PUSH2 0x1A94 JUMP JUMPDEST DUP5 ADD SWAP1 POP SWAP4 SWAP3 POP POP POP JUMP JUMPDEST PUSH1 0x0 PUSH2 0x1D1D DUP5 DUP5 DUP5 PUSH2 0x1CE3 JUMP JUMPDEST SWAP1 POP SWAP4 SWAP3 POP POP POP JUMP JUMPDEST PUSH1 0x0 DUP1 REVERT JUMPDEST PUSH1 0x0 DUP1 REVERT JUMPDEST PUSH1 0x0 DUP1 REVERT JUMPDEST PUSH1 0x0 DUP1 DUP4 CALLDATALOAD PUSH1 0x1 PUSH1 0x20 SUB DUP5 CALLDATASIZE SUB SUB DUP2 SLT PUSH2 0x1D52 JUMPI PUSH2 0x1D51 PUSH2 0x1D30 JUMP JUMPDEST JUMPDEST DUP4 DUP2 ADD SWAP3 POP DUP3 CALLDATALOAD SWAP2 POP PUSH1 0x20 DUP4 ADD SWAP3 POP PUSH8 0xFFFFFFFFFFFFFFFF DUP3 GT ISZERO PUSH2 0x1D7A JUMPI PUSH2 0x1D79 PUSH2 0x1D26 JUMP JUMPDEST JUMPDEST PUSH1 0x1 DUP3 MUL CALLDATASIZE SUB DUP4 SGT ISZERO PUSH2 0x1D90 JUMPI PUSH2 0x1D8F PUSH2 0x1D2B JUMP JUMPDEST JUMPDEST POP SWAP3 POP SWAP3 SWAP1 POP JUMP JUMPDEST PUSH1 0x0 PUSH1 0x20 DUP3 ADD SWAP1 POP SWAP2 SWAP1 POP JUMP JUMPDEST PUSH1 0x0 PUSH2 0x1DB1 DUP4 DUP6 PUSH2 0x1CB7 JUMP JUMPDEST SWAP4 POP DUP4 PUSH1 0x20 DUP5 MUL DUP6 ADD PUSH2 0x1DC3 DUP5 PUSH2 0x1CC8 JUMP JUMPDEST DUP1 PUSH1 0x0 JUMPDEST DUP8 DUP2 LT ISZERO PUSH2 0x1E09 JUMPI DUP5 DUP5 SUB DUP10 MSTORE PUSH2 0x1DDE DUP3 DUP5 PUSH2 0x1D35 JUMP JUMPDEST PUSH2 0x1DE9 DUP7 DUP3 DUP5 PUSH2 0x1D10 JUMP JUMPDEST SWAP6 POP PUSH2 0x1DF4 DUP5 PUSH2 0x1D98 JUMP JUMPDEST SWAP4 POP PUSH1 0x20 DUP12 ADD SWAP11 POP POP POP PUSH1 0x1 DUP2 ADD SWAP1 POP PUSH2 0x1DC7 JUMP JUMPDEST POP DUP3 SWAP8 POP DUP8 SWAP5 POP POP POP POP POP SWAP4 SWAP3 POP POP POP JUMP JUMPDEST PUSH1 0x0 PUSH1 0x40 DUP3 ADD SWAP1 POP DUP2 DUP2 SUB PUSH1 0x0 DUP4 ADD MSTORE PUSH2 0x1E36 DUP2 DUP7 DUP9 PUSH2 0x1A29 JUMP JUMPDEST SWAP1 POP DUP2 DUP2 SUB PUSH1 0x20 DUP4 ADD MSTORE PUSH2 0x1E4B DUP2 DUP5 DUP7 PUSH2 0x1DA5 JUMP JUMPDEST SWAP1 POP SWAP6 SWAP5 POP POP POP POP POP JUMP JUMPDEST PUSH32 0x4F776E61626C653A206E6577206F776E657220697320746865207A65726F2061 PUSH1 0x0 DUP3 ADD MSTORE PUSH32 0x6464726573730000000000000000000000000000000000000000000000000000 PUSH1 0x20 DUP3 ADD MSTORE POP JUMP JUMPDEST PUSH1 0x0 PUSH2 0x1EB2 PUSH1 0x26 DUP4 PUSH2 0x1699 JUMP JUMPDEST SWAP2 POP PUSH2 0x1EBD DUP3 PUSH2 0x1E56 JUMP JUMPDEST PUSH1 0x40 DUP3 ADD SWAP1 POP SWAP2 SWAP1 POP JUMP JUMPDEST PUSH1 0x0 PUSH1 0x20 DUP3 ADD SWAP1 POP DUP2 DUP2 SUB PUSH1 0x0 DUP4 ADD MSTORE PUSH2 0x1EE1 DUP2 PUSH2 0x1EA5 JUMP JUMPDEST SWAP1 POP SWAP2 SWAP1 POP JUMP JUMPDEST PUSH32 0x4F776E61626C653A2063616C6C6572206973206E6F7420746865206F776E6572 PUSH1 0x0 DUP3 ADD MSTORE POP JUMP JUMPDEST PUSH1 0x0 PUSH2 0x1F1E PUSH1 0x20 DUP4 PUSH2 0x1699 JUMP JUMPDEST SWAP2 POP PUSH2 0x1F29 DUP3 PUSH2 0x1EE8 JUMP JUMPDEST PUSH1 0x20 DUP3 ADD SWAP1 POP SWAP2 SWAP1 POP JUMP JUMPDEST PUSH1 0x0 PUSH1 0x20 DUP3 ADD SWAP1 POP DUP2 DUP2 SUB PUSH1 0x0 DUP4 ADD MSTORE PUSH2 0x1F4D DUP2 PUSH2 0x1F11 JUMP JUMPDEST SWAP1 POP SWAP2 SWAP1 POP JUMP JUMPDEST PUSH1 0x0 PUSH1 0x40 DUP3 ADD SWAP1 POP PUSH2 0x1F69 PUSH1 0x0 DUP4 ADD DUP6 PUSH2 0x166F JUMP JUMPDEST PUSH2 0x1F76 PUSH1 0x20 DUP4 ADD DUP5 PUSH2 0x1645 JUMP JUMPDEST SWAP4 SWAP3 POP POP POP JUMP JUMPDEST PUSH1 0x0 PUSH1 0x60 DUP3 ADD SWAP1 POP PUSH2 0x1F92 PUSH1 0x0 DUP4 ADD DUP7 PUSH2 0x166F JUMP JUMPDEST PUSH2 0x1F9F PUSH1 0x20 DUP4 ADD DUP6 PUSH2 0x166F JUMP JUMPDEST PUSH2 0x1FAC PUSH1 0x40 DUP4 ADD DUP5 PUSH2 0x1645 JUMP JUMPDEST SWAP5 SWAP4 POP POP POP POP JUMP JUMPDEST PUSH1 0x0 DUP2 ISZERO ISZERO SWAP1 POP SWAP2 SWAP1 POP JUMP JUMPDEST PUSH2 0x1FC9 DUP2 PUSH2 0x1FB4 JUMP JUMPDEST DUP2 EQ PUSH2 0x1FD4 JUMPI PUSH1 0x0 DUP1 REVERT JUMPDEST POP JUMP JUMPDEST PUSH1 0x0 DUP2 MLOAD SWAP1 POP PUSH2 0x1FE6 DUP2 PUSH2 0x1FC0 JUMP JUMPDEST SWAP3 SWAP2 POP POP JUMP JUMPDEST PUSH1 0x0 PUSH1 0x20 DUP3 DUP5 SUB SLT ISZERO PUSH2 0x2002 JUMPI PUSH2 0x2001 PUSH2 0x1202 JUMP JUMPDEST JUMPDEST PUSH1 0x0 PUSH2 0x2010 DUP5 DUP3 DUP6 ADD PUSH2 0x1FD7 JUMP JUMPDEST SWAP2 POP POP SWAP3 SWAP2 POP POP JUMP JUMPDEST PUSH32 0x5361666545524332303A204552433230206F7065726174696F6E20646964206E PUSH1 0x0 DUP3 ADD MSTORE PUSH32 0x6F74207375636365656400000000000000000000000000000000000000000000 PUSH1 0x20 DUP3 ADD MSTORE POP JUMP JUMPDEST PUSH1 0x0 PUSH2 0x2075 PUSH1 0x2A DUP4 PUSH2 0x1699 JUMP JUMPDEST SWAP2 POP PUSH2 0x2080 DUP3 PUSH2 0x2019 JUMP JUMPDEST PUSH1 0x40 DUP3 ADD SWAP1 POP SWAP2 SWAP1 POP JUMP JUMPDEST PUSH1 0x0 PUSH1 0x20 DUP3 ADD SWAP1 POP DUP2 DUP2 SUB PUSH1 0x0 DUP4 ADD MSTORE PUSH2 0x20A4 DUP2 PUSH2 0x2068 JUMP JUMPDEST SWAP1 POP SWAP2 SWAP1 POP JUMP JUMPDEST PUSH32 0x416464726573733A20696E73756666696369656E742062616C616E636520666F PUSH1 0x0 DUP3 ADD MSTORE PUSH32 0x722063616C6C0000000000000000000000000000000000000000000000000000 PUSH1 0x20 DUP3 ADD MSTORE POP JUMP JUMPDEST PUSH1 0x0 PUSH2 0x2107 PUSH1 0x26 DUP4 PUSH2 0x1699 JUMP JUMPDEST SWAP2 POP PUSH2 0x2112 DUP3 PUSH2 0x20AB JUMP JUMPDEST PUSH1 0x40 DUP3 ADD SWAP1 POP SWAP2 SWAP1 POP JUMP JUMPDEST PUSH1 0x0 PUSH1 0x20 DUP3 ADD SWAP1 POP DUP2 DUP2 SUB PUSH1 0x0 DUP4 ADD MSTORE PUSH2 0x2136 DUP2 PUSH2 0x20FA JUMP JUMPDEST SWAP1 POP SWAP2 SWAP1 POP JUMP JUMPDEST PUSH1 0x0 DUP2 MLOAD SWAP1 POP SWAP2 SWAP1 POP JUMP JUMPDEST PUSH1 0x0 DUP2 SWAP1 POP SWAP3 SWAP2 POP POP JUMP JUMPDEST PUSH1 0x0 JUMPDEST DUP4 DUP2 LT ISZERO PUSH2 0x2171 JUMPI DUP1 DUP3 ADD MLOAD DUP2 DUP5 ADD MSTORE PUSH1 0x20 DUP2 ADD SWAP1 POP PUSH2 0x2156 JUMP JUMPDEST PUSH1 0x0 DUP5 DUP5 ADD MSTORE POP POP POP POP JUMP JUMPDEST PUSH1 0x0 PUSH2 0x2188 DUP3 PUSH2 0x213D JUMP JUMPDEST PUSH2 0x2192 DUP2 DUP6 PUSH2 0x2148 JUMP JUMPDEST SWAP4 POP PUSH2 0x21A2 DUP2 DUP6 PUSH1 0x20 DUP7 ADD PUSH2 0x2153 JUMP JUMPDEST DUP1 DUP5 ADD SWAP2 POP POP SWAP3 SWAP2 POP POP JUMP JUMPDEST PUSH1 0x0 PUSH2 0x21BA DUP3 DUP5 PUSH2 0x217D JUMP JUMPDEST SWAP2 POP DUP2 SWAP1 POP SWAP3 SWAP2 POP POP JUMP JUMPDEST PUSH32 0x416464726573733A2063616C6C20746F206E6F6E2D636F6E7472616374000000 PUSH1 0x0 DUP3 ADD MSTORE POP JUMP JUMPDEST PUSH1 0x0 PUSH2 0x21FB PUSH1 0x1D DUP4 PUSH2 0x1699 JUMP JUMPDEST SWAP2 POP PUSH2 0x2206 DUP3 PUSH2 0x21C5 JUMP JUMPDEST PUSH1 0x20 DUP3 ADD SWAP1 POP SWAP2 SWAP1 POP JUMP JUMPDEST PUSH1 0x0 PUSH1 0x20 DUP3 ADD SWAP1 POP DUP2 DUP2 SUB PUSH1 0x0 DUP4 ADD MSTORE PUSH2 0x222A DUP2 PUSH2 0x21EE JUMP JUMPDEST SWAP1 POP SWAP2 SWAP1 POP JUMP JUMPDEST PUSH1 0x0 DUP2 MLOAD SWAP1 POP SWAP2 SWAP1 POP JUMP JUMPDEST PUSH1 0x0 PUSH2 0x2247 DUP3 PUSH2 0x2231 JUMP JUMPDEST PUSH2 0x2251 DUP2 DUP6 PUSH2 0x1699 JUMP JUMPDEST SWAP4 POP PUSH2 0x2261 DUP2 DUP6 PUSH1 0x20 DUP7 ADD PUSH2 0x2153 JUMP JUMPDEST PUSH2 0x226A DUP2 PUSH2 0x1A94 JUMP JUMPDEST DUP5 ADD SWAP2 POP POP SWAP3 SWAP2 POP POP JUMP JUMPDEST PUSH1 0x0 PUSH1 0x20 DUP3 ADD SWAP1 POP DUP2 DUP2 SUB PUSH1 0x0 DUP4 ADD MSTORE PUSH2 0x228F DUP2 DUP5 PUSH2 0x223C JUMP JUMPDEST SWAP1 POP SWAP3 SWAP2 POP POP JUMP INVALID LOG2 PUSH5 0x6970667358 0x22 SLT KECCAK256 CODESIZE 0x5E RETURN LT 0x2D MSIZE 0xCA 0xEE 0xCE LOG1 SGT 0x22 0xF7 0xAD PUSH21 0xAC46C3044E4EEE7521226843A33CE3FBAC64736F6C PUSH4 0x43000812 STOP CALLER "
				},
				"gasEstimates": {
					"creation": {
						"codeDepositCost": "1781800",
						"executionCost": "infinite",
						"totalCost": "infinite"
					},
					"external": {
						"balanceOf(address)": "2841",
						"owner()": "2566",
						"pay(address,uint256,string)": "infinite",
						"refund(address[],uint256[],address[],string[])": "infinite",
						"renounceOwnership()": "30420",
						"transferOwnership(address)": "30810",
						"withdraw(address[],uint256[],string)": "infinite"
					}
				},
				"methodIdentifiers": {
					"balanceOf(address)": "70a08231",
					"owner()": "8da5cb5b",
					"pay(address,uint256,string)": "4a4bdb30",
					"refund(address[],uint256[],address[],string[])": "56edb469",
					"renounceOwnership()": "715018a6",
					"transferOwnership(address)": "f2fde38b",
					"withdraw(address[],uint256[],string)": "17e78b6c"
				}
			},
			"storageLayout": {
				"storage": [
					{
						"astId": 7,
						"contract": "contracts/CurrencyReceiver.sol:CurrencyReceiver",
						"label": "_owner",
						"offset": 0,
						"slot": "0",
						"type": "t_address"
					},
					{
						"astId": 877,
						"contract": "contracts/CurrencyReceiver.sol:CurrencyReceiver",
						"label": "_balanceOf",
						"offset": 0,
						"slot": "1",
						"type": "t_mapping(t_address,t_uint256)"
					}
				],
				"types": {
					"t_address": {
						"encoding": "inplace",
						"label": "address",
						"numberOfBytes": "20"
					},
					"t_mapping(t_address,t_uint256)": {
						"encoding": "mapping",
						"key": "t_address",
						"label": "mapping(address => uint256)",
						"numberOfBytes": "32",
						"value": "t_uint256"
					},
					"t_uint256": {
						"encoding": "inplace",
						"label": "uint256",
						"numberOfBytes": "32"
					}
				}
			},
			"userdoc": {
				"kind": "user",
				"methods": {},
				"version": 1
			}
		}
	}
}