{
  "_format": "hh-sol-artifact-1",
  "contractName": "BeeWharf",
  "sourceName": "contracts/BeeWharf.sol",
  "abi": [
    {
      "inputs": [],
      "stateMutability": "nonpayable",
      "type": "constructor"
    },
    {
      "inputs": [
        {
          "internalType": "uint256",
          "name": "amount",
          "type": "uint256"
        },
        {
          "internalType": "bytes32",
          "name": "symbol",
          "type": "bytes32"
        }
      ],
      "name": "depositTokens",
      "outputs": [],
      "stateMutability": "nonpayable",
      "type": "function"
    },
    {
      "inputs": [
        {
          "internalType": "bytes32",
          "name": "symbol",
          "type": "bytes32"
        },
        {
          "internalType": "address",
          "name": "tokenAddress",
          "type": "address"
        }
      ],
      "name": "whitelistToken",
      "outputs": [],
      "stateMutability": "nonpayable",
      "type": "function"
    },
    {
      "inputs": [
        {
          "internalType": "bytes32",
          "name": "",
          "type": "bytes32"
        }
      ],
      "name": "whitelistedTokens",
      "outputs": [
        {
          "internalType": "address",
          "name": "",
          "type": "address"
        }
      ],
      "stateMutability": "view",
      "type": "function"
    },
    {
      "inputs": [
        {
          "internalType": "uint256",
          "name": "amount",
          "type": "uint256"
        },
        {
          "internalType": "bytes32",
          "name": "symbol",
          "type": "bytes32"
        }
      ],
      "name": "withdrawTokens",
      "outputs": [],
      "stateMutability": "nonpayable",
      "type": "function"
    }
  ],
  "bytecode": "0x608060405234801561001057600080fd5b5033600260006101000a81548173ffffffffffffffffffffffffffffffffffffffff021916908373ffffffffffffffffffffffffffffffffffffffff1602179055506000604051602001610063906101a4565b604051602081830303815290604052805190602001209050600060405160200161008c90610205565b6040516020818303038152906040528051906020012090503360008084815260200190815260200160002060006101000a81548173ffffffffffffffffffffffffffffffffffffffff021916908373ffffffffffffffffffffffffffffffffffffffff1602179055503360008083815260200190815260200160002060006101000a81548173ffffffffffffffffffffffffffffffffffffffff021916908373ffffffffffffffffffffffffffffffffffffffff160217905550505061021a565b600081905092915050565b7f5553445400000000000000000000000000000000000000000000000000000000600082015250565b600061018e60048361014d565b915061019982610158565b600482019050919050565b60006101af82610181565b9150819050919050565b7f5553444300000000000000000000000000000000000000000000000000000000600082015250565b60006101ef60048361014d565b91506101fa826101b9565b600482019050919050565b6000610210826101e2565b9150819050919050565b61097a806102296000396000f3fe608060405234801561001057600080fd5b506004361061004c5760003560e01c8063069fdaae146100515780638f97994b1461006d578063aa3d9a1514610089578063d15b223e146100b9575b600080fd5b61006b600480360381019061006691906105e3565b6100d5565b005b61008760048036038101906100829190610659565b6101ba565b005b6100a3600480360381019061009e9190610699565b6103f9565b6040516100b091906106d5565b60405180910390f35b6100d360048036038101906100ce9190610659565b61042c565b005b600260009054906101000a900473ffffffffffffffffffffffffffffffffffffffff1673ffffffffffffffffffffffffffffffffffffffff163373ffffffffffffffffffffffffffffffffffffffff1614610165576040517f08c379a000000000000000000000000000000000000000000000000000000000815260040161015c9061074d565b60405180910390fd5b8060008084815260200190815260200160002060006101000a81548173ffffffffffffffffffffffffffffffffffffffff021916908373ffffffffffffffffffffffffffffffffffffffff1602179055505050565b600260009054906101000a900473ffffffffffffffffffffffffffffffffffffffff1673ffffffffffffffffffffffffffffffffffffffff163373ffffffffffffffffffffffffffffffffffffffff161461024a576040517f08c379a00000000000000000000000000000000000000000000000000000000081526004016102419061074d565b60405180910390fd5b81600160003373ffffffffffffffffffffffffffffffffffffffff1673ffffffffffffffffffffffffffffffffffffffff16815260200190815260200160002060008381526020019081526020016000205410156102dd576040517f08c379a00000000000000000000000000000000000000000000000000000000081526004016102d4906107b9565b60405180910390fd5b81600160003373ffffffffffffffffffffffffffffffffffffffff1673ffffffffffffffffffffffffffffffffffffffff1681526020019081526020016000206000838152602001908152602001600020600082825461033d9190610808565b9250508190555060008082815260200190815260200160002060009054906101000a900473ffffffffffffffffffffffffffffffffffffffff1673ffffffffffffffffffffffffffffffffffffffff1663a9059cbb33846040518363ffffffff1660e01b81526004016103b192919061084b565b6020604051808303816000875af11580156103d0573d6000803e3d6000fd5b505050506040513d601f19601f820116820180604052508101906103f491906108ac565b505050565b60006020528060005260406000206000915054906101000a900473ffffffffffffffffffffffffffffffffffffffff1681565b81600160003373ffffffffffffffffffffffffffffffffffffffff1673ffffffffffffffffffffffffffffffffffffffff1681526020019081526020016000206000838152602001908152602001600020600082825461048c91906108d9565b9250508190555060008082815260200190815260200160002060009054906101000a900473ffffffffffffffffffffffffffffffffffffffff1673ffffffffffffffffffffffffffffffffffffffff166323b872dd3330856040518463ffffffff1660e01b81526004016105029392919061090d565b6020604051808303816000875af1158015610521573d6000803e3d6000fd5b505050506040513d601f19601f8201168201806040525081019061054591906108ac565b505050565b600080fd5b6000819050919050565b6105628161054f565b811461056d57600080fd5b50565b60008135905061057f81610559565b92915050565b600073ffffffffffffffffffffffffffffffffffffffff82169050919050565b60006105b082610585565b9050919050565b6105c0816105a5565b81146105cb57600080fd5b50565b6000813590506105dd816105b7565b92915050565b600080604083850312156105fa576105f961054a565b5b600061060885828601610570565b9250506020610619858286016105ce565b9150509250929050565b6000819050919050565b61063681610623565b811461064157600080fd5b50565b6000813590506106538161062d565b92915050565b600080604083850312156106705761066f61054a565b5b600061067e85828601610644565b925050602061068f85828601610570565b9150509250929050565b6000602082840312156106af576106ae61054a565b5b60006106bd84828501610570565b91505092915050565b6106cf816105a5565b82525050565b60006020820190506106ea60008301846106c6565b92915050565b600082825260208201905092915050565b7f546869732066756e6374696f6e206973206e6f74207075626c69630000000000600082015250565b6000610737601b836106f0565b915061074282610701565b602082019050919050565b600060208201905081810360008301526107668161072a565b9050919050565b7f496e73756666696369656e742066756e64730000000000000000000000000000600082015250565b60006107a36012836106f0565b91506107ae8261076d565b602082019050919050565b600060208201905081810360008301526107d281610796565b9050919050565b7f4e487b7100000000000000000000000000000000000000000000000000000000600052601160045260246000fd5b600061081382610623565b915061081e83610623565b9250828203905081811115610836576108356107d9565b5b92915050565b61084581610623565b82525050565b600060408201905061086060008301856106c6565b61086d602083018461083c565b9392505050565b60008115159050919050565b61088981610874565b811461089457600080fd5b50565b6000815190506108a681610880565b92915050565b6000602082840312156108c2576108c161054a565b5b60006108d084828501610897565b91505092915050565b60006108e482610623565b91506108ef83610623565b9250828201905080821115610907576109066107d9565b5b92915050565b600060608201905061092260008301866106c6565b61092f60208301856106c6565b61093c604083018461083c565b94935050505056fea2646970667358221220288cee0c25a66cc9af94e8f61acc2b7eca44d66ff82467f4fbea52c4059d04d464736f6c63430008110033",
  "linkReferences": {},
  "deployedLinkReferences": {}
}